{
	"Echochain.sol": {
		"EchoChain": {
			"abi": [
				{
					"anonymous": false,
					"inputs": [
						{
							"indexed": true,
							"internalType": "address",
							"name": "follower",
							"type": "address"
						},
						{
							"indexed": true,
							"internalType": "address",
							"name": "artist",
							"type": "address"
						}
					],
					"name": "Followed",
					"type": "event"
				},
				{
					"anonymous": false,
					"inputs": [
						{
							"indexed": true,
							"internalType": "uint256",
							"name": "tokenId",
							"type": "uint256"
						},
						{
							"indexed": true,
							"internalType": "address",
							"name": "sender",
							"type": "address"
						}
					],
					"name": "MessageSent",
					"type": "event"
				},
				{
					"anonymous": false,
					"inputs": [
						{
							"indexed": true,
							"internalType": "uint256",
							"name": "tokenId",
							"type": "uint256"
						},
						{
							"indexed": true,
							"internalType": "address",
							"name": "buyer",
							"type": "address"
						},
						{
							"indexed": false,
							"internalType": "uint256",
							"name": "price",
							"type": "uint256"
						}
					],
					"name": "MusicBought",
					"type": "event"
				},
				{
					"anonymous": false,
					"inputs": [
						{
							"indexed": true,
							"internalType": "uint256",
							"name": "tokenId",
							"type": "uint256"
						},
						{
							"indexed": true,
							"internalType": "address",
							"name": "liker",
							"type": "address"
						}
					],
					"name": "MusicLiked",
					"type": "event"
				},
				{
					"anonymous": false,
					"inputs": [
						{
							"indexed": true,
							"internalType": "uint256",
							"name": "tokenId",
							"type": "uint256"
						},
						{
							"indexed": true,
							"internalType": "address",
							"name": "author",
							"type": "address"
						},
						{
							"indexed": false,
							"internalType": "uint256",
							"name": "price",
							"type": "uint256"
						}
					],
					"name": "MusicUploaded",
					"type": "event"
				},
				{
					"anonymous": false,
					"inputs": [
						{
							"indexed": true,
							"internalType": "uint256",
							"name": "tokenId",
							"type": "uint256"
						},
						{
							"indexed": true,
							"internalType": "address",
							"name": "bidder",
							"type": "address"
						},
						{
							"indexed": false,
							"internalType": "uint256",
							"name": "amount",
							"type": "uint256"
						}
					],
					"name": "NewBidPlaced",
					"type": "event"
				},
				{
					"inputs": [
						{
							"internalType": "uint256",
							"name": "tokenId",
							"type": "uint256"
						}
					],
					"name": "acceptBid",
					"outputs": [],
					"stateMutability": "nonpayable",
					"type": "function"
				},
				{
					"inputs": [
						{
							"internalType": "uint256",
							"name": "tokenId",
							"type": "uint256"
						}
					],
					"name": "buyMusic",
					"outputs": [],
					"stateMutability": "payable",
					"type": "function"
				},
				{
					"inputs": [
						{
							"internalType": "address",
							"name": "artist",
							"type": "address"
						}
					],
					"name": "followArtist",
					"outputs": [],
					"stateMutability": "nonpayable",
					"type": "function"
				},
				{
					"inputs": [
						{
							"internalType": "uint256",
							"name": "tokenId",
							"type": "uint256"
						}
					],
					"name": "likeMusic",
					"outputs": [],
					"stateMutability": "nonpayable",
					"type": "function"
				},
				{
					"inputs": [
						{
							"internalType": "uint256",
							"name": "tokenId",
							"type": "uint256"
						}
					],
					"name": "placeBid",
					"outputs": [],
					"stateMutability": "payable",
					"type": "function"
				},
				{
					"inputs": [
						{
							"internalType": "uint256",
							"name": "tokenId",
							"type": "uint256"
						},
						{
							"internalType": "bytes",
							"name": "encryptedContent",
							"type": "bytes"
						}
					],
					"name": "sendMessage",
					"outputs": [],
					"stateMutability": "nonpayable",
					"type": "function"
				},
				{
					"inputs": [
						{
							"internalType": "uint256",
							"name": "_price",
							"type": "uint256"
						}
					],
					"name": "uploadMusic",
					"outputs": [],
					"stateMutability": "nonpayable",
					"type": "function"
				}
			],
			"devdoc": {
				"kind": "dev",
				"methods": {},
				"version": 1
			},
			"evm": {
				"assembly": "    /* \"Echochain.sol\":60:4366  contract EchoChain {... */\n  mstore(0x40, 0x80)\n  callvalue\n  dup1\n  iszero\n  tag_1\n  jumpi\n  0x00\n  dup1\n  revert\ntag_1:\n  pop\n  dataSize(sub_0)\n  dup1\n  dataOffset(sub_0)\n  0x00\n  codecopy\n  0x00\n  return\nstop\n\nsub_0: assembly {\n        /* \"Echochain.sol\":60:4366  contract EchoChain {... */\n      mstore(0x40, 0x80)\n      jumpi(tag_1, lt(calldatasize, 0x04))\n      shr(0xe0, calldataload(0x00))\n      dup1\n      0x6b792d5b\n      gt\n      tag_9\n      jumpi\n      dup1\n      0x6b792d5b\n      eq\n      tag_5\n      jumpi\n      dup1\n      0x9979ef45\n      eq\n      tag_6\n      jumpi\n      dup1\n      0xa432ba20\n      eq\n      tag_7\n      jumpi\n      dup1\n      0xe289adcd\n      eq\n      tag_8\n      jumpi\n      jump(tag_1)\n    tag_9:\n      dup1\n      0xba2c23\n      eq\n      tag_2\n      jumpi\n      dup1\n      0x2538c533\n      eq\n      tag_3\n      jumpi\n      dup1\n      0x2b1fd58a\n      eq\n      tag_4\n      jumpi\n    tag_1:\n      0x00\n      dup1\n      revert\n        /* \"Echochain.sol\":1320:1617  function uploadMusic(uint256 _price) external {... */\n    tag_2:\n      callvalue\n      dup1\n      iszero\n      tag_10\n      jumpi\n      0x00\n      dup1\n      revert\n    tag_10:\n      pop\n      tag_11\n      0x04\n      dup1\n      calldatasize\n      sub\n      dup2\n      add\n      swap1\n      tag_12\n      swap2\n      swap1\n      tag_13\n      jump\t// in\n    tag_12:\n      tag_14\n      jump\t// in\n    tag_11:\n      stop\n        /* \"Echochain.sol\":2789:3336  function buyMusic(uint256 tokenId) external payable {... */\n    tag_3:\n      tag_15\n      0x04\n      dup1\n      calldatasize\n      sub\n      dup2\n      add\n      swap1\n      tag_16\n      swap2\n      swap1\n      tag_13\n      jump\t// in\n    tag_16:\n      tag_17\n      jump\t// in\n    tag_15:\n      stop\n        /* \"Echochain.sol\":2376:2781  function acceptBid(uint256 tokenId) external {... */\n    tag_4:\n      callvalue\n      dup1\n      iszero\n      tag_18\n      jumpi\n      0x00\n      dup1\n      revert\n    tag_18:\n      pop\n      tag_19\n      0x04\n      dup1\n      calldatasize\n      sub\n      dup2\n      add\n      swap1\n      tag_20\n      swap2\n      swap1\n      tag_13\n      jump\t// in\n    tag_20:\n      tag_21\n      jump\t// in\n    tag_19:\n      stop\n        /* \"Echochain.sol\":1625:2001  function likeMusic(uint256 tokenId) external {... */\n    tag_5:\n      callvalue\n      dup1\n      iszero\n      tag_22\n      jumpi\n      0x00\n      dup1\n      revert\n    tag_22:\n      pop\n      tag_23\n      0x04\n      dup1\n      calldatasize\n      sub\n      dup2\n      add\n      swap1\n      tag_24\n      swap2\n      swap1\n      tag_13\n      jump\t// in\n    tag_24:\n      tag_25\n      jump\t// in\n    tag_23:\n      stop\n        /* \"Echochain.sol\":2009:2368  function placeBid(uint256 tokenId) external payable {... */\n    tag_6:\n      tag_26\n      0x04\n      dup1\n      calldatasize\n      sub\n      dup2\n      add\n      swap1\n      tag_27\n      swap2\n      swap1\n      tag_13\n      jump\t// in\n    tag_27:\n      tag_28\n      jump\t// in\n    tag_26:\n      stop\n        /* \"Echochain.sol\":3859:4073  function followArtist(address artist) external {... */\n    tag_7:\n      callvalue\n      dup1\n      iszero\n      tag_29\n      jumpi\n      0x00\n      dup1\n      revert\n    tag_29:\n      pop\n      tag_30\n      0x04\n      dup1\n      calldatasize\n      sub\n      dup2\n      add\n      swap1\n      tag_31\n      swap2\n      swap1\n      tag_32\n      jump\t// in\n    tag_31:\n      tag_33\n      jump\t// in\n    tag_30:\n      stop\n        /* \"Echochain.sol\":3344:3851  function sendMessage(uint256 tokenId, bytes memory encryptedContent) external {... */\n    tag_8:\n      callvalue\n      dup1\n      iszero\n      tag_34\n      jumpi\n      0x00\n      dup1\n      revert\n    tag_34:\n      pop\n      tag_35\n      0x04\n      dup1\n      calldatasize\n      sub\n      dup2\n      add\n      swap1\n      tag_36\n      swap2\n      swap1\n      tag_37\n      jump\t// in\n    tag_36:\n      tag_38\n      jump\t// in\n    tag_35:\n      stop\n        /* \"Echochain.sol\":1320:1617  function uploadMusic(uint256 _price) external {... */\n    tag_14:\n        /* \"Echochain.sol\":1377:1395  uint256 newTokenId */\n      0x00\n        /* \"Echochain.sol\":1400:1415  _tokenIdCounter */\n      dup1\n      0x00\n        /* \"Echochain.sol\":1398:1415  ++_tokenIdCounter */\n      dup2\n      sload\n      tag_40\n      swap1\n      tag_41\n      jump\t// in\n    tag_40:\n      swap2\n      swap1\n      pop\n      dup2\n      swap1\n      sstore\n        /* \"Echochain.sol\":1377:1415  uint256 newTokenId = ++_tokenIdCounter */\n      swap1\n      pop\n        /* \"Echochain.sol\":1452:1506  MusicToken(newTokenId, payable(msg.sender), _price, 0) */\n      mload(0x40)\n      dup1\n      0x80\n      add\n      0x40\n      mstore\n      dup1\n        /* \"Echochain.sol\":1463:1473  newTokenId */\n      dup3\n        /* \"Echochain.sol\":1452:1506  MusicToken(newTokenId, payable(msg.sender), _price, 0) */\n      dup2\n      mstore\n      0x20\n      add\n        /* \"Echochain.sol\":1483:1493  msg.sender */\n      caller\n        /* \"Echochain.sol\":1452:1506  MusicToken(newTokenId, payable(msg.sender), _price, 0) */\n      0xffffffffffffffffffffffffffffffffffffffff\n      and\n      dup2\n      mstore\n      0x20\n      add\n        /* \"Echochain.sol\":1496:1502  _price */\n      dup4\n        /* \"Echochain.sol\":1452:1506  MusicToken(newTokenId, payable(msg.sender), _price, 0) */\n      dup2\n      mstore\n      0x20\n      add\n        /* \"Echochain.sol\":1504:1505  0 */\n      0x00\n        /* \"Echochain.sol\":1452:1506  MusicToken(newTokenId, payable(msg.sender), _price, 0) */\n      dup2\n      mstore\n      pop\n        /* \"Echochain.sol\":1426:1437  musicTokens */\n      0x01\n        /* \"Echochain.sol\":1426:1449  musicTokens[newTokenId] */\n      0x00\n        /* \"Echochain.sol\":1438:1448  newTokenId */\n      dup4\n        /* \"Echochain.sol\":1426:1449  musicTokens[newTokenId] */\n      dup2\n      mstore\n      0x20\n      add\n      swap1\n      dup2\n      mstore\n      0x20\n      add\n      0x00\n      keccak256\n        /* \"Echochain.sol\":1426:1506  musicTokens[newTokenId] = MusicToken(newTokenId, payable(msg.sender), _price, 0) */\n      0x00\n      dup3\n      add\n      mload\n      dup2\n      0x00\n      add\n      sstore\n      0x20\n      dup3\n      add\n      mload\n      dup2\n      0x01\n      add\n      exp(0x0100, 0x00)\n      dup2\n      sload\n      dup2\n      0xffffffffffffffffffffffffffffffffffffffff\n      mul\n      not\n      and\n      swap1\n      dup4\n      0xffffffffffffffffffffffffffffffffffffffff\n      and\n      mul\n      or\n      swap1\n      sstore\n      pop\n      0x40\n      dup3\n      add\n      mload\n      dup2\n      0x02\n      add\n      sstore\n      0x60\n      dup3\n      add\n      mload\n      dup2\n      0x03\n      add\n      sstore\n      swap1\n      pop\n      pop\n        /* \"Echochain.sol\":1538:1548  msg.sender */\n      caller\n        /* \"Echochain.sol\":1517:1523  owners */\n      0x07\n        /* \"Echochain.sol\":1517:1535  owners[newTokenId] */\n      0x00\n        /* \"Echochain.sol\":1524:1534  newTokenId */\n      dup4\n        /* \"Echochain.sol\":1517:1535  owners[newTokenId] */\n      dup2\n      mstore\n      0x20\n      add\n      swap1\n      dup2\n      mstore\n      0x20\n      add\n      0x00\n      keccak256\n      0x00\n        /* \"Echochain.sol\":1517:1548  owners[newTokenId] = msg.sender */\n      0x0100\n      exp\n      dup2\n      sload\n      dup2\n      0xffffffffffffffffffffffffffffffffffffffff\n      mul\n      not\n      and\n      swap1\n      dup4\n      0xffffffffffffffffffffffffffffffffffffffff\n      and\n      mul\n      or\n      swap1\n      sstore\n      pop\n        /* \"Echochain.sol\":1590:1600  msg.sender */\n      caller\n        /* \"Echochain.sol\":1564:1609  MusicUploaded(newTokenId, msg.sender, _price) */\n      0xffffffffffffffffffffffffffffffffffffffff\n      and\n        /* \"Echochain.sol\":1578:1588  newTokenId */\n      dup2\n        /* \"Echochain.sol\":1564:1609  MusicUploaded(newTokenId, msg.sender, _price) */\n      0x31e6c864e2c622a7b4dafc2612fb4ca8ef303310a6ea7bd7afd1a325577de96d\n        /* \"Echochain.sol\":1602:1608  _price */\n      dup5\n        /* \"Echochain.sol\":1564:1609  MusicUploaded(newTokenId, msg.sender, _price) */\n      mload(0x40)\n      tag_42\n      swap2\n      swap1\n      tag_43\n      jump\t// in\n    tag_42:\n      mload(0x40)\n      dup1\n      swap2\n      sub\n      swap1\n      log3\n        /* \"Echochain.sol\":1366:1617  {... */\n      pop\n        /* \"Echochain.sol\":1320:1617  function uploadMusic(uint256 _price) external {... */\n      pop\n      jump\t// out\n        /* \"Echochain.sol\":2789:3336  function buyMusic(uint256 tokenId) external payable {... */\n    tag_17:\n        /* \"Echochain.sol\":2887:2888  0 */\n      0x00\n        /* \"Echochain.sol\":2860:2889  owners[tokenId] != address(0) */\n      0xffffffffffffffffffffffffffffffffffffffff\n      and\n        /* \"Echochain.sol\":2860:2866  owners */\n      0x07\n        /* \"Echochain.sol\":2860:2875  owners[tokenId] */\n      0x00\n        /* \"Echochain.sol\":2867:2874  tokenId */\n      dup4\n        /* \"Echochain.sol\":2860:2875  owners[tokenId] */\n      dup2\n      mstore\n      0x20\n      add\n      swap1\n      dup2\n      mstore\n      0x20\n      add\n      0x00\n      keccak256\n      0x00\n      swap1\n      sload\n      swap1\n      0x0100\n      exp\n      swap1\n      div\n      0xffffffffffffffffffffffffffffffffffffffff\n      and\n        /* \"Echochain.sol\":2860:2889  owners[tokenId] != address(0) */\n      0xffffffffffffffffffffffffffffffffffffffff\n      and\n      sub\n        /* \"Echochain.sol\":2852:2920  require(owners[tokenId] != address(0), \"Music Token does not exist\") */\n      tag_45\n      jumpi\n      mload(0x40)\n      0x08c379a000000000000000000000000000000000000000000000000000000000\n      dup2\n      mstore\n      0x04\n      add\n      tag_46\n      swap1\n      tag_47\n      jump\t// in\n    tag_46:\n      mload(0x40)\n      dup1\n      swap2\n      sub\n      swap1\n      revert\n    tag_45:\n        /* \"Echochain.sol\":2958:2968  msg.sender */\n      caller\n        /* \"Echochain.sol\":2939:2968  owners[tokenId] != msg.sender */\n      0xffffffffffffffffffffffffffffffffffffffff\n      and\n        /* \"Echochain.sol\":2939:2945  owners */\n      0x07\n        /* \"Echochain.sol\":2939:2954  owners[tokenId] */\n      0x00\n        /* \"Echochain.sol\":2946:2953  tokenId */\n      dup4\n        /* \"Echochain.sol\":2939:2954  owners[tokenId] */\n      dup2\n      mstore\n      0x20\n      add\n      swap1\n      dup2\n      mstore\n      0x20\n      add\n      0x00\n      keccak256\n      0x00\n      swap1\n      sload\n      swap1\n      0x0100\n      exp\n      swap1\n      div\n      0xffffffffffffffffffffffffffffffffffffffff\n      and\n        /* \"Echochain.sol\":2939:2968  owners[tokenId] != msg.sender */\n      0xffffffffffffffffffffffffffffffffffffffff\n      and\n      sub\n        /* \"Echochain.sol\":2931:3002  require(owners[tokenId] != msg.sender, \"You cannot buy your own music\") */\n      tag_48\n      jumpi\n      mload(0x40)\n      0x08c379a000000000000000000000000000000000000000000000000000000000\n      dup2\n      mstore\n      0x04\n      add\n      tag_49\n      swap1\n      tag_50\n      jump\t// in\n    tag_49:\n      mload(0x40)\n      dup1\n      swap2\n      sub\n      swap1\n      revert\n    tag_48:\n        /* \"Echochain.sol\":3034:3045  musicTokens */\n      0x01\n        /* \"Echochain.sol\":3034:3054  musicTokens[tokenId] */\n      0x00\n        /* \"Echochain.sol\":3046:3053  tokenId */\n      dup3\n        /* \"Echochain.sol\":3034:3054  musicTokens[tokenId] */\n      dup2\n      mstore\n      0x20\n      add\n      swap1\n      dup2\n      mstore\n      0x20\n      add\n      0x00\n      keccak256\n        /* \"Echochain.sol\":3034:3060  musicTokens[tokenId].price */\n      0x02\n      add\n      sload\n        /* \"Echochain.sol\":3021:3030  msg.value */\n      callvalue\n        /* \"Echochain.sol\":3021:3060  msg.value >= musicTokens[tokenId].price */\n      lt\n      iszero\n        /* \"Echochain.sol\":3013:3083  require(msg.value >= musicTokens[tokenId].price, \"Insufficient funds\") */\n      tag_51\n      jumpi\n      mload(0x40)\n      0x08c379a000000000000000000000000000000000000000000000000000000000\n      dup2\n      mstore\n      0x04\n      add\n      tag_52\n      swap1\n      tag_53\n      jump\t// in\n    tag_52:\n      mload(0x40)\n      dup1\n      swap2\n      sub\n      swap1\n      revert\n    tag_51:\n        /* \"Echochain.sol\":3096:3125  address payable previousOwner */\n      0x00\n        /* \"Echochain.sol\":3136:3142  owners */\n      0x07\n        /* \"Echochain.sol\":3136:3151  owners[tokenId] */\n      0x00\n        /* \"Echochain.sol\":3143:3150  tokenId */\n      dup4\n        /* \"Echochain.sol\":3136:3151  owners[tokenId] */\n      dup2\n      mstore\n      0x20\n      add\n      swap1\n      dup2\n      mstore\n      0x20\n      add\n      0x00\n      keccak256\n      0x00\n      swap1\n      sload\n      swap1\n      0x0100\n      exp\n      swap1\n      div\n      0xffffffffffffffffffffffffffffffffffffffff\n      and\n        /* \"Echochain.sol\":3096:3152  address payable previousOwner = payable(owners[tokenId]) */\n      swap1\n      pop\n        /* \"Echochain.sol\":3163:3176  previousOwner */\n      dup1\n        /* \"Echochain.sol\":3163:3185  previousOwner.transfer */\n      0xffffffffffffffffffffffffffffffffffffffff\n      and\n        /* \"Echochain.sol\":3163:3213  previousOwner.transfer(musicTokens[tokenId].price) */\n      0x08fc\n        /* \"Echochain.sol\":3186:3197  musicTokens */\n      0x01\n        /* \"Echochain.sol\":3186:3206  musicTokens[tokenId] */\n      0x00\n        /* \"Echochain.sol\":3198:3205  tokenId */\n      dup6\n        /* \"Echochain.sol\":3186:3206  musicTokens[tokenId] */\n      dup2\n      mstore\n      0x20\n      add\n      swap1\n      dup2\n      mstore\n      0x20\n      add\n      0x00\n      keccak256\n        /* \"Echochain.sol\":3186:3212  musicTokens[tokenId].price */\n      0x02\n      add\n      sload\n        /* \"Echochain.sol\":3163:3213  previousOwner.transfer(musicTokens[tokenId].price) */\n      swap1\n      dup2\n      iszero\n      mul\n      swap1\n      mload(0x40)\n      0x00\n      mload(0x40)\n      dup1\n      dup4\n      sub\n      dup2\n      dup6\n      dup9\n      dup9\n      call\n      swap4\n      pop\n      pop\n      pop\n      pop\n      iszero\n      dup1\n      iszero\n      tag_55\n      jumpi\n      returndatasize\n      0x00\n      dup1\n      returndatacopy\n      revert(0x00, returndatasize)\n    tag_55:\n      pop\n        /* \"Echochain.sol\":3242:3252  msg.sender */\n      caller\n        /* \"Echochain.sol\":3224:3230  owners */\n      0x07\n        /* \"Echochain.sol\":3224:3239  owners[tokenId] */\n      0x00\n        /* \"Echochain.sol\":3231:3238  tokenId */\n      dup5\n        /* \"Echochain.sol\":3224:3239  owners[tokenId] */\n      dup2\n      mstore\n      0x20\n      add\n      swap1\n      dup2\n      mstore\n      0x20\n      add\n      0x00\n      keccak256\n      0x00\n        /* \"Echochain.sol\":3224:3252  owners[tokenId] = msg.sender */\n      0x0100\n      exp\n      dup2\n      sload\n      dup2\n      0xffffffffffffffffffffffffffffffffffffffff\n      mul\n      not\n      and\n      swap1\n      dup4\n      0xffffffffffffffffffffffffffffffffffffffff\n      and\n      mul\n      or\n      swap1\n      sstore\n      pop\n        /* \"Echochain.sol\":3289:3299  msg.sender */\n      caller\n        /* \"Echochain.sol\":3268:3328  MusicBought(tokenId, msg.sender, musicTokens[tokenId].price) */\n      0xffffffffffffffffffffffffffffffffffffffff\n      and\n        /* \"Echochain.sol\":3280:3287  tokenId */\n      dup3\n        /* \"Echochain.sol\":3268:3328  MusicBought(tokenId, msg.sender, musicTokens[tokenId].price) */\n      0x36b7402e3697821c4bcfe9ac412c0b7922a9308d632b152d8384b9a3be73ad10\n        /* \"Echochain.sol\":3301:3312  musicTokens */\n      0x01\n        /* \"Echochain.sol\":3301:3321  musicTokens[tokenId] */\n      0x00\n        /* \"Echochain.sol\":3313:3320  tokenId */\n      dup7\n        /* \"Echochain.sol\":3301:3321  musicTokens[tokenId] */\n      dup2\n      mstore\n      0x20\n      add\n      swap1\n      dup2\n      mstore\n      0x20\n      add\n      0x00\n      keccak256\n        /* \"Echochain.sol\":3301:3327  musicTokens[tokenId].price */\n      0x02\n      add\n      sload\n        /* \"Echochain.sol\":3268:3328  MusicBought(tokenId, msg.sender, musicTokens[tokenId].price) */\n      mload(0x40)\n      tag_56\n      swap2\n      swap1\n      tag_43\n      jump\t// in\n    tag_56:\n      mload(0x40)\n      dup1\n      swap2\n      sub\n      swap1\n      log3\n        /* \"Echochain.sol\":2841:3336  {... */\n      pop\n        /* \"Echochain.sol\":2789:3336  function buyMusic(uint256 tokenId) external payable {... */\n      pop\n      jump\t// out\n        /* \"Echochain.sol\":2376:2781  function acceptBid(uint256 tokenId) external {... */\n    tag_21:\n        /* \"Echochain.sol\":2459:2469  msg.sender */\n      caller\n        /* \"Echochain.sol\":2440:2469  owners[tokenId] == msg.sender */\n      0xffffffffffffffffffffffffffffffffffffffff\n      and\n        /* \"Echochain.sol\":2440:2446  owners */\n      0x07\n        /* \"Echochain.sol\":2440:2455  owners[tokenId] */\n      0x00\n        /* \"Echochain.sol\":2447:2454  tokenId */\n      dup4\n        /* \"Echochain.sol\":2440:2455  owners[tokenId] */\n      dup2\n      mstore\n      0x20\n      add\n      swap1\n      dup2\n      mstore\n      0x20\n      add\n      0x00\n      keccak256\n      0x00\n      swap1\n      sload\n      swap1\n      0x0100\n      exp\n      swap1\n      div\n      0xffffffffffffffffffffffffffffffffffffffff\n      and\n        /* \"Echochain.sol\":2440:2469  owners[tokenId] == msg.sender */\n      0xffffffffffffffffffffffffffffffffffffffff\n      and\n      eq\n        /* \"Echochain.sol\":2432:2504  require(owners[tokenId] == msg.sender, \"Only the owner can accept bids\") */\n      tag_58\n      jumpi\n      mload(0x40)\n      0x08c379a000000000000000000000000000000000000000000000000000000000\n      dup2\n      mstore\n      0x04\n      add\n      tag_59\n      swap1\n      tag_60\n      jump\t// in\n    tag_59:\n      mload(0x40)\n      dup1\n      swap2\n      sub\n      swap1\n      revert\n    tag_58:\n        /* \"Echochain.sol\":2553:2554  0 */\n      0x00\n        /* \"Echochain.sol\":2523:2534  highestBids */\n      0x05\n        /* \"Echochain.sol\":2523:2543  highestBids[tokenId] */\n      0x00\n        /* \"Echochain.sol\":2535:2542  tokenId */\n      dup4\n        /* \"Echochain.sol\":2523:2543  highestBids[tokenId] */\n      dup2\n      mstore\n      0x20\n      add\n      swap1\n      dup2\n      mstore\n      0x20\n      add\n      0x00\n      keccak256\n        /* \"Echochain.sol\":2523:2550  highestBids[tokenId].amount */\n      0x01\n      add\n      sload\n        /* \"Echochain.sol\":2523:2554  highestBids[tokenId].amount > 0 */\n      gt\n        /* \"Echochain.sol\":2515:2572  require(highestBids[tokenId].amount > 0, \"No valid bids\") */\n      tag_61\n      jumpi\n      mload(0x40)\n      0x08c379a000000000000000000000000000000000000000000000000000000000\n      dup2\n      mstore\n      0x04\n      add\n      tag_62\n      swap1\n      tag_63\n      jump\t// in\n    tag_62:\n      mload(0x40)\n      dup1\n      swap2\n      sub\n      swap1\n      revert\n    tag_61:\n        /* \"Echochain.sol\":2585:2606  Bid memory winningBid */\n      0x00\n        /* \"Echochain.sol\":2609:2620  highestBids */\n      0x05\n        /* \"Echochain.sol\":2609:2629  highestBids[tokenId] */\n      0x00\n        /* \"Echochain.sol\":2621:2628  tokenId */\n      dup4\n        /* \"Echochain.sol\":2609:2629  highestBids[tokenId] */\n      dup2\n      mstore\n      0x20\n      add\n      swap1\n      dup2\n      mstore\n      0x20\n      add\n      0x00\n      keccak256\n        /* \"Echochain.sol\":2585:2629  Bid memory winningBid = highestBids[tokenId] */\n      mload(0x40)\n      dup1\n      0x40\n      add\n      0x40\n      mstore\n      swap1\n      dup2\n      0x00\n      dup3\n      add\n      0x00\n      swap1\n      sload\n      swap1\n      0x0100\n      exp\n      swap1\n      div\n      0xffffffffffffffffffffffffffffffffffffffff\n      and\n      0xffffffffffffffffffffffffffffffffffffffff\n      and\n      0xffffffffffffffffffffffffffffffffffffffff\n      and\n      dup2\n      mstore\n      0x20\n      add\n      0x01\n      dup3\n      add\n      sload\n      dup2\n      mstore\n      pop\n      pop\n      swap1\n      pop\n        /* \"Echochain.sol\":2648:2658  msg.sender */\n      caller\n        /* \"Echochain.sol\":2640:2668  payable(msg.sender).transfer */\n      0xffffffffffffffffffffffffffffffffffffffff\n      and\n        /* \"Echochain.sol\":2640:2687  payable(msg.sender).transfer(winningBid.amount) */\n      0x08fc\n        /* \"Echochain.sol\":2669:2679  winningBid */\n      dup3\n        /* \"Echochain.sol\":2669:2686  winningBid.amount */\n      0x20\n      add\n      mload\n        /* \"Echochain.sol\":2640:2687  payable(msg.sender).transfer(winningBid.amount) */\n      swap1\n      dup2\n      iszero\n      mul\n      swap1\n      mload(0x40)\n      0x00\n      mload(0x40)\n      dup1\n      dup4\n      sub\n      dup2\n      dup6\n      dup9\n      dup9\n      call\n      swap4\n      pop\n      pop\n      pop\n      pop\n      iszero\n      dup1\n      iszero\n      tag_65\n      jumpi\n      returndatasize\n      0x00\n      dup1\n      returndatacopy\n      revert(0x00, returndatasize)\n    tag_65:\n      pop\n        /* \"Echochain.sol\":2716:2726  winningBid */\n      dup1\n        /* \"Echochain.sol\":2716:2733  winningBid.bidder */\n      0x00\n      add\n      mload\n        /* \"Echochain.sol\":2698:2704  owners */\n      0x07\n        /* \"Echochain.sol\":2698:2713  owners[tokenId] */\n      0x00\n        /* \"Echochain.sol\":2705:2712  tokenId */\n      dup5\n        /* \"Echochain.sol\":2698:2713  owners[tokenId] */\n      dup2\n      mstore\n      0x20\n      add\n      swap1\n      dup2\n      mstore\n      0x20\n      add\n      0x00\n      keccak256\n      0x00\n        /* \"Echochain.sol\":2698:2733  owners[tokenId] = winningBid.bidder */\n      0x0100\n      exp\n      dup2\n      sload\n      dup2\n      0xffffffffffffffffffffffffffffffffffffffff\n      mul\n      not\n      and\n      swap1\n      dup4\n      0xffffffffffffffffffffffffffffffffffffffff\n      and\n      mul\n      or\n      swap1\n      sstore\n      pop\n        /* \"Echochain.sol\":2753:2764  highestBids */\n      0x05\n        /* \"Echochain.sol\":2753:2773  highestBids[tokenId] */\n      0x00\n        /* \"Echochain.sol\":2765:2772  tokenId */\n      dup4\n        /* \"Echochain.sol\":2753:2773  highestBids[tokenId] */\n      dup2\n      mstore\n      0x20\n      add\n      swap1\n      dup2\n      mstore\n      0x20\n      add\n      0x00\n      keccak256\n      0x00\n        /* \"Echochain.sol\":2746:2773  delete highestBids[tokenId] */\n      dup1\n      dup3\n      add\n      exp(0x0100, 0x00)\n      dup2\n      sload\n      swap1\n      0xffffffffffffffffffffffffffffffffffffffff\n      mul\n      not\n      and\n      swap1\n      sstore\n      0x01\n      dup3\n      add\n      0x00\n      swap1\n      sstore\n      pop\n      pop\n        /* \"Echochain.sol\":2421:2781  {... */\n      pop\n        /* \"Echochain.sol\":2376:2781  function acceptBid(uint256 tokenId) external {... */\n      pop\n      jump\t// out\n        /* \"Echochain.sol\":1625:2001  function likeMusic(uint256 tokenId) external {... */\n    tag_25:\n        /* \"Echochain.sol\":1716:1717  0 */\n      0x00\n        /* \"Echochain.sol\":1689:1718  owners[tokenId] != address(0) */\n      0xffffffffffffffffffffffffffffffffffffffff\n      and\n        /* \"Echochain.sol\":1689:1695  owners */\n      0x07\n        /* \"Echochain.sol\":1689:1704  owners[tokenId] */\n      0x00\n        /* \"Echochain.sol\":1696:1703  tokenId */\n      dup4\n        /* \"Echochain.sol\":1689:1704  owners[tokenId] */\n      dup2\n      mstore\n      0x20\n      add\n      swap1\n      dup2\n      mstore\n      0x20\n      add\n      0x00\n      keccak256\n      0x00\n      swap1\n      sload\n      swap1\n      0x0100\n      exp\n      swap1\n      div\n      0xffffffffffffffffffffffffffffffffffffffff\n      and\n        /* \"Echochain.sol\":1689:1718  owners[tokenId] != address(0) */\n      0xffffffffffffffffffffffffffffffffffffffff\n      and\n      sub\n        /* \"Echochain.sol\":1681:1749  require(owners[tokenId] != address(0), \"Music Token does not exist\") */\n      tag_67\n      jumpi\n      mload(0x40)\n      0x08c379a000000000000000000000000000000000000000000000000000000000\n      dup2\n      mstore\n      0x04\n      add\n      tag_68\n      swap1\n      tag_47\n      jump\t// in\n    tag_68:\n      mload(0x40)\n      dup1\n      swap2\n      sub\n      swap1\n      revert\n    tag_67:\n        /* \"Echochain.sol\":1769:1799  _hasLiked(msg.sender, tokenId) */\n      tag_69\n        /* \"Echochain.sol\":1779:1789  msg.sender */\n      caller\n        /* \"Echochain.sol\":1791:1798  tokenId */\n      dup3\n        /* \"Echochain.sol\":1769:1778  _hasLiked */\n      tag_70\n        /* \"Echochain.sol\":1769:1799  _hasLiked(msg.sender, tokenId) */\n      jump\t// in\n    tag_69:\n        /* \"Echochain.sol\":1768:1799  !_hasLiked(msg.sender, tokenId) */\n      iszero\n        /* \"Echochain.sol\":1760:1826  require(!_hasLiked(msg.sender, tokenId), \"Music is already liked\") */\n      tag_71\n      jumpi\n      mload(0x40)\n      0x08c379a000000000000000000000000000000000000000000000000000000000\n      dup2\n      mstore\n      0x04\n      add\n      tag_72\n      swap1\n      tag_73\n      jump\t// in\n    tag_72:\n      mload(0x40)\n      dup1\n      swap2\n      sub\n      swap1\n      revert\n    tag_71:\n        /* \"Echochain.sol\":1839:1850  musicTokens */\n      0x01\n        /* \"Echochain.sol\":1839:1859  musicTokens[tokenId] */\n      0x00\n        /* \"Echochain.sol\":1851:1858  tokenId */\n      dup3\n        /* \"Echochain.sol\":1839:1859  musicTokens[tokenId] */\n      dup2\n      mstore\n      0x20\n      add\n      swap1\n      dup2\n      mstore\n      0x20\n      add\n      0x00\n      keccak256\n        /* \"Echochain.sol\":1839:1865  musicTokens[tokenId].likes */\n      0x03\n      add\n      0x00\n        /* \"Echochain.sol\":1839:1867  musicTokens[tokenId].likes++ */\n      dup2\n      sload\n      dup1\n      swap3\n      swap2\n      swap1\n      tag_74\n      swap1\n      tag_41\n      jump\t// in\n    tag_74:\n      swap2\n      swap1\n      pop\n      sstore\n      pop\n        /* \"Echochain.sol\":1878:1888  totalLikes */\n      0x03\n        /* \"Echochain.sol\":1878:1897  totalLikes[tokenId] */\n      0x00\n        /* \"Echochain.sol\":1889:1896  tokenId */\n      dup3\n        /* \"Echochain.sol\":1878:1897  totalLikes[tokenId] */\n      dup2\n      mstore\n      0x20\n      add\n      swap1\n      dup2\n      mstore\n      0x20\n      add\n      0x00\n      keccak256\n      0x00\n        /* \"Echochain.sol\":1878:1899  totalLikes[tokenId]++ */\n      dup2\n      sload\n      dup1\n      swap3\n      swap2\n      swap1\n      tag_75\n      swap1\n      tag_41\n      jump\t// in\n    tag_75:\n      swap2\n      swap1\n      pop\n      sstore\n      pop\n        /* \"Echochain.sol\":1910:1920  likedMusic */\n      0x02\n        /* \"Echochain.sol\":1910:1932  likedMusic[msg.sender] */\n      0x00\n        /* \"Echochain.sol\":1921:1931  msg.sender */\n      caller\n        /* \"Echochain.sol\":1910:1932  likedMusic[msg.sender] */\n      0xffffffffffffffffffffffffffffffffffffffff\n      and\n      0xffffffffffffffffffffffffffffffffffffffff\n      and\n      dup2\n      mstore\n      0x20\n      add\n      swap1\n      dup2\n      mstore\n      0x20\n      add\n      0x00\n      keccak256\n        /* \"Echochain.sol\":1938:1945  tokenId */\n      dup2\n        /* \"Echochain.sol\":1910:1946  likedMusic[msg.sender].push(tokenId) */\n      swap1\n      dup1\n      0x01\n      dup2\n      sload\n      add\n      dup1\n      dup3\n      sstore\n      dup1\n      swap2\n      pop\n      pop\n      0x01\n      swap1\n      sub\n      swap1\n      0x00\n      mstore\n      keccak256(0x00, 0x20)\n      add\n      0x00\n      swap1\n      swap2\n      swap1\n      swap2\n      swap1\n      swap2\n      pop\n      sstore\n        /* \"Echochain.sol\":1982:1992  msg.sender */\n      caller\n        /* \"Echochain.sol\":1962:1993  MusicLiked(tokenId, msg.sender) */\n      0xffffffffffffffffffffffffffffffffffffffff\n      and\n        /* \"Echochain.sol\":1973:1980  tokenId */\n      dup2\n        /* \"Echochain.sol\":1962:1993  MusicLiked(tokenId, msg.sender) */\n      0x201735a6ff64e1da0dc3df2d17ecf024f61008ee5d86da74e1596dc140b4a74f\n      mload(0x40)\n      mload(0x40)\n      dup1\n      swap2\n      sub\n      swap1\n      log3\n        /* \"Echochain.sol\":1625:2001  function likeMusic(uint256 tokenId) external {... */\n      pop\n      jump\t// out\n        /* \"Echochain.sol\":2009:2368  function placeBid(uint256 tokenId) external payable {... */\n    tag_28:\n        /* \"Echochain.sol\":2107:2108  0 */\n      0x00\n        /* \"Echochain.sol\":2080:2109  owners[tokenId] != address(0) */\n      0xffffffffffffffffffffffffffffffffffffffff\n      and\n        /* \"Echochain.sol\":2080:2086  owners */\n      0x07\n        /* \"Echochain.sol\":2080:2095  owners[tokenId] */\n      0x00\n        /* \"Echochain.sol\":2087:2094  tokenId */\n      dup4\n        /* \"Echochain.sol\":2080:2095  owners[tokenId] */\n      dup2\n      mstore\n      0x20\n      add\n      swap1\n      dup2\n      mstore\n      0x20\n      add\n      0x00\n      keccak256\n      0x00\n      swap1\n      sload\n      swap1\n      0x0100\n      exp\n      swap1\n      div\n      0xffffffffffffffffffffffffffffffffffffffff\n      and\n        /* \"Echochain.sol\":2080:2109  owners[tokenId] != address(0) */\n      0xffffffffffffffffffffffffffffffffffffffff\n      and\n      sub\n        /* \"Echochain.sol\":2072:2140  require(owners[tokenId] != address(0), \"Music Token does not exist\") */\n      tag_78\n      jumpi\n      mload(0x40)\n      0x08c379a000000000000000000000000000000000000000000000000000000000\n      dup2\n      mstore\n      0x04\n      add\n      tag_79\n      swap1\n      tag_47\n      jump\t// in\n    tag_79:\n      mload(0x40)\n      dup1\n      swap2\n      sub\n      swap1\n      revert\n    tag_78:\n        /* \"Echochain.sol\":2171:2182  highestBids */\n      0x05\n        /* \"Echochain.sol\":2171:2191  highestBids[tokenId] */\n      0x00\n        /* \"Echochain.sol\":2183:2190  tokenId */\n      dup3\n        /* \"Echochain.sol\":2171:2191  highestBids[tokenId] */\n      dup2\n      mstore\n      0x20\n      add\n      swap1\n      dup2\n      mstore\n      0x20\n      add\n      0x00\n      keccak256\n        /* \"Echochain.sol\":2171:2198  highestBids[tokenId].amount */\n      0x01\n      add\n      sload\n        /* \"Echochain.sol\":2159:2168  msg.value */\n      callvalue\n        /* \"Echochain.sol\":2159:2198  msg.value > highestBids[tokenId].amount */\n      gt\n        /* \"Echochain.sol\":2151:2238  require(msg.value > highestBids[tokenId].amount, \"Bid must be higher than current bid\") */\n      tag_80\n      jumpi\n      mload(0x40)\n      0x08c379a000000000000000000000000000000000000000000000000000000000\n      dup2\n      mstore\n      0x04\n      add\n      tag_81\n      swap1\n      tag_82\n      jump\t// in\n    tag_81:\n      mload(0x40)\n      dup1\n      swap2\n      sub\n      swap1\n      revert\n    tag_80:\n        /* \"Echochain.sol\":2274:2300  Bid(msg.sender, msg.value) */\n      mload(0x40)\n      dup1\n      0x40\n      add\n      0x40\n      mstore\n      dup1\n        /* \"Echochain.sol\":2278:2288  msg.sender */\n      caller\n        /* \"Echochain.sol\":2274:2300  Bid(msg.sender, msg.value) */\n      0xffffffffffffffffffffffffffffffffffffffff\n      and\n      dup2\n      mstore\n      0x20\n      add\n        /* \"Echochain.sol\":2290:2299  msg.value */\n      callvalue\n        /* \"Echochain.sol\":2274:2300  Bid(msg.sender, msg.value) */\n      dup2\n      mstore\n      pop\n        /* \"Echochain.sol\":2251:2262  highestBids */\n      0x05\n        /* \"Echochain.sol\":2251:2271  highestBids[tokenId] */\n      0x00\n        /* \"Echochain.sol\":2263:2270  tokenId */\n      dup4\n        /* \"Echochain.sol\":2251:2271  highestBids[tokenId] */\n      dup2\n      mstore\n      0x20\n      add\n      swap1\n      dup2\n      mstore\n      0x20\n      add\n      0x00\n      keccak256\n        /* \"Echochain.sol\":2251:2300  highestBids[tokenId] = Bid(msg.sender, msg.value) */\n      0x00\n      dup3\n      add\n      mload\n      dup2\n      0x00\n      add\n      exp(0x0100, 0x00)\n      dup2\n      sload\n      dup2\n      0xffffffffffffffffffffffffffffffffffffffff\n      mul\n      not\n      and\n      swap1\n      dup4\n      0xffffffffffffffffffffffffffffffffffffffff\n      and\n      mul\n      or\n      swap1\n      sstore\n      pop\n      0x20\n      dup3\n      add\n      mload\n      dup2\n      0x01\n      add\n      sstore\n      swap1\n      pop\n      pop\n        /* \"Echochain.sol\":2338:2348  msg.sender */\n      caller\n        /* \"Echochain.sol\":2316:2360  NewBidPlaced(tokenId, msg.sender, msg.value) */\n      0xffffffffffffffffffffffffffffffffffffffff\n      and\n        /* \"Echochain.sol\":2329:2336  tokenId */\n      dup2\n        /* \"Echochain.sol\":2316:2360  NewBidPlaced(tokenId, msg.sender, msg.value) */\n      0x7136042fc8b502cb7b2f9c23ef190a14de582a02a0ffd89b1c399bb8dd8e6ad3\n        /* \"Echochain.sol\":2350:2359  msg.value */\n      callvalue\n        /* \"Echochain.sol\":2316:2360  NewBidPlaced(tokenId, msg.sender, msg.value) */\n      mload(0x40)\n      tag_83\n      swap2\n      swap1\n      tag_43\n      jump\t// in\n    tag_83:\n      mload(0x40)\n      dup1\n      swap2\n      sub\n      swap1\n      log3\n        /* \"Echochain.sol\":2009:2368  function placeBid(uint256 tokenId) external payable {... */\n      pop\n      jump\t// out\n        /* \"Echochain.sol\":3859:4073  function followArtist(address artist) external {... */\n    tag_33:\n        /* \"Echochain.sol\":3935:3945  msg.sender */\n      caller\n        /* \"Echochain.sol\":3925:3945  artist != msg.sender */\n      0xffffffffffffffffffffffffffffffffffffffff\n      and\n        /* \"Echochain.sol\":3925:3931  artist */\n      dup2\n        /* \"Echochain.sol\":3925:3945  artist != msg.sender */\n      0xffffffffffffffffffffffffffffffffffffffff\n      and\n      sub\n        /* \"Echochain.sol\":3917:3976  require(artist != msg.sender, \"You cannot follow yourself\") */\n      tag_85\n      jumpi\n      mload(0x40)\n      0x08c379a000000000000000000000000000000000000000000000000000000000\n      dup2\n      mstore\n      0x04\n      add\n      tag_86\n      swap1\n      tag_87\n      jump\t// in\n    tag_86:\n      mload(0x40)\n      dup1\n      swap2\n      sub\n      swap1\n      revert\n    tag_85:\n        /* \"Echochain.sol\":3987:3996  followers */\n      0x06\n        /* \"Echochain.sol\":3987:4004  followers[artist] */\n      0x00\n        /* \"Echochain.sol\":3997:4003  artist */\n      dup3\n        /* \"Echochain.sol\":3987:4004  followers[artist] */\n      0xffffffffffffffffffffffffffffffffffffffff\n      and\n      0xffffffffffffffffffffffffffffffffffffffff\n      and\n      dup2\n      mstore\n      0x20\n      add\n      swap1\n      dup2\n      mstore\n      0x20\n      add\n      0x00\n      keccak256\n        /* \"Echochain.sol\":4010:4020  msg.sender */\n      caller\n        /* \"Echochain.sol\":3987:4021  followers[artist].push(msg.sender) */\n      swap1\n      dup1\n      0x01\n      dup2\n      sload\n      add\n      dup1\n      dup3\n      sstore\n      dup1\n      swap2\n      pop\n      pop\n      0x01\n      swap1\n      sub\n      swap1\n      0x00\n      mstore\n      keccak256(0x00, 0x20)\n      add\n      0x00\n      swap1\n      swap2\n      swap1\n      swap2\n      swap1\n      swap2\n      0x0100\n      exp\n      dup2\n      sload\n      dup2\n      0xffffffffffffffffffffffffffffffffffffffff\n      mul\n      not\n      and\n      swap1\n      dup4\n      0xffffffffffffffffffffffffffffffffffffffff\n      and\n      mul\n      or\n      swap1\n      sstore\n      pop\n        /* \"Echochain.sol\":4058:4064  artist */\n      dup1\n        /* \"Echochain.sol\":4037:4065  Followed(msg.sender, artist) */\n      0xffffffffffffffffffffffffffffffffffffffff\n      and\n        /* \"Echochain.sol\":4046:4056  msg.sender */\n      caller\n        /* \"Echochain.sol\":4037:4065  Followed(msg.sender, artist) */\n      0xffffffffffffffffffffffffffffffffffffffff\n      and\n      0x6178e95c138f06036cdc07a49ed6a3d23008969fa143baeceb037ebae22e8d14\n      mload(0x40)\n      mload(0x40)\n      dup1\n      swap2\n      sub\n      swap1\n      log3\n        /* \"Echochain.sol\":3859:4073  function followArtist(address artist) external {... */\n      pop\n      jump\t// out\n        /* \"Echochain.sol\":3344:3851  function sendMessage(uint256 tokenId, bytes memory encryptedContent) external {... */\n    tag_38:\n        /* \"Echochain.sol\":3468:3469  0 */\n      0x00\n        /* \"Echochain.sol\":3441:3470  owners[tokenId] != address(0) */\n      0xffffffffffffffffffffffffffffffffffffffff\n      and\n        /* \"Echochain.sol\":3441:3447  owners */\n      0x07\n        /* \"Echochain.sol\":3441:3456  owners[tokenId] */\n      0x00\n        /* \"Echochain.sol\":3448:3455  tokenId */\n      dup5\n        /* \"Echochain.sol\":3441:3456  owners[tokenId] */\n      dup2\n      mstore\n      0x20\n      add\n      swap1\n      dup2\n      mstore\n      0x20\n      add\n      0x00\n      keccak256\n      0x00\n      swap1\n      sload\n      swap1\n      0x0100\n      exp\n      swap1\n      div\n      0xffffffffffffffffffffffffffffffffffffffff\n      and\n        /* \"Echochain.sol\":3441:3470  owners[tokenId] != address(0) */\n      0xffffffffffffffffffffffffffffffffffffffff\n      and\n      sub\n        /* \"Echochain.sol\":3433:3501  require(owners[tokenId] != address(0), \"Music Token does not exist\") */\n      tag_90\n      jumpi\n      mload(0x40)\n      0x08c379a000000000000000000000000000000000000000000000000000000000\n      dup2\n      mstore\n      0x04\n      add\n      tag_91\n      swap1\n      tag_47\n      jump\t// in\n    tag_91:\n      mload(0x40)\n      dup1\n      swap2\n      sub\n      swap1\n      revert\n    tag_90:\n        /* \"Echochain.sol\":3539:3549  msg.sender */\n      caller\n        /* \"Echochain.sol\":3520:3549  owners[tokenId] == msg.sender */\n      0xffffffffffffffffffffffffffffffffffffffff\n      and\n        /* \"Echochain.sol\":3520:3526  owners */\n      0x07\n        /* \"Echochain.sol\":3520:3535  owners[tokenId] */\n      0x00\n        /* \"Echochain.sol\":3527:3534  tokenId */\n      dup5\n        /* \"Echochain.sol\":3520:3535  owners[tokenId] */\n      dup2\n      mstore\n      0x20\n      add\n      swap1\n      dup2\n      mstore\n      0x20\n      add\n      0x00\n      keccak256\n      0x00\n      swap1\n      sload\n      swap1\n      0x0100\n      exp\n      swap1\n      div\n      0xffffffffffffffffffffffffffffffffffffffff\n      and\n        /* \"Echochain.sol\":3520:3549  owners[tokenId] == msg.sender */\n      0xffffffffffffffffffffffffffffffffffffffff\n      and\n      eq\n        /* \"Echochain.sol\":3520:3594  owners[tokenId] == msg.sender || musicTokens[tokenId].author == msg.sender */\n      dup1\n      tag_92\n      jumpi\n      pop\n        /* \"Echochain.sol\":3584:3594  msg.sender */\n      caller\n        /* \"Echochain.sol\":3553:3594  musicTokens[tokenId].author == msg.sender */\n      0xffffffffffffffffffffffffffffffffffffffff\n      and\n        /* \"Echochain.sol\":3553:3564  musicTokens */\n      0x01\n        /* \"Echochain.sol\":3553:3573  musicTokens[tokenId] */\n      0x00\n        /* \"Echochain.sol\":3565:3572  tokenId */\n      dup5\n        /* \"Echochain.sol\":3553:3573  musicTokens[tokenId] */\n      dup2\n      mstore\n      0x20\n      add\n      swap1\n      dup2\n      mstore\n      0x20\n      add\n      0x00\n      keccak256\n        /* \"Echochain.sol\":3553:3580  musicTokens[tokenId].author */\n      0x01\n      add\n      0x00\n      swap1\n      sload\n      swap1\n      0x0100\n      exp\n      swap1\n      div\n      0xffffffffffffffffffffffffffffffffffffffff\n      and\n        /* \"Echochain.sol\":3553:3594  musicTokens[tokenId].author == msg.sender */\n      0xffffffffffffffffffffffffffffffffffffffff\n      and\n      eq\n        /* \"Echochain.sol\":3520:3594  owners[tokenId] == msg.sender || musicTokens[tokenId].author == msg.sender */\n    tag_92:\n        /* \"Echochain.sol\":3512:3618  require(owners[tokenId] == msg.sender || musicTokens[tokenId].author == msg.sender, \"Unauthorized sender\") */\n      tag_93\n      jumpi\n      mload(0x40)\n      0x08c379a000000000000000000000000000000000000000000000000000000000\n      dup2\n      mstore\n      0x04\n      add\n      tag_94\n      swap1\n      tag_95\n      jump\t// in\n    tag_94:\n      mload(0x40)\n      dup1\n      swap2\n      sub\n      swap1\n      revert\n    tag_93:\n        /* \"Echochain.sol\":3663:3664  0 */\n      0x00\n        /* \"Echochain.sol\":3637:3653  encryptedContent */\n      dup2\n        /* \"Echochain.sol\":3637:3660  encryptedContent.length */\n      mload\n        /* \"Echochain.sol\":3637:3664  encryptedContent.length > 0 */\n      gt\n        /* \"Echochain.sol\":3629:3692  require(encryptedContent.length > 0, \"Message cannot be empty\") */\n      tag_96\n      jumpi\n      mload(0x40)\n      0x08c379a000000000000000000000000000000000000000000000000000000000\n      dup2\n      mstore\n      0x04\n      add\n      tag_97\n      swap1\n      tag_98\n      jump\t// in\n    tag_97:\n      mload(0x40)\n      dup1\n      swap2\n      sub\n      swap1\n      revert\n    tag_96:\n        /* \"Echochain.sol\":3713:3725  chatMessages */\n      0x04\n        /* \"Echochain.sol\":3713:3734  chatMessages[tokenId] */\n      0x00\n        /* \"Echochain.sol\":3726:3733  tokenId */\n      dup4\n        /* \"Echochain.sol\":3713:3734  chatMessages[tokenId] */\n      dup2\n      mstore\n      0x20\n      add\n      swap1\n      dup2\n      mstore\n      0x20\n      add\n      0x00\n      keccak256\n        /* \"Echochain.sol\":3740:3794  Message(msg.sender, encryptedContent, block.timestamp) */\n      mload(0x40)\n      dup1\n      0x60\n      add\n      0x40\n      mstore\n      dup1\n        /* \"Echochain.sol\":3748:3758  msg.sender */\n      caller\n        /* \"Echochain.sol\":3740:3794  Message(msg.sender, encryptedContent, block.timestamp) */\n      0xffffffffffffffffffffffffffffffffffffffff\n      and\n      dup2\n      mstore\n      0x20\n      add\n        /* \"Echochain.sol\":3760:3776  encryptedContent */\n      dup4\n        /* \"Echochain.sol\":3740:3794  Message(msg.sender, encryptedContent, block.timestamp) */\n      dup2\n      mstore\n      0x20\n      add\n        /* \"Echochain.sol\":3778:3793  block.timestamp */\n      timestamp\n        /* \"Echochain.sol\":3740:3794  Message(msg.sender, encryptedContent, block.timestamp) */\n      dup2\n      mstore\n      pop\n        /* \"Echochain.sol\":3713:3795  chatMessages[tokenId].push(Message(msg.sender, encryptedContent, block.timestamp)) */\n      swap1\n      dup1\n      0x01\n      dup2\n      sload\n      add\n      dup1\n      dup3\n      sstore\n      dup1\n      swap2\n      pop\n      pop\n      0x01\n      swap1\n      sub\n      swap1\n      0x00\n      mstore\n      keccak256(0x00, 0x20)\n      swap1\n      0x03\n      mul\n      add\n      0x00\n      swap1\n      swap2\n      swap1\n      swap2\n      swap1\n      swap2\n      pop\n      0x00\n      dup3\n      add\n      mload\n      dup2\n      0x00\n      add\n      exp(0x0100, 0x00)\n      dup2\n      sload\n      dup2\n      0xffffffffffffffffffffffffffffffffffffffff\n      mul\n      not\n      and\n      swap1\n      dup4\n      0xffffffffffffffffffffffffffffffffffffffff\n      and\n      mul\n      or\n      swap1\n      sstore\n      pop\n      0x20\n      dup3\n      add\n      mload\n      dup2\n      0x01\n      add\n      swap1\n      dup2\n      tag_100\n      swap2\n      swap1\n      tag_101\n      jump\t// in\n    tag_100:\n      pop\n      0x40\n      dup3\n      add\n      mload\n      dup2\n      0x02\n      add\n      sstore\n      pop\n      pop\n        /* \"Echochain.sol\":3832:3842  msg.sender */\n      caller\n        /* \"Echochain.sol\":3811:3843  MessageSent(tokenId, msg.sender) */\n      0xffffffffffffffffffffffffffffffffffffffff\n      and\n        /* \"Echochain.sol\":3823:3830  tokenId */\n      dup3\n        /* \"Echochain.sol\":3811:3843  MessageSent(tokenId, msg.sender) */\n      0x65095a72c3522c47dd7ec14e6af04b2faa2955e46bb286d544dad8c82809edd2\n      mload(0x40)\n      mload(0x40)\n      dup1\n      swap2\n      sub\n      swap1\n      log3\n        /* \"Echochain.sol\":3344:3851  function sendMessage(uint256 tokenId, bytes memory encryptedContent) external {... */\n      pop\n      pop\n      jump\t// out\n        /* \"Echochain.sol\":4081:4363  function _hasLiked(address user, uint256 tokenId) internal view returns (bool) {... */\n    tag_70:\n        /* \"Echochain.sol\":4154:4158  bool */\n      0x00\n        /* \"Echochain.sol\":4176:4185  uint256 i */\n      dup1\n        /* \"Echochain.sol\":4188:4189  0 */\n      0x00\n        /* \"Echochain.sol\":4176:4189  uint256 i = 0 */\n      swap1\n      pop\n        /* \"Echochain.sol\":4171:4333  for (uint256 i = 0; i < likedMusic[user].length; i++) {... */\n    tag_103:\n        /* \"Echochain.sol\":4195:4205  likedMusic */\n      0x02\n        /* \"Echochain.sol\":4195:4211  likedMusic[user] */\n      0x00\n        /* \"Echochain.sol\":4206:4210  user */\n      dup6\n        /* \"Echochain.sol\":4195:4211  likedMusic[user] */\n      0xffffffffffffffffffffffffffffffffffffffff\n      and\n      0xffffffffffffffffffffffffffffffffffffffff\n      and\n      dup2\n      mstore\n      0x20\n      add\n      swap1\n      dup2\n      mstore\n      0x20\n      add\n      0x00\n      keccak256\n        /* \"Echochain.sol\":4195:4218  likedMusic[user].length */\n      dup1\n      sload\n      swap1\n      pop\n        /* \"Echochain.sol\":4191:4192  i */\n      dup2\n        /* \"Echochain.sol\":4191:4218  i < likedMusic[user].length */\n      lt\n        /* \"Echochain.sol\":4171:4333  for (uint256 i = 0; i < likedMusic[user].length; i++) {... */\n      iszero\n      tag_104\n      jumpi\n        /* \"Echochain.sol\":4267:4274  tokenId */\n      dup3\n        /* \"Echochain.sol\":4244:4254  likedMusic */\n      0x02\n        /* \"Echochain.sol\":4244:4260  likedMusic[user] */\n      0x00\n        /* \"Echochain.sol\":4255:4259  user */\n      dup7\n        /* \"Echochain.sol\":4244:4260  likedMusic[user] */\n      0xffffffffffffffffffffffffffffffffffffffff\n      and\n      0xffffffffffffffffffffffffffffffffffffffff\n      and\n      dup2\n      mstore\n      0x20\n      add\n      swap1\n      dup2\n      mstore\n      0x20\n      add\n      0x00\n      keccak256\n        /* \"Echochain.sol\":4261:4262  i */\n      dup3\n        /* \"Echochain.sol\":4244:4263  likedMusic[user][i] */\n      dup2\n      sload\n      dup2\n      lt\n      tag_106\n      jumpi\n      tag_107\n      tag_108\n      jump\t// in\n    tag_107:\n    tag_106:\n      swap1\n      0x00\n      mstore\n      keccak256(0x00, 0x20)\n      add\n      sload\n        /* \"Echochain.sol\":4244:4274  likedMusic[user][i] == tokenId */\n      sub\n        /* \"Echochain.sol\":4240:4322  if (likedMusic[user][i] == tokenId) {... */\n      tag_110\n      jumpi\n        /* \"Echochain.sol\":4302:4306  true */\n      0x01\n        /* \"Echochain.sol\":4295:4306  return true */\n      swap2\n      pop\n      pop\n      jump(tag_102)\n        /* \"Echochain.sol\":4240:4322  if (likedMusic[user][i] == tokenId) {... */\n    tag_110:\n        /* \"Echochain.sol\":4220:4223  i++ */\n      dup1\n      dup1\n      0x01\n      add\n      swap2\n      pop\n      pop\n        /* \"Echochain.sol\":4171:4333  for (uint256 i = 0; i < likedMusic[user].length; i++) {... */\n      jump(tag_103)\n    tag_104:\n      pop\n        /* \"Echochain.sol\":4350:4355  false */\n      0x00\n        /* \"Echochain.sol\":4343:4355  return false */\n      swap1\n      pop\n        /* \"Echochain.sol\":4081:4363  function _hasLiked(address user, uint256 tokenId) internal view returns (bool) {... */\n    tag_102:\n      swap3\n      swap2\n      pop\n      pop\n      jump\t// out\n        /* \"#utility.yul\":7:82   */\n    tag_111:\n        /* \"#utility.yul\":40:46   */\n      0x00\n        /* \"#utility.yul\":73:75   */\n      0x40\n        /* \"#utility.yul\":67:76   */\n      mload\n        /* \"#utility.yul\":57:76   */\n      swap1\n      pop\n        /* \"#utility.yul\":7:82   */\n      swap1\n      jump\t// out\n        /* \"#utility.yul\":88:205   */\n    tag_112:\n        /* \"#utility.yul\":197:198   */\n      0x00\n        /* \"#utility.yul\":194:195   */\n      dup1\n        /* \"#utility.yul\":187:199   */\n      revert\n        /* \"#utility.yul\":211:328   */\n    tag_113:\n        /* \"#utility.yul\":320:321   */\n      0x00\n        /* \"#utility.yul\":317:318   */\n      dup1\n        /* \"#utility.yul\":310:322   */\n      revert\n        /* \"#utility.yul\":334:411   */\n    tag_114:\n        /* \"#utility.yul\":371:378   */\n      0x00\n        /* \"#utility.yul\":400:405   */\n      dup2\n        /* \"#utility.yul\":389:405   */\n      swap1\n      pop\n        /* \"#utility.yul\":334:411   */\n      swap2\n      swap1\n      pop\n      jump\t// out\n        /* \"#utility.yul\":417:539   */\n    tag_115:\n        /* \"#utility.yul\":490:514   */\n      tag_178\n        /* \"#utility.yul\":508:513   */\n      dup2\n        /* \"#utility.yul\":490:514   */\n      tag_114\n      jump\t// in\n    tag_178:\n        /* \"#utility.yul\":483:488   */\n      dup2\n        /* \"#utility.yul\":480:515   */\n      eq\n        /* \"#utility.yul\":470:533   */\n      tag_179\n      jumpi\n        /* \"#utility.yul\":529:530   */\n      0x00\n        /* \"#utility.yul\":526:527   */\n      dup1\n        /* \"#utility.yul\":519:531   */\n      revert\n        /* \"#utility.yul\":470:533   */\n    tag_179:\n        /* \"#utility.yul\":417:539   */\n      pop\n      jump\t// out\n        /* \"#utility.yul\":545:684   */\n    tag_116:\n        /* \"#utility.yul\":591:596   */\n      0x00\n        /* \"#utility.yul\":629:635   */\n      dup2\n        /* \"#utility.yul\":616:636   */\n      calldataload\n        /* \"#utility.yul\":607:636   */\n      swap1\n      pop\n        /* \"#utility.yul\":645:678   */\n      tag_181\n        /* \"#utility.yul\":672:677   */\n      dup2\n        /* \"#utility.yul\":645:678   */\n      tag_115\n      jump\t// in\n    tag_181:\n        /* \"#utility.yul\":545:684   */\n      swap3\n      swap2\n      pop\n      pop\n      jump\t// out\n        /* \"#utility.yul\":690:1019   */\n    tag_13:\n        /* \"#utility.yul\":749:755   */\n      0x00\n        /* \"#utility.yul\":798:800   */\n      0x20\n        /* \"#utility.yul\":786:795   */\n      dup3\n        /* \"#utility.yul\":777:784   */\n      dup5\n        /* \"#utility.yul\":773:796   */\n      sub\n        /* \"#utility.yul\":769:801   */\n      slt\n        /* \"#utility.yul\":766:885   */\n      iszero\n      tag_183\n      jumpi\n        /* \"#utility.yul\":804:883   */\n      tag_184\n      tag_112\n      jump\t// in\n    tag_184:\n        /* \"#utility.yul\":766:885   */\n    tag_183:\n        /* \"#utility.yul\":924:925   */\n      0x00\n        /* \"#utility.yul\":949:1002   */\n      tag_185\n        /* \"#utility.yul\":994:1001   */\n      dup5\n        /* \"#utility.yul\":985:991   */\n      dup3\n        /* \"#utility.yul\":974:983   */\n      dup6\n        /* \"#utility.yul\":970:992   */\n      add\n        /* \"#utility.yul\":949:1002   */\n      tag_116\n      jump\t// in\n    tag_185:\n        /* \"#utility.yul\":939:1002   */\n      swap2\n      pop\n        /* \"#utility.yul\":895:1012   */\n      pop\n        /* \"#utility.yul\":690:1019   */\n      swap3\n      swap2\n      pop\n      pop\n      jump\t// out\n        /* \"#utility.yul\":1025:1151   */\n    tag_117:\n        /* \"#utility.yul\":1062:1069   */\n      0x00\n        /* \"#utility.yul\":1102:1144   */\n      0xffffffffffffffffffffffffffffffffffffffff\n        /* \"#utility.yul\":1095:1100   */\n      dup3\n        /* \"#utility.yul\":1091:1145   */\n      and\n        /* \"#utility.yul\":1080:1145   */\n      swap1\n      pop\n        /* \"#utility.yul\":1025:1151   */\n      swap2\n      swap1\n      pop\n      jump\t// out\n        /* \"#utility.yul\":1157:1253   */\n    tag_118:\n        /* \"#utility.yul\":1194:1201   */\n      0x00\n        /* \"#utility.yul\":1223:1247   */\n      tag_188\n        /* \"#utility.yul\":1241:1246   */\n      dup3\n        /* \"#utility.yul\":1223:1247   */\n      tag_117\n      jump\t// in\n    tag_188:\n        /* \"#utility.yul\":1212:1247   */\n      swap1\n      pop\n        /* \"#utility.yul\":1157:1253   */\n      swap2\n      swap1\n      pop\n      jump\t// out\n        /* \"#utility.yul\":1259:1381   */\n    tag_119:\n        /* \"#utility.yul\":1332:1356   */\n      tag_190\n        /* \"#utility.yul\":1350:1355   */\n      dup2\n        /* \"#utility.yul\":1332:1356   */\n      tag_118\n      jump\t// in\n    tag_190:\n        /* \"#utility.yul\":1325:1330   */\n      dup2\n        /* \"#utility.yul\":1322:1357   */\n      eq\n        /* \"#utility.yul\":1312:1375   */\n      tag_191\n      jumpi\n        /* \"#utility.yul\":1371:1372   */\n      0x00\n        /* \"#utility.yul\":1368:1369   */\n      dup1\n        /* \"#utility.yul\":1361:1373   */\n      revert\n        /* \"#utility.yul\":1312:1375   */\n    tag_191:\n        /* \"#utility.yul\":1259:1381   */\n      pop\n      jump\t// out\n        /* \"#utility.yul\":1387:1526   */\n    tag_120:\n        /* \"#utility.yul\":1433:1438   */\n      0x00\n        /* \"#utility.yul\":1471:1477   */\n      dup2\n        /* \"#utility.yul\":1458:1478   */\n      calldataload\n        /* \"#utility.yul\":1449:1478   */\n      swap1\n      pop\n        /* \"#utility.yul\":1487:1520   */\n      tag_193\n        /* \"#utility.yul\":1514:1519   */\n      dup2\n        /* \"#utility.yul\":1487:1520   */\n      tag_119\n      jump\t// in\n    tag_193:\n        /* \"#utility.yul\":1387:1526   */\n      swap3\n      swap2\n      pop\n      pop\n      jump\t// out\n        /* \"#utility.yul\":1532:1861   */\n    tag_32:\n        /* \"#utility.yul\":1591:1597   */\n      0x00\n        /* \"#utility.yul\":1640:1642   */\n      0x20\n        /* \"#utility.yul\":1628:1637   */\n      dup3\n        /* \"#utility.yul\":1619:1626   */\n      dup5\n        /* \"#utility.yul\":1615:1638   */\n      sub\n        /* \"#utility.yul\":1611:1643   */\n      slt\n        /* \"#utility.yul\":1608:1727   */\n      iszero\n      tag_195\n      jumpi\n        /* \"#utility.yul\":1646:1725   */\n      tag_196\n      tag_112\n      jump\t// in\n    tag_196:\n        /* \"#utility.yul\":1608:1727   */\n    tag_195:\n        /* \"#utility.yul\":1766:1767   */\n      0x00\n        /* \"#utility.yul\":1791:1844   */\n      tag_197\n        /* \"#utility.yul\":1836:1843   */\n      dup5\n        /* \"#utility.yul\":1827:1833   */\n      dup3\n        /* \"#utility.yul\":1816:1825   */\n      dup6\n        /* \"#utility.yul\":1812:1834   */\n      add\n        /* \"#utility.yul\":1791:1844   */\n      tag_120\n      jump\t// in\n    tag_197:\n        /* \"#utility.yul\":1781:1844   */\n      swap2\n      pop\n        /* \"#utility.yul\":1737:1854   */\n      pop\n        /* \"#utility.yul\":1532:1861   */\n      swap3\n      swap2\n      pop\n      pop\n      jump\t// out\n        /* \"#utility.yul\":1867:1984   */\n    tag_121:\n        /* \"#utility.yul\":1976:1977   */\n      0x00\n        /* \"#utility.yul\":1973:1974   */\n      dup1\n        /* \"#utility.yul\":1966:1978   */\n      revert\n        /* \"#utility.yul\":1990:2107   */\n    tag_122:\n        /* \"#utility.yul\":2099:2100   */\n      0x00\n        /* \"#utility.yul\":2096:2097   */\n      dup1\n        /* \"#utility.yul\":2089:2101   */\n      revert\n        /* \"#utility.yul\":2113:2215   */\n    tag_123:\n        /* \"#utility.yul\":2154:2160   */\n      0x00\n        /* \"#utility.yul\":2205:2207   */\n      0x1f\n        /* \"#utility.yul\":2201:2208   */\n      not\n        /* \"#utility.yul\":2196:2198   */\n      0x1f\n        /* \"#utility.yul\":2189:2194   */\n      dup4\n        /* \"#utility.yul\":2185:2199   */\n      add\n        /* \"#utility.yul\":2181:2209   */\n      and\n        /* \"#utility.yul\":2171:2209   */\n      swap1\n      pop\n        /* \"#utility.yul\":2113:2215   */\n      swap2\n      swap1\n      pop\n      jump\t// out\n        /* \"#utility.yul\":2221:2401   */\n    tag_124:\n        /* \"#utility.yul\":2269:2346   */\n      0x4e487b7100000000000000000000000000000000000000000000000000000000\n        /* \"#utility.yul\":2266:2267   */\n      0x00\n        /* \"#utility.yul\":2259:2347   */\n      mstore\n        /* \"#utility.yul\":2366:2370   */\n      0x41\n        /* \"#utility.yul\":2363:2364   */\n      0x04\n        /* \"#utility.yul\":2356:2371   */\n      mstore\n        /* \"#utility.yul\":2390:2394   */\n      0x24\n        /* \"#utility.yul\":2387:2388   */\n      0x00\n        /* \"#utility.yul\":2380:2395   */\n      revert\n        /* \"#utility.yul\":2407:2688   */\n    tag_125:\n        /* \"#utility.yul\":2490:2517   */\n      tag_203\n        /* \"#utility.yul\":2512:2516   */\n      dup3\n        /* \"#utility.yul\":2490:2517   */\n      tag_123\n      jump\t// in\n    tag_203:\n        /* \"#utility.yul\":2482:2488   */\n      dup2\n        /* \"#utility.yul\":2478:2518   */\n      add\n        /* \"#utility.yul\":2620:2626   */\n      dup2\n        /* \"#utility.yul\":2608:2618   */\n      dup2\n        /* \"#utility.yul\":2605:2627   */\n      lt\n        /* \"#utility.yul\":2584:2602   */\n      0xffffffffffffffff\n        /* \"#utility.yul\":2572:2582   */\n      dup3\n        /* \"#utility.yul\":2569:2603   */\n      gt\n        /* \"#utility.yul\":2566:2628   */\n      or\n        /* \"#utility.yul\":2563:2651   */\n      iszero\n      tag_204\n      jumpi\n        /* \"#utility.yul\":2631:2649   */\n      tag_205\n      tag_124\n      jump\t// in\n    tag_205:\n        /* \"#utility.yul\":2563:2651   */\n    tag_204:\n        /* \"#utility.yul\":2671:2681   */\n      dup1\n        /* \"#utility.yul\":2667:2669   */\n      0x40\n        /* \"#utility.yul\":2660:2682   */\n      mstore\n        /* \"#utility.yul\":2450:2688   */\n      pop\n        /* \"#utility.yul\":2407:2688   */\n      pop\n      pop\n      jump\t// out\n        /* \"#utility.yul\":2694:2823   */\n    tag_126:\n        /* \"#utility.yul\":2728:2734   */\n      0x00\n        /* \"#utility.yul\":2755:2775   */\n      tag_207\n      tag_111\n      jump\t// in\n    tag_207:\n        /* \"#utility.yul\":2745:2775   */\n      swap1\n      pop\n        /* \"#utility.yul\":2784:2817   */\n      tag_208\n        /* \"#utility.yul\":2812:2816   */\n      dup3\n        /* \"#utility.yul\":2804:2810   */\n      dup3\n        /* \"#utility.yul\":2784:2817   */\n      tag_125\n      jump\t// in\n    tag_208:\n        /* \"#utility.yul\":2694:2823   */\n      swap2\n      swap1\n      pop\n      jump\t// out\n        /* \"#utility.yul\":2829:3136   */\n    tag_127:\n        /* \"#utility.yul\":2890:2894   */\n      0x00\n        /* \"#utility.yul\":2980:2998   */\n      0xffffffffffffffff\n        /* \"#utility.yul\":2972:2978   */\n      dup3\n        /* \"#utility.yul\":2969:2999   */\n      gt\n        /* \"#utility.yul\":2966:3022   */\n      iszero\n      tag_210\n      jumpi\n        /* \"#utility.yul\":3002:3020   */\n      tag_211\n      tag_124\n      jump\t// in\n    tag_211:\n        /* \"#utility.yul\":2966:3022   */\n    tag_210:\n        /* \"#utility.yul\":3040:3069   */\n      tag_212\n        /* \"#utility.yul\":3062:3068   */\n      dup3\n        /* \"#utility.yul\":3040:3069   */\n      tag_123\n      jump\t// in\n    tag_212:\n        /* \"#utility.yul\":3032:3069   */\n      swap1\n      pop\n        /* \"#utility.yul\":3124:3128   */\n      0x20\n        /* \"#utility.yul\":3118:3122   */\n      dup2\n        /* \"#utility.yul\":3114:3129   */\n      add\n        /* \"#utility.yul\":3106:3129   */\n      swap1\n      pop\n        /* \"#utility.yul\":2829:3136   */\n      swap2\n      swap1\n      pop\n      jump\t// out\n        /* \"#utility.yul\":3142:3290   */\n    tag_128:\n        /* \"#utility.yul\":3240:3246   */\n      dup3\n        /* \"#utility.yul\":3235:3238   */\n      dup2\n        /* \"#utility.yul\":3230:3233   */\n      dup4\n        /* \"#utility.yul\":3217:3247   */\n      calldatacopy\n        /* \"#utility.yul\":3281:3282   */\n      0x00\n        /* \"#utility.yul\":3272:3278   */\n      dup4\n        /* \"#utility.yul\":3267:3270   */\n      dup4\n        /* \"#utility.yul\":3263:3279   */\n      add\n        /* \"#utility.yul\":3256:3283   */\n      mstore\n        /* \"#utility.yul\":3142:3290   */\n      pop\n      pop\n      pop\n      jump\t// out\n        /* \"#utility.yul\":3296:3719   */\n    tag_129:\n        /* \"#utility.yul\":3373:3378   */\n      0x00\n        /* \"#utility.yul\":3398:3463   */\n      tag_215\n        /* \"#utility.yul\":3414:3462   */\n      tag_216\n        /* \"#utility.yul\":3455:3461   */\n      dup5\n        /* \"#utility.yul\":3414:3462   */\n      tag_127\n      jump\t// in\n    tag_216:\n        /* \"#utility.yul\":3398:3463   */\n      tag_126\n      jump\t// in\n    tag_215:\n        /* \"#utility.yul\":3389:3463   */\n      swap1\n      pop\n        /* \"#utility.yul\":3486:3492   */\n      dup3\n        /* \"#utility.yul\":3479:3484   */\n      dup2\n        /* \"#utility.yul\":3472:3493   */\n      mstore\n        /* \"#utility.yul\":3524:3528   */\n      0x20\n        /* \"#utility.yul\":3517:3522   */\n      dup2\n        /* \"#utility.yul\":3513:3529   */\n      add\n        /* \"#utility.yul\":3562:3565   */\n      dup5\n        /* \"#utility.yul\":3553:3559   */\n      dup5\n        /* \"#utility.yul\":3548:3551   */\n      dup5\n        /* \"#utility.yul\":3544:3560   */\n      add\n        /* \"#utility.yul\":3541:3566   */\n      gt\n        /* \"#utility.yul\":3538:3650   */\n      iszero\n      tag_217\n      jumpi\n        /* \"#utility.yul\":3569:3648   */\n      tag_218\n      tag_122\n      jump\t// in\n    tag_218:\n        /* \"#utility.yul\":3538:3650   */\n    tag_217:\n        /* \"#utility.yul\":3659:3713   */\n      tag_219\n        /* \"#utility.yul\":3706:3712   */\n      dup5\n        /* \"#utility.yul\":3701:3704   */\n      dup3\n        /* \"#utility.yul\":3696:3699   */\n      dup6\n        /* \"#utility.yul\":3659:3713   */\n      tag_128\n      jump\t// in\n    tag_219:\n        /* \"#utility.yul\":3379:3719   */\n      pop\n        /* \"#utility.yul\":3296:3719   */\n      swap4\n      swap3\n      pop\n      pop\n      pop\n      jump\t// out\n        /* \"#utility.yul\":3738:4076   */\n    tag_130:\n        /* \"#utility.yul\":3793:3798   */\n      0x00\n        /* \"#utility.yul\":3842:3845   */\n      dup3\n        /* \"#utility.yul\":3835:3839   */\n      0x1f\n        /* \"#utility.yul\":3827:3833   */\n      dup4\n        /* \"#utility.yul\":3823:3840   */\n      add\n        /* \"#utility.yul\":3819:3846   */\n      slt\n        /* \"#utility.yul\":3809:3931   */\n      tag_221\n      jumpi\n        /* \"#utility.yul\":3850:3929   */\n      tag_222\n      tag_121\n      jump\t// in\n    tag_222:\n        /* \"#utility.yul\":3809:3931   */\n    tag_221:\n        /* \"#utility.yul\":3967:3973   */\n      dup2\n        /* \"#utility.yul\":3954:3974   */\n      calldataload\n        /* \"#utility.yul\":3992:4070   */\n      tag_223\n        /* \"#utility.yul\":4066:4069   */\n      dup5\n        /* \"#utility.yul\":4058:4064   */\n      dup3\n        /* \"#utility.yul\":4051:4055   */\n      0x20\n        /* \"#utility.yul\":4043:4049   */\n      dup7\n        /* \"#utility.yul\":4039:4056   */\n      add\n        /* \"#utility.yul\":3992:4070   */\n      tag_129\n      jump\t// in\n    tag_223:\n        /* \"#utility.yul\":3983:4070   */\n      swap2\n      pop\n        /* \"#utility.yul\":3799:4076   */\n      pop\n        /* \"#utility.yul\":3738:4076   */\n      swap3\n      swap2\n      pop\n      pop\n      jump\t// out\n        /* \"#utility.yul\":4082:4734   */\n    tag_37:\n        /* \"#utility.yul\":4159:4165   */\n      0x00\n        /* \"#utility.yul\":4167:4173   */\n      dup1\n        /* \"#utility.yul\":4216:4218   */\n      0x40\n        /* \"#utility.yul\":4204:4213   */\n      dup4\n        /* \"#utility.yul\":4195:4202   */\n      dup6\n        /* \"#utility.yul\":4191:4214   */\n      sub\n        /* \"#utility.yul\":4187:4219   */\n      slt\n        /* \"#utility.yul\":4184:4303   */\n      iszero\n      tag_225\n      jumpi\n        /* \"#utility.yul\":4222:4301   */\n      tag_226\n      tag_112\n      jump\t// in\n    tag_226:\n        /* \"#utility.yul\":4184:4303   */\n    tag_225:\n        /* \"#utility.yul\":4342:4343   */\n      0x00\n        /* \"#utility.yul\":4367:4420   */\n      tag_227\n        /* \"#utility.yul\":4412:4419   */\n      dup6\n        /* \"#utility.yul\":4403:4409   */\n      dup3\n        /* \"#utility.yul\":4392:4401   */\n      dup7\n        /* \"#utility.yul\":4388:4410   */\n      add\n        /* \"#utility.yul\":4367:4420   */\n      tag_116\n      jump\t// in\n    tag_227:\n        /* \"#utility.yul\":4357:4420   */\n      swap3\n      pop\n        /* \"#utility.yul\":4313:4430   */\n      pop\n        /* \"#utility.yul\":4497:4499   */\n      0x20\n        /* \"#utility.yul\":4486:4495   */\n      dup4\n        /* \"#utility.yul\":4482:4500   */\n      add\n        /* \"#utility.yul\":4469:4501   */\n      calldataload\n        /* \"#utility.yul\":4528:4546   */\n      0xffffffffffffffff\n        /* \"#utility.yul\":4520:4526   */\n      dup2\n        /* \"#utility.yul\":4517:4547   */\n      gt\n        /* \"#utility.yul\":4514:4631   */\n      iszero\n      tag_228\n      jumpi\n        /* \"#utility.yul\":4550:4629   */\n      tag_229\n      tag_113\n      jump\t// in\n    tag_229:\n        /* \"#utility.yul\":4514:4631   */\n    tag_228:\n        /* \"#utility.yul\":4655:4717   */\n      tag_230\n        /* \"#utility.yul\":4709:4716   */\n      dup6\n        /* \"#utility.yul\":4700:4706   */\n      dup3\n        /* \"#utility.yul\":4689:4698   */\n      dup7\n        /* \"#utility.yul\":4685:4707   */\n      add\n        /* \"#utility.yul\":4655:4717   */\n      tag_130\n      jump\t// in\n    tag_230:\n        /* \"#utility.yul\":4645:4717   */\n      swap2\n      pop\n        /* \"#utility.yul\":4440:4727   */\n      pop\n        /* \"#utility.yul\":4082:4734   */\n      swap3\n      pop\n      swap3\n      swap1\n      pop\n      jump\t// out\n        /* \"#utility.yul\":4740:4920   */\n    tag_131:\n        /* \"#utility.yul\":4788:4865   */\n      0x4e487b7100000000000000000000000000000000000000000000000000000000\n        /* \"#utility.yul\":4785:4786   */\n      0x00\n        /* \"#utility.yul\":4778:4866   */\n      mstore\n        /* \"#utility.yul\":4885:4889   */\n      0x11\n        /* \"#utility.yul\":4882:4883   */\n      0x04\n        /* \"#utility.yul\":4875:4890   */\n      mstore\n        /* \"#utility.yul\":4909:4913   */\n      0x24\n        /* \"#utility.yul\":4906:4907   */\n      0x00\n        /* \"#utility.yul\":4899:4914   */\n      revert\n        /* \"#utility.yul\":4926:5159   */\n    tag_41:\n        /* \"#utility.yul\":4965:4968   */\n      0x00\n        /* \"#utility.yul\":4988:5012   */\n      tag_233\n        /* \"#utility.yul\":5006:5011   */\n      dup3\n        /* \"#utility.yul\":4988:5012   */\n      tag_114\n      jump\t// in\n    tag_233:\n        /* \"#utility.yul\":4979:5012   */\n      swap2\n      pop\n        /* \"#utility.yul\":5034:5100   */\n      0xffffffffffffffffffffffffffffffffffffffffffffffffffffffffffffffff\n        /* \"#utility.yul\":5027:5032   */\n      dup3\n        /* \"#utility.yul\":5024:5101   */\n      sub\n        /* \"#utility.yul\":5021:5124   */\n      tag_234\n      jumpi\n        /* \"#utility.yul\":5104:5122   */\n      tag_235\n      tag_131\n      jump\t// in\n    tag_235:\n        /* \"#utility.yul\":5021:5124   */\n    tag_234:\n        /* \"#utility.yul\":5151:5152   */\n      0x01\n        /* \"#utility.yul\":5144:5149   */\n      dup3\n        /* \"#utility.yul\":5140:5153   */\n      add\n        /* \"#utility.yul\":5133:5153   */\n      swap1\n      pop\n        /* \"#utility.yul\":4926:5159   */\n      swap2\n      swap1\n      pop\n      jump\t// out\n        /* \"#utility.yul\":5165:5283   */\n    tag_132:\n        /* \"#utility.yul\":5252:5276   */\n      tag_237\n        /* \"#utility.yul\":5270:5275   */\n      dup2\n        /* \"#utility.yul\":5252:5276   */\n      tag_114\n      jump\t// in\n    tag_237:\n        /* \"#utility.yul\":5247:5250   */\n      dup3\n        /* \"#utility.yul\":5240:5277   */\n      mstore\n        /* \"#utility.yul\":5165:5283   */\n      pop\n      pop\n      jump\t// out\n        /* \"#utility.yul\":5289:5511   */\n    tag_43:\n        /* \"#utility.yul\":5382:5386   */\n      0x00\n        /* \"#utility.yul\":5420:5422   */\n      0x20\n        /* \"#utility.yul\":5409:5418   */\n      dup3\n        /* \"#utility.yul\":5405:5423   */\n      add\n        /* \"#utility.yul\":5397:5423   */\n      swap1\n      pop\n        /* \"#utility.yul\":5433:5504   */\n      tag_239\n        /* \"#utility.yul\":5501:5502   */\n      0x00\n        /* \"#utility.yul\":5490:5499   */\n      dup4\n        /* \"#utility.yul\":5486:5503   */\n      add\n        /* \"#utility.yul\":5477:5483   */\n      dup5\n        /* \"#utility.yul\":5433:5504   */\n      tag_132\n      jump\t// in\n    tag_239:\n        /* \"#utility.yul\":5289:5511   */\n      swap3\n      swap2\n      pop\n      pop\n      jump\t// out\n        /* \"#utility.yul\":5517:5686   */\n    tag_133:\n        /* \"#utility.yul\":5601:5612   */\n      0x00\n        /* \"#utility.yul\":5635:5641   */\n      dup3\n        /* \"#utility.yul\":5630:5633   */\n      dup3\n        /* \"#utility.yul\":5623:5642   */\n      mstore\n        /* \"#utility.yul\":5675:5679   */\n      0x20\n        /* \"#utility.yul\":5670:5673   */\n      dup3\n        /* \"#utility.yul\":5666:5680   */\n      add\n        /* \"#utility.yul\":5651:5680   */\n      swap1\n      pop\n        /* \"#utility.yul\":5517:5686   */\n      swap3\n      swap2\n      pop\n      pop\n      jump\t// out\n        /* \"#utility.yul\":5692:5868   */\n    tag_134:\n        /* \"#utility.yul\":5832:5860   */\n      0x4d7573696320546f6b656e20646f6573206e6f74206578697374000000000000\n        /* \"#utility.yul\":5828:5829   */\n      0x00\n        /* \"#utility.yul\":5820:5826   */\n      dup3\n        /* \"#utility.yul\":5816:5830   */\n      add\n        /* \"#utility.yul\":5809:5861   */\n      mstore\n        /* \"#utility.yul\":5692:5868   */\n      pop\n      jump\t// out\n        /* \"#utility.yul\":5874:6240   */\n    tag_135:\n        /* \"#utility.yul\":6016:6019   */\n      0x00\n        /* \"#utility.yul\":6037:6104   */\n      tag_243\n        /* \"#utility.yul\":6101:6103   */\n      0x1a\n        /* \"#utility.yul\":6096:6099   */\n      dup4\n        /* \"#utility.yul\":6037:6104   */\n      tag_133\n      jump\t// in\n    tag_243:\n        /* \"#utility.yul\":6030:6104   */\n      swap2\n      pop\n        /* \"#utility.yul\":6113:6206   */\n      tag_244\n        /* \"#utility.yul\":6202:6205   */\n      dup3\n        /* \"#utility.yul\":6113:6206   */\n      tag_134\n      jump\t// in\n    tag_244:\n        /* \"#utility.yul\":6231:6233   */\n      0x20\n        /* \"#utility.yul\":6226:6229   */\n      dup3\n        /* \"#utility.yul\":6222:6234   */\n      add\n        /* \"#utility.yul\":6215:6234   */\n      swap1\n      pop\n        /* \"#utility.yul\":5874:6240   */\n      swap2\n      swap1\n      pop\n      jump\t// out\n        /* \"#utility.yul\":6246:6665   */\n    tag_47:\n        /* \"#utility.yul\":6412:6416   */\n      0x00\n        /* \"#utility.yul\":6450:6452   */\n      0x20\n        /* \"#utility.yul\":6439:6448   */\n      dup3\n        /* \"#utility.yul\":6435:6453   */\n      add\n        /* \"#utility.yul\":6427:6453   */\n      swap1\n      pop\n        /* \"#utility.yul\":6499:6508   */\n      dup2\n        /* \"#utility.yul\":6493:6497   */\n      dup2\n        /* \"#utility.yul\":6489:6509   */\n      sub\n        /* \"#utility.yul\":6485:6486   */\n      0x00\n        /* \"#utility.yul\":6474:6483   */\n      dup4\n        /* \"#utility.yul\":6470:6487   */\n      add\n        /* \"#utility.yul\":6463:6510   */\n      mstore\n        /* \"#utility.yul\":6527:6658   */\n      tag_246\n        /* \"#utility.yul\":6653:6657   */\n      dup2\n        /* \"#utility.yul\":6527:6658   */\n      tag_135\n      jump\t// in\n    tag_246:\n        /* \"#utility.yul\":6519:6658   */\n      swap1\n      pop\n        /* \"#utility.yul\":6246:6665   */\n      swap2\n      swap1\n      pop\n      jump\t// out\n        /* \"#utility.yul\":6671:6850   */\n    tag_136:\n        /* \"#utility.yul\":6811:6842   */\n      0x596f752063616e6e6f742062757920796f7572206f776e206d75736963000000\n        /* \"#utility.yul\":6807:6808   */\n      0x00\n        /* \"#utility.yul\":6799:6805   */\n      dup3\n        /* \"#utility.yul\":6795:6809   */\n      add\n        /* \"#utility.yul\":6788:6843   */\n      mstore\n        /* \"#utility.yul\":6671:6850   */\n      pop\n      jump\t// out\n        /* \"#utility.yul\":6856:7222   */\n    tag_137:\n        /* \"#utility.yul\":6998:7001   */\n      0x00\n        /* \"#utility.yul\":7019:7086   */\n      tag_249\n        /* \"#utility.yul\":7083:7085   */\n      0x1d\n        /* \"#utility.yul\":7078:7081   */\n      dup4\n        /* \"#utility.yul\":7019:7086   */\n      tag_133\n      jump\t// in\n    tag_249:\n        /* \"#utility.yul\":7012:7086   */\n      swap2\n      pop\n        /* \"#utility.yul\":7095:7188   */\n      tag_250\n        /* \"#utility.yul\":7184:7187   */\n      dup3\n        /* \"#utility.yul\":7095:7188   */\n      tag_136\n      jump\t// in\n    tag_250:\n        /* \"#utility.yul\":7213:7215   */\n      0x20\n        /* \"#utility.yul\":7208:7211   */\n      dup3\n        /* \"#utility.yul\":7204:7216   */\n      add\n        /* \"#utility.yul\":7197:7216   */\n      swap1\n      pop\n        /* \"#utility.yul\":6856:7222   */\n      swap2\n      swap1\n      pop\n      jump\t// out\n        /* \"#utility.yul\":7228:7647   */\n    tag_50:\n        /* \"#utility.yul\":7394:7398   */\n      0x00\n        /* \"#utility.yul\":7432:7434   */\n      0x20\n        /* \"#utility.yul\":7421:7430   */\n      dup3\n        /* \"#utility.yul\":7417:7435   */\n      add\n        /* \"#utility.yul\":7409:7435   */\n      swap1\n      pop\n        /* \"#utility.yul\":7481:7490   */\n      dup2\n        /* \"#utility.yul\":7475:7479   */\n      dup2\n        /* \"#utility.yul\":7471:7491   */\n      sub\n        /* \"#utility.yul\":7467:7468   */\n      0x00\n        /* \"#utility.yul\":7456:7465   */\n      dup4\n        /* \"#utility.yul\":7452:7469   */\n      add\n        /* \"#utility.yul\":7445:7492   */\n      mstore\n        /* \"#utility.yul\":7509:7640   */\n      tag_252\n        /* \"#utility.yul\":7635:7639   */\n      dup2\n        /* \"#utility.yul\":7509:7640   */\n      tag_137\n      jump\t// in\n    tag_252:\n        /* \"#utility.yul\":7501:7640   */\n      swap1\n      pop\n        /* \"#utility.yul\":7228:7647   */\n      swap2\n      swap1\n      pop\n      jump\t// out\n        /* \"#utility.yul\":7653:7821   */\n    tag_138:\n        /* \"#utility.yul\":7793:7813   */\n      0x496e73756666696369656e742066756e64730000000000000000000000000000\n        /* \"#utility.yul\":7789:7790   */\n      0x00\n        /* \"#utility.yul\":7781:7787   */\n      dup3\n        /* \"#utility.yul\":7777:7791   */\n      add\n        /* \"#utility.yul\":7770:7814   */\n      mstore\n        /* \"#utility.yul\":7653:7821   */\n      pop\n      jump\t// out\n        /* \"#utility.yul\":7827:8193   */\n    tag_139:\n        /* \"#utility.yul\":7969:7972   */\n      0x00\n        /* \"#utility.yul\":7990:8057   */\n      tag_255\n        /* \"#utility.yul\":8054:8056   */\n      0x12\n        /* \"#utility.yul\":8049:8052   */\n      dup4\n        /* \"#utility.yul\":7990:8057   */\n      tag_133\n      jump\t// in\n    tag_255:\n        /* \"#utility.yul\":7983:8057   */\n      swap2\n      pop\n        /* \"#utility.yul\":8066:8159   */\n      tag_256\n        /* \"#utility.yul\":8155:8158   */\n      dup3\n        /* \"#utility.yul\":8066:8159   */\n      tag_138\n      jump\t// in\n    tag_256:\n        /* \"#utility.yul\":8184:8186   */\n      0x20\n        /* \"#utility.yul\":8179:8182   */\n      dup3\n        /* \"#utility.yul\":8175:8187   */\n      add\n        /* \"#utility.yul\":8168:8187   */\n      swap1\n      pop\n        /* \"#utility.yul\":7827:8193   */\n      swap2\n      swap1\n      pop\n      jump\t// out\n        /* \"#utility.yul\":8199:8618   */\n    tag_53:\n        /* \"#utility.yul\":8365:8369   */\n      0x00\n        /* \"#utility.yul\":8403:8405   */\n      0x20\n        /* \"#utility.yul\":8392:8401   */\n      dup3\n        /* \"#utility.yul\":8388:8406   */\n      add\n        /* \"#utility.yul\":8380:8406   */\n      swap1\n      pop\n        /* \"#utility.yul\":8452:8461   */\n      dup2\n        /* \"#utility.yul\":8446:8450   */\n      dup2\n        /* \"#utility.yul\":8442:8462   */\n      sub\n        /* \"#utility.yul\":8438:8439   */\n      0x00\n        /* \"#utility.yul\":8427:8436   */\n      dup4\n        /* \"#utility.yul\":8423:8440   */\n      add\n        /* \"#utility.yul\":8416:8463   */\n      mstore\n        /* \"#utility.yul\":8480:8611   */\n      tag_258\n        /* \"#utility.yul\":8606:8610   */\n      dup2\n        /* \"#utility.yul\":8480:8611   */\n      tag_139\n      jump\t// in\n    tag_258:\n        /* \"#utility.yul\":8472:8611   */\n      swap1\n      pop\n        /* \"#utility.yul\":8199:8618   */\n      swap2\n      swap1\n      pop\n      jump\t// out\n        /* \"#utility.yul\":8624:8804   */\n    tag_140:\n        /* \"#utility.yul\":8764:8796   */\n      0x4f6e6c7920746865206f776e65722063616e2061636365707420626964730000\n        /* \"#utility.yul\":8760:8761   */\n      0x00\n        /* \"#utility.yul\":8752:8758   */\n      dup3\n        /* \"#utility.yul\":8748:8762   */\n      add\n        /* \"#utility.yul\":8741:8797   */\n      mstore\n        /* \"#utility.yul\":8624:8804   */\n      pop\n      jump\t// out\n        /* \"#utility.yul\":8810:9176   */\n    tag_141:\n        /* \"#utility.yul\":8952:8955   */\n      0x00\n        /* \"#utility.yul\":8973:9040   */\n      tag_261\n        /* \"#utility.yul\":9037:9039   */\n      0x1e\n        /* \"#utility.yul\":9032:9035   */\n      dup4\n        /* \"#utility.yul\":8973:9040   */\n      tag_133\n      jump\t// in\n    tag_261:\n        /* \"#utility.yul\":8966:9040   */\n      swap2\n      pop\n        /* \"#utility.yul\":9049:9142   */\n      tag_262\n        /* \"#utility.yul\":9138:9141   */\n      dup3\n        /* \"#utility.yul\":9049:9142   */\n      tag_140\n      jump\t// in\n    tag_262:\n        /* \"#utility.yul\":9167:9169   */\n      0x20\n        /* \"#utility.yul\":9162:9165   */\n      dup3\n        /* \"#utility.yul\":9158:9170   */\n      add\n        /* \"#utility.yul\":9151:9170   */\n      swap1\n      pop\n        /* \"#utility.yul\":8810:9176   */\n      swap2\n      swap1\n      pop\n      jump\t// out\n        /* \"#utility.yul\":9182:9601   */\n    tag_60:\n        /* \"#utility.yul\":9348:9352   */\n      0x00\n        /* \"#utility.yul\":9386:9388   */\n      0x20\n        /* \"#utility.yul\":9375:9384   */\n      dup3\n        /* \"#utility.yul\":9371:9389   */\n      add\n        /* \"#utility.yul\":9363:9389   */\n      swap1\n      pop\n        /* \"#utility.yul\":9435:9444   */\n      dup2\n        /* \"#utility.yul\":9429:9433   */\n      dup2\n        /* \"#utility.yul\":9425:9445   */\n      sub\n        /* \"#utility.yul\":9421:9422   */\n      0x00\n        /* \"#utility.yul\":9410:9419   */\n      dup4\n        /* \"#utility.yul\":9406:9423   */\n      add\n        /* \"#utility.yul\":9399:9446   */\n      mstore\n        /* \"#utility.yul\":9463:9594   */\n      tag_264\n        /* \"#utility.yul\":9589:9593   */\n      dup2\n        /* \"#utility.yul\":9463:9594   */\n      tag_141\n      jump\t// in\n    tag_264:\n        /* \"#utility.yul\":9455:9594   */\n      swap1\n      pop\n        /* \"#utility.yul\":9182:9601   */\n      swap2\n      swap1\n      pop\n      jump\t// out\n        /* \"#utility.yul\":9607:9770   */\n    tag_142:\n        /* \"#utility.yul\":9747:9762   */\n      0x4e6f2076616c6964206269647300000000000000000000000000000000000000\n        /* \"#utility.yul\":9743:9744   */\n      0x00\n        /* \"#utility.yul\":9735:9741   */\n      dup3\n        /* \"#utility.yul\":9731:9745   */\n      add\n        /* \"#utility.yul\":9724:9763   */\n      mstore\n        /* \"#utility.yul\":9607:9770   */\n      pop\n      jump\t// out\n        /* \"#utility.yul\":9776:10142   */\n    tag_143:\n        /* \"#utility.yul\":9918:9921   */\n      0x00\n        /* \"#utility.yul\":9939:10006   */\n      tag_267\n        /* \"#utility.yul\":10003:10005   */\n      0x0d\n        /* \"#utility.yul\":9998:10001   */\n      dup4\n        /* \"#utility.yul\":9939:10006   */\n      tag_133\n      jump\t// in\n    tag_267:\n        /* \"#utility.yul\":9932:10006   */\n      swap2\n      pop\n        /* \"#utility.yul\":10015:10108   */\n      tag_268\n        /* \"#utility.yul\":10104:10107   */\n      dup3\n        /* \"#utility.yul\":10015:10108   */\n      tag_142\n      jump\t// in\n    tag_268:\n        /* \"#utility.yul\":10133:10135   */\n      0x20\n        /* \"#utility.yul\":10128:10131   */\n      dup3\n        /* \"#utility.yul\":10124:10136   */\n      add\n        /* \"#utility.yul\":10117:10136   */\n      swap1\n      pop\n        /* \"#utility.yul\":9776:10142   */\n      swap2\n      swap1\n      pop\n      jump\t// out\n        /* \"#utility.yul\":10148:10567   */\n    tag_63:\n        /* \"#utility.yul\":10314:10318   */\n      0x00\n        /* \"#utility.yul\":10352:10354   */\n      0x20\n        /* \"#utility.yul\":10341:10350   */\n      dup3\n        /* \"#utility.yul\":10337:10355   */\n      add\n        /* \"#utility.yul\":10329:10355   */\n      swap1\n      pop\n        /* \"#utility.yul\":10401:10410   */\n      dup2\n        /* \"#utility.yul\":10395:10399   */\n      dup2\n        /* \"#utility.yul\":10391:10411   */\n      sub\n        /* \"#utility.yul\":10387:10388   */\n      0x00\n        /* \"#utility.yul\":10376:10385   */\n      dup4\n        /* \"#utility.yul\":10372:10389   */\n      add\n        /* \"#utility.yul\":10365:10412   */\n      mstore\n        /* \"#utility.yul\":10429:10560   */\n      tag_270\n        /* \"#utility.yul\":10555:10559   */\n      dup2\n        /* \"#utility.yul\":10429:10560   */\n      tag_143\n      jump\t// in\n    tag_270:\n        /* \"#utility.yul\":10421:10560   */\n      swap1\n      pop\n        /* \"#utility.yul\":10148:10567   */\n      swap2\n      swap1\n      pop\n      jump\t// out\n        /* \"#utility.yul\":10573:10745   */\n    tag_144:\n        /* \"#utility.yul\":10713:10737   */\n      0x4d7573696320697320616c7265616479206c696b656400000000000000000000\n        /* \"#utility.yul\":10709:10710   */\n      0x00\n        /* \"#utility.yul\":10701:10707   */\n      dup3\n        /* \"#utility.yul\":10697:10711   */\n      add\n        /* \"#utility.yul\":10690:10738   */\n      mstore\n        /* \"#utility.yul\":10573:10745   */\n      pop\n      jump\t// out\n        /* \"#utility.yul\":10751:11117   */\n    tag_145:\n        /* \"#utility.yul\":10893:10896   */\n      0x00\n        /* \"#utility.yul\":10914:10981   */\n      tag_273\n        /* \"#utility.yul\":10978:10980   */\n      0x16\n        /* \"#utility.yul\":10973:10976   */\n      dup4\n        /* \"#utility.yul\":10914:10981   */\n      tag_133\n      jump\t// in\n    tag_273:\n        /* \"#utility.yul\":10907:10981   */\n      swap2\n      pop\n        /* \"#utility.yul\":10990:11083   */\n      tag_274\n        /* \"#utility.yul\":11079:11082   */\n      dup3\n        /* \"#utility.yul\":10990:11083   */\n      tag_144\n      jump\t// in\n    tag_274:\n        /* \"#utility.yul\":11108:11110   */\n      0x20\n        /* \"#utility.yul\":11103:11106   */\n      dup3\n        /* \"#utility.yul\":11099:11111   */\n      add\n        /* \"#utility.yul\":11092:11111   */\n      swap1\n      pop\n        /* \"#utility.yul\":10751:11117   */\n      swap2\n      swap1\n      pop\n      jump\t// out\n        /* \"#utility.yul\":11123:11542   */\n    tag_73:\n        /* \"#utility.yul\":11289:11293   */\n      0x00\n        /* \"#utility.yul\":11327:11329   */\n      0x20\n        /* \"#utility.yul\":11316:11325   */\n      dup3\n        /* \"#utility.yul\":11312:11330   */\n      add\n        /* \"#utility.yul\":11304:11330   */\n      swap1\n      pop\n        /* \"#utility.yul\":11376:11385   */\n      dup2\n        /* \"#utility.yul\":11370:11374   */\n      dup2\n        /* \"#utility.yul\":11366:11386   */\n      sub\n        /* \"#utility.yul\":11362:11363   */\n      0x00\n        /* \"#utility.yul\":11351:11360   */\n      dup4\n        /* \"#utility.yul\":11347:11364   */\n      add\n        /* \"#utility.yul\":11340:11387   */\n      mstore\n        /* \"#utility.yul\":11404:11535   */\n      tag_276\n        /* \"#utility.yul\":11530:11534   */\n      dup2\n        /* \"#utility.yul\":11404:11535   */\n      tag_145\n      jump\t// in\n    tag_276:\n        /* \"#utility.yul\":11396:11535   */\n      swap1\n      pop\n        /* \"#utility.yul\":11123:11542   */\n      swap2\n      swap1\n      pop\n      jump\t// out\n        /* \"#utility.yul\":11548:11770   */\n    tag_146:\n        /* \"#utility.yul\":11688:11722   */\n      0x426964206d75737420626520686967686572207468616e2063757272656e7420\n        /* \"#utility.yul\":11684:11685   */\n      0x00\n        /* \"#utility.yul\":11676:11682   */\n      dup3\n        /* \"#utility.yul\":11672:11686   */\n      add\n        /* \"#utility.yul\":11665:11723   */\n      mstore\n        /* \"#utility.yul\":11757:11762   */\n      0x6269640000000000000000000000000000000000000000000000000000000000\n        /* \"#utility.yul\":11752:11754   */\n      0x20\n        /* \"#utility.yul\":11744:11750   */\n      dup3\n        /* \"#utility.yul\":11740:11755   */\n      add\n        /* \"#utility.yul\":11733:11763   */\n      mstore\n        /* \"#utility.yul\":11548:11770   */\n      pop\n      jump\t// out\n        /* \"#utility.yul\":11776:12142   */\n    tag_147:\n        /* \"#utility.yul\":11918:11921   */\n      0x00\n        /* \"#utility.yul\":11939:12006   */\n      tag_279\n        /* \"#utility.yul\":12003:12005   */\n      0x23\n        /* \"#utility.yul\":11998:12001   */\n      dup4\n        /* \"#utility.yul\":11939:12006   */\n      tag_133\n      jump\t// in\n    tag_279:\n        /* \"#utility.yul\":11932:12006   */\n      swap2\n      pop\n        /* \"#utility.yul\":12015:12108   */\n      tag_280\n        /* \"#utility.yul\":12104:12107   */\n      dup3\n        /* \"#utility.yul\":12015:12108   */\n      tag_146\n      jump\t// in\n    tag_280:\n        /* \"#utility.yul\":12133:12135   */\n      0x40\n        /* \"#utility.yul\":12128:12131   */\n      dup3\n        /* \"#utility.yul\":12124:12136   */\n      add\n        /* \"#utility.yul\":12117:12136   */\n      swap1\n      pop\n        /* \"#utility.yul\":11776:12142   */\n      swap2\n      swap1\n      pop\n      jump\t// out\n        /* \"#utility.yul\":12148:12567   */\n    tag_82:\n        /* \"#utility.yul\":12314:12318   */\n      0x00\n        /* \"#utility.yul\":12352:12354   */\n      0x20\n        /* \"#utility.yul\":12341:12350   */\n      dup3\n        /* \"#utility.yul\":12337:12355   */\n      add\n        /* \"#utility.yul\":12329:12355   */\n      swap1\n      pop\n        /* \"#utility.yul\":12401:12410   */\n      dup2\n        /* \"#utility.yul\":12395:12399   */\n      dup2\n        /* \"#utility.yul\":12391:12411   */\n      sub\n        /* \"#utility.yul\":12387:12388   */\n      0x00\n        /* \"#utility.yul\":12376:12385   */\n      dup4\n        /* \"#utility.yul\":12372:12389   */\n      add\n        /* \"#utility.yul\":12365:12412   */\n      mstore\n        /* \"#utility.yul\":12429:12560   */\n      tag_282\n        /* \"#utility.yul\":12555:12559   */\n      dup2\n        /* \"#utility.yul\":12429:12560   */\n      tag_147\n      jump\t// in\n    tag_282:\n        /* \"#utility.yul\":12421:12560   */\n      swap1\n      pop\n        /* \"#utility.yul\":12148:12567   */\n      swap2\n      swap1\n      pop\n      jump\t// out\n        /* \"#utility.yul\":12573:12749   */\n    tag_148:\n        /* \"#utility.yul\":12713:12741   */\n      0x596f752063616e6e6f7420666f6c6c6f7720796f757273656c66000000000000\n        /* \"#utility.yul\":12709:12710   */\n      0x00\n        /* \"#utility.yul\":12701:12707   */\n      dup3\n        /* \"#utility.yul\":12697:12711   */\n      add\n        /* \"#utility.yul\":12690:12742   */\n      mstore\n        /* \"#utility.yul\":12573:12749   */\n      pop\n      jump\t// out\n        /* \"#utility.yul\":12755:13121   */\n    tag_149:\n        /* \"#utility.yul\":12897:12900   */\n      0x00\n        /* \"#utility.yul\":12918:12985   */\n      tag_285\n        /* \"#utility.yul\":12982:12984   */\n      0x1a\n        /* \"#utility.yul\":12977:12980   */\n      dup4\n        /* \"#utility.yul\":12918:12985   */\n      tag_133\n      jump\t// in\n    tag_285:\n        /* \"#utility.yul\":12911:12985   */\n      swap2\n      pop\n        /* \"#utility.yul\":12994:13087   */\n      tag_286\n        /* \"#utility.yul\":13083:13086   */\n      dup3\n        /* \"#utility.yul\":12994:13087   */\n      tag_148\n      jump\t// in\n    tag_286:\n        /* \"#utility.yul\":13112:13114   */\n      0x20\n        /* \"#utility.yul\":13107:13110   */\n      dup3\n        /* \"#utility.yul\":13103:13115   */\n      add\n        /* \"#utility.yul\":13096:13115   */\n      swap1\n      pop\n        /* \"#utility.yul\":12755:13121   */\n      swap2\n      swap1\n      pop\n      jump\t// out\n        /* \"#utility.yul\":13127:13546   */\n    tag_87:\n        /* \"#utility.yul\":13293:13297   */\n      0x00\n        /* \"#utility.yul\":13331:13333   */\n      0x20\n        /* \"#utility.yul\":13320:13329   */\n      dup3\n        /* \"#utility.yul\":13316:13334   */\n      add\n        /* \"#utility.yul\":13308:13334   */\n      swap1\n      pop\n        /* \"#utility.yul\":13380:13389   */\n      dup2\n        /* \"#utility.yul\":13374:13378   */\n      dup2\n        /* \"#utility.yul\":13370:13390   */\n      sub\n        /* \"#utility.yul\":13366:13367   */\n      0x00\n        /* \"#utility.yul\":13355:13364   */\n      dup4\n        /* \"#utility.yul\":13351:13368   */\n      add\n        /* \"#utility.yul\":13344:13391   */\n      mstore\n        /* \"#utility.yul\":13408:13539   */\n      tag_288\n        /* \"#utility.yul\":13534:13538   */\n      dup2\n        /* \"#utility.yul\":13408:13539   */\n      tag_149\n      jump\t// in\n    tag_288:\n        /* \"#utility.yul\":13400:13539   */\n      swap1\n      pop\n        /* \"#utility.yul\":13127:13546   */\n      swap2\n      swap1\n      pop\n      jump\t// out\n        /* \"#utility.yul\":13552:13721   */\n    tag_150:\n        /* \"#utility.yul\":13692:13713   */\n      0x556e617574686f72697a65642073656e64657200000000000000000000000000\n        /* \"#utility.yul\":13688:13689   */\n      0x00\n        /* \"#utility.yul\":13680:13686   */\n      dup3\n        /* \"#utility.yul\":13676:13690   */\n      add\n        /* \"#utility.yul\":13669:13714   */\n      mstore\n        /* \"#utility.yul\":13552:13721   */\n      pop\n      jump\t// out\n        /* \"#utility.yul\":13727:14093   */\n    tag_151:\n        /* \"#utility.yul\":13869:13872   */\n      0x00\n        /* \"#utility.yul\":13890:13957   */\n      tag_291\n        /* \"#utility.yul\":13954:13956   */\n      0x13\n        /* \"#utility.yul\":13949:13952   */\n      dup4\n        /* \"#utility.yul\":13890:13957   */\n      tag_133\n      jump\t// in\n    tag_291:\n        /* \"#utility.yul\":13883:13957   */\n      swap2\n      pop\n        /* \"#utility.yul\":13966:14059   */\n      tag_292\n        /* \"#utility.yul\":14055:14058   */\n      dup3\n        /* \"#utility.yul\":13966:14059   */\n      tag_150\n      jump\t// in\n    tag_292:\n        /* \"#utility.yul\":14084:14086   */\n      0x20\n        /* \"#utility.yul\":14079:14082   */\n      dup3\n        /* \"#utility.yul\":14075:14087   */\n      add\n        /* \"#utility.yul\":14068:14087   */\n      swap1\n      pop\n        /* \"#utility.yul\":13727:14093   */\n      swap2\n      swap1\n      pop\n      jump\t// out\n        /* \"#utility.yul\":14099:14518   */\n    tag_95:\n        /* \"#utility.yul\":14265:14269   */\n      0x00\n        /* \"#utility.yul\":14303:14305   */\n      0x20\n        /* \"#utility.yul\":14292:14301   */\n      dup3\n        /* \"#utility.yul\":14288:14306   */\n      add\n        /* \"#utility.yul\":14280:14306   */\n      swap1\n      pop\n        /* \"#utility.yul\":14352:14361   */\n      dup2\n        /* \"#utility.yul\":14346:14350   */\n      dup2\n        /* \"#utility.yul\":14342:14362   */\n      sub\n        /* \"#utility.yul\":14338:14339   */\n      0x00\n        /* \"#utility.yul\":14327:14336   */\n      dup4\n        /* \"#utility.yul\":14323:14340   */\n      add\n        /* \"#utility.yul\":14316:14363   */\n      mstore\n        /* \"#utility.yul\":14380:14511   */\n      tag_294\n        /* \"#utility.yul\":14506:14510   */\n      dup2\n        /* \"#utility.yul\":14380:14511   */\n      tag_151\n      jump\t// in\n    tag_294:\n        /* \"#utility.yul\":14372:14511   */\n      swap1\n      pop\n        /* \"#utility.yul\":14099:14518   */\n      swap2\n      swap1\n      pop\n      jump\t// out\n        /* \"#utility.yul\":14524:14697   */\n    tag_152:\n        /* \"#utility.yul\":14664:14689   */\n      0x4d6573736167652063616e6e6f7420626520656d707479000000000000000000\n        /* \"#utility.yul\":14660:14661   */\n      0x00\n        /* \"#utility.yul\":14652:14658   */\n      dup3\n        /* \"#utility.yul\":14648:14662   */\n      add\n        /* \"#utility.yul\":14641:14690   */\n      mstore\n        /* \"#utility.yul\":14524:14697   */\n      pop\n      jump\t// out\n        /* \"#utility.yul\":14703:15069   */\n    tag_153:\n        /* \"#utility.yul\":14845:14848   */\n      0x00\n        /* \"#utility.yul\":14866:14933   */\n      tag_297\n        /* \"#utility.yul\":14930:14932   */\n      0x17\n        /* \"#utility.yul\":14925:14928   */\n      dup4\n        /* \"#utility.yul\":14866:14933   */\n      tag_133\n      jump\t// in\n    tag_297:\n        /* \"#utility.yul\":14859:14933   */\n      swap2\n      pop\n        /* \"#utility.yul\":14942:15035   */\n      tag_298\n        /* \"#utility.yul\":15031:15034   */\n      dup3\n        /* \"#utility.yul\":14942:15035   */\n      tag_152\n      jump\t// in\n    tag_298:\n        /* \"#utility.yul\":15060:15062   */\n      0x20\n        /* \"#utility.yul\":15055:15058   */\n      dup3\n        /* \"#utility.yul\":15051:15063   */\n      add\n        /* \"#utility.yul\":15044:15063   */\n      swap1\n      pop\n        /* \"#utility.yul\":14703:15069   */\n      swap2\n      swap1\n      pop\n      jump\t// out\n        /* \"#utility.yul\":15075:15494   */\n    tag_98:\n        /* \"#utility.yul\":15241:15245   */\n      0x00\n        /* \"#utility.yul\":15279:15281   */\n      0x20\n        /* \"#utility.yul\":15268:15277   */\n      dup3\n        /* \"#utility.yul\":15264:15282   */\n      add\n        /* \"#utility.yul\":15256:15282   */\n      swap1\n      pop\n        /* \"#utility.yul\":15328:15337   */\n      dup2\n        /* \"#utility.yul\":15322:15326   */\n      dup2\n        /* \"#utility.yul\":15318:15338   */\n      sub\n        /* \"#utility.yul\":15314:15315   */\n      0x00\n        /* \"#utility.yul\":15303:15312   */\n      dup4\n        /* \"#utility.yul\":15299:15316   */\n      add\n        /* \"#utility.yul\":15292:15339   */\n      mstore\n        /* \"#utility.yul\":15356:15487   */\n      tag_300\n        /* \"#utility.yul\":15482:15486   */\n      dup2\n        /* \"#utility.yul\":15356:15487   */\n      tag_153\n      jump\t// in\n    tag_300:\n        /* \"#utility.yul\":15348:15487   */\n      swap1\n      pop\n        /* \"#utility.yul\":15075:15494   */\n      swap2\n      swap1\n      pop\n      jump\t// out\n        /* \"#utility.yul\":15500:15598   */\n    tag_154:\n        /* \"#utility.yul\":15551:15557   */\n      0x00\n        /* \"#utility.yul\":15585:15590   */\n      dup2\n        /* \"#utility.yul\":15579:15591   */\n      mload\n        /* \"#utility.yul\":15569:15591   */\n      swap1\n      pop\n        /* \"#utility.yul\":15500:15598   */\n      swap2\n      swap1\n      pop\n      jump\t// out\n        /* \"#utility.yul\":15604:15784   */\n    tag_155:\n        /* \"#utility.yul\":15652:15729   */\n      0x4e487b7100000000000000000000000000000000000000000000000000000000\n        /* \"#utility.yul\":15649:15650   */\n      0x00\n        /* \"#utility.yul\":15642:15730   */\n      mstore\n        /* \"#utility.yul\":15749:15753   */\n      0x22\n        /* \"#utility.yul\":15746:15747   */\n      0x04\n        /* \"#utility.yul\":15739:15754   */\n      mstore\n        /* \"#utility.yul\":15773:15777   */\n      0x24\n        /* \"#utility.yul\":15770:15771   */\n      0x00\n        /* \"#utility.yul\":15763:15778   */\n      revert\n        /* \"#utility.yul\":15790:16110   */\n    tag_156:\n        /* \"#utility.yul\":15834:15840   */\n      0x00\n        /* \"#utility.yul\":15871:15872   */\n      0x02\n        /* \"#utility.yul\":15865:15869   */\n      dup3\n        /* \"#utility.yul\":15861:15873   */\n      div\n        /* \"#utility.yul\":15851:15873   */\n      swap1\n      pop\n        /* \"#utility.yul\":15918:15919   */\n      0x01\n        /* \"#utility.yul\":15912:15916   */\n      dup3\n        /* \"#utility.yul\":15908:15920   */\n      and\n        /* \"#utility.yul\":15939:15957   */\n      dup1\n        /* \"#utility.yul\":15929:16010   */\n      tag_304\n      jumpi\n        /* \"#utility.yul\":15995:15999   */\n      0x7f\n        /* \"#utility.yul\":15987:15993   */\n      dup3\n        /* \"#utility.yul\":15983:16000   */\n      and\n        /* \"#utility.yul\":15973:16000   */\n      swap2\n      pop\n        /* \"#utility.yul\":15929:16010   */\n    tag_304:\n        /* \"#utility.yul\":16057:16059   */\n      0x20\n        /* \"#utility.yul\":16049:16055   */\n      dup3\n        /* \"#utility.yul\":16046:16060   */\n      lt\n        /* \"#utility.yul\":16026:16044   */\n      dup2\n        /* \"#utility.yul\":16023:16061   */\n      sub\n        /* \"#utility.yul\":16020:16104   */\n      tag_305\n      jumpi\n        /* \"#utility.yul\":16076:16094   */\n      tag_306\n      tag_155\n      jump\t// in\n    tag_306:\n        /* \"#utility.yul\":16020:16104   */\n    tag_305:\n        /* \"#utility.yul\":15841:16110   */\n      pop\n        /* \"#utility.yul\":15790:16110   */\n      swap2\n      swap1\n      pop\n      jump\t// out\n        /* \"#utility.yul\":16116:16256   */\n    tag_157:\n        /* \"#utility.yul\":16164:16168   */\n      0x00\n        /* \"#utility.yul\":16187:16190   */\n      dup2\n        /* \"#utility.yul\":16179:16190   */\n      swap1\n      pop\n        /* \"#utility.yul\":16210:16213   */\n      dup2\n        /* \"#utility.yul\":16207:16208   */\n      0x00\n        /* \"#utility.yul\":16200:16214   */\n      mstore\n        /* \"#utility.yul\":16244:16248   */\n      0x20\n        /* \"#utility.yul\":16241:16242   */\n      0x00\n        /* \"#utility.yul\":16231:16249   */\n      keccak256\n        /* \"#utility.yul\":16223:16249   */\n      swap1\n      pop\n        /* \"#utility.yul\":16116:16256   */\n      swap2\n      swap1\n      pop\n      jump\t// out\n        /* \"#utility.yul\":16262:16355   */\n    tag_158:\n        /* \"#utility.yul\":16299:16305   */\n      0x00\n        /* \"#utility.yul\":16346:16348   */\n      0x20\n        /* \"#utility.yul\":16341:16343   */\n      0x1f\n        /* \"#utility.yul\":16334:16339   */\n      dup4\n        /* \"#utility.yul\":16330:16344   */\n      add\n        /* \"#utility.yul\":16326:16349   */\n      div\n        /* \"#utility.yul\":16316:16349   */\n      swap1\n      pop\n        /* \"#utility.yul\":16262:16355   */\n      swap2\n      swap1\n      pop\n      jump\t// out\n        /* \"#utility.yul\":16361:16468   */\n    tag_159:\n        /* \"#utility.yul\":16405:16413   */\n      0x00\n        /* \"#utility.yul\":16455:16460   */\n      dup3\n        /* \"#utility.yul\":16449:16453   */\n      dup3\n        /* \"#utility.yul\":16445:16461   */\n      shl\n        /* \"#utility.yul\":16424:16461   */\n      swap1\n      pop\n        /* \"#utility.yul\":16361:16468   */\n      swap3\n      swap2\n      pop\n      pop\n      jump\t// out\n        /* \"#utility.yul\":16474:16867   */\n    tag_160:\n        /* \"#utility.yul\":16543:16549   */\n      0x00\n        /* \"#utility.yul\":16593:16594   */\n      0x08\n        /* \"#utility.yul\":16581:16591   */\n      dup4\n        /* \"#utility.yul\":16577:16595   */\n      mul\n        /* \"#utility.yul\":16616:16713   */\n      tag_311\n        /* \"#utility.yul\":16646:16712   */\n      0xffffffffffffffffffffffffffffffffffffffffffffffffffffffffffffffff\n        /* \"#utility.yul\":16635:16644   */\n      dup3\n        /* \"#utility.yul\":16616:16713   */\n      tag_159\n      jump\t// in\n    tag_311:\n        /* \"#utility.yul\":16734:16773   */\n      tag_312\n        /* \"#utility.yul\":16764:16772   */\n      dup7\n        /* \"#utility.yul\":16753:16762   */\n      dup4\n        /* \"#utility.yul\":16734:16773   */\n      tag_159\n      jump\t// in\n    tag_312:\n        /* \"#utility.yul\":16722:16773   */\n      swap6\n      pop\n        /* \"#utility.yul\":16806:16810   */\n      dup1\n        /* \"#utility.yul\":16802:16811   */\n      not\n        /* \"#utility.yul\":16795:16800   */\n      dup5\n        /* \"#utility.yul\":16791:16812   */\n      and\n        /* \"#utility.yul\":16782:16812   */\n      swap4\n      pop\n        /* \"#utility.yul\":16855:16859   */\n      dup1\n        /* \"#utility.yul\":16845:16853   */\n      dup7\n        /* \"#utility.yul\":16841:16860   */\n      and\n        /* \"#utility.yul\":16834:16839   */\n      dup5\n        /* \"#utility.yul\":16831:16861   */\n      or\n        /* \"#utility.yul\":16821:16861   */\n      swap3\n      pop\n        /* \"#utility.yul\":16550:16867   */\n      pop\n      pop\n        /* \"#utility.yul\":16474:16867   */\n      swap4\n      swap3\n      pop\n      pop\n      pop\n      jump\t// out\n        /* \"#utility.yul\":16873:16933   */\n    tag_161:\n        /* \"#utility.yul\":16901:16904   */\n      0x00\n        /* \"#utility.yul\":16922:16927   */\n      dup2\n        /* \"#utility.yul\":16915:16927   */\n      swap1\n      pop\n        /* \"#utility.yul\":16873:16933   */\n      swap2\n      swap1\n      pop\n      jump\t// out\n        /* \"#utility.yul\":16939:17081   */\n    tag_162:\n        /* \"#utility.yul\":16989:16998   */\n      0x00\n        /* \"#utility.yul\":17022:17075   */\n      tag_315\n        /* \"#utility.yul\":17040:17074   */\n      tag_316\n        /* \"#utility.yul\":17049:17073   */\n      tag_317\n        /* \"#utility.yul\":17067:17072   */\n      dup5\n        /* \"#utility.yul\":17049:17073   */\n      tag_114\n      jump\t// in\n    tag_317:\n        /* \"#utility.yul\":17040:17074   */\n      tag_161\n      jump\t// in\n    tag_316:\n        /* \"#utility.yul\":17022:17075   */\n      tag_114\n      jump\t// in\n    tag_315:\n        /* \"#utility.yul\":17009:17075   */\n      swap1\n      pop\n        /* \"#utility.yul\":16939:17081   */\n      swap2\n      swap1\n      pop\n      jump\t// out\n        /* \"#utility.yul\":17087:17162   */\n    tag_163:\n        /* \"#utility.yul\":17130:17133   */\n      0x00\n        /* \"#utility.yul\":17151:17156   */\n      dup2\n        /* \"#utility.yul\":17144:17156   */\n      swap1\n      pop\n        /* \"#utility.yul\":17087:17162   */\n      swap2\n      swap1\n      pop\n      jump\t// out\n        /* \"#utility.yul\":17168:17437   */\n    tag_164:\n        /* \"#utility.yul\":17278:17317   */\n      tag_320\n        /* \"#utility.yul\":17309:17316   */\n      dup4\n        /* \"#utility.yul\":17278:17317   */\n      tag_162\n      jump\t// in\n    tag_320:\n        /* \"#utility.yul\":17339:17430   */\n      tag_321\n        /* \"#utility.yul\":17388:17429   */\n      tag_322\n        /* \"#utility.yul\":17412:17428   */\n      dup3\n        /* \"#utility.yul\":17388:17429   */\n      tag_163\n      jump\t// in\n    tag_322:\n        /* \"#utility.yul\":17380:17386   */\n      dup5\n        /* \"#utility.yul\":17373:17377   */\n      dup5\n        /* \"#utility.yul\":17367:17378   */\n      sload\n        /* \"#utility.yul\":17339:17430   */\n      tag_160\n      jump\t// in\n    tag_321:\n        /* \"#utility.yul\":17333:17337   */\n      dup3\n        /* \"#utility.yul\":17326:17431   */\n      sstore\n        /* \"#utility.yul\":17244:17437   */\n      pop\n        /* \"#utility.yul\":17168:17437   */\n      pop\n      pop\n      pop\n      jump\t// out\n        /* \"#utility.yul\":17443:17516   */\n    tag_165:\n        /* \"#utility.yul\":17488:17491   */\n      0x00\n        /* \"#utility.yul\":17443:17516   */\n      swap1\n      jump\t// out\n        /* \"#utility.yul\":17522:17711   */\n    tag_166:\n        /* \"#utility.yul\":17599:17631   */\n      tag_325\n      tag_165\n      jump\t// in\n    tag_325:\n        /* \"#utility.yul\":17640:17705   */\n      tag_326\n        /* \"#utility.yul\":17698:17704   */\n      dup2\n        /* \"#utility.yul\":17690:17696   */\n      dup5\n        /* \"#utility.yul\":17684:17688   */\n      dup5\n        /* \"#utility.yul\":17640:17705   */\n      tag_164\n      jump\t// in\n    tag_326:\n        /* \"#utility.yul\":17575:17711   */\n      pop\n        /* \"#utility.yul\":17522:17711   */\n      pop\n      pop\n      jump\t// out\n        /* \"#utility.yul\":17717:17903   */\n    tag_167:\n        /* \"#utility.yul\":17777:17897   */\n    tag_328:\n        /* \"#utility.yul\":17794:17797   */\n      dup2\n        /* \"#utility.yul\":17787:17792   */\n      dup2\n        /* \"#utility.yul\":17784:17798   */\n      lt\n        /* \"#utility.yul\":17777:17897   */\n      iszero\n      tag_330\n      jumpi\n        /* \"#utility.yul\":17848:17887   */\n      tag_331\n        /* \"#utility.yul\":17885:17886   */\n      0x00\n        /* \"#utility.yul\":17878:17883   */\n      dup3\n        /* \"#utility.yul\":17848:17887   */\n      tag_166\n      jump\t// in\n    tag_331:\n        /* \"#utility.yul\":17821:17822   */\n      0x01\n        /* \"#utility.yul\":17814:17819   */\n      dup2\n        /* \"#utility.yul\":17810:17823   */\n      add\n        /* \"#utility.yul\":17801:17823   */\n      swap1\n      pop\n        /* \"#utility.yul\":17777:17897   */\n      jump(tag_328)\n    tag_330:\n        /* \"#utility.yul\":17717:17903   */\n      pop\n      pop\n      jump\t// out\n        /* \"#utility.yul\":17909:18450   */\n    tag_168:\n        /* \"#utility.yul\":18009:18011   */\n      0x1f\n        /* \"#utility.yul\":18004:18007   */\n      dup3\n        /* \"#utility.yul\":18001:18012   */\n      gt\n        /* \"#utility.yul\":17998:18443   */\n      iszero\n      tag_333\n      jumpi\n        /* \"#utility.yul\":18043:18080   */\n      tag_334\n        /* \"#utility.yul\":18074:18079   */\n      dup2\n        /* \"#utility.yul\":18043:18080   */\n      tag_157\n      jump\t// in\n    tag_334:\n        /* \"#utility.yul\":18126:18155   */\n      tag_335\n        /* \"#utility.yul\":18144:18154   */\n      dup5\n        /* \"#utility.yul\":18126:18155   */\n      tag_158\n      jump\t// in\n    tag_335:\n        /* \"#utility.yul\":18116:18124   */\n      dup2\n        /* \"#utility.yul\":18112:18156   */\n      add\n        /* \"#utility.yul\":18309:18311   */\n      0x20\n        /* \"#utility.yul\":18297:18307   */\n      dup6\n        /* \"#utility.yul\":18294:18312   */\n      lt\n        /* \"#utility.yul\":18291:18340   */\n      iszero\n      tag_336\n      jumpi\n        /* \"#utility.yul\":18330:18338   */\n      dup2\n        /* \"#utility.yul\":18315:18338   */\n      swap1\n      pop\n        /* \"#utility.yul\":18291:18340   */\n    tag_336:\n        /* \"#utility.yul\":18353:18433   */\n      tag_337\n        /* \"#utility.yul\":18409:18431   */\n      tag_338\n        /* \"#utility.yul\":18427:18430   */\n      dup6\n        /* \"#utility.yul\":18409:18431   */\n      tag_158\n      jump\t// in\n    tag_338:\n        /* \"#utility.yul\":18399:18407   */\n      dup4\n        /* \"#utility.yul\":18395:18432   */\n      add\n        /* \"#utility.yul\":18382:18393   */\n      dup3\n        /* \"#utility.yul\":18353:18433   */\n      tag_167\n      jump\t// in\n    tag_337:\n        /* \"#utility.yul\":18013:18443   */\n      pop\n      pop\n        /* \"#utility.yul\":17998:18443   */\n    tag_333:\n        /* \"#utility.yul\":17909:18450   */\n      pop\n      pop\n      pop\n      jump\t// out\n        /* \"#utility.yul\":18456:18573   */\n    tag_169:\n        /* \"#utility.yul\":18510:18518   */\n      0x00\n        /* \"#utility.yul\":18560:18565   */\n      dup3\n        /* \"#utility.yul\":18554:18558   */\n      dup3\n        /* \"#utility.yul\":18550:18566   */\n      shr\n        /* \"#utility.yul\":18529:18566   */\n      swap1\n      pop\n        /* \"#utility.yul\":18456:18573   */\n      swap3\n      swap2\n      pop\n      pop\n      jump\t// out\n        /* \"#utility.yul\":18579:18748   */\n    tag_170:\n        /* \"#utility.yul\":18623:18629   */\n      0x00\n        /* \"#utility.yul\":18656:18707   */\n      tag_341\n        /* \"#utility.yul\":18704:18705   */\n      0x00\n        /* \"#utility.yul\":18700:18706   */\n      not\n        /* \"#utility.yul\":18692:18697   */\n      dup5\n        /* \"#utility.yul\":18689:18690   */\n      0x08\n        /* \"#utility.yul\":18685:18698   */\n      mul\n        /* \"#utility.yul\":18656:18707   */\n      tag_169\n      jump\t// in\n    tag_341:\n        /* \"#utility.yul\":18652:18708   */\n      not\n        /* \"#utility.yul\":18737:18741   */\n      dup1\n        /* \"#utility.yul\":18731:18735   */\n      dup4\n        /* \"#utility.yul\":18727:18742   */\n      and\n        /* \"#utility.yul\":18717:18742   */\n      swap2\n      pop\n        /* \"#utility.yul\":18630:18748   */\n      pop\n        /* \"#utility.yul\":18579:18748   */\n      swap3\n      swap2\n      pop\n      pop\n      jump\t// out\n        /* \"#utility.yul\":18753:19048   */\n    tag_171:\n        /* \"#utility.yul\":18829:18833   */\n      0x00\n        /* \"#utility.yul\":18975:19004   */\n      tag_343\n        /* \"#utility.yul\":19000:19003   */\n      dup4\n        /* \"#utility.yul\":18994:18998   */\n      dup4\n        /* \"#utility.yul\":18975:19004   */\n      tag_170\n      jump\t// in\n    tag_343:\n        /* \"#utility.yul\":18967:19004   */\n      swap2\n      pop\n        /* \"#utility.yul\":19037:19040   */\n      dup3\n        /* \"#utility.yul\":19034:19035   */\n      0x02\n        /* \"#utility.yul\":19030:19041   */\n      mul\n        /* \"#utility.yul\":19024:19028   */\n      dup3\n        /* \"#utility.yul\":19021:19042   */\n      or\n        /* \"#utility.yul\":19013:19042   */\n      swap1\n      pop\n        /* \"#utility.yul\":18753:19048   */\n      swap3\n      swap2\n      pop\n      pop\n      jump\t// out\n        /* \"#utility.yul\":19053:20443   */\n    tag_101:\n        /* \"#utility.yul\":19168:19204   */\n      tag_345\n        /* \"#utility.yul\":19200:19203   */\n      dup3\n        /* \"#utility.yul\":19168:19204   */\n      tag_154\n      jump\t// in\n    tag_345:\n        /* \"#utility.yul\":19269:19287   */\n      0xffffffffffffffff\n        /* \"#utility.yul\":19261:19267   */\n      dup2\n        /* \"#utility.yul\":19258:19288   */\n      gt\n        /* \"#utility.yul\":19255:19311   */\n      iszero\n      tag_346\n      jumpi\n        /* \"#utility.yul\":19291:19309   */\n      tag_347\n      tag_124\n      jump\t// in\n    tag_347:\n        /* \"#utility.yul\":19255:19311   */\n    tag_346:\n        /* \"#utility.yul\":19335:19373   */\n      tag_348\n        /* \"#utility.yul\":19367:19371   */\n      dup3\n        /* \"#utility.yul\":19361:19372   */\n      sload\n        /* \"#utility.yul\":19335:19373   */\n      tag_156\n      jump\t// in\n    tag_348:\n        /* \"#utility.yul\":19420:19486   */\n      tag_349\n        /* \"#utility.yul\":19479:19485   */\n      dup3\n        /* \"#utility.yul\":19471:19477   */\n      dup3\n        /* \"#utility.yul\":19465:19469   */\n      dup6\n        /* \"#utility.yul\":19420:19486   */\n      tag_168\n      jump\t// in\n    tag_349:\n        /* \"#utility.yul\":19513:19514   */\n      0x00\n        /* \"#utility.yul\":19537:19541   */\n      0x20\n        /* \"#utility.yul\":19524:19541   */\n      swap1\n      pop\n        /* \"#utility.yul\":19569:19571   */\n      0x1f\n        /* \"#utility.yul\":19561:19567   */\n      dup4\n        /* \"#utility.yul\":19558:19572   */\n      gt\n        /* \"#utility.yul\":19586:19587   */\n      0x01\n        /* \"#utility.yul\":19581:20198   */\n      dup2\n      eq\n      tag_351\n      jumpi\n        /* \"#utility.yul\":20242:20243   */\n      0x00\n        /* \"#utility.yul\":20259:20265   */\n      dup5\n        /* \"#utility.yul\":20256:20333   */\n      iszero\n      tag_352\n      jumpi\n        /* \"#utility.yul\":20308:20317   */\n      dup3\n        /* \"#utility.yul\":20303:20306   */\n      dup8\n        /* \"#utility.yul\":20299:20318   */\n      add\n        /* \"#utility.yul\":20293:20319   */\n      mload\n        /* \"#utility.yul\":20284:20319   */\n      swap1\n      pop\n        /* \"#utility.yul\":20256:20333   */\n    tag_352:\n        /* \"#utility.yul\":20359:20426   */\n      tag_353\n        /* \"#utility.yul\":20419:20425   */\n      dup6\n        /* \"#utility.yul\":20412:20417   */\n      dup3\n        /* \"#utility.yul\":20359:20426   */\n      tag_171\n      jump\t// in\n    tag_353:\n        /* \"#utility.yul\":20353:20357   */\n      dup7\n        /* \"#utility.yul\":20346:20427   */\n      sstore\n        /* \"#utility.yul\":20215:20437   */\n      pop\n        /* \"#utility.yul\":19551:20437   */\n      jump(tag_350)\n        /* \"#utility.yul\":19581:20198   */\n    tag_351:\n        /* \"#utility.yul\":19633:19637   */\n      0x1f\n        /* \"#utility.yul\":19629:19638   */\n      not\n        /* \"#utility.yul\":19621:19627   */\n      dup5\n        /* \"#utility.yul\":19617:19639   */\n      and\n        /* \"#utility.yul\":19667:19703   */\n      tag_354\n        /* \"#utility.yul\":19698:19702   */\n      dup7\n        /* \"#utility.yul\":19667:19703   */\n      tag_157\n      jump\t// in\n    tag_354:\n        /* \"#utility.yul\":19725:19726   */\n      0x00\n        /* \"#utility.yul\":19739:19947   */\n    tag_355:\n        /* \"#utility.yul\":19753:19760   */\n      dup3\n        /* \"#utility.yul\":19750:19751   */\n      dup2\n        /* \"#utility.yul\":19747:19761   */\n      lt\n        /* \"#utility.yul\":19739:19947   */\n      iszero\n      tag_357\n      jumpi\n        /* \"#utility.yul\":19832:19841   */\n      dup5\n        /* \"#utility.yul\":19827:19830   */\n      dup10\n        /* \"#utility.yul\":19823:19842   */\n      add\n        /* \"#utility.yul\":19817:19843   */\n      mload\n        /* \"#utility.yul\":19809:19815   */\n      dup3\n        /* \"#utility.yul\":19802:19844   */\n      sstore\n        /* \"#utility.yul\":19883:19884   */\n      0x01\n        /* \"#utility.yul\":19875:19881   */\n      dup3\n        /* \"#utility.yul\":19871:19885   */\n      add\n        /* \"#utility.yul\":19861:19885   */\n      swap2\n      pop\n        /* \"#utility.yul\":19930:19932   */\n      0x20\n        /* \"#utility.yul\":19919:19928   */\n      dup6\n        /* \"#utility.yul\":19915:19933   */\n      add\n        /* \"#utility.yul\":19902:19933   */\n      swap5\n      pop\n        /* \"#utility.yul\":19776:19780   */\n      0x20\n        /* \"#utility.yul\":19773:19774   */\n      dup2\n        /* \"#utility.yul\":19769:19781   */\n      add\n        /* \"#utility.yul\":19764:19781   */\n      swap1\n      pop\n        /* \"#utility.yul\":19739:19947   */\n      jump(tag_355)\n    tag_357:\n        /* \"#utility.yul\":19975:19981   */\n      dup7\n        /* \"#utility.yul\":19966:19973   */\n      dup4\n        /* \"#utility.yul\":19963:19982   */\n      lt\n        /* \"#utility.yul\":19960:20139   */\n      iszero\n      tag_358\n      jumpi\n        /* \"#utility.yul\":20033:20042   */\n      dup5\n        /* \"#utility.yul\":20028:20031   */\n      dup10\n        /* \"#utility.yul\":20024:20043   */\n      add\n        /* \"#utility.yul\":20018:20044   */\n      mload\n        /* \"#utility.yul\":20076:20124   */\n      tag_359\n        /* \"#utility.yul\":20118:20122   */\n      0x1f\n        /* \"#utility.yul\":20110:20116   */\n      dup10\n        /* \"#utility.yul\":20106:20123   */\n      and\n        /* \"#utility.yul\":20095:20104   */\n      dup3\n        /* \"#utility.yul\":20076:20124   */\n      tag_170\n      jump\t// in\n    tag_359:\n        /* \"#utility.yul\":20068:20074   */\n      dup4\n        /* \"#utility.yul\":20061:20125   */\n      sstore\n        /* \"#utility.yul\":19983:20139   */\n      pop\n        /* \"#utility.yul\":19960:20139   */\n    tag_358:\n        /* \"#utility.yul\":20185:20186   */\n      0x01\n        /* \"#utility.yul\":20181:20182   */\n      0x02\n        /* \"#utility.yul\":20173:20179   */\n      dup9\n        /* \"#utility.yul\":20169:20183   */\n      mul\n        /* \"#utility.yul\":20165:20187   */\n      add\n        /* \"#utility.yul\":20159:20163   */\n      dup9\n        /* \"#utility.yul\":20152:20188   */\n      sstore\n        /* \"#utility.yul\":19588:20198   */\n      pop\n      pop\n      pop\n        /* \"#utility.yul\":19551:20437   */\n    tag_350:\n      pop\n        /* \"#utility.yul\":19143:20443   */\n      pop\n      pop\n      pop\n        /* \"#utility.yul\":19053:20443   */\n      pop\n      pop\n      jump\t// out\n        /* \"#utility.yul\":20449:20629   */\n    tag_108:\n        /* \"#utility.yul\":20497:20574   */\n      0x4e487b7100000000000000000000000000000000000000000000000000000000\n        /* \"#utility.yul\":20494:20495   */\n      0x00\n        /* \"#utility.yul\":20487:20575   */\n      mstore\n        /* \"#utility.yul\":20594:20598   */\n      0x32\n        /* \"#utility.yul\":20591:20592   */\n      0x04\n        /* \"#utility.yul\":20584:20599   */\n      mstore\n        /* \"#utility.yul\":20618:20622   */\n      0x24\n        /* \"#utility.yul\":20615:20616   */\n      0x00\n        /* \"#utility.yul\":20608:20623   */\n      revert\n\n    auxdata: 0xa264697066735822122038156a9e8df0a3b295e7ada114194867ee86ac410d8818cebec243a2de0837c664736f6c634300081a0033\n}\n",
				"bytecode": {
					"linkReferences": {},
					"object": "6080604052348015600e575f80fd5b50611b818061001c5f395ff3fe60806040526004361061006e575f3560e01c80636b792d5b1161004d5780636b792d5b146100de5780639979ef4514610106578063a432ba2014610122578063e289adcd1461014a5761006e565b8062ba2c23146100725780632538c5331461009a5780632b1fd58a146100b6575b5f80fd5b34801561007d575f80fd5b5061009860048036038101906100939190611123565b610172565b005b6100b460048036038101906100af9190611123565b6102d7565b005b3480156100c1575f80fd5b506100dc60048036038101906100d79190611123565b6105ac565b005b3480156100e9575f80fd5b5061010460048036038101906100ff9190611123565b6107fb565b005b610120600480360381019061011b9190611123565b6109da565b005b34801561012d575f80fd5b50610148600480360381019061014391906111a8565b610bad565b005b348015610155575f80fd5b50610170600480360381019061016b919061130f565b610d13565b005b5f805f815461018090611396565b919050819055905060405180608001604052808281526020013373ffffffffffffffffffffffffffffffffffffffff1681526020018381526020015f81525060015f8381526020019081526020015f205f820151815f01556020820151816001015f6101000a81548173ffffffffffffffffffffffffffffffffffffffff021916908373ffffffffffffffffffffffffffffffffffffffff16021790555060408201518160020155606082015181600301559050503360075f8381526020019081526020015f205f6101000a81548173ffffffffffffffffffffffffffffffffffffffff021916908373ffffffffffffffffffffffffffffffffffffffff1602179055503373ffffffffffffffffffffffffffffffffffffffff16817f31e6c864e2c622a7b4dafc2612fb4ca8ef303310a6ea7bd7afd1a325577de96d846040516102cb91906113ec565b60405180910390a35050565b5f73ffffffffffffffffffffffffffffffffffffffff1660075f8381526020019081526020015f205f9054906101000a900473ffffffffffffffffffffffffffffffffffffffff1673ffffffffffffffffffffffffffffffffffffffff1603610375576040517f08c379a000000000000000000000000000000000000000000000000000000000815260040161036c9061145f565b60405180910390fd5b3373ffffffffffffffffffffffffffffffffffffffff1660075f8381526020019081526020015f205f9054906101000a900473ffffffffffffffffffffffffffffffffffffffff1673ffffffffffffffffffffffffffffffffffffffff1603610413576040517f08c379a000000000000000000000000000000000000000000000000000000000815260040161040a906114c7565b60405180910390fd5b60015f8281526020019081526020015f206002015434101561046a576040517f08c379a00000000000000000000000000000000000000000000000000000000081526004016104619061152f565b60405180910390fd5b5f60075f8381526020019081526020015f205f9054906101000a900473ffffffffffffffffffffffffffffffffffffffff1690508073ffffffffffffffffffffffffffffffffffffffff166108fc60015f8581526020019081526020015f206002015490811502906040515f60405180830381858888f193505050501580156104f5573d5f803e3d5ffd5b503360075f8481526020019081526020015f205f6101000a81548173ffffffffffffffffffffffffffffffffffffffff021916908373ffffffffffffffffffffffffffffffffffffffff1602179055503373ffffffffffffffffffffffffffffffffffffffff16827f36b7402e3697821c4bcfe9ac412c0b7922a9308d632b152d8384b9a3be73ad1060015f8681526020019081526020015f20600201546040516105a091906113ec565b60405180910390a35050565b3373ffffffffffffffffffffffffffffffffffffffff1660075f8381526020019081526020015f205f9054906101000a900473ffffffffffffffffffffffffffffffffffffffff1673ffffffffffffffffffffffffffffffffffffffff161461064a576040517f08c379a000000000000000000000000000000000000000000000000000000000815260040161064190611597565b60405180910390fd5b5f60055f8381526020019081526020015f2060010154116106a0576040517f08c379a0000000000000000000000000000000000000000000000000000000008152600401610697906115ff565b60405180910390fd5b5f60055f8381526020019081526020015f206040518060400160405290815f82015f9054906101000a900473ffffffffffffffffffffffffffffffffffffffff1673ffffffffffffffffffffffffffffffffffffffff1673ffffffffffffffffffffffffffffffffffffffff16815260200160018201548152505090503373ffffffffffffffffffffffffffffffffffffffff166108fc826020015190811502906040515f60405180830381858888f19350505050158015610764573d5f803e3d5ffd5b50805f015160075f8481526020019081526020015f205f6101000a81548173ffffffffffffffffffffffffffffffffffffffff021916908373ffffffffffffffffffffffffffffffffffffffff16021790555060055f8381526020019081526020015f205f8082015f6101000a81549073ffffffffffffffffffffffffffffffffffffffff0219169055600182015f905550505050565b5f73ffffffffffffffffffffffffffffffffffffffff1660075f8381526020019081526020015f205f9054906101000a900473ffffffffffffffffffffffffffffffffffffffff1673ffffffffffffffffffffffffffffffffffffffff1603610899576040517f08c379a00000000000000000000000000000000000000000000000000000000081526004016108909061145f565b60405180910390fd5b6108a33382611011565b156108e3576040517f08c379a00000000000000000000000000000000000000000000000000000000081526004016108da90611667565b60405180910390fd5b60015f8281526020019081526020015f206003015f81548092919061090790611396565b919050555060035f8281526020019081526020015f205f81548092919061092d90611396565b919050555060025f3373ffffffffffffffffffffffffffffffffffffffff1673ffffffffffffffffffffffffffffffffffffffff1681526020019081526020015f2081908060018154018082558091505060019003905f5260205f20015f90919091909150553373ffffffffffffffffffffffffffffffffffffffff16817f201735a6ff64e1da0dc3df2d17ecf024f61008ee5d86da74e1596dc140b4a74f60405160405180910390a350565b5f73ffffffffffffffffffffffffffffffffffffffff1660075f8381526020019081526020015f205f9054906101000a900473ffffffffffffffffffffffffffffffffffffffff1673ffffffffffffffffffffffffffffffffffffffff1603610a78576040517f08c379a0000000000000000000000000000000000000000000000000000000008152600401610a6f9061145f565b60405180910390fd5b60055f8281526020019081526020015f20600101543411610ace576040517f08c379a0000000000000000000000000000000000000000000000000000000008152600401610ac5906116f5565b60405180910390fd5b60405180604001604052803373ffffffffffffffffffffffffffffffffffffffff1681526020013481525060055f8381526020019081526020015f205f820151815f015f6101000a81548173ffffffffffffffffffffffffffffffffffffffff021916908373ffffffffffffffffffffffffffffffffffffffff160217905550602082015181600101559050503373ffffffffffffffffffffffffffffffffffffffff16817f7136042fc8b502cb7b2f9c23ef190a14de582a02a0ffd89b1c399bb8dd8e6ad334604051610ba291906113ec565b60405180910390a350565b3373ffffffffffffffffffffffffffffffffffffffff168173ffffffffffffffffffffffffffffffffffffffff1603610c1b576040517f08c379a0000000000000000000000000000000000000000000000000000000008152600401610c129061175d565b60405180910390fd5b60065f8273ffffffffffffffffffffffffffffffffffffffff1673ffffffffffffffffffffffffffffffffffffffff1681526020019081526020015f2033908060018154018082558091505060019003905f5260205f20015f9091909190916101000a81548173ffffffffffffffffffffffffffffffffffffffff021916908373ffffffffffffffffffffffffffffffffffffffff1602179055508073ffffffffffffffffffffffffffffffffffffffff163373ffffffffffffffffffffffffffffffffffffffff167f6178e95c138f06036cdc07a49ed6a3d23008969fa143baeceb037ebae22e8d1460405160405180910390a350565b5f73ffffffffffffffffffffffffffffffffffffffff1660075f8481526020019081526020015f205f9054906101000a900473ffffffffffffffffffffffffffffffffffffffff1673ffffffffffffffffffffffffffffffffffffffff1603610db1576040517f08c379a0000000000000000000000000000000000000000000000000000000008152600401610da89061145f565b60405180910390fd5b3373ffffffffffffffffffffffffffffffffffffffff1660075f8481526020019081526020015f205f9054906101000a900473ffffffffffffffffffffffffffffffffffffffff1673ffffffffffffffffffffffffffffffffffffffff161480610e7957503373ffffffffffffffffffffffffffffffffffffffff1660015f8481526020019081526020015f206001015f9054906101000a900473ffffffffffffffffffffffffffffffffffffffff1673ffffffffffffffffffffffffffffffffffffffff16145b610eb8576040517f08c379a0000000000000000000000000000000000000000000000000000000008152600401610eaf906117c5565b60405180910390fd5b5f815111610efb576040517f08c379a0000000000000000000000000000000000000000000000000000000008152600401610ef29061182d565b60405180910390fd5b60045f8381526020019081526020015f2060405180606001604052803373ffffffffffffffffffffffffffffffffffffffff16815260200183815260200142815250908060018154018082558091505060019003905f5260205f2090600302015f909190919091505f820151815f015f6101000a81548173ffffffffffffffffffffffffffffffffffffffff021916908373ffffffffffffffffffffffffffffffffffffffff1602179055506020820151816001019081610fbc9190611a4f565b506040820151816002015550503373ffffffffffffffffffffffffffffffffffffffff16827f65095a72c3522c47dd7ec14e6af04b2faa2955e46bb286d544dad8c82809edd260405160405180910390a35050565b5f805f90505b60025f8573ffffffffffffffffffffffffffffffffffffffff1673ffffffffffffffffffffffffffffffffffffffff1681526020019081526020015f20805490508110156110d4578260025f8673ffffffffffffffffffffffffffffffffffffffff1673ffffffffffffffffffffffffffffffffffffffff1681526020019081526020015f2082815481106110af576110ae611b1e565b5b905f5260205f200154036110c75760019150506110d9565b8080600101915050611017565b505f90505b92915050565b5f604051905090565b5f80fd5b5f80fd5b5f819050919050565b611102816110f0565b811461110c575f80fd5b50565b5f8135905061111d816110f9565b92915050565b5f60208284031215611138576111376110e8565b5b5f6111458482850161110f565b91505092915050565b5f73ffffffffffffffffffffffffffffffffffffffff82169050919050565b5f6111778261114e565b9050919050565b6111878161116d565b8114611191575f80fd5b50565b5f813590506111a28161117e565b92915050565b5f602082840312156111bd576111bc6110e8565b5b5f6111ca84828501611194565b91505092915050565b5f80fd5b5f80fd5b5f601f19601f8301169050919050565b7f4e487b71000000000000000000000000000000000000000000000000000000005f52604160045260245ffd5b611221826111db565b810181811067ffffffffffffffff821117156112405761123f6111eb565b5b80604052505050565b5f6112526110df565b905061125e8282611218565b919050565b5f67ffffffffffffffff82111561127d5761127c6111eb565b5b611286826111db565b9050602081019050919050565b828183375f83830152505050565b5f6112b36112ae84611263565b611249565b9050828152602081018484840111156112cf576112ce6111d7565b5b6112da848285611293565b509392505050565b5f82601f8301126112f6576112f56111d3565b5b81356113068482602086016112a1565b91505092915050565b5f8060408385031215611325576113246110e8565b5b5f6113328582860161110f565b925050602083013567ffffffffffffffff811115611353576113526110ec565b5b61135f858286016112e2565b9150509250929050565b7f4e487b71000000000000000000000000000000000000000000000000000000005f52601160045260245ffd5b5f6113a0826110f0565b91507fffffffffffffffffffffffffffffffffffffffffffffffffffffffffffffffff82036113d2576113d1611369565b5b600182019050919050565b6113e6816110f0565b82525050565b5f6020820190506113ff5f8301846113dd565b92915050565b5f82825260208201905092915050565b7f4d7573696320546f6b656e20646f6573206e6f742065786973740000000000005f82015250565b5f611449601a83611405565b915061145482611415565b602082019050919050565b5f6020820190508181035f8301526114768161143d565b9050919050565b7f596f752063616e6e6f742062757920796f7572206f776e206d757369630000005f82015250565b5f6114b1601d83611405565b91506114bc8261147d565b602082019050919050565b5f6020820190508181035f8301526114de816114a5565b9050919050565b7f496e73756666696369656e742066756e647300000000000000000000000000005f82015250565b5f611519601283611405565b9150611524826114e5565b602082019050919050565b5f6020820190508181035f8301526115468161150d565b9050919050565b7f4f6e6c7920746865206f776e65722063616e20616363657074206269647300005f82015250565b5f611581601e83611405565b915061158c8261154d565b602082019050919050565b5f6020820190508181035f8301526115ae81611575565b9050919050565b7f4e6f2076616c69642062696473000000000000000000000000000000000000005f82015250565b5f6115e9600d83611405565b91506115f4826115b5565b602082019050919050565b5f6020820190508181035f830152611616816115dd565b9050919050565b7f4d7573696320697320616c7265616479206c696b6564000000000000000000005f82015250565b5f611651601683611405565b915061165c8261161d565b602082019050919050565b5f6020820190508181035f83015261167e81611645565b9050919050565b7f426964206d75737420626520686967686572207468616e2063757272656e74205f8201527f6269640000000000000000000000000000000000000000000000000000000000602082015250565b5f6116df602383611405565b91506116ea82611685565b604082019050919050565b5f6020820190508181035f83015261170c816116d3565b9050919050565b7f596f752063616e6e6f7420666f6c6c6f7720796f757273656c660000000000005f82015250565b5f611747601a83611405565b915061175282611713565b602082019050919050565b5f6020820190508181035f8301526117748161173b565b9050919050565b7f556e617574686f72697a65642073656e646572000000000000000000000000005f82015250565b5f6117af601383611405565b91506117ba8261177b565b602082019050919050565b5f6020820190508181035f8301526117dc816117a3565b9050919050565b7f4d6573736167652063616e6e6f7420626520656d7074790000000000000000005f82015250565b5f611817601783611405565b9150611822826117e3565b602082019050919050565b5f6020820190508181035f8301526118448161180b565b9050919050565b5f81519050919050565b7f4e487b71000000000000000000000000000000000000000000000000000000005f52602260045260245ffd5b5f600282049050600182168061189957607f821691505b6020821081036118ac576118ab611855565b5b50919050565b5f819050815f5260205f209050919050565b5f6020601f8301049050919050565b5f82821b905092915050565b5f6008830261190e7fffffffffffffffffffffffffffffffffffffffffffffffffffffffffffffffff826118d3565b61191886836118d3565b95508019841693508086168417925050509392505050565b5f819050919050565b5f61195361194e611949846110f0565b611930565b6110f0565b9050919050565b5f819050919050565b61196c83611939565b6119806119788261195a565b8484546118df565b825550505050565b5f90565b611994611988565b61199f818484611963565b505050565b5b818110156119c2576119b75f8261198c565b6001810190506119a5565b5050565b601f821115611a07576119d8816118b2565b6119e1846118c4565b810160208510156119f0578190505b611a046119fc856118c4565b8301826119a4565b50505b505050565b5f82821c905092915050565b5f611a275f1984600802611a0c565b1980831691505092915050565b5f611a3f8383611a18565b9150826002028217905092915050565b611a588261184b565b67ffffffffffffffff811115611a7157611a706111eb565b5b611a7b8254611882565b611a868282856119c6565b5f60209050601f831160018114611ab7575f8415611aa5578287015190505b611aaf8582611a34565b865550611b16565b601f198416611ac5866118b2565b5f5b82811015611aec57848901518255600182019150602085019450602081019050611ac7565b86831015611b095784890151611b05601f891682611a18565b8355505b6001600288020188555050505b505050505050565b7f4e487b71000000000000000000000000000000000000000000000000000000005f52603260045260245ffdfea264697066735822122038156a9e8df0a3b295e7ada114194867ee86ac410d8818cebec243a2de0837c664736f6c634300081a0033",
					"opcodes": "PUSH1 0x80 PUSH1 0x40 MSTORE CALLVALUE DUP1 ISZERO PUSH1 0xE JUMPI PUSH0 DUP1 REVERT JUMPDEST POP PUSH2 0x1B81 DUP1 PUSH2 0x1C PUSH0 CODECOPY PUSH0 RETURN INVALID PUSH1 0x80 PUSH1 0x40 MSTORE PUSH1 0x4 CALLDATASIZE LT PUSH2 0x6E JUMPI PUSH0 CALLDATALOAD PUSH1 0xE0 SHR DUP1 PUSH4 0x6B792D5B GT PUSH2 0x4D JUMPI DUP1 PUSH4 0x6B792D5B EQ PUSH2 0xDE JUMPI DUP1 PUSH4 0x9979EF45 EQ PUSH2 0x106 JUMPI DUP1 PUSH4 0xA432BA20 EQ PUSH2 0x122 JUMPI DUP1 PUSH4 0xE289ADCD EQ PUSH2 0x14A JUMPI PUSH2 0x6E JUMP JUMPDEST DUP1 PUSH3 0xBA2C23 EQ PUSH2 0x72 JUMPI DUP1 PUSH4 0x2538C533 EQ PUSH2 0x9A JUMPI DUP1 PUSH4 0x2B1FD58A EQ PUSH2 0xB6 JUMPI JUMPDEST PUSH0 DUP1 REVERT JUMPDEST CALLVALUE DUP1 ISZERO PUSH2 0x7D JUMPI PUSH0 DUP1 REVERT JUMPDEST POP PUSH2 0x98 PUSH1 0x4 DUP1 CALLDATASIZE SUB DUP2 ADD SWAP1 PUSH2 0x93 SWAP2 SWAP1 PUSH2 0x1123 JUMP JUMPDEST PUSH2 0x172 JUMP JUMPDEST STOP JUMPDEST PUSH2 0xB4 PUSH1 0x4 DUP1 CALLDATASIZE SUB DUP2 ADD SWAP1 PUSH2 0xAF SWAP2 SWAP1 PUSH2 0x1123 JUMP JUMPDEST PUSH2 0x2D7 JUMP JUMPDEST STOP JUMPDEST CALLVALUE DUP1 ISZERO PUSH2 0xC1 JUMPI PUSH0 DUP1 REVERT JUMPDEST POP PUSH2 0xDC PUSH1 0x4 DUP1 CALLDATASIZE SUB DUP2 ADD SWAP1 PUSH2 0xD7 SWAP2 SWAP1 PUSH2 0x1123 JUMP JUMPDEST PUSH2 0x5AC JUMP JUMPDEST STOP JUMPDEST CALLVALUE DUP1 ISZERO PUSH2 0xE9 JUMPI PUSH0 DUP1 REVERT JUMPDEST POP PUSH2 0x104 PUSH1 0x4 DUP1 CALLDATASIZE SUB DUP2 ADD SWAP1 PUSH2 0xFF SWAP2 SWAP1 PUSH2 0x1123 JUMP JUMPDEST PUSH2 0x7FB JUMP JUMPDEST STOP JUMPDEST PUSH2 0x120 PUSH1 0x4 DUP1 CALLDATASIZE SUB DUP2 ADD SWAP1 PUSH2 0x11B SWAP2 SWAP1 PUSH2 0x1123 JUMP JUMPDEST PUSH2 0x9DA JUMP JUMPDEST STOP JUMPDEST CALLVALUE DUP1 ISZERO PUSH2 0x12D JUMPI PUSH0 DUP1 REVERT JUMPDEST POP PUSH2 0x148 PUSH1 0x4 DUP1 CALLDATASIZE SUB DUP2 ADD SWAP1 PUSH2 0x143 SWAP2 SWAP1 PUSH2 0x11A8 JUMP JUMPDEST PUSH2 0xBAD JUMP JUMPDEST STOP JUMPDEST CALLVALUE DUP1 ISZERO PUSH2 0x155 JUMPI PUSH0 DUP1 REVERT JUMPDEST POP PUSH2 0x170 PUSH1 0x4 DUP1 CALLDATASIZE SUB DUP2 ADD SWAP1 PUSH2 0x16B SWAP2 SWAP1 PUSH2 0x130F JUMP JUMPDEST PUSH2 0xD13 JUMP JUMPDEST STOP JUMPDEST PUSH0 DUP1 PUSH0 DUP2 SLOAD PUSH2 0x180 SWAP1 PUSH2 0x1396 JUMP JUMPDEST SWAP2 SWAP1 POP DUP2 SWAP1 SSTORE SWAP1 POP PUSH1 0x40 MLOAD DUP1 PUSH1 0x80 ADD PUSH1 0x40 MSTORE DUP1 DUP3 DUP2 MSTORE PUSH1 0x20 ADD CALLER PUSH20 0xFFFFFFFFFFFFFFFFFFFFFFFFFFFFFFFFFFFFFFFF AND DUP2 MSTORE PUSH1 0x20 ADD DUP4 DUP2 MSTORE PUSH1 0x20 ADD PUSH0 DUP2 MSTORE POP PUSH1 0x1 PUSH0 DUP4 DUP2 MSTORE PUSH1 0x20 ADD SWAP1 DUP2 MSTORE PUSH1 0x20 ADD PUSH0 KECCAK256 PUSH0 DUP3 ADD MLOAD DUP2 PUSH0 ADD SSTORE PUSH1 0x20 DUP3 ADD MLOAD DUP2 PUSH1 0x1 ADD PUSH0 PUSH2 0x100 EXP DUP2 SLOAD DUP2 PUSH20 0xFFFFFFFFFFFFFFFFFFFFFFFFFFFFFFFFFFFFFFFF MUL NOT AND SWAP1 DUP4 PUSH20 0xFFFFFFFFFFFFFFFFFFFFFFFFFFFFFFFFFFFFFFFF AND MUL OR SWAP1 SSTORE POP PUSH1 0x40 DUP3 ADD MLOAD DUP2 PUSH1 0x2 ADD SSTORE PUSH1 0x60 DUP3 ADD MLOAD DUP2 PUSH1 0x3 ADD SSTORE SWAP1 POP POP CALLER PUSH1 0x7 PUSH0 DUP4 DUP2 MSTORE PUSH1 0x20 ADD SWAP1 DUP2 MSTORE PUSH1 0x20 ADD PUSH0 KECCAK256 PUSH0 PUSH2 0x100 EXP DUP2 SLOAD DUP2 PUSH20 0xFFFFFFFFFFFFFFFFFFFFFFFFFFFFFFFFFFFFFFFF MUL NOT AND SWAP1 DUP4 PUSH20 0xFFFFFFFFFFFFFFFFFFFFFFFFFFFFFFFFFFFFFFFF AND MUL OR SWAP1 SSTORE POP CALLER PUSH20 0xFFFFFFFFFFFFFFFFFFFFFFFFFFFFFFFFFFFFFFFF AND DUP2 PUSH32 0x31E6C864E2C622A7B4DAFC2612FB4CA8EF303310A6EA7BD7AFD1A325577DE96D DUP5 PUSH1 0x40 MLOAD PUSH2 0x2CB SWAP2 SWAP1 PUSH2 0x13EC JUMP JUMPDEST PUSH1 0x40 MLOAD DUP1 SWAP2 SUB SWAP1 LOG3 POP POP JUMP JUMPDEST PUSH0 PUSH20 0xFFFFFFFFFFFFFFFFFFFFFFFFFFFFFFFFFFFFFFFF AND PUSH1 0x7 PUSH0 DUP4 DUP2 MSTORE PUSH1 0x20 ADD SWAP1 DUP2 MSTORE PUSH1 0x20 ADD PUSH0 KECCAK256 PUSH0 SWAP1 SLOAD SWAP1 PUSH2 0x100 EXP SWAP1 DIV PUSH20 0xFFFFFFFFFFFFFFFFFFFFFFFFFFFFFFFFFFFFFFFF AND PUSH20 0xFFFFFFFFFFFFFFFFFFFFFFFFFFFFFFFFFFFFFFFF AND SUB PUSH2 0x375 JUMPI PUSH1 0x40 MLOAD PUSH32 0x8C379A000000000000000000000000000000000000000000000000000000000 DUP2 MSTORE PUSH1 0x4 ADD PUSH2 0x36C SWAP1 PUSH2 0x145F JUMP JUMPDEST PUSH1 0x40 MLOAD DUP1 SWAP2 SUB SWAP1 REVERT JUMPDEST CALLER PUSH20 0xFFFFFFFFFFFFFFFFFFFFFFFFFFFFFFFFFFFFFFFF AND PUSH1 0x7 PUSH0 DUP4 DUP2 MSTORE PUSH1 0x20 ADD SWAP1 DUP2 MSTORE PUSH1 0x20 ADD PUSH0 KECCAK256 PUSH0 SWAP1 SLOAD SWAP1 PUSH2 0x100 EXP SWAP1 DIV PUSH20 0xFFFFFFFFFFFFFFFFFFFFFFFFFFFFFFFFFFFFFFFF AND PUSH20 0xFFFFFFFFFFFFFFFFFFFFFFFFFFFFFFFFFFFFFFFF AND SUB PUSH2 0x413 JUMPI PUSH1 0x40 MLOAD PUSH32 0x8C379A000000000000000000000000000000000000000000000000000000000 DUP2 MSTORE PUSH1 0x4 ADD PUSH2 0x40A SWAP1 PUSH2 0x14C7 JUMP JUMPDEST PUSH1 0x40 MLOAD DUP1 SWAP2 SUB SWAP1 REVERT JUMPDEST PUSH1 0x1 PUSH0 DUP3 DUP2 MSTORE PUSH1 0x20 ADD SWAP1 DUP2 MSTORE PUSH1 0x20 ADD PUSH0 KECCAK256 PUSH1 0x2 ADD SLOAD CALLVALUE LT ISZERO PUSH2 0x46A JUMPI PUSH1 0x40 MLOAD PUSH32 0x8C379A000000000000000000000000000000000000000000000000000000000 DUP2 MSTORE PUSH1 0x4 ADD PUSH2 0x461 SWAP1 PUSH2 0x152F JUMP JUMPDEST PUSH1 0x40 MLOAD DUP1 SWAP2 SUB SWAP1 REVERT JUMPDEST PUSH0 PUSH1 0x7 PUSH0 DUP4 DUP2 MSTORE PUSH1 0x20 ADD SWAP1 DUP2 MSTORE PUSH1 0x20 ADD PUSH0 KECCAK256 PUSH0 SWAP1 SLOAD SWAP1 PUSH2 0x100 EXP SWAP1 DIV PUSH20 0xFFFFFFFFFFFFFFFFFFFFFFFFFFFFFFFFFFFFFFFF AND SWAP1 POP DUP1 PUSH20 0xFFFFFFFFFFFFFFFFFFFFFFFFFFFFFFFFFFFFFFFF AND PUSH2 0x8FC PUSH1 0x1 PUSH0 DUP6 DUP2 MSTORE PUSH1 0x20 ADD SWAP1 DUP2 MSTORE PUSH1 0x20 ADD PUSH0 KECCAK256 PUSH1 0x2 ADD SLOAD SWAP1 DUP2 ISZERO MUL SWAP1 PUSH1 0x40 MLOAD PUSH0 PUSH1 0x40 MLOAD DUP1 DUP4 SUB DUP2 DUP6 DUP9 DUP9 CALL SWAP4 POP POP POP POP ISZERO DUP1 ISZERO PUSH2 0x4F5 JUMPI RETURNDATASIZE PUSH0 DUP1 RETURNDATACOPY RETURNDATASIZE PUSH0 REVERT JUMPDEST POP CALLER PUSH1 0x7 PUSH0 DUP5 DUP2 MSTORE PUSH1 0x20 ADD SWAP1 DUP2 MSTORE PUSH1 0x20 ADD PUSH0 KECCAK256 PUSH0 PUSH2 0x100 EXP DUP2 SLOAD DUP2 PUSH20 0xFFFFFFFFFFFFFFFFFFFFFFFFFFFFFFFFFFFFFFFF MUL NOT AND SWAP1 DUP4 PUSH20 0xFFFFFFFFFFFFFFFFFFFFFFFFFFFFFFFFFFFFFFFF AND MUL OR SWAP1 SSTORE POP CALLER PUSH20 0xFFFFFFFFFFFFFFFFFFFFFFFFFFFFFFFFFFFFFFFF AND DUP3 PUSH32 0x36B7402E3697821C4BCFE9AC412C0B7922A9308D632B152D8384B9A3BE73AD10 PUSH1 0x1 PUSH0 DUP7 DUP2 MSTORE PUSH1 0x20 ADD SWAP1 DUP2 MSTORE PUSH1 0x20 ADD PUSH0 KECCAK256 PUSH1 0x2 ADD SLOAD PUSH1 0x40 MLOAD PUSH2 0x5A0 SWAP2 SWAP1 PUSH2 0x13EC JUMP JUMPDEST PUSH1 0x40 MLOAD DUP1 SWAP2 SUB SWAP1 LOG3 POP POP JUMP JUMPDEST CALLER PUSH20 0xFFFFFFFFFFFFFFFFFFFFFFFFFFFFFFFFFFFFFFFF AND PUSH1 0x7 PUSH0 DUP4 DUP2 MSTORE PUSH1 0x20 ADD SWAP1 DUP2 MSTORE PUSH1 0x20 ADD PUSH0 KECCAK256 PUSH0 SWAP1 SLOAD SWAP1 PUSH2 0x100 EXP SWAP1 DIV PUSH20 0xFFFFFFFFFFFFFFFFFFFFFFFFFFFFFFFFFFFFFFFF AND PUSH20 0xFFFFFFFFFFFFFFFFFFFFFFFFFFFFFFFFFFFFFFFF AND EQ PUSH2 0x64A JUMPI PUSH1 0x40 MLOAD PUSH32 0x8C379A000000000000000000000000000000000000000000000000000000000 DUP2 MSTORE PUSH1 0x4 ADD PUSH2 0x641 SWAP1 PUSH2 0x1597 JUMP JUMPDEST PUSH1 0x40 MLOAD DUP1 SWAP2 SUB SWAP1 REVERT JUMPDEST PUSH0 PUSH1 0x5 PUSH0 DUP4 DUP2 MSTORE PUSH1 0x20 ADD SWAP1 DUP2 MSTORE PUSH1 0x20 ADD PUSH0 KECCAK256 PUSH1 0x1 ADD SLOAD GT PUSH2 0x6A0 JUMPI PUSH1 0x40 MLOAD PUSH32 0x8C379A000000000000000000000000000000000000000000000000000000000 DUP2 MSTORE PUSH1 0x4 ADD PUSH2 0x697 SWAP1 PUSH2 0x15FF JUMP JUMPDEST PUSH1 0x40 MLOAD DUP1 SWAP2 SUB SWAP1 REVERT JUMPDEST PUSH0 PUSH1 0x5 PUSH0 DUP4 DUP2 MSTORE PUSH1 0x20 ADD SWAP1 DUP2 MSTORE PUSH1 0x20 ADD PUSH0 KECCAK256 PUSH1 0x40 MLOAD DUP1 PUSH1 0x40 ADD PUSH1 0x40 MSTORE SWAP1 DUP2 PUSH0 DUP3 ADD PUSH0 SWAP1 SLOAD SWAP1 PUSH2 0x100 EXP SWAP1 DIV PUSH20 0xFFFFFFFFFFFFFFFFFFFFFFFFFFFFFFFFFFFFFFFF AND PUSH20 0xFFFFFFFFFFFFFFFFFFFFFFFFFFFFFFFFFFFFFFFF AND PUSH20 0xFFFFFFFFFFFFFFFFFFFFFFFFFFFFFFFFFFFFFFFF AND DUP2 MSTORE PUSH1 0x20 ADD PUSH1 0x1 DUP3 ADD SLOAD DUP2 MSTORE POP POP SWAP1 POP CALLER PUSH20 0xFFFFFFFFFFFFFFFFFFFFFFFFFFFFFFFFFFFFFFFF AND PUSH2 0x8FC DUP3 PUSH1 0x20 ADD MLOAD SWAP1 DUP2 ISZERO MUL SWAP1 PUSH1 0x40 MLOAD PUSH0 PUSH1 0x40 MLOAD DUP1 DUP4 SUB DUP2 DUP6 DUP9 DUP9 CALL SWAP4 POP POP POP POP ISZERO DUP1 ISZERO PUSH2 0x764 JUMPI RETURNDATASIZE PUSH0 DUP1 RETURNDATACOPY RETURNDATASIZE PUSH0 REVERT JUMPDEST POP DUP1 PUSH0 ADD MLOAD PUSH1 0x7 PUSH0 DUP5 DUP2 MSTORE PUSH1 0x20 ADD SWAP1 DUP2 MSTORE PUSH1 0x20 ADD PUSH0 KECCAK256 PUSH0 PUSH2 0x100 EXP DUP2 SLOAD DUP2 PUSH20 0xFFFFFFFFFFFFFFFFFFFFFFFFFFFFFFFFFFFFFFFF MUL NOT AND SWAP1 DUP4 PUSH20 0xFFFFFFFFFFFFFFFFFFFFFFFFFFFFFFFFFFFFFFFF AND MUL OR SWAP1 SSTORE POP PUSH1 0x5 PUSH0 DUP4 DUP2 MSTORE PUSH1 0x20 ADD SWAP1 DUP2 MSTORE PUSH1 0x20 ADD PUSH0 KECCAK256 PUSH0 DUP1 DUP3 ADD PUSH0 PUSH2 0x100 EXP DUP2 SLOAD SWAP1 PUSH20 0xFFFFFFFFFFFFFFFFFFFFFFFFFFFFFFFFFFFFFFFF MUL NOT AND SWAP1 SSTORE PUSH1 0x1 DUP3 ADD PUSH0 SWAP1 SSTORE POP POP POP POP JUMP JUMPDEST PUSH0 PUSH20 0xFFFFFFFFFFFFFFFFFFFFFFFFFFFFFFFFFFFFFFFF AND PUSH1 0x7 PUSH0 DUP4 DUP2 MSTORE PUSH1 0x20 ADD SWAP1 DUP2 MSTORE PUSH1 0x20 ADD PUSH0 KECCAK256 PUSH0 SWAP1 SLOAD SWAP1 PUSH2 0x100 EXP SWAP1 DIV PUSH20 0xFFFFFFFFFFFFFFFFFFFFFFFFFFFFFFFFFFFFFFFF AND PUSH20 0xFFFFFFFFFFFFFFFFFFFFFFFFFFFFFFFFFFFFFFFF AND SUB PUSH2 0x899 JUMPI PUSH1 0x40 MLOAD PUSH32 0x8C379A000000000000000000000000000000000000000000000000000000000 DUP2 MSTORE PUSH1 0x4 ADD PUSH2 0x890 SWAP1 PUSH2 0x145F JUMP JUMPDEST PUSH1 0x40 MLOAD DUP1 SWAP2 SUB SWAP1 REVERT JUMPDEST PUSH2 0x8A3 CALLER DUP3 PUSH2 0x1011 JUMP JUMPDEST ISZERO PUSH2 0x8E3 JUMPI PUSH1 0x40 MLOAD PUSH32 0x8C379A000000000000000000000000000000000000000000000000000000000 DUP2 MSTORE PUSH1 0x4 ADD PUSH2 0x8DA SWAP1 PUSH2 0x1667 JUMP JUMPDEST PUSH1 0x40 MLOAD DUP1 SWAP2 SUB SWAP1 REVERT JUMPDEST PUSH1 0x1 PUSH0 DUP3 DUP2 MSTORE PUSH1 0x20 ADD SWAP1 DUP2 MSTORE PUSH1 0x20 ADD PUSH0 KECCAK256 PUSH1 0x3 ADD PUSH0 DUP2 SLOAD DUP1 SWAP3 SWAP2 SWAP1 PUSH2 0x907 SWAP1 PUSH2 0x1396 JUMP JUMPDEST SWAP2 SWAP1 POP SSTORE POP PUSH1 0x3 PUSH0 DUP3 DUP2 MSTORE PUSH1 0x20 ADD SWAP1 DUP2 MSTORE PUSH1 0x20 ADD PUSH0 KECCAK256 PUSH0 DUP2 SLOAD DUP1 SWAP3 SWAP2 SWAP1 PUSH2 0x92D SWAP1 PUSH2 0x1396 JUMP JUMPDEST SWAP2 SWAP1 POP SSTORE POP PUSH1 0x2 PUSH0 CALLER PUSH20 0xFFFFFFFFFFFFFFFFFFFFFFFFFFFFFFFFFFFFFFFF AND PUSH20 0xFFFFFFFFFFFFFFFFFFFFFFFFFFFFFFFFFFFFFFFF AND DUP2 MSTORE PUSH1 0x20 ADD SWAP1 DUP2 MSTORE PUSH1 0x20 ADD PUSH0 KECCAK256 DUP2 SWAP1 DUP1 PUSH1 0x1 DUP2 SLOAD ADD DUP1 DUP3 SSTORE DUP1 SWAP2 POP POP PUSH1 0x1 SWAP1 SUB SWAP1 PUSH0 MSTORE PUSH1 0x20 PUSH0 KECCAK256 ADD PUSH0 SWAP1 SWAP2 SWAP1 SWAP2 SWAP1 SWAP2 POP SSTORE CALLER PUSH20 0xFFFFFFFFFFFFFFFFFFFFFFFFFFFFFFFFFFFFFFFF AND DUP2 PUSH32 0x201735A6FF64E1DA0DC3DF2D17ECF024F61008EE5D86DA74E1596DC140B4A74F PUSH1 0x40 MLOAD PUSH1 0x40 MLOAD DUP1 SWAP2 SUB SWAP1 LOG3 POP JUMP JUMPDEST PUSH0 PUSH20 0xFFFFFFFFFFFFFFFFFFFFFFFFFFFFFFFFFFFFFFFF AND PUSH1 0x7 PUSH0 DUP4 DUP2 MSTORE PUSH1 0x20 ADD SWAP1 DUP2 MSTORE PUSH1 0x20 ADD PUSH0 KECCAK256 PUSH0 SWAP1 SLOAD SWAP1 PUSH2 0x100 EXP SWAP1 DIV PUSH20 0xFFFFFFFFFFFFFFFFFFFFFFFFFFFFFFFFFFFFFFFF AND PUSH20 0xFFFFFFFFFFFFFFFFFFFFFFFFFFFFFFFFFFFFFFFF AND SUB PUSH2 0xA78 JUMPI PUSH1 0x40 MLOAD PUSH32 0x8C379A000000000000000000000000000000000000000000000000000000000 DUP2 MSTORE PUSH1 0x4 ADD PUSH2 0xA6F SWAP1 PUSH2 0x145F JUMP JUMPDEST PUSH1 0x40 MLOAD DUP1 SWAP2 SUB SWAP1 REVERT JUMPDEST PUSH1 0x5 PUSH0 DUP3 DUP2 MSTORE PUSH1 0x20 ADD SWAP1 DUP2 MSTORE PUSH1 0x20 ADD PUSH0 KECCAK256 PUSH1 0x1 ADD SLOAD CALLVALUE GT PUSH2 0xACE JUMPI PUSH1 0x40 MLOAD PUSH32 0x8C379A000000000000000000000000000000000000000000000000000000000 DUP2 MSTORE PUSH1 0x4 ADD PUSH2 0xAC5 SWAP1 PUSH2 0x16F5 JUMP JUMPDEST PUSH1 0x40 MLOAD DUP1 SWAP2 SUB SWAP1 REVERT JUMPDEST PUSH1 0x40 MLOAD DUP1 PUSH1 0x40 ADD PUSH1 0x40 MSTORE DUP1 CALLER PUSH20 0xFFFFFFFFFFFFFFFFFFFFFFFFFFFFFFFFFFFFFFFF AND DUP2 MSTORE PUSH1 0x20 ADD CALLVALUE DUP2 MSTORE POP PUSH1 0x5 PUSH0 DUP4 DUP2 MSTORE PUSH1 0x20 ADD SWAP1 DUP2 MSTORE PUSH1 0x20 ADD PUSH0 KECCAK256 PUSH0 DUP3 ADD MLOAD DUP2 PUSH0 ADD PUSH0 PUSH2 0x100 EXP DUP2 SLOAD DUP2 PUSH20 0xFFFFFFFFFFFFFFFFFFFFFFFFFFFFFFFFFFFFFFFF MUL NOT AND SWAP1 DUP4 PUSH20 0xFFFFFFFFFFFFFFFFFFFFFFFFFFFFFFFFFFFFFFFF AND MUL OR SWAP1 SSTORE POP PUSH1 0x20 DUP3 ADD MLOAD DUP2 PUSH1 0x1 ADD SSTORE SWAP1 POP POP CALLER PUSH20 0xFFFFFFFFFFFFFFFFFFFFFFFFFFFFFFFFFFFFFFFF AND DUP2 PUSH32 0x7136042FC8B502CB7B2F9C23EF190A14DE582A02A0FFD89B1C399BB8DD8E6AD3 CALLVALUE PUSH1 0x40 MLOAD PUSH2 0xBA2 SWAP2 SWAP1 PUSH2 0x13EC JUMP JUMPDEST PUSH1 0x40 MLOAD DUP1 SWAP2 SUB SWAP1 LOG3 POP JUMP JUMPDEST CALLER PUSH20 0xFFFFFFFFFFFFFFFFFFFFFFFFFFFFFFFFFFFFFFFF AND DUP2 PUSH20 0xFFFFFFFFFFFFFFFFFFFFFFFFFFFFFFFFFFFFFFFF AND SUB PUSH2 0xC1B JUMPI PUSH1 0x40 MLOAD PUSH32 0x8C379A000000000000000000000000000000000000000000000000000000000 DUP2 MSTORE PUSH1 0x4 ADD PUSH2 0xC12 SWAP1 PUSH2 0x175D JUMP JUMPDEST PUSH1 0x40 MLOAD DUP1 SWAP2 SUB SWAP1 REVERT JUMPDEST PUSH1 0x6 PUSH0 DUP3 PUSH20 0xFFFFFFFFFFFFFFFFFFFFFFFFFFFFFFFFFFFFFFFF AND PUSH20 0xFFFFFFFFFFFFFFFFFFFFFFFFFFFFFFFFFFFFFFFF AND DUP2 MSTORE PUSH1 0x20 ADD SWAP1 DUP2 MSTORE PUSH1 0x20 ADD PUSH0 KECCAK256 CALLER SWAP1 DUP1 PUSH1 0x1 DUP2 SLOAD ADD DUP1 DUP3 SSTORE DUP1 SWAP2 POP POP PUSH1 0x1 SWAP1 SUB SWAP1 PUSH0 MSTORE PUSH1 0x20 PUSH0 KECCAK256 ADD PUSH0 SWAP1 SWAP2 SWAP1 SWAP2 SWAP1 SWAP2 PUSH2 0x100 EXP DUP2 SLOAD DUP2 PUSH20 0xFFFFFFFFFFFFFFFFFFFFFFFFFFFFFFFFFFFFFFFF MUL NOT AND SWAP1 DUP4 PUSH20 0xFFFFFFFFFFFFFFFFFFFFFFFFFFFFFFFFFFFFFFFF AND MUL OR SWAP1 SSTORE POP DUP1 PUSH20 0xFFFFFFFFFFFFFFFFFFFFFFFFFFFFFFFFFFFFFFFF AND CALLER PUSH20 0xFFFFFFFFFFFFFFFFFFFFFFFFFFFFFFFFFFFFFFFF AND PUSH32 0x6178E95C138F06036CDC07A49ED6A3D23008969FA143BAECEB037EBAE22E8D14 PUSH1 0x40 MLOAD PUSH1 0x40 MLOAD DUP1 SWAP2 SUB SWAP1 LOG3 POP JUMP JUMPDEST PUSH0 PUSH20 0xFFFFFFFFFFFFFFFFFFFFFFFFFFFFFFFFFFFFFFFF AND PUSH1 0x7 PUSH0 DUP5 DUP2 MSTORE PUSH1 0x20 ADD SWAP1 DUP2 MSTORE PUSH1 0x20 ADD PUSH0 KECCAK256 PUSH0 SWAP1 SLOAD SWAP1 PUSH2 0x100 EXP SWAP1 DIV PUSH20 0xFFFFFFFFFFFFFFFFFFFFFFFFFFFFFFFFFFFFFFFF AND PUSH20 0xFFFFFFFFFFFFFFFFFFFFFFFFFFFFFFFFFFFFFFFF AND SUB PUSH2 0xDB1 JUMPI PUSH1 0x40 MLOAD PUSH32 0x8C379A000000000000000000000000000000000000000000000000000000000 DUP2 MSTORE PUSH1 0x4 ADD PUSH2 0xDA8 SWAP1 PUSH2 0x145F JUMP JUMPDEST PUSH1 0x40 MLOAD DUP1 SWAP2 SUB SWAP1 REVERT JUMPDEST CALLER PUSH20 0xFFFFFFFFFFFFFFFFFFFFFFFFFFFFFFFFFFFFFFFF AND PUSH1 0x7 PUSH0 DUP5 DUP2 MSTORE PUSH1 0x20 ADD SWAP1 DUP2 MSTORE PUSH1 0x20 ADD PUSH0 KECCAK256 PUSH0 SWAP1 SLOAD SWAP1 PUSH2 0x100 EXP SWAP1 DIV PUSH20 0xFFFFFFFFFFFFFFFFFFFFFFFFFFFFFFFFFFFFFFFF AND PUSH20 0xFFFFFFFFFFFFFFFFFFFFFFFFFFFFFFFFFFFFFFFF AND EQ DUP1 PUSH2 0xE79 JUMPI POP CALLER PUSH20 0xFFFFFFFFFFFFFFFFFFFFFFFFFFFFFFFFFFFFFFFF AND PUSH1 0x1 PUSH0 DUP5 DUP2 MSTORE PUSH1 0x20 ADD SWAP1 DUP2 MSTORE PUSH1 0x20 ADD PUSH0 KECCAK256 PUSH1 0x1 ADD PUSH0 SWAP1 SLOAD SWAP1 PUSH2 0x100 EXP SWAP1 DIV PUSH20 0xFFFFFFFFFFFFFFFFFFFFFFFFFFFFFFFFFFFFFFFF AND PUSH20 0xFFFFFFFFFFFFFFFFFFFFFFFFFFFFFFFFFFFFFFFF AND EQ JUMPDEST PUSH2 0xEB8 JUMPI PUSH1 0x40 MLOAD PUSH32 0x8C379A000000000000000000000000000000000000000000000000000000000 DUP2 MSTORE PUSH1 0x4 ADD PUSH2 0xEAF SWAP1 PUSH2 0x17C5 JUMP JUMPDEST PUSH1 0x40 MLOAD DUP1 SWAP2 SUB SWAP1 REVERT JUMPDEST PUSH0 DUP2 MLOAD GT PUSH2 0xEFB JUMPI PUSH1 0x40 MLOAD PUSH32 0x8C379A000000000000000000000000000000000000000000000000000000000 DUP2 MSTORE PUSH1 0x4 ADD PUSH2 0xEF2 SWAP1 PUSH2 0x182D JUMP JUMPDEST PUSH1 0x40 MLOAD DUP1 SWAP2 SUB SWAP1 REVERT JUMPDEST PUSH1 0x4 PUSH0 DUP4 DUP2 MSTORE PUSH1 0x20 ADD SWAP1 DUP2 MSTORE PUSH1 0x20 ADD PUSH0 KECCAK256 PUSH1 0x40 MLOAD DUP1 PUSH1 0x60 ADD PUSH1 0x40 MSTORE DUP1 CALLER PUSH20 0xFFFFFFFFFFFFFFFFFFFFFFFFFFFFFFFFFFFFFFFF AND DUP2 MSTORE PUSH1 0x20 ADD DUP4 DUP2 MSTORE PUSH1 0x20 ADD TIMESTAMP DUP2 MSTORE POP SWAP1 DUP1 PUSH1 0x1 DUP2 SLOAD ADD DUP1 DUP3 SSTORE DUP1 SWAP2 POP POP PUSH1 0x1 SWAP1 SUB SWAP1 PUSH0 MSTORE PUSH1 0x20 PUSH0 KECCAK256 SWAP1 PUSH1 0x3 MUL ADD PUSH0 SWAP1 SWAP2 SWAP1 SWAP2 SWAP1 SWAP2 POP PUSH0 DUP3 ADD MLOAD DUP2 PUSH0 ADD PUSH0 PUSH2 0x100 EXP DUP2 SLOAD DUP2 PUSH20 0xFFFFFFFFFFFFFFFFFFFFFFFFFFFFFFFFFFFFFFFF MUL NOT AND SWAP1 DUP4 PUSH20 0xFFFFFFFFFFFFFFFFFFFFFFFFFFFFFFFFFFFFFFFF AND MUL OR SWAP1 SSTORE POP PUSH1 0x20 DUP3 ADD MLOAD DUP2 PUSH1 0x1 ADD SWAP1 DUP2 PUSH2 0xFBC SWAP2 SWAP1 PUSH2 0x1A4F JUMP JUMPDEST POP PUSH1 0x40 DUP3 ADD MLOAD DUP2 PUSH1 0x2 ADD SSTORE POP POP CALLER PUSH20 0xFFFFFFFFFFFFFFFFFFFFFFFFFFFFFFFFFFFFFFFF AND DUP3 PUSH32 0x65095A72C3522C47DD7EC14E6AF04B2FAA2955E46BB286D544DAD8C82809EDD2 PUSH1 0x40 MLOAD PUSH1 0x40 MLOAD DUP1 SWAP2 SUB SWAP1 LOG3 POP POP JUMP JUMPDEST PUSH0 DUP1 PUSH0 SWAP1 POP JUMPDEST PUSH1 0x2 PUSH0 DUP6 PUSH20 0xFFFFFFFFFFFFFFFFFFFFFFFFFFFFFFFFFFFFFFFF AND PUSH20 0xFFFFFFFFFFFFFFFFFFFFFFFFFFFFFFFFFFFFFFFF AND DUP2 MSTORE PUSH1 0x20 ADD SWAP1 DUP2 MSTORE PUSH1 0x20 ADD PUSH0 KECCAK256 DUP1 SLOAD SWAP1 POP DUP2 LT ISZERO PUSH2 0x10D4 JUMPI DUP3 PUSH1 0x2 PUSH0 DUP7 PUSH20 0xFFFFFFFFFFFFFFFFFFFFFFFFFFFFFFFFFFFFFFFF AND PUSH20 0xFFFFFFFFFFFFFFFFFFFFFFFFFFFFFFFFFFFFFFFF AND DUP2 MSTORE PUSH1 0x20 ADD SWAP1 DUP2 MSTORE PUSH1 0x20 ADD PUSH0 KECCAK256 DUP3 DUP2 SLOAD DUP2 LT PUSH2 0x10AF JUMPI PUSH2 0x10AE PUSH2 0x1B1E JUMP JUMPDEST JUMPDEST SWAP1 PUSH0 MSTORE PUSH1 0x20 PUSH0 KECCAK256 ADD SLOAD SUB PUSH2 0x10C7 JUMPI PUSH1 0x1 SWAP2 POP POP PUSH2 0x10D9 JUMP JUMPDEST DUP1 DUP1 PUSH1 0x1 ADD SWAP2 POP POP PUSH2 0x1017 JUMP JUMPDEST POP PUSH0 SWAP1 POP JUMPDEST SWAP3 SWAP2 POP POP JUMP JUMPDEST PUSH0 PUSH1 0x40 MLOAD SWAP1 POP SWAP1 JUMP JUMPDEST PUSH0 DUP1 REVERT JUMPDEST PUSH0 DUP1 REVERT JUMPDEST PUSH0 DUP2 SWAP1 POP SWAP2 SWAP1 POP JUMP JUMPDEST PUSH2 0x1102 DUP2 PUSH2 0x10F0 JUMP JUMPDEST DUP2 EQ PUSH2 0x110C JUMPI PUSH0 DUP1 REVERT JUMPDEST POP JUMP JUMPDEST PUSH0 DUP2 CALLDATALOAD SWAP1 POP PUSH2 0x111D DUP2 PUSH2 0x10F9 JUMP JUMPDEST SWAP3 SWAP2 POP POP JUMP JUMPDEST PUSH0 PUSH1 0x20 DUP3 DUP5 SUB SLT ISZERO PUSH2 0x1138 JUMPI PUSH2 0x1137 PUSH2 0x10E8 JUMP JUMPDEST JUMPDEST PUSH0 PUSH2 0x1145 DUP5 DUP3 DUP6 ADD PUSH2 0x110F JUMP JUMPDEST SWAP2 POP POP SWAP3 SWAP2 POP POP JUMP JUMPDEST PUSH0 PUSH20 0xFFFFFFFFFFFFFFFFFFFFFFFFFFFFFFFFFFFFFFFF DUP3 AND SWAP1 POP SWAP2 SWAP1 POP JUMP JUMPDEST PUSH0 PUSH2 0x1177 DUP3 PUSH2 0x114E JUMP JUMPDEST SWAP1 POP SWAP2 SWAP1 POP JUMP JUMPDEST PUSH2 0x1187 DUP2 PUSH2 0x116D JUMP JUMPDEST DUP2 EQ PUSH2 0x1191 JUMPI PUSH0 DUP1 REVERT JUMPDEST POP JUMP JUMPDEST PUSH0 DUP2 CALLDATALOAD SWAP1 POP PUSH2 0x11A2 DUP2 PUSH2 0x117E JUMP JUMPDEST SWAP3 SWAP2 POP POP JUMP JUMPDEST PUSH0 PUSH1 0x20 DUP3 DUP5 SUB SLT ISZERO PUSH2 0x11BD JUMPI PUSH2 0x11BC PUSH2 0x10E8 JUMP JUMPDEST JUMPDEST PUSH0 PUSH2 0x11CA DUP5 DUP3 DUP6 ADD PUSH2 0x1194 JUMP JUMPDEST SWAP2 POP POP SWAP3 SWAP2 POP POP JUMP JUMPDEST PUSH0 DUP1 REVERT JUMPDEST PUSH0 DUP1 REVERT JUMPDEST PUSH0 PUSH1 0x1F NOT PUSH1 0x1F DUP4 ADD AND SWAP1 POP SWAP2 SWAP1 POP JUMP JUMPDEST PUSH32 0x4E487B7100000000000000000000000000000000000000000000000000000000 PUSH0 MSTORE PUSH1 0x41 PUSH1 0x4 MSTORE PUSH1 0x24 PUSH0 REVERT JUMPDEST PUSH2 0x1221 DUP3 PUSH2 0x11DB JUMP JUMPDEST DUP2 ADD DUP2 DUP2 LT PUSH8 0xFFFFFFFFFFFFFFFF DUP3 GT OR ISZERO PUSH2 0x1240 JUMPI PUSH2 0x123F PUSH2 0x11EB JUMP JUMPDEST JUMPDEST DUP1 PUSH1 0x40 MSTORE POP POP POP JUMP JUMPDEST PUSH0 PUSH2 0x1252 PUSH2 0x10DF JUMP JUMPDEST SWAP1 POP PUSH2 0x125E DUP3 DUP3 PUSH2 0x1218 JUMP JUMPDEST SWAP2 SWAP1 POP JUMP JUMPDEST PUSH0 PUSH8 0xFFFFFFFFFFFFFFFF DUP3 GT ISZERO PUSH2 0x127D JUMPI PUSH2 0x127C PUSH2 0x11EB JUMP JUMPDEST JUMPDEST PUSH2 0x1286 DUP3 PUSH2 0x11DB JUMP JUMPDEST SWAP1 POP PUSH1 0x20 DUP2 ADD SWAP1 POP SWAP2 SWAP1 POP JUMP JUMPDEST DUP3 DUP2 DUP4 CALLDATACOPY PUSH0 DUP4 DUP4 ADD MSTORE POP POP POP JUMP JUMPDEST PUSH0 PUSH2 0x12B3 PUSH2 0x12AE DUP5 PUSH2 0x1263 JUMP JUMPDEST PUSH2 0x1249 JUMP JUMPDEST SWAP1 POP DUP3 DUP2 MSTORE PUSH1 0x20 DUP2 ADD DUP5 DUP5 DUP5 ADD GT ISZERO PUSH2 0x12CF JUMPI PUSH2 0x12CE PUSH2 0x11D7 JUMP JUMPDEST JUMPDEST PUSH2 0x12DA DUP5 DUP3 DUP6 PUSH2 0x1293 JUMP JUMPDEST POP SWAP4 SWAP3 POP POP POP JUMP JUMPDEST PUSH0 DUP3 PUSH1 0x1F DUP4 ADD SLT PUSH2 0x12F6 JUMPI PUSH2 0x12F5 PUSH2 0x11D3 JUMP JUMPDEST JUMPDEST DUP2 CALLDATALOAD PUSH2 0x1306 DUP5 DUP3 PUSH1 0x20 DUP7 ADD PUSH2 0x12A1 JUMP JUMPDEST SWAP2 POP POP SWAP3 SWAP2 POP POP JUMP JUMPDEST PUSH0 DUP1 PUSH1 0x40 DUP4 DUP6 SUB SLT ISZERO PUSH2 0x1325 JUMPI PUSH2 0x1324 PUSH2 0x10E8 JUMP JUMPDEST JUMPDEST PUSH0 PUSH2 0x1332 DUP6 DUP3 DUP7 ADD PUSH2 0x110F JUMP JUMPDEST SWAP3 POP POP PUSH1 0x20 DUP4 ADD CALLDATALOAD PUSH8 0xFFFFFFFFFFFFFFFF DUP2 GT ISZERO PUSH2 0x1353 JUMPI PUSH2 0x1352 PUSH2 0x10EC JUMP JUMPDEST JUMPDEST PUSH2 0x135F DUP6 DUP3 DUP7 ADD PUSH2 0x12E2 JUMP JUMPDEST SWAP2 POP POP SWAP3 POP SWAP3 SWAP1 POP JUMP JUMPDEST PUSH32 0x4E487B7100000000000000000000000000000000000000000000000000000000 PUSH0 MSTORE PUSH1 0x11 PUSH1 0x4 MSTORE PUSH1 0x24 PUSH0 REVERT JUMPDEST PUSH0 PUSH2 0x13A0 DUP3 PUSH2 0x10F0 JUMP JUMPDEST SWAP2 POP PUSH32 0xFFFFFFFFFFFFFFFFFFFFFFFFFFFFFFFFFFFFFFFFFFFFFFFFFFFFFFFFFFFFFFFF DUP3 SUB PUSH2 0x13D2 JUMPI PUSH2 0x13D1 PUSH2 0x1369 JUMP JUMPDEST JUMPDEST PUSH1 0x1 DUP3 ADD SWAP1 POP SWAP2 SWAP1 POP JUMP JUMPDEST PUSH2 0x13E6 DUP2 PUSH2 0x10F0 JUMP JUMPDEST DUP3 MSTORE POP POP JUMP JUMPDEST PUSH0 PUSH1 0x20 DUP3 ADD SWAP1 POP PUSH2 0x13FF PUSH0 DUP4 ADD DUP5 PUSH2 0x13DD JUMP JUMPDEST SWAP3 SWAP2 POP POP JUMP JUMPDEST PUSH0 DUP3 DUP3 MSTORE PUSH1 0x20 DUP3 ADD SWAP1 POP SWAP3 SWAP2 POP POP JUMP JUMPDEST PUSH32 0x4D7573696320546F6B656E20646F6573206E6F74206578697374000000000000 PUSH0 DUP3 ADD MSTORE POP JUMP JUMPDEST PUSH0 PUSH2 0x1449 PUSH1 0x1A DUP4 PUSH2 0x1405 JUMP JUMPDEST SWAP2 POP PUSH2 0x1454 DUP3 PUSH2 0x1415 JUMP JUMPDEST PUSH1 0x20 DUP3 ADD SWAP1 POP SWAP2 SWAP1 POP JUMP JUMPDEST PUSH0 PUSH1 0x20 DUP3 ADD SWAP1 POP DUP2 DUP2 SUB PUSH0 DUP4 ADD MSTORE PUSH2 0x1476 DUP2 PUSH2 0x143D JUMP JUMPDEST SWAP1 POP SWAP2 SWAP1 POP JUMP JUMPDEST PUSH32 0x596F752063616E6E6F742062757920796F7572206F776E206D75736963000000 PUSH0 DUP3 ADD MSTORE POP JUMP JUMPDEST PUSH0 PUSH2 0x14B1 PUSH1 0x1D DUP4 PUSH2 0x1405 JUMP JUMPDEST SWAP2 POP PUSH2 0x14BC DUP3 PUSH2 0x147D JUMP JUMPDEST PUSH1 0x20 DUP3 ADD SWAP1 POP SWAP2 SWAP1 POP JUMP JUMPDEST PUSH0 PUSH1 0x20 DUP3 ADD SWAP1 POP DUP2 DUP2 SUB PUSH0 DUP4 ADD MSTORE PUSH2 0x14DE DUP2 PUSH2 0x14A5 JUMP JUMPDEST SWAP1 POP SWAP2 SWAP1 POP JUMP JUMPDEST PUSH32 0x496E73756666696369656E742066756E64730000000000000000000000000000 PUSH0 DUP3 ADD MSTORE POP JUMP JUMPDEST PUSH0 PUSH2 0x1519 PUSH1 0x12 DUP4 PUSH2 0x1405 JUMP JUMPDEST SWAP2 POP PUSH2 0x1524 DUP3 PUSH2 0x14E5 JUMP JUMPDEST PUSH1 0x20 DUP3 ADD SWAP1 POP SWAP2 SWAP1 POP JUMP JUMPDEST PUSH0 PUSH1 0x20 DUP3 ADD SWAP1 POP DUP2 DUP2 SUB PUSH0 DUP4 ADD MSTORE PUSH2 0x1546 DUP2 PUSH2 0x150D JUMP JUMPDEST SWAP1 POP SWAP2 SWAP1 POP JUMP JUMPDEST PUSH32 0x4F6E6C7920746865206F776E65722063616E2061636365707420626964730000 PUSH0 DUP3 ADD MSTORE POP JUMP JUMPDEST PUSH0 PUSH2 0x1581 PUSH1 0x1E DUP4 PUSH2 0x1405 JUMP JUMPDEST SWAP2 POP PUSH2 0x158C DUP3 PUSH2 0x154D JUMP JUMPDEST PUSH1 0x20 DUP3 ADD SWAP1 POP SWAP2 SWAP1 POP JUMP JUMPDEST PUSH0 PUSH1 0x20 DUP3 ADD SWAP1 POP DUP2 DUP2 SUB PUSH0 DUP4 ADD MSTORE PUSH2 0x15AE DUP2 PUSH2 0x1575 JUMP JUMPDEST SWAP1 POP SWAP2 SWAP1 POP JUMP JUMPDEST PUSH32 0x4E6F2076616C6964206269647300000000000000000000000000000000000000 PUSH0 DUP3 ADD MSTORE POP JUMP JUMPDEST PUSH0 PUSH2 0x15E9 PUSH1 0xD DUP4 PUSH2 0x1405 JUMP JUMPDEST SWAP2 POP PUSH2 0x15F4 DUP3 PUSH2 0x15B5 JUMP JUMPDEST PUSH1 0x20 DUP3 ADD SWAP1 POP SWAP2 SWAP1 POP JUMP JUMPDEST PUSH0 PUSH1 0x20 DUP3 ADD SWAP1 POP DUP2 DUP2 SUB PUSH0 DUP4 ADD MSTORE PUSH2 0x1616 DUP2 PUSH2 0x15DD JUMP JUMPDEST SWAP1 POP SWAP2 SWAP1 POP JUMP JUMPDEST PUSH32 0x4D7573696320697320616C7265616479206C696B656400000000000000000000 PUSH0 DUP3 ADD MSTORE POP JUMP JUMPDEST PUSH0 PUSH2 0x1651 PUSH1 0x16 DUP4 PUSH2 0x1405 JUMP JUMPDEST SWAP2 POP PUSH2 0x165C DUP3 PUSH2 0x161D JUMP JUMPDEST PUSH1 0x20 DUP3 ADD SWAP1 POP SWAP2 SWAP1 POP JUMP JUMPDEST PUSH0 PUSH1 0x20 DUP3 ADD SWAP1 POP DUP2 DUP2 SUB PUSH0 DUP4 ADD MSTORE PUSH2 0x167E DUP2 PUSH2 0x1645 JUMP JUMPDEST SWAP1 POP SWAP2 SWAP1 POP JUMP JUMPDEST PUSH32 0x426964206D75737420626520686967686572207468616E2063757272656E7420 PUSH0 DUP3 ADD MSTORE PUSH32 0x6269640000000000000000000000000000000000000000000000000000000000 PUSH1 0x20 DUP3 ADD MSTORE POP JUMP JUMPDEST PUSH0 PUSH2 0x16DF PUSH1 0x23 DUP4 PUSH2 0x1405 JUMP JUMPDEST SWAP2 POP PUSH2 0x16EA DUP3 PUSH2 0x1685 JUMP JUMPDEST PUSH1 0x40 DUP3 ADD SWAP1 POP SWAP2 SWAP1 POP JUMP JUMPDEST PUSH0 PUSH1 0x20 DUP3 ADD SWAP1 POP DUP2 DUP2 SUB PUSH0 DUP4 ADD MSTORE PUSH2 0x170C DUP2 PUSH2 0x16D3 JUMP JUMPDEST SWAP1 POP SWAP2 SWAP1 POP JUMP JUMPDEST PUSH32 0x596F752063616E6E6F7420666F6C6C6F7720796F757273656C66000000000000 PUSH0 DUP3 ADD MSTORE POP JUMP JUMPDEST PUSH0 PUSH2 0x1747 PUSH1 0x1A DUP4 PUSH2 0x1405 JUMP JUMPDEST SWAP2 POP PUSH2 0x1752 DUP3 PUSH2 0x1713 JUMP JUMPDEST PUSH1 0x20 DUP3 ADD SWAP1 POP SWAP2 SWAP1 POP JUMP JUMPDEST PUSH0 PUSH1 0x20 DUP3 ADD SWAP1 POP DUP2 DUP2 SUB PUSH0 DUP4 ADD MSTORE PUSH2 0x1774 DUP2 PUSH2 0x173B JUMP JUMPDEST SWAP1 POP SWAP2 SWAP1 POP JUMP JUMPDEST PUSH32 0x556E617574686F72697A65642073656E64657200000000000000000000000000 PUSH0 DUP3 ADD MSTORE POP JUMP JUMPDEST PUSH0 PUSH2 0x17AF PUSH1 0x13 DUP4 PUSH2 0x1405 JUMP JUMPDEST SWAP2 POP PUSH2 0x17BA DUP3 PUSH2 0x177B JUMP JUMPDEST PUSH1 0x20 DUP3 ADD SWAP1 POP SWAP2 SWAP1 POP JUMP JUMPDEST PUSH0 PUSH1 0x20 DUP3 ADD SWAP1 POP DUP2 DUP2 SUB PUSH0 DUP4 ADD MSTORE PUSH2 0x17DC DUP2 PUSH2 0x17A3 JUMP JUMPDEST SWAP1 POP SWAP2 SWAP1 POP JUMP JUMPDEST PUSH32 0x4D6573736167652063616E6E6F7420626520656D707479000000000000000000 PUSH0 DUP3 ADD MSTORE POP JUMP JUMPDEST PUSH0 PUSH2 0x1817 PUSH1 0x17 DUP4 PUSH2 0x1405 JUMP JUMPDEST SWAP2 POP PUSH2 0x1822 DUP3 PUSH2 0x17E3 JUMP JUMPDEST PUSH1 0x20 DUP3 ADD SWAP1 POP SWAP2 SWAP1 POP JUMP JUMPDEST PUSH0 PUSH1 0x20 DUP3 ADD SWAP1 POP DUP2 DUP2 SUB PUSH0 DUP4 ADD MSTORE PUSH2 0x1844 DUP2 PUSH2 0x180B JUMP JUMPDEST SWAP1 POP SWAP2 SWAP1 POP JUMP JUMPDEST PUSH0 DUP2 MLOAD SWAP1 POP SWAP2 SWAP1 POP JUMP JUMPDEST PUSH32 0x4E487B7100000000000000000000000000000000000000000000000000000000 PUSH0 MSTORE PUSH1 0x22 PUSH1 0x4 MSTORE PUSH1 0x24 PUSH0 REVERT JUMPDEST PUSH0 PUSH1 0x2 DUP3 DIV SWAP1 POP PUSH1 0x1 DUP3 AND DUP1 PUSH2 0x1899 JUMPI PUSH1 0x7F DUP3 AND SWAP2 POP JUMPDEST PUSH1 0x20 DUP3 LT DUP2 SUB PUSH2 0x18AC JUMPI PUSH2 0x18AB PUSH2 0x1855 JUMP JUMPDEST JUMPDEST POP SWAP2 SWAP1 POP JUMP JUMPDEST PUSH0 DUP2 SWAP1 POP DUP2 PUSH0 MSTORE PUSH1 0x20 PUSH0 KECCAK256 SWAP1 POP SWAP2 SWAP1 POP JUMP JUMPDEST PUSH0 PUSH1 0x20 PUSH1 0x1F DUP4 ADD DIV SWAP1 POP SWAP2 SWAP1 POP JUMP JUMPDEST PUSH0 DUP3 DUP3 SHL SWAP1 POP SWAP3 SWAP2 POP POP JUMP JUMPDEST PUSH0 PUSH1 0x8 DUP4 MUL PUSH2 0x190E PUSH32 0xFFFFFFFFFFFFFFFFFFFFFFFFFFFFFFFFFFFFFFFFFFFFFFFFFFFFFFFFFFFFFFFF DUP3 PUSH2 0x18D3 JUMP JUMPDEST PUSH2 0x1918 DUP7 DUP4 PUSH2 0x18D3 JUMP JUMPDEST SWAP6 POP DUP1 NOT DUP5 AND SWAP4 POP DUP1 DUP7 AND DUP5 OR SWAP3 POP POP POP SWAP4 SWAP3 POP POP POP JUMP JUMPDEST PUSH0 DUP2 SWAP1 POP SWAP2 SWAP1 POP JUMP JUMPDEST PUSH0 PUSH2 0x1953 PUSH2 0x194E PUSH2 0x1949 DUP5 PUSH2 0x10F0 JUMP JUMPDEST PUSH2 0x1930 JUMP JUMPDEST PUSH2 0x10F0 JUMP JUMPDEST SWAP1 POP SWAP2 SWAP1 POP JUMP JUMPDEST PUSH0 DUP2 SWAP1 POP SWAP2 SWAP1 POP JUMP JUMPDEST PUSH2 0x196C DUP4 PUSH2 0x1939 JUMP JUMPDEST PUSH2 0x1980 PUSH2 0x1978 DUP3 PUSH2 0x195A JUMP JUMPDEST DUP5 DUP5 SLOAD PUSH2 0x18DF JUMP JUMPDEST DUP3 SSTORE POP POP POP POP JUMP JUMPDEST PUSH0 SWAP1 JUMP JUMPDEST PUSH2 0x1994 PUSH2 0x1988 JUMP JUMPDEST PUSH2 0x199F DUP2 DUP5 DUP5 PUSH2 0x1963 JUMP JUMPDEST POP POP POP JUMP JUMPDEST JUMPDEST DUP2 DUP2 LT ISZERO PUSH2 0x19C2 JUMPI PUSH2 0x19B7 PUSH0 DUP3 PUSH2 0x198C JUMP JUMPDEST PUSH1 0x1 DUP2 ADD SWAP1 POP PUSH2 0x19A5 JUMP JUMPDEST POP POP JUMP JUMPDEST PUSH1 0x1F DUP3 GT ISZERO PUSH2 0x1A07 JUMPI PUSH2 0x19D8 DUP2 PUSH2 0x18B2 JUMP JUMPDEST PUSH2 0x19E1 DUP5 PUSH2 0x18C4 JUMP JUMPDEST DUP2 ADD PUSH1 0x20 DUP6 LT ISZERO PUSH2 0x19F0 JUMPI DUP2 SWAP1 POP JUMPDEST PUSH2 0x1A04 PUSH2 0x19FC DUP6 PUSH2 0x18C4 JUMP JUMPDEST DUP4 ADD DUP3 PUSH2 0x19A4 JUMP JUMPDEST POP POP JUMPDEST POP POP POP JUMP JUMPDEST PUSH0 DUP3 DUP3 SHR SWAP1 POP SWAP3 SWAP2 POP POP JUMP JUMPDEST PUSH0 PUSH2 0x1A27 PUSH0 NOT DUP5 PUSH1 0x8 MUL PUSH2 0x1A0C JUMP JUMPDEST NOT DUP1 DUP4 AND SWAP2 POP POP SWAP3 SWAP2 POP POP JUMP JUMPDEST PUSH0 PUSH2 0x1A3F DUP4 DUP4 PUSH2 0x1A18 JUMP JUMPDEST SWAP2 POP DUP3 PUSH1 0x2 MUL DUP3 OR SWAP1 POP SWAP3 SWAP2 POP POP JUMP JUMPDEST PUSH2 0x1A58 DUP3 PUSH2 0x184B JUMP JUMPDEST PUSH8 0xFFFFFFFFFFFFFFFF DUP2 GT ISZERO PUSH2 0x1A71 JUMPI PUSH2 0x1A70 PUSH2 0x11EB JUMP JUMPDEST JUMPDEST PUSH2 0x1A7B DUP3 SLOAD PUSH2 0x1882 JUMP JUMPDEST PUSH2 0x1A86 DUP3 DUP3 DUP6 PUSH2 0x19C6 JUMP JUMPDEST PUSH0 PUSH1 0x20 SWAP1 POP PUSH1 0x1F DUP4 GT PUSH1 0x1 DUP2 EQ PUSH2 0x1AB7 JUMPI PUSH0 DUP5 ISZERO PUSH2 0x1AA5 JUMPI DUP3 DUP8 ADD MLOAD SWAP1 POP JUMPDEST PUSH2 0x1AAF DUP6 DUP3 PUSH2 0x1A34 JUMP JUMPDEST DUP7 SSTORE POP PUSH2 0x1B16 JUMP JUMPDEST PUSH1 0x1F NOT DUP5 AND PUSH2 0x1AC5 DUP7 PUSH2 0x18B2 JUMP JUMPDEST PUSH0 JUMPDEST DUP3 DUP2 LT ISZERO PUSH2 0x1AEC JUMPI DUP5 DUP10 ADD MLOAD DUP3 SSTORE PUSH1 0x1 DUP3 ADD SWAP2 POP PUSH1 0x20 DUP6 ADD SWAP5 POP PUSH1 0x20 DUP2 ADD SWAP1 POP PUSH2 0x1AC7 JUMP JUMPDEST DUP7 DUP4 LT ISZERO PUSH2 0x1B09 JUMPI DUP5 DUP10 ADD MLOAD PUSH2 0x1B05 PUSH1 0x1F DUP10 AND DUP3 PUSH2 0x1A18 JUMP JUMPDEST DUP4 SSTORE POP JUMPDEST PUSH1 0x1 PUSH1 0x2 DUP9 MUL ADD DUP9 SSTORE POP POP POP JUMPDEST POP POP POP POP POP POP JUMP JUMPDEST PUSH32 0x4E487B7100000000000000000000000000000000000000000000000000000000 PUSH0 MSTORE PUSH1 0x32 PUSH1 0x4 MSTORE PUSH1 0x24 PUSH0 REVERT INVALID LOG2 PUSH5 0x6970667358 0x22 SLT KECCAK256 CODESIZE ISZERO PUSH11 0x9E8DF0A3B295E7ADA11419 BASEFEE PUSH8 0xEE86AC410D8818CE 0xBE 0xC2 NUMBER LOG2 0xDE ADDMOD CALLDATACOPY 0xC6 PUSH5 0x736F6C6343 STOP ADDMOD BYTE STOP CALLER "
				},
				"gasEstimates": {
					"creation": {
						"codeDepositCost": "1408200",
						"executionCost": "1470",
						"totalCost": "1409670"
					},
					"external": {
						"acceptBid(uint256)": "infinite",
						"buyMusic(uint256)": "infinite",
						"followArtist(address)": "50734",
						"likeMusic(uint256)": "infinite",
						"placeBid(uint256)": "infinite",
						"sendMessage(uint256,bytes)": "infinite",
						"uploadMusic(uint256)": "infinite"
					},
					"internal": {
						"_hasLiked(address,uint256)": "infinite"
					}
				},
				"methodIdentifiers": {
					"acceptBid(uint256)": "2b1fd58a",
					"buyMusic(uint256)": "2538c533",
					"followArtist(address)": "a432ba20",
					"likeMusic(uint256)": "6b792d5b",
					"placeBid(uint256)": "9979ef45",
					"sendMessage(uint256,bytes)": "e289adcd",
					"uploadMusic(uint256)": "00ba2c23"
				}
			},
			"storageLayout": {
				"storage": [
					{
						"astId": 24,
						"contract": "Echochain.sol:EchoChain",
						"label": "_tokenIdCounter",
						"offset": 0,
						"slot": "0",
						"type": "t_uint256"
					},
					{
						"astId": 29,
						"contract": "Echochain.sol:EchoChain",
						"label": "musicTokens",
						"offset": 0,
						"slot": "1",
						"type": "t_mapping(t_uint256,t_struct(MusicToken)10_storage)"
					},
					{
						"astId": 34,
						"contract": "Echochain.sol:EchoChain",
						"label": "likedMusic",
						"offset": 0,
						"slot": "2",
						"type": "t_mapping(t_address,t_array(t_uint256)dyn_storage)"
					},
					{
						"astId": 38,
						"contract": "Echochain.sol:EchoChain",
						"label": "totalLikes",
						"offset": 0,
						"slot": "3",
						"type": "t_mapping(t_uint256,t_uint256)"
					},
					{
						"astId": 44,
						"contract": "Echochain.sol:EchoChain",
						"label": "chatMessages",
						"offset": 0,
						"slot": "4",
						"type": "t_mapping(t_uint256,t_array(t_struct(Message)17_storage)dyn_storage)"
					},
					{
						"astId": 49,
						"contract": "Echochain.sol:EchoChain",
						"label": "highestBids",
						"offset": 0,
						"slot": "5",
						"type": "t_mapping(t_uint256,t_struct(Bid)22_storage)"
					},
					{
						"astId": 54,
						"contract": "Echochain.sol:EchoChain",
						"label": "followers",
						"offset": 0,
						"slot": "6",
						"type": "t_mapping(t_address,t_array(t_address)dyn_storage)"
					},
					{
						"astId": 58,
						"contract": "Echochain.sol:EchoChain",
						"label": "owners",
						"offset": 0,
						"slot": "7",
						"type": "t_mapping(t_uint256,t_address)"
					}
				],
				"types": {
					"t_address": {
						"encoding": "inplace",
						"label": "address",
						"numberOfBytes": "20"
					},
					"t_address_payable": {
						"encoding": "inplace",
						"label": "address payable",
						"numberOfBytes": "20"
					},
					"t_array(t_address)dyn_storage": {
						"base": "t_address",
						"encoding": "dynamic_array",
						"label": "address[]",
						"numberOfBytes": "32"
					},
					"t_array(t_struct(Message)17_storage)dyn_storage": {
						"base": "t_struct(Message)17_storage",
						"encoding": "dynamic_array",
						"label": "struct EchoChain.Message[]",
						"numberOfBytes": "32"
					},
					"t_array(t_uint256)dyn_storage": {
						"base": "t_uint256",
						"encoding": "dynamic_array",
						"label": "uint256[]",
						"numberOfBytes": "32"
					},
					"t_bytes_storage": {
						"encoding": "bytes",
						"label": "bytes",
						"numberOfBytes": "32"
					},
					"t_mapping(t_address,t_array(t_address)dyn_storage)": {
						"encoding": "mapping",
						"key": "t_address",
						"label": "mapping(address => address[])",
						"numberOfBytes": "32",
						"value": "t_array(t_address)dyn_storage"
					},
					"t_mapping(t_address,t_array(t_uint256)dyn_storage)": {
						"encoding": "mapping",
						"key": "t_address",
						"label": "mapping(address => uint256[])",
						"numberOfBytes": "32",
						"value": "t_array(t_uint256)dyn_storage"
					},
					"t_mapping(t_uint256,t_address)": {
						"encoding": "mapping",
						"key": "t_uint256",
						"label": "mapping(uint256 => address)",
						"numberOfBytes": "32",
						"value": "t_address"
					},
					"t_mapping(t_uint256,t_array(t_struct(Message)17_storage)dyn_storage)": {
						"encoding": "mapping",
						"key": "t_uint256",
						"label": "mapping(uint256 => struct EchoChain.Message[])",
						"numberOfBytes": "32",
						"value": "t_array(t_struct(Message)17_storage)dyn_storage"
					},
					"t_mapping(t_uint256,t_struct(Bid)22_storage)": {
						"encoding": "mapping",
						"key": "t_uint256",
						"label": "mapping(uint256 => struct EchoChain.Bid)",
						"numberOfBytes": "32",
						"value": "t_struct(Bid)22_storage"
					},
					"t_mapping(t_uint256,t_struct(MusicToken)10_storage)": {
						"encoding": "mapping",
						"key": "t_uint256",
						"label": "mapping(uint256 => struct EchoChain.MusicToken)",
						"numberOfBytes": "32",
						"value": "t_struct(MusicToken)10_storage"
					},
					"t_mapping(t_uint256,t_uint256)": {
						"encoding": "mapping",
						"key": "t_uint256",
						"label": "mapping(uint256 => uint256)",
						"numberOfBytes": "32",
						"value": "t_uint256"
					},
					"t_struct(Bid)22_storage": {
						"encoding": "inplace",
						"label": "struct EchoChain.Bid",
						"members": [
							{
								"astId": 19,
								"contract": "Echochain.sol:EchoChain",
								"label": "bidder",
								"offset": 0,
								"slot": "0",
								"type": "t_address"
							},
							{
								"astId": 21,
								"contract": "Echochain.sol:EchoChain",
								"label": "amount",
								"offset": 0,
								"slot": "1",
								"type": "t_uint256"
							}
						],
						"numberOfBytes": "64"
					},
					"t_struct(Message)17_storage": {
						"encoding": "inplace",
						"label": "struct EchoChain.Message",
						"members": [
							{
								"astId": 12,
								"contract": "Echochain.sol:EchoChain",
								"label": "sender",
								"offset": 0,
								"slot": "0",
								"type": "t_address"
							},
							{
								"astId": 14,
								"contract": "Echochain.sol:EchoChain",
								"label": "encryptedContent",
								"offset": 0,
								"slot": "1",
								"type": "t_bytes_storage"
							},
							{
								"astId": 16,
								"contract": "Echochain.sol:EchoChain",
								"label": "timestamp",
								"offset": 0,
								"slot": "2",
								"type": "t_uint256"
							}
						],
						"numberOfBytes": "96"
					},
					"t_struct(MusicToken)10_storage": {
						"encoding": "inplace",
						"label": "struct EchoChain.MusicToken",
						"members": [
							{
								"astId": 3,
								"contract": "Echochain.sol:EchoChain",
								"label": "tokenId",
								"offset": 0,
								"slot": "0",
								"type": "t_uint256"
							},
							{
								"astId": 5,
								"contract": "Echochain.sol:EchoChain",
								"label": "author",
								"offset": 0,
								"slot": "1",
								"type": "t_address_payable"
							},
							{
								"astId": 7,
								"contract": "Echochain.sol:EchoChain",
								"label": "price",
								"offset": 0,
								"slot": "2",
								"type": "t_uint256"
							},
							{
								"astId": 9,
								"contract": "Echochain.sol:EchoChain",
								"label": "likes",
								"offset": 0,
								"slot": "3",
								"type": "t_uint256"
							}
						],
						"numberOfBytes": "128"
					},
					"t_uint256": {
						"encoding": "inplace",
						"label": "uint256",
						"numberOfBytes": "32"
					}
				}
			},
			"userdoc": {
				"kind": "user",
				"methods": {},
				"version": 1
			}
		}
	}
}