{
	"demo_try.sol": {
		"Echochai": {
			"abi": [
				{
					"anonymous": false,
					"inputs": [
						{
							"indexed": true,
							"internalType": "uint256",
							"name": "id",
							"type": "uint256"
						},
						{
							"indexed": true,
							"internalType": "address",
							"name": "buyer",
							"type": "address"
						},
						{
							"indexed": true,
							"internalType": "address",
							"name": "artist",
							"type": "address"
						},
						{
							"indexed": false,
							"internalType": "uint256",
							"name": "price",
							"type": "uint256"
						}
					],
					"name": "MusicPurchased",
					"type": "event"
				},
				{
					"anonymous": false,
					"inputs": [
						{
							"indexed": true,
							"internalType": "uint256",
							"name": "id",
							"type": "uint256"
						},
						{
							"indexed": true,
							"internalType": "address",
							"name": "artist",
							"type": "address"
						},
						{
							"indexed": false,
							"internalType": "string",
							"name": "title",
							"type": "string"
						},
						{
							"indexed": false,
							"internalType": "uint256",
							"name": "price",
							"type": "uint256"
						}
					],
					"name": "MusicUploaded",
					"type": "event"
				},
				{
					"inputs": [
						{
							"internalType": "uint256",
							"name": "_musicId",
							"type": "uint256"
						}
					],
					"name": "buyMusic",
					"outputs": [],
					"stateMutability": "payable",
					"type": "function"
				},
				{
					"inputs": [],
					"name": "getMyBoughtMusics",
					"outputs": [
						{
							"components": [
								{
									"internalType": "uint256",
									"name": "musicId",
									"type": "uint256"
								},
								{
									"internalType": "address",
									"name": "buyer",
									"type": "address"
								},
								{
									"internalType": "uint256",
									"name": "timestamp",
									"type": "uint256"
								}
							],
							"internalType": "struct Echochai.Purchase[]",
							"name": "",
							"type": "tuple[]"
						}
					],
					"stateMutability": "view",
					"type": "function"
				},
				{
					"inputs": [
						{
							"internalType": "uint256",
							"name": "",
							"type": "uint256"
						}
					],
					"name": "musics",
					"outputs": [
						{
							"internalType": "uint256",
							"name": "id",
							"type": "uint256"
						},
						{
							"internalType": "address",
							"name": "artist",
							"type": "address"
						},
						{
							"internalType": "string",
							"name": "title",
							"type": "string"
						},
						{
							"internalType": "uint256",
							"name": "price",
							"type": "uint256"
						},
						{
							"internalType": "bool",
							"name": "isActive",
							"type": "bool"
						}
					],
					"stateMutability": "view",
					"type": "function"
				},
				{
					"inputs": [
						{
							"internalType": "address",
							"name": "",
							"type": "address"
						},
						{
							"internalType": "uint256",
							"name": "",
							"type": "uint256"
						}
					],
					"name": "purchases",
					"outputs": [
						{
							"internalType": "uint256",
							"name": "musicId",
							"type": "uint256"
						},
						{
							"internalType": "address",
							"name": "buyer",
							"type": "address"
						},
						{
							"internalType": "uint256",
							"name": "timestamp",
							"type": "uint256"
						}
					],
					"stateMutability": "view",
					"type": "function"
				},
				{
					"inputs": [
						{
							"internalType": "string",
							"name": "_title",
							"type": "string"
						},
						{
							"internalType": "uint256",
							"name": "_price",
							"type": "uint256"
						}
					],
					"name": "uploadMusic",
					"outputs": [
						{
							"internalType": "uint256",
							"name": "",
							"type": "uint256"
						}
					],
					"stateMutability": "nonpayable",
					"type": "function"
				}
			],
			"devdoc": {
				"kind": "dev",
				"methods": {},
				"version": 1
			},
			"evm": {
				"assembly": "    /* \"demo_try.sol\":60:2088  contract Echochai {... */\n  mstore(0x40, 0x80)\n  callvalue\n  dup1\n  iszero\n  tag_1\n  jumpi\n  0x00\n  dup1\n  revert\ntag_1:\n  pop\n  dataSize(sub_0)\n  dup1\n  dataOffset(sub_0)\n  0x00\n  codecopy\n  0x00\n  return\nstop\n\nsub_0: assembly {\n        /* \"demo_try.sol\":60:2088  contract Echochai {... */\n      mstore(0x40, 0x80)\n      jumpi(tag_1, lt(calldatasize, 0x04))\n      shr(0xe0, calldataload(0x00))\n      dup1\n      0x2538c533\n      eq\n      tag_2\n      jumpi\n      dup1\n      0x52d3f849\n      eq\n      tag_3\n      jumpi\n      dup1\n      0x564a2864\n      eq\n      tag_4\n      jumpi\n      dup1\n      0x8a7513a5\n      eq\n      tag_5\n      jumpi\n      dup1\n      0xd054b9ef\n      eq\n      tag_6\n      jumpi\n    tag_1:\n      0x00\n      dup1\n      revert\n        /* \"demo_try.sol\":1278:1961  function buyMusic(uint256 _musicId) public payable {... */\n    tag_2:\n      tag_7\n      0x04\n      dup1\n      calldatasize\n      sub\n      dup2\n      add\n      swap1\n      tag_8\n      swap2\n      swap1\n      tag_9\n      jump\t// in\n    tag_8:\n      tag_10\n      jump\t// in\n    tag_7:\n      stop\n        /* \"demo_try.sol\":387:434  mapping(address => Purchase[]) public purchases */\n    tag_3:\n      callvalue\n      dup1\n      iszero\n      tag_11\n      jumpi\n      0x00\n      dup1\n      revert\n    tag_11:\n      pop\n      tag_12\n      0x04\n      dup1\n      calldatasize\n      sub\n      dup2\n      add\n      swap1\n      tag_13\n      swap2\n      swap1\n      tag_14\n      jump\t// in\n    tag_13:\n      tag_15\n      jump\t// in\n    tag_12:\n      mload(0x40)\n      tag_16\n      swap4\n      swap3\n      swap2\n      swap1\n      tag_17\n      jump\t// in\n    tag_16:\n      mload(0x40)\n      dup1\n      swap2\n      sub\n      swap1\n      return\n        /* \"demo_try.sol\":341:380  mapping(uint256 => Music) public musics */\n    tag_4:\n      callvalue\n      dup1\n      iszero\n      tag_18\n      jumpi\n      0x00\n      dup1\n      revert\n    tag_18:\n      pop\n      tag_19\n      0x04\n      dup1\n      calldatasize\n      sub\n      dup2\n      add\n      swap1\n      tag_20\n      swap2\n      swap1\n      tag_9\n      jump\t// in\n    tag_20:\n      tag_21\n      jump\t// in\n    tag_19:\n      mload(0x40)\n      tag_22\n      swap6\n      swap5\n      swap4\n      swap3\n      swap2\n      swap1\n      tag_23\n      jump\t// in\n    tag_22:\n      mload(0x40)\n      dup1\n      swap2\n      sub\n      swap1\n      return\n        /* \"demo_try.sol\":698:1270  function uploadMusic(string memory _title, uint256 _price) public returns (uint256) {... */\n    tag_5:\n      callvalue\n      dup1\n      iszero\n      tag_24\n      jumpi\n      0x00\n      dup1\n      revert\n    tag_24:\n      pop\n      tag_25\n      0x04\n      dup1\n      calldatasize\n      sub\n      dup2\n      add\n      swap1\n      tag_26\n      swap2\n      swap1\n      tag_27\n      jump\t// in\n    tag_26:\n      tag_28\n      jump\t// in\n    tag_25:\n      mload(0x40)\n      tag_29\n      swap2\n      swap1\n      tag_30\n      jump\t// in\n    tag_29:\n      mload(0x40)\n      dup1\n      swap2\n      sub\n      swap1\n      return\n        /* \"demo_try.sol\":1969:2085  function getMyBoughtMusics() public view returns (Purchase[] memory) {... */\n    tag_6:\n      callvalue\n      dup1\n      iszero\n      tag_31\n      jumpi\n      0x00\n      dup1\n      revert\n    tag_31:\n      pop\n      tag_32\n      tag_33\n      jump\t// in\n    tag_32:\n      mload(0x40)\n      tag_34\n      swap2\n      swap1\n      tag_35\n      jump\t// in\n    tag_34:\n      mload(0x40)\n      dup1\n      swap2\n      sub\n      swap1\n      return\n        /* \"demo_try.sol\":1278:1961  function buyMusic(uint256 _musicId) public payable {... */\n    tag_10:\n        /* \"demo_try.sol\":1340:1359  Music storage music */\n      0x00\n        /* \"demo_try.sol\":1362:1368  musics */\n      dup1\n        /* \"demo_try.sol\":1362:1378  musics[_musicId] */\n      0x00\n        /* \"demo_try.sol\":1369:1377  _musicId */\n      dup4\n        /* \"demo_try.sol\":1362:1378  musics[_musicId] */\n      dup2\n      mstore\n      0x20\n      add\n      swap1\n      dup2\n      mstore\n      0x20\n      add\n      0x00\n      keccak256\n        /* \"demo_try.sol\":1340:1378  Music storage music = musics[_musicId] */\n      swap1\n      pop\n        /* \"demo_try.sol\":1397:1402  music */\n      dup1\n        /* \"demo_try.sol\":1397:1411  music.isActive */\n      0x04\n      add\n      0x00\n      swap1\n      sload\n      swap1\n      0x0100\n      exp\n      swap1\n      div\n      0xff\n      and\n        /* \"demo_try.sol\":1389:1435  require(music.isActive, \"Music is not active\") */\n      tag_37\n      jumpi\n      mload(0x40)\n      0x08c379a000000000000000000000000000000000000000000000000000000000\n      dup2\n      mstore\n      0x04\n      add\n      tag_38\n      swap1\n      tag_39\n      jump\t// in\n    tag_38:\n      mload(0x40)\n      dup1\n      swap2\n      sub\n      swap1\n      revert\n    tag_37:\n        /* \"demo_try.sol\":1467:1472  music */\n      dup1\n        /* \"demo_try.sol\":1467:1478  music.price */\n      0x03\n      add\n      sload\n        /* \"demo_try.sol\":1454:1463  msg.value */\n      callvalue\n        /* \"demo_try.sol\":1454:1478  msg.value >= music.price */\n      lt\n      iszero\n        /* \"demo_try.sol\":1446:1503  require(msg.value >= music.price, \"Insufficient payment\") */\n      tag_40\n      jumpi\n      mload(0x40)\n      0x08c379a000000000000000000000000000000000000000000000000000000000\n      dup2\n      mstore\n      0x04\n      add\n      tag_41\n      swap1\n      tag_42\n      jump\t// in\n    tag_41:\n      mload(0x40)\n      dup1\n      swap2\n      sub\n      swap1\n      revert\n    tag_40:\n        /* \"demo_try.sol\":1538:1548  msg.sender */\n      caller\n        /* \"demo_try.sol\":1522:1548  music.artist != msg.sender */\n      0xffffffffffffffffffffffffffffffffffffffff\n      and\n        /* \"demo_try.sol\":1522:1527  music */\n      dup2\n        /* \"demo_try.sol\":1522:1534  music.artist */\n      0x01\n      add\n      0x00\n      swap1\n      sload\n      swap1\n      0x0100\n      exp\n      swap1\n      div\n      0xffffffffffffffffffffffffffffffffffffffff\n      and\n        /* \"demo_try.sol\":1522:1548  music.artist != msg.sender */\n      0xffffffffffffffffffffffffffffffffffffffff\n      and\n      sub\n        /* \"demo_try.sol\":1514:1578  require(music.artist != msg.sender, \"Cannot buy your own music\") */\n      tag_43\n      jumpi\n      mload(0x40)\n      0x08c379a000000000000000000000000000000000000000000000000000000000\n      dup2\n      mstore\n      0x04\n      add\n      tag_44\n      swap1\n      tag_45\n      jump\t// in\n    tag_44:\n      mload(0x40)\n      dup1\n      swap2\n      sub\n      swap1\n      revert\n    tag_43:\n        /* \"demo_try.sol\":1638:1643  music */\n      dup1\n        /* \"demo_try.sol\":1638:1650  music.artist */\n      0x01\n      add\n      0x00\n      swap1\n      sload\n      swap1\n      0x0100\n      exp\n      swap1\n      div\n      0xffffffffffffffffffffffffffffffffffffffff\n      and\n        /* \"demo_try.sol\":1630:1660  payable(music.artist).transfer */\n      0xffffffffffffffffffffffffffffffffffffffff\n      and\n        /* \"demo_try.sol\":1630:1671  payable(music.artist).transfer(msg.value) */\n      0x08fc\n        /* \"demo_try.sol\":1661:1670  msg.value */\n      callvalue\n        /* \"demo_try.sol\":1630:1671  payable(music.artist).transfer(msg.value) */\n      swap1\n      dup2\n      iszero\n      mul\n      swap1\n      mload(0x40)\n      0x00\n      mload(0x40)\n      dup1\n      dup4\n      sub\n      dup2\n      dup6\n      dup9\n      dup9\n      call\n      swap4\n      pop\n      pop\n      pop\n      pop\n      iszero\n      dup1\n      iszero\n      tag_47\n      jumpi\n      returndatasize\n      0x00\n      dup1\n      returndatacopy\n      revert(0x00, returndatasize)\n    tag_47:\n      pop\n        /* \"demo_try.sol\":1720:1729  purchases */\n      0x01\n        /* \"demo_try.sol\":1720:1741  purchases[msg.sender] */\n      0x00\n        /* \"demo_try.sol\":1730:1740  msg.sender */\n      caller\n        /* \"demo_try.sol\":1720:1741  purchases[msg.sender] */\n      0xffffffffffffffffffffffffffffffffffffffff\n      and\n      0xffffffffffffffffffffffffffffffffffffffff\n      and\n      dup2\n      mstore\n      0x20\n      add\n      swap1\n      dup2\n      mstore\n      0x20\n      add\n      0x00\n      keccak256\n        /* \"demo_try.sol\":1747:1873  Purchase({... */\n      mload(0x40)\n      dup1\n      0x60\n      add\n      0x40\n      mstore\n      dup1\n        /* \"demo_try.sol\":1780:1788  _musicId */\n      dup5\n        /* \"demo_try.sol\":1747:1873  Purchase({... */\n      dup2\n      mstore\n      0x20\n      add\n        /* \"demo_try.sol\":1810:1820  msg.sender */\n      caller\n        /* \"demo_try.sol\":1747:1873  Purchase({... */\n      0xffffffffffffffffffffffffffffffffffffffff\n      and\n      dup2\n      mstore\n      0x20\n      add\n        /* \"demo_try.sol\":1846:1861  block.timestamp */\n      timestamp\n        /* \"demo_try.sol\":1747:1873  Purchase({... */\n      dup2\n      mstore\n      pop\n        /* \"demo_try.sol\":1720:1874  purchases[msg.sender].push(Purchase({... */\n      swap1\n      dup1\n      0x01\n      dup2\n      sload\n      add\n      dup1\n      dup3\n      sstore\n      dup1\n      swap2\n      pop\n      pop\n      0x01\n      swap1\n      sub\n      swap1\n      0x00\n      mstore\n      keccak256(0x00, 0x20)\n      swap1\n      0x03\n      mul\n      add\n      0x00\n      swap1\n      swap2\n      swap1\n      swap2\n      swap1\n      swap2\n      pop\n      0x00\n      dup3\n      add\n      mload\n      dup2\n      0x00\n      add\n      sstore\n      0x20\n      dup3\n      add\n      mload\n      dup2\n      0x01\n      add\n      exp(0x0100, 0x00)\n      dup2\n      sload\n      dup2\n      0xffffffffffffffffffffffffffffffffffffffff\n      mul\n      not\n      and\n      swap1\n      dup4\n      0xffffffffffffffffffffffffffffffffffffffff\n      and\n      mul\n      or\n      swap1\n      sstore\n      pop\n      0x40\n      dup3\n      add\n      mload\n      dup2\n      0x02\n      add\n      sstore\n      pop\n      pop\n        /* \"demo_try.sol\":1929:1934  music */\n      dup1\n        /* \"demo_try.sol\":1929:1941  music.artist */\n      0x01\n      add\n      0x00\n      swap1\n      sload\n      swap1\n      0x0100\n      exp\n      swap1\n      div\n      0xffffffffffffffffffffffffffffffffffffffff\n      and\n        /* \"demo_try.sol\":1892:1953  MusicPurchased(_musicId, msg.sender, music.artist, msg.value) */\n      0xffffffffffffffffffffffffffffffffffffffff\n      and\n        /* \"demo_try.sol\":1917:1927  msg.sender */\n      caller\n        /* \"demo_try.sol\":1892:1953  MusicPurchased(_musicId, msg.sender, music.artist, msg.value) */\n      0xffffffffffffffffffffffffffffffffffffffff\n      and\n        /* \"demo_try.sol\":1907:1915  _musicId */\n      dup4\n        /* \"demo_try.sol\":1892:1953  MusicPurchased(_musicId, msg.sender, music.artist, msg.value) */\n      0x775abcff6c41b260e0a6f417b1de141065bf8a7c41f56c52329354e85fd28a0d\n        /* \"demo_try.sol\":1943:1952  msg.value */\n      callvalue\n        /* \"demo_try.sol\":1892:1953  MusicPurchased(_musicId, msg.sender, music.artist, msg.value) */\n      mload(0x40)\n      tag_49\n      swap2\n      swap1\n      tag_30\n      jump\t// in\n    tag_49:\n      mload(0x40)\n      dup1\n      swap2\n      sub\n      swap1\n      log4\n        /* \"demo_try.sol\":1329:1961  {... */\n      pop\n        /* \"demo_try.sol\":1278:1961  function buyMusic(uint256 _musicId) public payable {... */\n      pop\n      jump\t// out\n        /* \"demo_try.sol\":387:434  mapping(address => Purchase[]) public purchases */\n    tag_15:\n      mstore(0x20, 0x01)\n      dup2\n      0x00\n      mstore\n      keccak256(0x00, 0x40)\n      dup2\n      dup2\n      sload\n      dup2\n      lt\n      tag_50\n      jumpi\n      0x00\n      dup1\n      revert\n    tag_50:\n      swap1\n      0x00\n      mstore\n      keccak256(0x00, 0x20)\n      swap1\n      0x03\n      mul\n      add\n      0x00\n      swap2\n      pop\n      swap2\n      pop\n      pop\n      dup1\n      0x00\n      add\n      sload\n      swap1\n      dup1\n      0x01\n      add\n      0x00\n      swap1\n      sload\n      swap1\n      0x0100\n      exp\n      swap1\n      div\n      0xffffffffffffffffffffffffffffffffffffffff\n      and\n      swap1\n      dup1\n      0x02\n      add\n      sload\n      swap1\n      pop\n      dup4\n      jump\t// out\n        /* \"demo_try.sol\":341:380  mapping(uint256 => Music) public musics */\n    tag_21:\n      mstore(0x20, 0x00)\n      dup1\n      0x00\n      mstore\n      keccak256(0x00, 0x40)\n      0x00\n      swap2\n      pop\n      swap1\n      pop\n      dup1\n      0x00\n      add\n      sload\n      swap1\n      dup1\n      0x01\n      add\n      0x00\n      swap1\n      sload\n      swap1\n      0x0100\n      exp\n      swap1\n      div\n      0xffffffffffffffffffffffffffffffffffffffff\n      and\n      swap1\n      dup1\n      0x02\n      add\n      dup1\n      sload\n      tag_52\n      swap1\n      tag_53\n      jump\t// in\n    tag_52:\n      dup1\n      0x1f\n      add\n      0x20\n      dup1\n      swap2\n      div\n      mul\n      0x20\n      add\n      mload(0x40)\n      swap1\n      dup2\n      add\n      0x40\n      mstore\n      dup1\n      swap3\n      swap2\n      swap1\n      dup2\n      dup2\n      mstore\n      0x20\n      add\n      dup3\n      dup1\n      sload\n      tag_54\n      swap1\n      tag_53\n      jump\t// in\n    tag_54:\n      dup1\n      iszero\n      tag_55\n      jumpi\n      dup1\n      0x1f\n      lt\n      tag_56\n      jumpi\n      0x0100\n      dup1\n      dup4\n      sload\n      div\n      mul\n      dup4\n      mstore\n      swap2\n      0x20\n      add\n      swap2\n      jump(tag_55)\n    tag_56:\n      dup3\n      add\n      swap2\n      swap1\n      0x00\n      mstore\n      keccak256(0x00, 0x20)\n      swap1\n    tag_57:\n      dup2\n      sload\n      dup2\n      mstore\n      swap1\n      0x01\n      add\n      swap1\n      0x20\n      add\n      dup1\n      dup4\n      gt\n      tag_57\n      jumpi\n      dup3\n      swap1\n      sub\n      0x1f\n      and\n      dup3\n      add\n      swap2\n    tag_55:\n      pop\n      pop\n      pop\n      pop\n      pop\n      swap1\n      dup1\n      0x03\n      add\n      sload\n      swap1\n      dup1\n      0x04\n      add\n      0x00\n      swap1\n      sload\n      swap1\n      0x0100\n      exp\n      swap1\n      div\n      0xff\n      and\n      swap1\n      pop\n      dup6\n      jump\t// out\n        /* \"demo_try.sol\":698:1270  function uploadMusic(string memory _title, uint256 _price) public returns (uint256) {... */\n    tag_28:\n        /* \"demo_try.sol\":773:780  uint256 */\n      0x00\n        /* \"demo_try.sol\":810:811  0 */\n      dup1\n        /* \"demo_try.sol\":801:807  _price */\n      dup3\n        /* \"demo_try.sol\":801:811  _price > 0 */\n      gt\n        /* \"demo_try.sol\":793:844  require(_price > 0, \"Price must be greater than 0\") */\n      tag_59\n      jumpi\n      mload(0x40)\n      0x08c379a000000000000000000000000000000000000000000000000000000000\n      dup2\n      mstore\n      0x04\n      add\n      tag_60\n      swap1\n      tag_61\n      jump\t// in\n    tag_60:\n      mload(0x40)\n      dup1\n      swap2\n      sub\n      swap1\n      revert\n    tag_59:\n        /* \"demo_try.sol\":886:887  0 */\n      0x00\n        /* \"demo_try.sol\":869:875  _title */\n      dup4\n        /* \"demo_try.sol\":863:883  bytes(_title).length */\n      mload\n        /* \"demo_try.sol\":863:887  bytes(_title).length > 0 */\n      gt\n        /* \"demo_try.sol\":855:913  require(bytes(_title).length > 0, \"Title cannot be empty\") */\n      tag_62\n      jumpi\n      mload(0x40)\n      0x08c379a000000000000000000000000000000000000000000000000000000000\n      dup2\n      mstore\n      0x04\n      add\n      tag_63\n      swap1\n      tag_64\n      jump\t// in\n    tag_63:\n      mload(0x40)\n      dup1\n      swap2\n      sub\n      swap1\n      revert\n    tag_62:\n        /* \"demo_try.sol\":934:946  musicCounter */\n      0x02\n      0x00\n        /* \"demo_try.sol\":934:948  musicCounter++ */\n      dup2\n      sload\n      dup1\n      swap3\n      swap2\n      swap1\n      tag_65\n      swap1\n      tag_66\n      jump\t// in\n    tag_65:\n      swap2\n      swap1\n      pop\n      sstore\n      pop\n        /* \"demo_try.sol\":992:1159  Music({... */\n      mload(0x40)\n      dup1\n      0xa0\n      add\n      0x40\n      mstore\n      dup1\n        /* \"demo_try.sol\":1017:1029  musicCounter */\n      sload(0x02)\n        /* \"demo_try.sol\":992:1159  Music({... */\n      dup2\n      mstore\n      0x20\n      add\n        /* \"demo_try.sol\":1052:1062  msg.sender */\n      caller\n        /* \"demo_try.sol\":992:1159  Music({... */\n      0xffffffffffffffffffffffffffffffffffffffff\n      and\n      dup2\n      mstore\n      0x20\n      add\n        /* \"demo_try.sol\":1084:1090  _title */\n      dup5\n        /* \"demo_try.sol\":992:1159  Music({... */\n      dup2\n      mstore\n      0x20\n      add\n        /* \"demo_try.sol\":1112:1118  _price */\n      dup4\n        /* \"demo_try.sol\":992:1159  Music({... */\n      dup2\n      mstore\n      0x20\n      add\n        /* \"demo_try.sol\":1143:1147  true */\n      0x01\n        /* \"demo_try.sol\":992:1159  Music({... */\n      iszero\n      iszero\n      dup2\n      mstore\n      pop\n        /* \"demo_try.sol\":969:975  musics */\n      0x00\n        /* \"demo_try.sol\":969:989  musics[musicCounter] */\n      dup1\n        /* \"demo_try.sol\":976:988  musicCounter */\n      sload(0x02)\n        /* \"demo_try.sol\":969:989  musics[musicCounter] */\n      dup2\n      mstore\n      0x20\n      add\n      swap1\n      dup2\n      mstore\n      0x20\n      add\n      0x00\n      keccak256\n        /* \"demo_try.sol\":969:1159  musics[musicCounter] = Music({... */\n      0x00\n      dup3\n      add\n      mload\n      dup2\n      0x00\n      add\n      sstore\n      0x20\n      dup3\n      add\n      mload\n      dup2\n      0x01\n      add\n      exp(0x0100, 0x00)\n      dup2\n      sload\n      dup2\n      0xffffffffffffffffffffffffffffffffffffffff\n      mul\n      not\n      and\n      swap1\n      dup4\n      0xffffffffffffffffffffffffffffffffffffffff\n      and\n      mul\n      or\n      swap1\n      sstore\n      pop\n      0x40\n      dup3\n      add\n      mload\n      dup2\n      0x02\n      add\n      swap1\n      dup2\n      tag_67\n      swap2\n      swap1\n      tag_68\n      jump\t// in\n    tag_67:\n      pop\n      0x60\n      dup3\n      add\n      mload\n      dup2\n      0x03\n      add\n      sstore\n      0x80\n      dup3\n      add\n      mload\n      dup2\n      0x04\n      add\n      exp(0x0100, 0x00)\n      dup2\n      sload\n      dup2\n      0xff\n      mul\n      not\n      and\n      swap1\n      dup4\n      iszero\n      iszero\n      mul\n      or\n      swap1\n      sstore\n      pop\n      swap1\n      pop\n      pop\n        /* \"demo_try.sol\":1205:1215  msg.sender */\n      caller\n        /* \"demo_try.sol\":1177:1232  MusicUploaded(musicCounter, msg.sender, _title, _price) */\n      0xffffffffffffffffffffffffffffffffffffffff\n      and\n        /* \"demo_try.sol\":1191:1203  musicCounter */\n      sload(0x02)\n        /* \"demo_try.sol\":1177:1232  MusicUploaded(musicCounter, msg.sender, _title, _price) */\n      0xd440a710fb11b369177df9c745fdacb819d84c297a6e2cea51efa4b819ddb3f6\n        /* \"demo_try.sol\":1217:1223  _title */\n      dup6\n        /* \"demo_try.sol\":1225:1231  _price */\n      dup6\n        /* \"demo_try.sol\":1177:1232  MusicUploaded(musicCounter, msg.sender, _title, _price) */\n      mload(0x40)\n      tag_69\n      swap3\n      swap2\n      swap1\n      tag_70\n      jump\t// in\n    tag_69:\n      mload(0x40)\n      dup1\n      swap2\n      sub\n      swap1\n      log3\n        /* \"demo_try.sol\":1250:1262  musicCounter */\n      sload(0x02)\n        /* \"demo_try.sol\":1243:1262  return musicCounter */\n      swap1\n      pop\n        /* \"demo_try.sol\":698:1270  function uploadMusic(string memory _title, uint256 _price) public returns (uint256) {... */\n      swap3\n      swap2\n      pop\n      pop\n      jump\t// out\n        /* \"demo_try.sol\":1969:2085  function getMyBoughtMusics() public view returns (Purchase[] memory) {... */\n    tag_33:\n        /* \"demo_try.sol\":2019:2036  Purchase[] memory */\n      0x60\n        /* \"demo_try.sol\":2056:2065  purchases */\n      0x01\n        /* \"demo_try.sol\":2056:2077  purchases[msg.sender] */\n      0x00\n        /* \"demo_try.sol\":2066:2076  msg.sender */\n      caller\n        /* \"demo_try.sol\":2056:2077  purchases[msg.sender] */\n      0xffffffffffffffffffffffffffffffffffffffff\n      and\n      0xffffffffffffffffffffffffffffffffffffffff\n      and\n      dup2\n      mstore\n      0x20\n      add\n      swap1\n      dup2\n      mstore\n      0x20\n      add\n      0x00\n      keccak256\n        /* \"demo_try.sol\":2049:2077  return purchases[msg.sender] */\n      dup1\n      sload\n      dup1\n      0x20\n      mul\n      0x20\n      add\n      mload(0x40)\n      swap1\n      dup2\n      add\n      0x40\n      mstore\n      dup1\n      swap3\n      swap2\n      swap1\n      dup2\n      dup2\n      mstore\n      0x20\n      add\n      0x00\n      swap1\n    tag_72:\n      dup3\n      dup3\n      lt\n      iszero\n      tag_73\n      jumpi\n      dup4\n      dup3\n      swap1\n      0x00\n      mstore\n      keccak256(0x00, 0x20)\n      swap1\n      0x03\n      mul\n      add\n      mload(0x40)\n      dup1\n      0x60\n      add\n      0x40\n      mstore\n      swap1\n      dup2\n      0x00\n      dup3\n      add\n      sload\n      dup2\n      mstore\n      0x20\n      add\n      0x01\n      dup3\n      add\n      0x00\n      swap1\n      sload\n      swap1\n      0x0100\n      exp\n      swap1\n      div\n      0xffffffffffffffffffffffffffffffffffffffff\n      and\n      0xffffffffffffffffffffffffffffffffffffffff\n      and\n      0xffffffffffffffffffffffffffffffffffffffff\n      and\n      dup2\n      mstore\n      0x20\n      add\n      0x02\n      dup3\n      add\n      sload\n      dup2\n      mstore\n      pop\n      pop\n      dup2\n      mstore\n      0x20\n      add\n      swap1\n      0x01\n      add\n      swap1\n      jump(tag_72)\n    tag_73:\n      pop\n      pop\n      pop\n      pop\n      swap1\n      pop\n        /* \"demo_try.sol\":1969:2085  function getMyBoughtMusics() public view returns (Purchase[] memory) {... */\n      swap1\n      jump\t// out\n        /* \"#utility.yul\":7:82   */\n    tag_75:\n        /* \"#utility.yul\":40:46   */\n      0x00\n        /* \"#utility.yul\":73:75   */\n      0x40\n        /* \"#utility.yul\":67:76   */\n      mload\n        /* \"#utility.yul\":57:76   */\n      swap1\n      pop\n        /* \"#utility.yul\":7:82   */\n      swap1\n      jump\t// out\n        /* \"#utility.yul\":88:205   */\n    tag_76:\n        /* \"#utility.yul\":197:198   */\n      0x00\n        /* \"#utility.yul\":194:195   */\n      dup1\n        /* \"#utility.yul\":187:199   */\n      revert\n        /* \"#utility.yul\":211:328   */\n    tag_77:\n        /* \"#utility.yul\":320:321   */\n      0x00\n        /* \"#utility.yul\":317:318   */\n      dup1\n        /* \"#utility.yul\":310:322   */\n      revert\n        /* \"#utility.yul\":334:411   */\n    tag_78:\n        /* \"#utility.yul\":371:378   */\n      0x00\n        /* \"#utility.yul\":400:405   */\n      dup2\n        /* \"#utility.yul\":389:405   */\n      swap1\n      pop\n        /* \"#utility.yul\":334:411   */\n      swap2\n      swap1\n      pop\n      jump\t// out\n        /* \"#utility.yul\":417:539   */\n    tag_79:\n        /* \"#utility.yul\":490:514   */\n      tag_145\n        /* \"#utility.yul\":508:513   */\n      dup2\n        /* \"#utility.yul\":490:514   */\n      tag_78\n      jump\t// in\n    tag_145:\n        /* \"#utility.yul\":483:488   */\n      dup2\n        /* \"#utility.yul\":480:515   */\n      eq\n        /* \"#utility.yul\":470:533   */\n      tag_146\n      jumpi\n        /* \"#utility.yul\":529:530   */\n      0x00\n        /* \"#utility.yul\":526:527   */\n      dup1\n        /* \"#utility.yul\":519:531   */\n      revert\n        /* \"#utility.yul\":470:533   */\n    tag_146:\n        /* \"#utility.yul\":417:539   */\n      pop\n      jump\t// out\n        /* \"#utility.yul\":545:684   */\n    tag_80:\n        /* \"#utility.yul\":591:596   */\n      0x00\n        /* \"#utility.yul\":629:635   */\n      dup2\n        /* \"#utility.yul\":616:636   */\n      calldataload\n        /* \"#utility.yul\":607:636   */\n      swap1\n      pop\n        /* \"#utility.yul\":645:678   */\n      tag_148\n        /* \"#utility.yul\":672:677   */\n      dup2\n        /* \"#utility.yul\":645:678   */\n      tag_79\n      jump\t// in\n    tag_148:\n        /* \"#utility.yul\":545:684   */\n      swap3\n      swap2\n      pop\n      pop\n      jump\t// out\n        /* \"#utility.yul\":690:1019   */\n    tag_9:\n        /* \"#utility.yul\":749:755   */\n      0x00\n        /* \"#utility.yul\":798:800   */\n      0x20\n        /* \"#utility.yul\":786:795   */\n      dup3\n        /* \"#utility.yul\":777:784   */\n      dup5\n        /* \"#utility.yul\":773:796   */\n      sub\n        /* \"#utility.yul\":769:801   */\n      slt\n        /* \"#utility.yul\":766:885   */\n      iszero\n      tag_150\n      jumpi\n        /* \"#utility.yul\":804:883   */\n      tag_151\n      tag_76\n      jump\t// in\n    tag_151:\n        /* \"#utility.yul\":766:885   */\n    tag_150:\n        /* \"#utility.yul\":924:925   */\n      0x00\n        /* \"#utility.yul\":949:1002   */\n      tag_152\n        /* \"#utility.yul\":994:1001   */\n      dup5\n        /* \"#utility.yul\":985:991   */\n      dup3\n        /* \"#utility.yul\":974:983   */\n      dup6\n        /* \"#utility.yul\":970:992   */\n      add\n        /* \"#utility.yul\":949:1002   */\n      tag_80\n      jump\t// in\n    tag_152:\n        /* \"#utility.yul\":939:1002   */\n      swap2\n      pop\n        /* \"#utility.yul\":895:1012   */\n      pop\n        /* \"#utility.yul\":690:1019   */\n      swap3\n      swap2\n      pop\n      pop\n      jump\t// out\n        /* \"#utility.yul\":1025:1151   */\n    tag_81:\n        /* \"#utility.yul\":1062:1069   */\n      0x00\n        /* \"#utility.yul\":1102:1144   */\n      0xffffffffffffffffffffffffffffffffffffffff\n        /* \"#utility.yul\":1095:1100   */\n      dup3\n        /* \"#utility.yul\":1091:1145   */\n      and\n        /* \"#utility.yul\":1080:1145   */\n      swap1\n      pop\n        /* \"#utility.yul\":1025:1151   */\n      swap2\n      swap1\n      pop\n      jump\t// out\n        /* \"#utility.yul\":1157:1253   */\n    tag_82:\n        /* \"#utility.yul\":1194:1201   */\n      0x00\n        /* \"#utility.yul\":1223:1247   */\n      tag_155\n        /* \"#utility.yul\":1241:1246   */\n      dup3\n        /* \"#utility.yul\":1223:1247   */\n      tag_81\n      jump\t// in\n    tag_155:\n        /* \"#utility.yul\":1212:1247   */\n      swap1\n      pop\n        /* \"#utility.yul\":1157:1253   */\n      swap2\n      swap1\n      pop\n      jump\t// out\n        /* \"#utility.yul\":1259:1381   */\n    tag_83:\n        /* \"#utility.yul\":1332:1356   */\n      tag_157\n        /* \"#utility.yul\":1350:1355   */\n      dup2\n        /* \"#utility.yul\":1332:1356   */\n      tag_82\n      jump\t// in\n    tag_157:\n        /* \"#utility.yul\":1325:1330   */\n      dup2\n        /* \"#utility.yul\":1322:1357   */\n      eq\n        /* \"#utility.yul\":1312:1375   */\n      tag_158\n      jumpi\n        /* \"#utility.yul\":1371:1372   */\n      0x00\n        /* \"#utility.yul\":1368:1369   */\n      dup1\n        /* \"#utility.yul\":1361:1373   */\n      revert\n        /* \"#utility.yul\":1312:1375   */\n    tag_158:\n        /* \"#utility.yul\":1259:1381   */\n      pop\n      jump\t// out\n        /* \"#utility.yul\":1387:1526   */\n    tag_84:\n        /* \"#utility.yul\":1433:1438   */\n      0x00\n        /* \"#utility.yul\":1471:1477   */\n      dup2\n        /* \"#utility.yul\":1458:1478   */\n      calldataload\n        /* \"#utility.yul\":1449:1478   */\n      swap1\n      pop\n        /* \"#utility.yul\":1487:1520   */\n      tag_160\n        /* \"#utility.yul\":1514:1519   */\n      dup2\n        /* \"#utility.yul\":1487:1520   */\n      tag_83\n      jump\t// in\n    tag_160:\n        /* \"#utility.yul\":1387:1526   */\n      swap3\n      swap2\n      pop\n      pop\n      jump\t// out\n        /* \"#utility.yul\":1532:2006   */\n    tag_14:\n        /* \"#utility.yul\":1600:1606   */\n      0x00\n        /* \"#utility.yul\":1608:1614   */\n      dup1\n        /* \"#utility.yul\":1657:1659   */\n      0x40\n        /* \"#utility.yul\":1645:1654   */\n      dup4\n        /* \"#utility.yul\":1636:1643   */\n      dup6\n        /* \"#utility.yul\":1632:1655   */\n      sub\n        /* \"#utility.yul\":1628:1660   */\n      slt\n        /* \"#utility.yul\":1625:1744   */\n      iszero\n      tag_162\n      jumpi\n        /* \"#utility.yul\":1663:1742   */\n      tag_163\n      tag_76\n      jump\t// in\n    tag_163:\n        /* \"#utility.yul\":1625:1744   */\n    tag_162:\n        /* \"#utility.yul\":1783:1784   */\n      0x00\n        /* \"#utility.yul\":1808:1861   */\n      tag_164\n        /* \"#utility.yul\":1853:1860   */\n      dup6\n        /* \"#utility.yul\":1844:1850   */\n      dup3\n        /* \"#utility.yul\":1833:1842   */\n      dup7\n        /* \"#utility.yul\":1829:1851   */\n      add\n        /* \"#utility.yul\":1808:1861   */\n      tag_84\n      jump\t// in\n    tag_164:\n        /* \"#utility.yul\":1798:1861   */\n      swap3\n      pop\n        /* \"#utility.yul\":1754:1871   */\n      pop\n        /* \"#utility.yul\":1910:1912   */\n      0x20\n        /* \"#utility.yul\":1936:1989   */\n      tag_165\n        /* \"#utility.yul\":1981:1988   */\n      dup6\n        /* \"#utility.yul\":1972:1978   */\n      dup3\n        /* \"#utility.yul\":1961:1970   */\n      dup7\n        /* \"#utility.yul\":1957:1979   */\n      add\n        /* \"#utility.yul\":1936:1989   */\n      tag_80\n      jump\t// in\n    tag_165:\n        /* \"#utility.yul\":1926:1989   */\n      swap2\n      pop\n        /* \"#utility.yul\":1881:1999   */\n      pop\n        /* \"#utility.yul\":1532:2006   */\n      swap3\n      pop\n      swap3\n      swap1\n      pop\n      jump\t// out\n        /* \"#utility.yul\":2012:2130   */\n    tag_85:\n        /* \"#utility.yul\":2099:2123   */\n      tag_167\n        /* \"#utility.yul\":2117:2122   */\n      dup2\n        /* \"#utility.yul\":2099:2123   */\n      tag_78\n      jump\t// in\n    tag_167:\n        /* \"#utility.yul\":2094:2097   */\n      dup3\n        /* \"#utility.yul\":2087:2124   */\n      mstore\n        /* \"#utility.yul\":2012:2130   */\n      pop\n      pop\n      jump\t// out\n        /* \"#utility.yul\":2136:2254   */\n    tag_86:\n        /* \"#utility.yul\":2223:2247   */\n      tag_169\n        /* \"#utility.yul\":2241:2246   */\n      dup2\n        /* \"#utility.yul\":2223:2247   */\n      tag_82\n      jump\t// in\n    tag_169:\n        /* \"#utility.yul\":2218:2221   */\n      dup3\n        /* \"#utility.yul\":2211:2248   */\n      mstore\n        /* \"#utility.yul\":2136:2254   */\n      pop\n      pop\n      jump\t// out\n        /* \"#utility.yul\":2260:2702   */\n    tag_17:\n        /* \"#utility.yul\":2409:2413   */\n      0x00\n        /* \"#utility.yul\":2447:2449   */\n      0x60\n        /* \"#utility.yul\":2436:2445   */\n      dup3\n        /* \"#utility.yul\":2432:2450   */\n      add\n        /* \"#utility.yul\":2424:2450   */\n      swap1\n      pop\n        /* \"#utility.yul\":2460:2531   */\n      tag_171\n        /* \"#utility.yul\":2528:2529   */\n      0x00\n        /* \"#utility.yul\":2517:2526   */\n      dup4\n        /* \"#utility.yul\":2513:2530   */\n      add\n        /* \"#utility.yul\":2504:2510   */\n      dup7\n        /* \"#utility.yul\":2460:2531   */\n      tag_85\n      jump\t// in\n    tag_171:\n        /* \"#utility.yul\":2541:2613   */\n      tag_172\n        /* \"#utility.yul\":2609:2611   */\n      0x20\n        /* \"#utility.yul\":2598:2607   */\n      dup4\n        /* \"#utility.yul\":2594:2612   */\n      add\n        /* \"#utility.yul\":2585:2591   */\n      dup6\n        /* \"#utility.yul\":2541:2613   */\n      tag_86\n      jump\t// in\n    tag_172:\n        /* \"#utility.yul\":2623:2695   */\n      tag_173\n        /* \"#utility.yul\":2691:2693   */\n      0x40\n        /* \"#utility.yul\":2680:2689   */\n      dup4\n        /* \"#utility.yul\":2676:2694   */\n      add\n        /* \"#utility.yul\":2667:2673   */\n      dup5\n        /* \"#utility.yul\":2623:2695   */\n      tag_85\n      jump\t// in\n    tag_173:\n        /* \"#utility.yul\":2260:2702   */\n      swap5\n      swap4\n      pop\n      pop\n      pop\n      pop\n      jump\t// out\n        /* \"#utility.yul\":2708:2807   */\n    tag_87:\n        /* \"#utility.yul\":2760:2766   */\n      0x00\n        /* \"#utility.yul\":2794:2799   */\n      dup2\n        /* \"#utility.yul\":2788:2800   */\n      mload\n        /* \"#utility.yul\":2778:2800   */\n      swap1\n      pop\n        /* \"#utility.yul\":2708:2807   */\n      swap2\n      swap1\n      pop\n      jump\t// out\n        /* \"#utility.yul\":2813:2982   */\n    tag_88:\n        /* \"#utility.yul\":2897:2908   */\n      0x00\n        /* \"#utility.yul\":2931:2937   */\n      dup3\n        /* \"#utility.yul\":2926:2929   */\n      dup3\n        /* \"#utility.yul\":2919:2938   */\n      mstore\n        /* \"#utility.yul\":2971:2975   */\n      0x20\n        /* \"#utility.yul\":2966:2969   */\n      dup3\n        /* \"#utility.yul\":2962:2976   */\n      add\n        /* \"#utility.yul\":2947:2976   */\n      swap1\n      pop\n        /* \"#utility.yul\":2813:2982   */\n      swap3\n      swap2\n      pop\n      pop\n      jump\t// out\n        /* \"#utility.yul\":2988:3127   */\n    tag_89:\n        /* \"#utility.yul\":3077:3083   */\n      dup3\n        /* \"#utility.yul\":3072:3075   */\n      dup2\n        /* \"#utility.yul\":3067:3070   */\n      dup4\n        /* \"#utility.yul\":3061:3084   */\n      mcopy\n        /* \"#utility.yul\":3118:3119   */\n      0x00\n        /* \"#utility.yul\":3109:3115   */\n      dup4\n        /* \"#utility.yul\":3104:3107   */\n      dup4\n        /* \"#utility.yul\":3100:3116   */\n      add\n        /* \"#utility.yul\":3093:3120   */\n      mstore\n        /* \"#utility.yul\":2988:3127   */\n      pop\n      pop\n      pop\n      jump\t// out\n        /* \"#utility.yul\":3133:3235   */\n    tag_90:\n        /* \"#utility.yul\":3174:3180   */\n      0x00\n        /* \"#utility.yul\":3225:3227   */\n      0x1f\n        /* \"#utility.yul\":3221:3228   */\n      not\n        /* \"#utility.yul\":3216:3218   */\n      0x1f\n        /* \"#utility.yul\":3209:3214   */\n      dup4\n        /* \"#utility.yul\":3205:3219   */\n      add\n        /* \"#utility.yul\":3201:3229   */\n      and\n        /* \"#utility.yul\":3191:3229   */\n      swap1\n      pop\n        /* \"#utility.yul\":3133:3235   */\n      swap2\n      swap1\n      pop\n      jump\t// out\n        /* \"#utility.yul\":3241:3618   */\n    tag_91:\n        /* \"#utility.yul\":3329:3332   */\n      0x00\n        /* \"#utility.yul\":3357:3396   */\n      tag_179\n        /* \"#utility.yul\":3390:3395   */\n      dup3\n        /* \"#utility.yul\":3357:3396   */\n      tag_87\n      jump\t// in\n    tag_179:\n        /* \"#utility.yul\":3412:3483   */\n      tag_180\n        /* \"#utility.yul\":3476:3482   */\n      dup2\n        /* \"#utility.yul\":3471:3474   */\n      dup6\n        /* \"#utility.yul\":3412:3483   */\n      tag_88\n      jump\t// in\n    tag_180:\n        /* \"#utility.yul\":3405:3483   */\n      swap4\n      pop\n        /* \"#utility.yul\":3492:3557   */\n      tag_181\n        /* \"#utility.yul\":3550:3556   */\n      dup2\n        /* \"#utility.yul\":3545:3548   */\n      dup6\n        /* \"#utility.yul\":3538:3542   */\n      0x20\n        /* \"#utility.yul\":3531:3536   */\n      dup7\n        /* \"#utility.yul\":3527:3543   */\n      add\n        /* \"#utility.yul\":3492:3557   */\n      tag_89\n      jump\t// in\n    tag_181:\n        /* \"#utility.yul\":3582:3611   */\n      tag_182\n        /* \"#utility.yul\":3604:3610   */\n      dup2\n        /* \"#utility.yul\":3582:3611   */\n      tag_90\n      jump\t// in\n    tag_182:\n        /* \"#utility.yul\":3577:3580   */\n      dup5\n        /* \"#utility.yul\":3573:3612   */\n      add\n        /* \"#utility.yul\":3566:3612   */\n      swap2\n      pop\n        /* \"#utility.yul\":3333:3618   */\n      pop\n        /* \"#utility.yul\":3241:3618   */\n      swap3\n      swap2\n      pop\n      pop\n      jump\t// out\n        /* \"#utility.yul\":3624:3714   */\n    tag_92:\n        /* \"#utility.yul\":3658:3665   */\n      0x00\n        /* \"#utility.yul\":3701:3706   */\n      dup2\n        /* \"#utility.yul\":3694:3707   */\n      iszero\n        /* \"#utility.yul\":3687:3708   */\n      iszero\n        /* \"#utility.yul\":3676:3708   */\n      swap1\n      pop\n        /* \"#utility.yul\":3624:3714   */\n      swap2\n      swap1\n      pop\n      jump\t// out\n        /* \"#utility.yul\":3720:3829   */\n    tag_93:\n        /* \"#utility.yul\":3801:3822   */\n      tag_185\n        /* \"#utility.yul\":3816:3821   */\n      dup2\n        /* \"#utility.yul\":3801:3822   */\n      tag_92\n      jump\t// in\n    tag_185:\n        /* \"#utility.yul\":3796:3799   */\n      dup3\n        /* \"#utility.yul\":3789:3823   */\n      mstore\n        /* \"#utility.yul\":3720:3829   */\n      pop\n      pop\n      jump\t// out\n        /* \"#utility.yul\":3835:4578   */\n    tag_23:\n        /* \"#utility.yul\":4054:4058   */\n      0x00\n        /* \"#utility.yul\":4092:4095   */\n      0xa0\n        /* \"#utility.yul\":4081:4090   */\n      dup3\n        /* \"#utility.yul\":4077:4096   */\n      add\n        /* \"#utility.yul\":4069:4096   */\n      swap1\n      pop\n        /* \"#utility.yul\":4106:4177   */\n      tag_187\n        /* \"#utility.yul\":4174:4175   */\n      0x00\n        /* \"#utility.yul\":4163:4172   */\n      dup4\n        /* \"#utility.yul\":4159:4176   */\n      add\n        /* \"#utility.yul\":4150:4156   */\n      dup9\n        /* \"#utility.yul\":4106:4177   */\n      tag_85\n      jump\t// in\n    tag_187:\n        /* \"#utility.yul\":4187:4259   */\n      tag_188\n        /* \"#utility.yul\":4255:4257   */\n      0x20\n        /* \"#utility.yul\":4244:4253   */\n      dup4\n        /* \"#utility.yul\":4240:4258   */\n      add\n        /* \"#utility.yul\":4231:4237   */\n      dup8\n        /* \"#utility.yul\":4187:4259   */\n      tag_86\n      jump\t// in\n    tag_188:\n        /* \"#utility.yul\":4306:4315   */\n      dup2\n        /* \"#utility.yul\":4300:4304   */\n      dup2\n        /* \"#utility.yul\":4296:4316   */\n      sub\n        /* \"#utility.yul\":4291:4293   */\n      0x40\n        /* \"#utility.yul\":4280:4289   */\n      dup4\n        /* \"#utility.yul\":4276:4294   */\n      add\n        /* \"#utility.yul\":4269:4317   */\n      mstore\n        /* \"#utility.yul\":4334:4412   */\n      tag_189\n        /* \"#utility.yul\":4407:4411   */\n      dup2\n        /* \"#utility.yul\":4398:4404   */\n      dup7\n        /* \"#utility.yul\":4334:4412   */\n      tag_91\n      jump\t// in\n    tag_189:\n        /* \"#utility.yul\":4326:4412   */\n      swap1\n      pop\n        /* \"#utility.yul\":4422:4494   */\n      tag_190\n        /* \"#utility.yul\":4490:4492   */\n      0x60\n        /* \"#utility.yul\":4479:4488   */\n      dup4\n        /* \"#utility.yul\":4475:4493   */\n      add\n        /* \"#utility.yul\":4466:4472   */\n      dup6\n        /* \"#utility.yul\":4422:4494   */\n      tag_85\n      jump\t// in\n    tag_190:\n        /* \"#utility.yul\":4504:4571   */\n      tag_191\n        /* \"#utility.yul\":4566:4569   */\n      0x80\n        /* \"#utility.yul\":4555:4564   */\n      dup4\n        /* \"#utility.yul\":4551:4570   */\n      add\n        /* \"#utility.yul\":4542:4548   */\n      dup5\n        /* \"#utility.yul\":4504:4571   */\n      tag_93\n      jump\t// in\n    tag_191:\n        /* \"#utility.yul\":3835:4578   */\n      swap7\n      swap6\n      pop\n      pop\n      pop\n      pop\n      pop\n      pop\n      jump\t// out\n        /* \"#utility.yul\":4584:4701   */\n    tag_94:\n        /* \"#utility.yul\":4693:4694   */\n      0x00\n        /* \"#utility.yul\":4690:4691   */\n      dup1\n        /* \"#utility.yul\":4683:4695   */\n      revert\n        /* \"#utility.yul\":4707:4824   */\n    tag_95:\n        /* \"#utility.yul\":4816:4817   */\n      0x00\n        /* \"#utility.yul\":4813:4814   */\n      dup1\n        /* \"#utility.yul\":4806:4818   */\n      revert\n        /* \"#utility.yul\":4830:5010   */\n    tag_96:\n        /* \"#utility.yul\":4878:4955   */\n      0x4e487b7100000000000000000000000000000000000000000000000000000000\n        /* \"#utility.yul\":4875:4876   */\n      0x00\n        /* \"#utility.yul\":4868:4956   */\n      mstore\n        /* \"#utility.yul\":4975:4979   */\n      0x41\n        /* \"#utility.yul\":4972:4973   */\n      0x04\n        /* \"#utility.yul\":4965:4980   */\n      mstore\n        /* \"#utility.yul\":4999:5003   */\n      0x24\n        /* \"#utility.yul\":4996:4997   */\n      0x00\n        /* \"#utility.yul\":4989:5004   */\n      revert\n        /* \"#utility.yul\":5016:5297   */\n    tag_97:\n        /* \"#utility.yul\":5099:5126   */\n      tag_196\n        /* \"#utility.yul\":5121:5125   */\n      dup3\n        /* \"#utility.yul\":5099:5126   */\n      tag_90\n      jump\t// in\n    tag_196:\n        /* \"#utility.yul\":5091:5097   */\n      dup2\n        /* \"#utility.yul\":5087:5127   */\n      add\n        /* \"#utility.yul\":5229:5235   */\n      dup2\n        /* \"#utility.yul\":5217:5227   */\n      dup2\n        /* \"#utility.yul\":5214:5236   */\n      lt\n        /* \"#utility.yul\":5193:5211   */\n      0xffffffffffffffff\n        /* \"#utility.yul\":5181:5191   */\n      dup3\n        /* \"#utility.yul\":5178:5212   */\n      gt\n        /* \"#utility.yul\":5175:5237   */\n      or\n        /* \"#utility.yul\":5172:5260   */\n      iszero\n      tag_197\n      jumpi\n        /* \"#utility.yul\":5240:5258   */\n      tag_198\n      tag_96\n      jump\t// in\n    tag_198:\n        /* \"#utility.yul\":5172:5260   */\n    tag_197:\n        /* \"#utility.yul\":5280:5290   */\n      dup1\n        /* \"#utility.yul\":5276:5278   */\n      0x40\n        /* \"#utility.yul\":5269:5291   */\n      mstore\n        /* \"#utility.yul\":5059:5297   */\n      pop\n        /* \"#utility.yul\":5016:5297   */\n      pop\n      pop\n      jump\t// out\n        /* \"#utility.yul\":5303:5432   */\n    tag_98:\n        /* \"#utility.yul\":5337:5343   */\n      0x00\n        /* \"#utility.yul\":5364:5384   */\n      tag_200\n      tag_75\n      jump\t// in\n    tag_200:\n        /* \"#utility.yul\":5354:5384   */\n      swap1\n      pop\n        /* \"#utility.yul\":5393:5426   */\n      tag_201\n        /* \"#utility.yul\":5421:5425   */\n      dup3\n        /* \"#utility.yul\":5413:5419   */\n      dup3\n        /* \"#utility.yul\":5393:5426   */\n      tag_97\n      jump\t// in\n    tag_201:\n        /* \"#utility.yul\":5303:5432   */\n      swap2\n      swap1\n      pop\n      jump\t// out\n        /* \"#utility.yul\":5438:5746   */\n    tag_99:\n        /* \"#utility.yul\":5500:5504   */\n      0x00\n        /* \"#utility.yul\":5590:5608   */\n      0xffffffffffffffff\n        /* \"#utility.yul\":5582:5588   */\n      dup3\n        /* \"#utility.yul\":5579:5609   */\n      gt\n        /* \"#utility.yul\":5576:5632   */\n      iszero\n      tag_203\n      jumpi\n        /* \"#utility.yul\":5612:5630   */\n      tag_204\n      tag_96\n      jump\t// in\n    tag_204:\n        /* \"#utility.yul\":5576:5632   */\n    tag_203:\n        /* \"#utility.yul\":5650:5679   */\n      tag_205\n        /* \"#utility.yul\":5672:5678   */\n      dup3\n        /* \"#utility.yul\":5650:5679   */\n      tag_90\n      jump\t// in\n    tag_205:\n        /* \"#utility.yul\":5642:5679   */\n      swap1\n      pop\n        /* \"#utility.yul\":5734:5738   */\n      0x20\n        /* \"#utility.yul\":5728:5732   */\n      dup2\n        /* \"#utility.yul\":5724:5739   */\n      add\n        /* \"#utility.yul\":5716:5739   */\n      swap1\n      pop\n        /* \"#utility.yul\":5438:5746   */\n      swap2\n      swap1\n      pop\n      jump\t// out\n        /* \"#utility.yul\":5752:5900   */\n    tag_100:\n        /* \"#utility.yul\":5850:5856   */\n      dup3\n        /* \"#utility.yul\":5845:5848   */\n      dup2\n        /* \"#utility.yul\":5840:5843   */\n      dup4\n        /* \"#utility.yul\":5827:5857   */\n      calldatacopy\n        /* \"#utility.yul\":5891:5892   */\n      0x00\n        /* \"#utility.yul\":5882:5888   */\n      dup4\n        /* \"#utility.yul\":5877:5880   */\n      dup4\n        /* \"#utility.yul\":5873:5889   */\n      add\n        /* \"#utility.yul\":5866:5893   */\n      mstore\n        /* \"#utility.yul\":5752:5900   */\n      pop\n      pop\n      pop\n      jump\t// out\n        /* \"#utility.yul\":5906:6331   */\n    tag_101:\n        /* \"#utility.yul\":5984:5989   */\n      0x00\n        /* \"#utility.yul\":6009:6075   */\n      tag_208\n        /* \"#utility.yul\":6025:6074   */\n      tag_209\n        /* \"#utility.yul\":6067:6073   */\n      dup5\n        /* \"#utility.yul\":6025:6074   */\n      tag_99\n      jump\t// in\n    tag_209:\n        /* \"#utility.yul\":6009:6075   */\n      tag_98\n      jump\t// in\n    tag_208:\n        /* \"#utility.yul\":6000:6075   */\n      swap1\n      pop\n        /* \"#utility.yul\":6098:6104   */\n      dup3\n        /* \"#utility.yul\":6091:6096   */\n      dup2\n        /* \"#utility.yul\":6084:6105   */\n      mstore\n        /* \"#utility.yul\":6136:6140   */\n      0x20\n        /* \"#utility.yul\":6129:6134   */\n      dup2\n        /* \"#utility.yul\":6125:6141   */\n      add\n        /* \"#utility.yul\":6174:6177   */\n      dup5\n        /* \"#utility.yul\":6165:6171   */\n      dup5\n        /* \"#utility.yul\":6160:6163   */\n      dup5\n        /* \"#utility.yul\":6156:6172   */\n      add\n        /* \"#utility.yul\":6153:6178   */\n      gt\n        /* \"#utility.yul\":6150:6262   */\n      iszero\n      tag_210\n      jumpi\n        /* \"#utility.yul\":6181:6260   */\n      tag_211\n      tag_95\n      jump\t// in\n    tag_211:\n        /* \"#utility.yul\":6150:6262   */\n    tag_210:\n        /* \"#utility.yul\":6271:6325   */\n      tag_212\n        /* \"#utility.yul\":6318:6324   */\n      dup5\n        /* \"#utility.yul\":6313:6316   */\n      dup3\n        /* \"#utility.yul\":6308:6311   */\n      dup6\n        /* \"#utility.yul\":6271:6325   */\n      tag_100\n      jump\t// in\n    tag_212:\n        /* \"#utility.yul\":5990:6331   */\n      pop\n        /* \"#utility.yul\":5906:6331   */\n      swap4\n      swap3\n      pop\n      pop\n      pop\n      jump\t// out\n        /* \"#utility.yul\":6351:6691   */\n    tag_102:\n        /* \"#utility.yul\":6407:6412   */\n      0x00\n        /* \"#utility.yul\":6456:6459   */\n      dup3\n        /* \"#utility.yul\":6449:6453   */\n      0x1f\n        /* \"#utility.yul\":6441:6447   */\n      dup4\n        /* \"#utility.yul\":6437:6454   */\n      add\n        /* \"#utility.yul\":6433:6460   */\n      slt\n        /* \"#utility.yul\":6423:6545   */\n      tag_214\n      jumpi\n        /* \"#utility.yul\":6464:6543   */\n      tag_215\n      tag_94\n      jump\t// in\n    tag_215:\n        /* \"#utility.yul\":6423:6545   */\n    tag_214:\n        /* \"#utility.yul\":6581:6587   */\n      dup2\n        /* \"#utility.yul\":6568:6588   */\n      calldataload\n        /* \"#utility.yul\":6606:6685   */\n      tag_216\n        /* \"#utility.yul\":6681:6684   */\n      dup5\n        /* \"#utility.yul\":6673:6679   */\n      dup3\n        /* \"#utility.yul\":6666:6670   */\n      0x20\n        /* \"#utility.yul\":6658:6664   */\n      dup7\n        /* \"#utility.yul\":6654:6671   */\n      add\n        /* \"#utility.yul\":6606:6685   */\n      tag_101\n      jump\t// in\n    tag_216:\n        /* \"#utility.yul\":6597:6685   */\n      swap2\n      pop\n        /* \"#utility.yul\":6413:6691   */\n      pop\n        /* \"#utility.yul\":6351:6691   */\n      swap3\n      swap2\n      pop\n      pop\n      jump\t// out\n        /* \"#utility.yul\":6697:7351   */\n    tag_27:\n        /* \"#utility.yul\":6775:6781   */\n      0x00\n        /* \"#utility.yul\":6783:6789   */\n      dup1\n        /* \"#utility.yul\":6832:6834   */\n      0x40\n        /* \"#utility.yul\":6820:6829   */\n      dup4\n        /* \"#utility.yul\":6811:6818   */\n      dup6\n        /* \"#utility.yul\":6807:6830   */\n      sub\n        /* \"#utility.yul\":6803:6835   */\n      slt\n        /* \"#utility.yul\":6800:6919   */\n      iszero\n      tag_218\n      jumpi\n        /* \"#utility.yul\":6838:6917   */\n      tag_219\n      tag_76\n      jump\t// in\n    tag_219:\n        /* \"#utility.yul\":6800:6919   */\n    tag_218:\n        /* \"#utility.yul\":6986:6987   */\n      0x00\n        /* \"#utility.yul\":6975:6984   */\n      dup4\n        /* \"#utility.yul\":6971:6988   */\n      add\n        /* \"#utility.yul\":6958:6989   */\n      calldataload\n        /* \"#utility.yul\":7016:7034   */\n      0xffffffffffffffff\n        /* \"#utility.yul\":7008:7014   */\n      dup2\n        /* \"#utility.yul\":7005:7035   */\n      gt\n        /* \"#utility.yul\":7002:7119   */\n      iszero\n      tag_220\n      jumpi\n        /* \"#utility.yul\":7038:7117   */\n      tag_221\n      tag_77\n      jump\t// in\n    tag_221:\n        /* \"#utility.yul\":7002:7119   */\n    tag_220:\n        /* \"#utility.yul\":7143:7206   */\n      tag_222\n        /* \"#utility.yul\":7198:7205   */\n      dup6\n        /* \"#utility.yul\":7189:7195   */\n      dup3\n        /* \"#utility.yul\":7178:7187   */\n      dup7\n        /* \"#utility.yul\":7174:7196   */\n      add\n        /* \"#utility.yul\":7143:7206   */\n      tag_102\n      jump\t// in\n    tag_222:\n        /* \"#utility.yul\":7133:7206   */\n      swap3\n      pop\n        /* \"#utility.yul\":6929:7216   */\n      pop\n        /* \"#utility.yul\":7255:7257   */\n      0x20\n        /* \"#utility.yul\":7281:7334   */\n      tag_223\n        /* \"#utility.yul\":7326:7333   */\n      dup6\n        /* \"#utility.yul\":7317:7323   */\n      dup3\n        /* \"#utility.yul\":7306:7315   */\n      dup7\n        /* \"#utility.yul\":7302:7324   */\n      add\n        /* \"#utility.yul\":7281:7334   */\n      tag_80\n      jump\t// in\n    tag_223:\n        /* \"#utility.yul\":7271:7334   */\n      swap2\n      pop\n        /* \"#utility.yul\":7226:7344   */\n      pop\n        /* \"#utility.yul\":6697:7351   */\n      swap3\n      pop\n      swap3\n      swap1\n      pop\n      jump\t// out\n        /* \"#utility.yul\":7357:7579   */\n    tag_30:\n        /* \"#utility.yul\":7450:7454   */\n      0x00\n        /* \"#utility.yul\":7488:7490   */\n      0x20\n        /* \"#utility.yul\":7477:7486   */\n      dup3\n        /* \"#utility.yul\":7473:7491   */\n      add\n        /* \"#utility.yul\":7465:7491   */\n      swap1\n      pop\n        /* \"#utility.yul\":7501:7572   */\n      tag_225\n        /* \"#utility.yul\":7569:7570   */\n      0x00\n        /* \"#utility.yul\":7558:7567   */\n      dup4\n        /* \"#utility.yul\":7554:7571   */\n      add\n        /* \"#utility.yul\":7545:7551   */\n      dup5\n        /* \"#utility.yul\":7501:7572   */\n      tag_85\n      jump\t// in\n    tag_225:\n        /* \"#utility.yul\":7357:7579   */\n      swap3\n      swap2\n      pop\n      pop\n      jump\t// out\n        /* \"#utility.yul\":7585:7723   */\n    tag_103:\n        /* \"#utility.yul\":7676:7682   */\n      0x00\n        /* \"#utility.yul\":7710:7715   */\n      dup2\n        /* \"#utility.yul\":7704:7716   */\n      mload\n        /* \"#utility.yul\":7694:7716   */\n      swap1\n      pop\n        /* \"#utility.yul\":7585:7723   */\n      swap2\n      swap1\n      pop\n      jump\t// out\n        /* \"#utility.yul\":7729:7937   */\n    tag_104:\n        /* \"#utility.yul\":7852:7863   */\n      0x00\n        /* \"#utility.yul\":7886:7892   */\n      dup3\n        /* \"#utility.yul\":7881:7884   */\n      dup3\n        /* \"#utility.yul\":7874:7893   */\n      mstore\n        /* \"#utility.yul\":7926:7930   */\n      0x20\n        /* \"#utility.yul\":7921:7924   */\n      dup3\n        /* \"#utility.yul\":7917:7931   */\n      add\n        /* \"#utility.yul\":7902:7931   */\n      swap1\n      pop\n        /* \"#utility.yul\":7729:7937   */\n      swap3\n      swap2\n      pop\n      pop\n      jump\t// out\n        /* \"#utility.yul\":7943:8099   */\n    tag_105:\n        /* \"#utility.yul\":8034:8038   */\n      0x00\n        /* \"#utility.yul\":8057:8060   */\n      dup2\n        /* \"#utility.yul\":8049:8060   */\n      swap1\n      pop\n        /* \"#utility.yul\":8087:8091   */\n      0x20\n        /* \"#utility.yul\":8082:8085   */\n      dup3\n        /* \"#utility.yul\":8078:8092   */\n      add\n        /* \"#utility.yul\":8070:8092   */\n      swap1\n      pop\n        /* \"#utility.yul\":7943:8099   */\n      swap2\n      swap1\n      pop\n      jump\t// out\n        /* \"#utility.yul\":8105:8213   */\n    tag_106:\n        /* \"#utility.yul\":8182:8206   */\n      tag_230\n        /* \"#utility.yul\":8200:8205   */\n      dup2\n        /* \"#utility.yul\":8182:8206   */\n      tag_78\n      jump\t// in\n    tag_230:\n        /* \"#utility.yul\":8177:8180   */\n      dup3\n        /* \"#utility.yul\":8170:8207   */\n      mstore\n        /* \"#utility.yul\":8105:8213   */\n      pop\n      pop\n      jump\t// out\n        /* \"#utility.yul\":8219:8327   */\n    tag_107:\n        /* \"#utility.yul\":8296:8320   */\n      tag_232\n        /* \"#utility.yul\":8314:8319   */\n      dup2\n        /* \"#utility.yul\":8296:8320   */\n      tag_82\n      jump\t// in\n    tag_232:\n        /* \"#utility.yul\":8291:8294   */\n      dup3\n        /* \"#utility.yul\":8284:8321   */\n      mstore\n        /* \"#utility.yul\":8219:8327   */\n      pop\n      pop\n      jump\t// out\n        /* \"#utility.yul\":8393:9071   */\n    tag_108:\n        /* \"#utility.yul\":8528:8532   */\n      0x60\n        /* \"#utility.yul\":8523:8526   */\n      dup3\n        /* \"#utility.yul\":8519:8533   */\n      add\n        /* \"#utility.yul\":8618:8622   */\n      0x00\n        /* \"#utility.yul\":8611:8616   */\n      dup3\n        /* \"#utility.yul\":8607:8623   */\n      add\n        /* \"#utility.yul\":8601:8624   */\n      mload\n        /* \"#utility.yul\":8637:8700   */\n      tag_234\n        /* \"#utility.yul\":8694:8698   */\n      0x00\n        /* \"#utility.yul\":8689:8692   */\n      dup6\n        /* \"#utility.yul\":8685:8699   */\n      add\n        /* \"#utility.yul\":8671:8683   */\n      dup3\n        /* \"#utility.yul\":8637:8700   */\n      tag_106\n      jump\t// in\n    tag_234:\n        /* \"#utility.yul\":8543:8710   */\n      pop\n        /* \"#utility.yul\":8793:8797   */\n      0x20\n        /* \"#utility.yul\":8786:8791   */\n      dup3\n        /* \"#utility.yul\":8782:8798   */\n      add\n        /* \"#utility.yul\":8776:8799   */\n      mload\n        /* \"#utility.yul\":8812:8875   */\n      tag_235\n        /* \"#utility.yul\":8869:8873   */\n      0x20\n        /* \"#utility.yul\":8864:8867   */\n      dup6\n        /* \"#utility.yul\":8860:8874   */\n      add\n        /* \"#utility.yul\":8846:8858   */\n      dup3\n        /* \"#utility.yul\":8812:8875   */\n      tag_107\n      jump\t// in\n    tag_235:\n        /* \"#utility.yul\":8720:8885   */\n      pop\n        /* \"#utility.yul\":8972:8976   */\n      0x40\n        /* \"#utility.yul\":8965:8970   */\n      dup3\n        /* \"#utility.yul\":8961:8977   */\n      add\n        /* \"#utility.yul\":8955:8978   */\n      mload\n        /* \"#utility.yul\":8991:9054   */\n      tag_236\n        /* \"#utility.yul\":9048:9052   */\n      0x40\n        /* \"#utility.yul\":9043:9046   */\n      dup6\n        /* \"#utility.yul\":9039:9053   */\n      add\n        /* \"#utility.yul\":9025:9037   */\n      dup3\n        /* \"#utility.yul\":8991:9054   */\n      tag_106\n      jump\t// in\n    tag_236:\n        /* \"#utility.yul\":8895:9064   */\n      pop\n        /* \"#utility.yul\":8497:9071   */\n      pop\n        /* \"#utility.yul\":8393:9071   */\n      pop\n      pop\n      jump\t// out\n        /* \"#utility.yul\":9077:9352   */\n    tag_109:\n        /* \"#utility.yul\":9194:9204   */\n      0x00\n        /* \"#utility.yul\":9215:9309   */\n      tag_238\n        /* \"#utility.yul\":9305:9308   */\n      dup4\n        /* \"#utility.yul\":9297:9303   */\n      dup4\n        /* \"#utility.yul\":9215:9309   */\n      tag_108\n      jump\t// in\n    tag_238:\n        /* \"#utility.yul\":9341:9345   */\n      0x60\n        /* \"#utility.yul\":9336:9339   */\n      dup4\n        /* \"#utility.yul\":9332:9346   */\n      add\n        /* \"#utility.yul\":9318:9346   */\n      swap1\n      pop\n        /* \"#utility.yul\":9077:9352   */\n      swap3\n      swap2\n      pop\n      pop\n      jump\t// out\n        /* \"#utility.yul\":9358:9495   */\n    tag_110:\n        /* \"#utility.yul\":9452:9456   */\n      0x00\n        /* \"#utility.yul\":9484:9488   */\n      0x20\n        /* \"#utility.yul\":9479:9482   */\n      dup3\n        /* \"#utility.yul\":9475:9489   */\n      add\n        /* \"#utility.yul\":9467:9489   */\n      swap1\n      pop\n        /* \"#utility.yul\":9358:9495   */\n      swap2\n      swap1\n      pop\n      jump\t// out\n        /* \"#utility.yul\":9565:10489   */\n    tag_111:\n        /* \"#utility.yul\":9732:9735   */\n      0x00\n        /* \"#utility.yul\":9761:9839   */\n      tag_241\n        /* \"#utility.yul\":9833:9838   */\n      dup3\n        /* \"#utility.yul\":9761:9839   */\n      tag_103\n      jump\t// in\n    tag_241:\n        /* \"#utility.yul\":9855:9965   */\n      tag_242\n        /* \"#utility.yul\":9958:9964   */\n      dup2\n        /* \"#utility.yul\":9953:9956   */\n      dup6\n        /* \"#utility.yul\":9855:9965   */\n      tag_104\n      jump\t// in\n    tag_242:\n        /* \"#utility.yul\":9848:9965   */\n      swap4\n      pop\n        /* \"#utility.yul\":9989:10069   */\n      tag_243\n        /* \"#utility.yul\":10063:10068   */\n      dup4\n        /* \"#utility.yul\":9989:10069   */\n      tag_105\n      jump\t// in\n    tag_243:\n        /* \"#utility.yul\":10092:10099   */\n      dup1\n        /* \"#utility.yul\":10123:10124   */\n      0x00\n        /* \"#utility.yul\":10108:10464   */\n    tag_244:\n        /* \"#utility.yul\":10133:10139   */\n      dup4\n        /* \"#utility.yul\":10130:10131   */\n      dup2\n        /* \"#utility.yul\":10127:10140   */\n      lt\n        /* \"#utility.yul\":10108:10464   */\n      iszero\n      tag_246\n      jumpi\n        /* \"#utility.yul\":10209:10215   */\n      dup2\n        /* \"#utility.yul\":10203:10216   */\n      mload\n        /* \"#utility.yul\":10236:10347   */\n      tag_247\n        /* \"#utility.yul\":10343:10346   */\n      dup9\n        /* \"#utility.yul\":10328:10341   */\n      dup3\n        /* \"#utility.yul\":10236:10347   */\n      tag_109\n      jump\t// in\n    tag_247:\n        /* \"#utility.yul\":10229:10347   */\n      swap8\n      pop\n        /* \"#utility.yul\":10370:10454   */\n      tag_248\n        /* \"#utility.yul\":10447:10453   */\n      dup4\n        /* \"#utility.yul\":10370:10454   */\n      tag_110\n      jump\t// in\n    tag_248:\n        /* \"#utility.yul\":10360:10454   */\n      swap3\n      pop\n        /* \"#utility.yul\":10168:10464   */\n      pop\n        /* \"#utility.yul\":10155:10156   */\n      0x01\n        /* \"#utility.yul\":10152:10153   */\n      dup2\n        /* \"#utility.yul\":10148:10157   */\n      add\n        /* \"#utility.yul\":10143:10157   */\n      swap1\n      pop\n        /* \"#utility.yul\":10108:10464   */\n      jump(tag_244)\n    tag_246:\n        /* \"#utility.yul\":10112:10126   */\n      pop\n        /* \"#utility.yul\":10480:10483   */\n      dup6\n        /* \"#utility.yul\":10473:10483   */\n      swap4\n      pop\n        /* \"#utility.yul\":9737:10489   */\n      pop\n      pop\n      pop\n        /* \"#utility.yul\":9565:10489   */\n      swap3\n      swap2\n      pop\n      pop\n      jump\t// out\n        /* \"#utility.yul\":10495:10964   */\n    tag_35:\n        /* \"#utility.yul\":10686:10690   */\n      0x00\n        /* \"#utility.yul\":10724:10726   */\n      0x20\n        /* \"#utility.yul\":10713:10722   */\n      dup3\n        /* \"#utility.yul\":10709:10727   */\n      add\n        /* \"#utility.yul\":10701:10727   */\n      swap1\n      pop\n        /* \"#utility.yul\":10773:10782   */\n      dup2\n        /* \"#utility.yul\":10767:10771   */\n      dup2\n        /* \"#utility.yul\":10763:10783   */\n      sub\n        /* \"#utility.yul\":10759:10760   */\n      0x00\n        /* \"#utility.yul\":10748:10757   */\n      dup4\n        /* \"#utility.yul\":10744:10761   */\n      add\n        /* \"#utility.yul\":10737:10784   */\n      mstore\n        /* \"#utility.yul\":10801:10957   */\n      tag_250\n        /* \"#utility.yul\":10952:10956   */\n      dup2\n        /* \"#utility.yul\":10943:10949   */\n      dup5\n        /* \"#utility.yul\":10801:10957   */\n      tag_111\n      jump\t// in\n    tag_250:\n        /* \"#utility.yul\":10793:10957   */\n      swap1\n      pop\n        /* \"#utility.yul\":10495:10964   */\n      swap3\n      swap2\n      pop\n      pop\n      jump\t// out\n        /* \"#utility.yul\":10970:11139   */\n    tag_112:\n        /* \"#utility.yul\":11110:11131   */\n      0x4d75736963206973206e6f742061637469766500000000000000000000000000\n        /* \"#utility.yul\":11106:11107   */\n      0x00\n        /* \"#utility.yul\":11098:11104   */\n      dup3\n        /* \"#utility.yul\":11094:11108   */\n      add\n        /* \"#utility.yul\":11087:11132   */\n      mstore\n        /* \"#utility.yul\":10970:11139   */\n      pop\n      jump\t// out\n        /* \"#utility.yul\":11145:11511   */\n    tag_113:\n        /* \"#utility.yul\":11287:11290   */\n      0x00\n        /* \"#utility.yul\":11308:11375   */\n      tag_253\n        /* \"#utility.yul\":11372:11374   */\n      0x13\n        /* \"#utility.yul\":11367:11370   */\n      dup4\n        /* \"#utility.yul\":11308:11375   */\n      tag_88\n      jump\t// in\n    tag_253:\n        /* \"#utility.yul\":11301:11375   */\n      swap2\n      pop\n        /* \"#utility.yul\":11384:11477   */\n      tag_254\n        /* \"#utility.yul\":11473:11476   */\n      dup3\n        /* \"#utility.yul\":11384:11477   */\n      tag_112\n      jump\t// in\n    tag_254:\n        /* \"#utility.yul\":11502:11504   */\n      0x20\n        /* \"#utility.yul\":11497:11500   */\n      dup3\n        /* \"#utility.yul\":11493:11505   */\n      add\n        /* \"#utility.yul\":11486:11505   */\n      swap1\n      pop\n        /* \"#utility.yul\":11145:11511   */\n      swap2\n      swap1\n      pop\n      jump\t// out\n        /* \"#utility.yul\":11517:11936   */\n    tag_39:\n        /* \"#utility.yul\":11683:11687   */\n      0x00\n        /* \"#utility.yul\":11721:11723   */\n      0x20\n        /* \"#utility.yul\":11710:11719   */\n      dup3\n        /* \"#utility.yul\":11706:11724   */\n      add\n        /* \"#utility.yul\":11698:11724   */\n      swap1\n      pop\n        /* \"#utility.yul\":11770:11779   */\n      dup2\n        /* \"#utility.yul\":11764:11768   */\n      dup2\n        /* \"#utility.yul\":11760:11780   */\n      sub\n        /* \"#utility.yul\":11756:11757   */\n      0x00\n        /* \"#utility.yul\":11745:11754   */\n      dup4\n        /* \"#utility.yul\":11741:11758   */\n      add\n        /* \"#utility.yul\":11734:11781   */\n      mstore\n        /* \"#utility.yul\":11798:11929   */\n      tag_256\n        /* \"#utility.yul\":11924:11928   */\n      dup2\n        /* \"#utility.yul\":11798:11929   */\n      tag_113\n      jump\t// in\n    tag_256:\n        /* \"#utility.yul\":11790:11929   */\n      swap1\n      pop\n        /* \"#utility.yul\":11517:11936   */\n      swap2\n      swap1\n      pop\n      jump\t// out\n        /* \"#utility.yul\":11942:12112   */\n    tag_114:\n        /* \"#utility.yul\":12082:12104   */\n      0x496e73756666696369656e74207061796d656e74000000000000000000000000\n        /* \"#utility.yul\":12078:12079   */\n      0x00\n        /* \"#utility.yul\":12070:12076   */\n      dup3\n        /* \"#utility.yul\":12066:12080   */\n      add\n        /* \"#utility.yul\":12059:12105   */\n      mstore\n        /* \"#utility.yul\":11942:12112   */\n      pop\n      jump\t// out\n        /* \"#utility.yul\":12118:12484   */\n    tag_115:\n        /* \"#utility.yul\":12260:12263   */\n      0x00\n        /* \"#utility.yul\":12281:12348   */\n      tag_259\n        /* \"#utility.yul\":12345:12347   */\n      0x14\n        /* \"#utility.yul\":12340:12343   */\n      dup4\n        /* \"#utility.yul\":12281:12348   */\n      tag_88\n      jump\t// in\n    tag_259:\n        /* \"#utility.yul\":12274:12348   */\n      swap2\n      pop\n        /* \"#utility.yul\":12357:12450   */\n      tag_260\n        /* \"#utility.yul\":12446:12449   */\n      dup3\n        /* \"#utility.yul\":12357:12450   */\n      tag_114\n      jump\t// in\n    tag_260:\n        /* \"#utility.yul\":12475:12477   */\n      0x20\n        /* \"#utility.yul\":12470:12473   */\n      dup3\n        /* \"#utility.yul\":12466:12478   */\n      add\n        /* \"#utility.yul\":12459:12478   */\n      swap1\n      pop\n        /* \"#utility.yul\":12118:12484   */\n      swap2\n      swap1\n      pop\n      jump\t// out\n        /* \"#utility.yul\":12490:12909   */\n    tag_42:\n        /* \"#utility.yul\":12656:12660   */\n      0x00\n        /* \"#utility.yul\":12694:12696   */\n      0x20\n        /* \"#utility.yul\":12683:12692   */\n      dup3\n        /* \"#utility.yul\":12679:12697   */\n      add\n        /* \"#utility.yul\":12671:12697   */\n      swap1\n      pop\n        /* \"#utility.yul\":12743:12752   */\n      dup2\n        /* \"#utility.yul\":12737:12741   */\n      dup2\n        /* \"#utility.yul\":12733:12753   */\n      sub\n        /* \"#utility.yul\":12729:12730   */\n      0x00\n        /* \"#utility.yul\":12718:12727   */\n      dup4\n        /* \"#utility.yul\":12714:12731   */\n      add\n        /* \"#utility.yul\":12707:12754   */\n      mstore\n        /* \"#utility.yul\":12771:12902   */\n      tag_262\n        /* \"#utility.yul\":12897:12901   */\n      dup2\n        /* \"#utility.yul\":12771:12902   */\n      tag_115\n      jump\t// in\n    tag_262:\n        /* \"#utility.yul\":12763:12902   */\n      swap1\n      pop\n        /* \"#utility.yul\":12490:12909   */\n      swap2\n      swap1\n      pop\n      jump\t// out\n        /* \"#utility.yul\":12915:13090   */\n    tag_116:\n        /* \"#utility.yul\":13055:13082   */\n      0x43616e6e6f742062757920796f7572206f776e206d7573696300000000000000\n        /* \"#utility.yul\":13051:13052   */\n      0x00\n        /* \"#utility.yul\":13043:13049   */\n      dup3\n        /* \"#utility.yul\":13039:13053   */\n      add\n        /* \"#utility.yul\":13032:13083   */\n      mstore\n        /* \"#utility.yul\":12915:13090   */\n      pop\n      jump\t// out\n        /* \"#utility.yul\":13096:13462   */\n    tag_117:\n        /* \"#utility.yul\":13238:13241   */\n      0x00\n        /* \"#utility.yul\":13259:13326   */\n      tag_265\n        /* \"#utility.yul\":13323:13325   */\n      0x19\n        /* \"#utility.yul\":13318:13321   */\n      dup4\n        /* \"#utility.yul\":13259:13326   */\n      tag_88\n      jump\t// in\n    tag_265:\n        /* \"#utility.yul\":13252:13326   */\n      swap2\n      pop\n        /* \"#utility.yul\":13335:13428   */\n      tag_266\n        /* \"#utility.yul\":13424:13427   */\n      dup3\n        /* \"#utility.yul\":13335:13428   */\n      tag_116\n      jump\t// in\n    tag_266:\n        /* \"#utility.yul\":13453:13455   */\n      0x20\n        /* \"#utility.yul\":13448:13451   */\n      dup3\n        /* \"#utility.yul\":13444:13456   */\n      add\n        /* \"#utility.yul\":13437:13456   */\n      swap1\n      pop\n        /* \"#utility.yul\":13096:13462   */\n      swap2\n      swap1\n      pop\n      jump\t// out\n        /* \"#utility.yul\":13468:13887   */\n    tag_45:\n        /* \"#utility.yul\":13634:13638   */\n      0x00\n        /* \"#utility.yul\":13672:13674   */\n      0x20\n        /* \"#utility.yul\":13661:13670   */\n      dup3\n        /* \"#utility.yul\":13657:13675   */\n      add\n        /* \"#utility.yul\":13649:13675   */\n      swap1\n      pop\n        /* \"#utility.yul\":13721:13730   */\n      dup2\n        /* \"#utility.yul\":13715:13719   */\n      dup2\n        /* \"#utility.yul\":13711:13731   */\n      sub\n        /* \"#utility.yul\":13707:13708   */\n      0x00\n        /* \"#utility.yul\":13696:13705   */\n      dup4\n        /* \"#utility.yul\":13692:13709   */\n      add\n        /* \"#utility.yul\":13685:13732   */\n      mstore\n        /* \"#utility.yul\":13749:13880   */\n      tag_268\n        /* \"#utility.yul\":13875:13879   */\n      dup2\n        /* \"#utility.yul\":13749:13880   */\n      tag_117\n      jump\t// in\n    tag_268:\n        /* \"#utility.yul\":13741:13880   */\n      swap1\n      pop\n        /* \"#utility.yul\":13468:13887   */\n      swap2\n      swap1\n      pop\n      jump\t// out\n        /* \"#utility.yul\":13893:14073   */\n    tag_118:\n        /* \"#utility.yul\":13941:14018   */\n      0x4e487b7100000000000000000000000000000000000000000000000000000000\n        /* \"#utility.yul\":13938:13939   */\n      0x00\n        /* \"#utility.yul\":13931:14019   */\n      mstore\n        /* \"#utility.yul\":14038:14042   */\n      0x22\n        /* \"#utility.yul\":14035:14036   */\n      0x04\n        /* \"#utility.yul\":14028:14043   */\n      mstore\n        /* \"#utility.yul\":14062:14066   */\n      0x24\n        /* \"#utility.yul\":14059:14060   */\n      0x00\n        /* \"#utility.yul\":14052:14067   */\n      revert\n        /* \"#utility.yul\":14079:14399   */\n    tag_53:\n        /* \"#utility.yul\":14123:14129   */\n      0x00\n        /* \"#utility.yul\":14160:14161   */\n      0x02\n        /* \"#utility.yul\":14154:14158   */\n      dup3\n        /* \"#utility.yul\":14150:14162   */\n      div\n        /* \"#utility.yul\":14140:14162   */\n      swap1\n      pop\n        /* \"#utility.yul\":14207:14208   */\n      0x01\n        /* \"#utility.yul\":14201:14205   */\n      dup3\n        /* \"#utility.yul\":14197:14209   */\n      and\n        /* \"#utility.yul\":14228:14246   */\n      dup1\n        /* \"#utility.yul\":14218:14299   */\n      tag_271\n      jumpi\n        /* \"#utility.yul\":14284:14288   */\n      0x7f\n        /* \"#utility.yul\":14276:14282   */\n      dup3\n        /* \"#utility.yul\":14272:14289   */\n      and\n        /* \"#utility.yul\":14262:14289   */\n      swap2\n      pop\n        /* \"#utility.yul\":14218:14299   */\n    tag_271:\n        /* \"#utility.yul\":14346:14348   */\n      0x20\n        /* \"#utility.yul\":14338:14344   */\n      dup3\n        /* \"#utility.yul\":14335:14349   */\n      lt\n        /* \"#utility.yul\":14315:14333   */\n      dup2\n        /* \"#utility.yul\":14312:14350   */\n      sub\n        /* \"#utility.yul\":14309:14393   */\n      tag_272\n      jumpi\n        /* \"#utility.yul\":14365:14383   */\n      tag_273\n      tag_118\n      jump\t// in\n    tag_273:\n        /* \"#utility.yul\":14309:14393   */\n    tag_272:\n        /* \"#utility.yul\":14130:14399   */\n      pop\n        /* \"#utility.yul\":14079:14399   */\n      swap2\n      swap1\n      pop\n      jump\t// out\n        /* \"#utility.yul\":14405:14583   */\n    tag_119:\n        /* \"#utility.yul\":14545:14575   */\n      0x5072696365206d7573742062652067726561746572207468616e203000000000\n        /* \"#utility.yul\":14541:14542   */\n      0x00\n        /* \"#utility.yul\":14533:14539   */\n      dup3\n        /* \"#utility.yul\":14529:14543   */\n      add\n        /* \"#utility.yul\":14522:14576   */\n      mstore\n        /* \"#utility.yul\":14405:14583   */\n      pop\n      jump\t// out\n        /* \"#utility.yul\":14589:14955   */\n    tag_120:\n        /* \"#utility.yul\":14731:14734   */\n      0x00\n        /* \"#utility.yul\":14752:14819   */\n      tag_276\n        /* \"#utility.yul\":14816:14818   */\n      0x1c\n        /* \"#utility.yul\":14811:14814   */\n      dup4\n        /* \"#utility.yul\":14752:14819   */\n      tag_88\n      jump\t// in\n    tag_276:\n        /* \"#utility.yul\":14745:14819   */\n      swap2\n      pop\n        /* \"#utility.yul\":14828:14921   */\n      tag_277\n        /* \"#utility.yul\":14917:14920   */\n      dup3\n        /* \"#utility.yul\":14828:14921   */\n      tag_119\n      jump\t// in\n    tag_277:\n        /* \"#utility.yul\":14946:14948   */\n      0x20\n        /* \"#utility.yul\":14941:14944   */\n      dup3\n        /* \"#utility.yul\":14937:14949   */\n      add\n        /* \"#utility.yul\":14930:14949   */\n      swap1\n      pop\n        /* \"#utility.yul\":14589:14955   */\n      swap2\n      swap1\n      pop\n      jump\t// out\n        /* \"#utility.yul\":14961:15380   */\n    tag_61:\n        /* \"#utility.yul\":15127:15131   */\n      0x00\n        /* \"#utility.yul\":15165:15167   */\n      0x20\n        /* \"#utility.yul\":15154:15163   */\n      dup3\n        /* \"#utility.yul\":15150:15168   */\n      add\n        /* \"#utility.yul\":15142:15168   */\n      swap1\n      pop\n        /* \"#utility.yul\":15214:15223   */\n      dup2\n        /* \"#utility.yul\":15208:15212   */\n      dup2\n        /* \"#utility.yul\":15204:15224   */\n      sub\n        /* \"#utility.yul\":15200:15201   */\n      0x00\n        /* \"#utility.yul\":15189:15198   */\n      dup4\n        /* \"#utility.yul\":15185:15202   */\n      add\n        /* \"#utility.yul\":15178:15225   */\n      mstore\n        /* \"#utility.yul\":15242:15373   */\n      tag_279\n        /* \"#utility.yul\":15368:15372   */\n      dup2\n        /* \"#utility.yul\":15242:15373   */\n      tag_120\n      jump\t// in\n    tag_279:\n        /* \"#utility.yul\":15234:15373   */\n      swap1\n      pop\n        /* \"#utility.yul\":14961:15380   */\n      swap2\n      swap1\n      pop\n      jump\t// out\n        /* \"#utility.yul\":15386:15557   */\n    tag_121:\n        /* \"#utility.yul\":15526:15549   */\n      0x5469746c652063616e6e6f7420626520656d7074790000000000000000000000\n        /* \"#utility.yul\":15522:15523   */\n      0x00\n        /* \"#utility.yul\":15514:15520   */\n      dup3\n        /* \"#utility.yul\":15510:15524   */\n      add\n        /* \"#utility.yul\":15503:15550   */\n      mstore\n        /* \"#utility.yul\":15386:15557   */\n      pop\n      jump\t// out\n        /* \"#utility.yul\":15563:15929   */\n    tag_122:\n        /* \"#utility.yul\":15705:15708   */\n      0x00\n        /* \"#utility.yul\":15726:15793   */\n      tag_282\n        /* \"#utility.yul\":15790:15792   */\n      0x15\n        /* \"#utility.yul\":15785:15788   */\n      dup4\n        /* \"#utility.yul\":15726:15793   */\n      tag_88\n      jump\t// in\n    tag_282:\n        /* \"#utility.yul\":15719:15793   */\n      swap2\n      pop\n        /* \"#utility.yul\":15802:15895   */\n      tag_283\n        /* \"#utility.yul\":15891:15894   */\n      dup3\n        /* \"#utility.yul\":15802:15895   */\n      tag_121\n      jump\t// in\n    tag_283:\n        /* \"#utility.yul\":15920:15922   */\n      0x20\n        /* \"#utility.yul\":15915:15918   */\n      dup3\n        /* \"#utility.yul\":15911:15923   */\n      add\n        /* \"#utility.yul\":15904:15923   */\n      swap1\n      pop\n        /* \"#utility.yul\":15563:15929   */\n      swap2\n      swap1\n      pop\n      jump\t// out\n        /* \"#utility.yul\":15935:16354   */\n    tag_64:\n        /* \"#utility.yul\":16101:16105   */\n      0x00\n        /* \"#utility.yul\":16139:16141   */\n      0x20\n        /* \"#utility.yul\":16128:16137   */\n      dup3\n        /* \"#utility.yul\":16124:16142   */\n      add\n        /* \"#utility.yul\":16116:16142   */\n      swap1\n      pop\n        /* \"#utility.yul\":16188:16197   */\n      dup2\n        /* \"#utility.yul\":16182:16186   */\n      dup2\n        /* \"#utility.yul\":16178:16198   */\n      sub\n        /* \"#utility.yul\":16174:16175   */\n      0x00\n        /* \"#utility.yul\":16163:16172   */\n      dup4\n        /* \"#utility.yul\":16159:16176   */\n      add\n        /* \"#utility.yul\":16152:16199   */\n      mstore\n        /* \"#utility.yul\":16216:16347   */\n      tag_285\n        /* \"#utility.yul\":16342:16346   */\n      dup2\n        /* \"#utility.yul\":16216:16347   */\n      tag_122\n      jump\t// in\n    tag_285:\n        /* \"#utility.yul\":16208:16347   */\n      swap1\n      pop\n        /* \"#utility.yul\":15935:16354   */\n      swap2\n      swap1\n      pop\n      jump\t// out\n        /* \"#utility.yul\":16360:16540   */\n    tag_123:\n        /* \"#utility.yul\":16408:16485   */\n      0x4e487b7100000000000000000000000000000000000000000000000000000000\n        /* \"#utility.yul\":16405:16406   */\n      0x00\n        /* \"#utility.yul\":16398:16486   */\n      mstore\n        /* \"#utility.yul\":16505:16509   */\n      0x11\n        /* \"#utility.yul\":16502:16503   */\n      0x04\n        /* \"#utility.yul\":16495:16510   */\n      mstore\n        /* \"#utility.yul\":16529:16533   */\n      0x24\n        /* \"#utility.yul\":16526:16527   */\n      0x00\n        /* \"#utility.yul\":16519:16534   */\n      revert\n        /* \"#utility.yul\":16546:16779   */\n    tag_66:\n        /* \"#utility.yul\":16585:16588   */\n      0x00\n        /* \"#utility.yul\":16608:16632   */\n      tag_288\n        /* \"#utility.yul\":16626:16631   */\n      dup3\n        /* \"#utility.yul\":16608:16632   */\n      tag_78\n      jump\t// in\n    tag_288:\n        /* \"#utility.yul\":16599:16632   */\n      swap2\n      pop\n        /* \"#utility.yul\":16654:16720   */\n      0xffffffffffffffffffffffffffffffffffffffffffffffffffffffffffffffff\n        /* \"#utility.yul\":16647:16652   */\n      dup3\n        /* \"#utility.yul\":16644:16721   */\n      sub\n        /* \"#utility.yul\":16641:16744   */\n      tag_289\n      jumpi\n        /* \"#utility.yul\":16724:16742   */\n      tag_290\n      tag_123\n      jump\t// in\n    tag_290:\n        /* \"#utility.yul\":16641:16744   */\n    tag_289:\n        /* \"#utility.yul\":16771:16772   */\n      0x01\n        /* \"#utility.yul\":16764:16769   */\n      dup3\n        /* \"#utility.yul\":16760:16773   */\n      add\n        /* \"#utility.yul\":16753:16773   */\n      swap1\n      pop\n        /* \"#utility.yul\":16546:16779   */\n      swap2\n      swap1\n      pop\n      jump\t// out\n        /* \"#utility.yul\":16785:16926   */\n    tag_124:\n        /* \"#utility.yul\":16834:16838   */\n      0x00\n        /* \"#utility.yul\":16857:16860   */\n      dup2\n        /* \"#utility.yul\":16849:16860   */\n      swap1\n      pop\n        /* \"#utility.yul\":16880:16883   */\n      dup2\n        /* \"#utility.yul\":16877:16878   */\n      0x00\n        /* \"#utility.yul\":16870:16884   */\n      mstore\n        /* \"#utility.yul\":16914:16918   */\n      0x20\n        /* \"#utility.yul\":16911:16912   */\n      0x00\n        /* \"#utility.yul\":16901:16919   */\n      keccak256\n        /* \"#utility.yul\":16893:16919   */\n      swap1\n      pop\n        /* \"#utility.yul\":16785:16926   */\n      swap2\n      swap1\n      pop\n      jump\t// out\n        /* \"#utility.yul\":16932:17025   */\n    tag_125:\n        /* \"#utility.yul\":16969:16975   */\n      0x00\n        /* \"#utility.yul\":17016:17018   */\n      0x20\n        /* \"#utility.yul\":17011:17013   */\n      0x1f\n        /* \"#utility.yul\":17004:17009   */\n      dup4\n        /* \"#utility.yul\":17000:17014   */\n      add\n        /* \"#utility.yul\":16996:17019   */\n      div\n        /* \"#utility.yul\":16986:17019   */\n      swap1\n      pop\n        /* \"#utility.yul\":16932:17025   */\n      swap2\n      swap1\n      pop\n      jump\t// out\n        /* \"#utility.yul\":17031:17138   */\n    tag_126:\n        /* \"#utility.yul\":17075:17083   */\n      0x00\n        /* \"#utility.yul\":17125:17130   */\n      dup3\n        /* \"#utility.yul\":17119:17123   */\n      dup3\n        /* \"#utility.yul\":17115:17131   */\n      shl\n        /* \"#utility.yul\":17094:17131   */\n      swap1\n      pop\n        /* \"#utility.yul\":17031:17138   */\n      swap3\n      swap2\n      pop\n      pop\n      jump\t// out\n        /* \"#utility.yul\":17144:17537   */\n    tag_127:\n        /* \"#utility.yul\":17213:17219   */\n      0x00\n        /* \"#utility.yul\":17263:17264   */\n      0x08\n        /* \"#utility.yul\":17251:17261   */\n      dup4\n        /* \"#utility.yul\":17247:17265   */\n      mul\n        /* \"#utility.yul\":17286:17383   */\n      tag_295\n        /* \"#utility.yul\":17316:17382   */\n      0xffffffffffffffffffffffffffffffffffffffffffffffffffffffffffffffff\n        /* \"#utility.yul\":17305:17314   */\n      dup3\n        /* \"#utility.yul\":17286:17383   */\n      tag_126\n      jump\t// in\n    tag_295:\n        /* \"#utility.yul\":17404:17443   */\n      tag_296\n        /* \"#utility.yul\":17434:17442   */\n      dup7\n        /* \"#utility.yul\":17423:17432   */\n      dup4\n        /* \"#utility.yul\":17404:17443   */\n      tag_126\n      jump\t// in\n    tag_296:\n        /* \"#utility.yul\":17392:17443   */\n      swap6\n      pop\n        /* \"#utility.yul\":17476:17480   */\n      dup1\n        /* \"#utility.yul\":17472:17481   */\n      not\n        /* \"#utility.yul\":17465:17470   */\n      dup5\n        /* \"#utility.yul\":17461:17482   */\n      and\n        /* \"#utility.yul\":17452:17482   */\n      swap4\n      pop\n        /* \"#utility.yul\":17525:17529   */\n      dup1\n        /* \"#utility.yul\":17515:17523   */\n      dup7\n        /* \"#utility.yul\":17511:17530   */\n      and\n        /* \"#utility.yul\":17504:17509   */\n      dup5\n        /* \"#utility.yul\":17501:17531   */\n      or\n        /* \"#utility.yul\":17491:17531   */\n      swap3\n      pop\n        /* \"#utility.yul\":17220:17537   */\n      pop\n      pop\n        /* \"#utility.yul\":17144:17537   */\n      swap4\n      swap3\n      pop\n      pop\n      pop\n      jump\t// out\n        /* \"#utility.yul\":17543:17603   */\n    tag_128:\n        /* \"#utility.yul\":17571:17574   */\n      0x00\n        /* \"#utility.yul\":17592:17597   */\n      dup2\n        /* \"#utility.yul\":17585:17597   */\n      swap1\n      pop\n        /* \"#utility.yul\":17543:17603   */\n      swap2\n      swap1\n      pop\n      jump\t// out\n        /* \"#utility.yul\":17609:17751   */\n    tag_129:\n        /* \"#utility.yul\":17659:17668   */\n      0x00\n        /* \"#utility.yul\":17692:17745   */\n      tag_299\n        /* \"#utility.yul\":17710:17744   */\n      tag_300\n        /* \"#utility.yul\":17719:17743   */\n      tag_301\n        /* \"#utility.yul\":17737:17742   */\n      dup5\n        /* \"#utility.yul\":17719:17743   */\n      tag_78\n      jump\t// in\n    tag_301:\n        /* \"#utility.yul\":17710:17744   */\n      tag_128\n      jump\t// in\n    tag_300:\n        /* \"#utility.yul\":17692:17745   */\n      tag_78\n      jump\t// in\n    tag_299:\n        /* \"#utility.yul\":17679:17745   */\n      swap1\n      pop\n        /* \"#utility.yul\":17609:17751   */\n      swap2\n      swap1\n      pop\n      jump\t// out\n        /* \"#utility.yul\":17757:17832   */\n    tag_130:\n        /* \"#utility.yul\":17800:17803   */\n      0x00\n        /* \"#utility.yul\":17821:17826   */\n      dup2\n        /* \"#utility.yul\":17814:17826   */\n      swap1\n      pop\n        /* \"#utility.yul\":17757:17832   */\n      swap2\n      swap1\n      pop\n      jump\t// out\n        /* \"#utility.yul\":17838:18107   */\n    tag_131:\n        /* \"#utility.yul\":17948:17987   */\n      tag_304\n        /* \"#utility.yul\":17979:17986   */\n      dup4\n        /* \"#utility.yul\":17948:17987   */\n      tag_129\n      jump\t// in\n    tag_304:\n        /* \"#utility.yul\":18009:18100   */\n      tag_305\n        /* \"#utility.yul\":18058:18099   */\n      tag_306\n        /* \"#utility.yul\":18082:18098   */\n      dup3\n        /* \"#utility.yul\":18058:18099   */\n      tag_130\n      jump\t// in\n    tag_306:\n        /* \"#utility.yul\":18050:18056   */\n      dup5\n        /* \"#utility.yul\":18043:18047   */\n      dup5\n        /* \"#utility.yul\":18037:18048   */\n      sload\n        /* \"#utility.yul\":18009:18100   */\n      tag_127\n      jump\t// in\n    tag_305:\n        /* \"#utility.yul\":18003:18007   */\n      dup3\n        /* \"#utility.yul\":17996:18101   */\n      sstore\n        /* \"#utility.yul\":17914:18107   */\n      pop\n        /* \"#utility.yul\":17838:18107   */\n      pop\n      pop\n      pop\n      jump\t// out\n        /* \"#utility.yul\":18113:18186   */\n    tag_132:\n        /* \"#utility.yul\":18158:18161   */\n      0x00\n        /* \"#utility.yul\":18113:18186   */\n      swap1\n      jump\t// out\n        /* \"#utility.yul\":18192:18381   */\n    tag_133:\n        /* \"#utility.yul\":18269:18301   */\n      tag_309\n      tag_132\n      jump\t// in\n    tag_309:\n        /* \"#utility.yul\":18310:18375   */\n      tag_310\n        /* \"#utility.yul\":18368:18374   */\n      dup2\n        /* \"#utility.yul\":18360:18366   */\n      dup5\n        /* \"#utility.yul\":18354:18358   */\n      dup5\n        /* \"#utility.yul\":18310:18375   */\n      tag_131\n      jump\t// in\n    tag_310:\n        /* \"#utility.yul\":18245:18381   */\n      pop\n        /* \"#utility.yul\":18192:18381   */\n      pop\n      pop\n      jump\t// out\n        /* \"#utility.yul\":18387:18573   */\n    tag_134:\n        /* \"#utility.yul\":18447:18567   */\n    tag_312:\n        /* \"#utility.yul\":18464:18467   */\n      dup2\n        /* \"#utility.yul\":18457:18462   */\n      dup2\n        /* \"#utility.yul\":18454:18468   */\n      lt\n        /* \"#utility.yul\":18447:18567   */\n      iszero\n      tag_314\n      jumpi\n        /* \"#utility.yul\":18518:18557   */\n      tag_315\n        /* \"#utility.yul\":18555:18556   */\n      0x00\n        /* \"#utility.yul\":18548:18553   */\n      dup3\n        /* \"#utility.yul\":18518:18557   */\n      tag_133\n      jump\t// in\n    tag_315:\n        /* \"#utility.yul\":18491:18492   */\n      0x01\n        /* \"#utility.yul\":18484:18489   */\n      dup2\n        /* \"#utility.yul\":18480:18493   */\n      add\n        /* \"#utility.yul\":18471:18493   */\n      swap1\n      pop\n        /* \"#utility.yul\":18447:18567   */\n      jump(tag_312)\n    tag_314:\n        /* \"#utility.yul\":18387:18573   */\n      pop\n      pop\n      jump\t// out\n        /* \"#utility.yul\":18579:19122   */\n    tag_135:\n        /* \"#utility.yul\":18680:18682   */\n      0x1f\n        /* \"#utility.yul\":18675:18678   */\n      dup3\n        /* \"#utility.yul\":18672:18683   */\n      gt\n        /* \"#utility.yul\":18669:19115   */\n      iszero\n      tag_317\n      jumpi\n        /* \"#utility.yul\":18714:18752   */\n      tag_318\n        /* \"#utility.yul\":18746:18751   */\n      dup2\n        /* \"#utility.yul\":18714:18752   */\n      tag_124\n      jump\t// in\n    tag_318:\n        /* \"#utility.yul\":18798:18827   */\n      tag_319\n        /* \"#utility.yul\":18816:18826   */\n      dup5\n        /* \"#utility.yul\":18798:18827   */\n      tag_125\n      jump\t// in\n    tag_319:\n        /* \"#utility.yul\":18788:18796   */\n      dup2\n        /* \"#utility.yul\":18784:18828   */\n      add\n        /* \"#utility.yul\":18981:18983   */\n      0x20\n        /* \"#utility.yul\":18969:18979   */\n      dup6\n        /* \"#utility.yul\":18966:18984   */\n      lt\n        /* \"#utility.yul\":18963:19012   */\n      iszero\n      tag_320\n      jumpi\n        /* \"#utility.yul\":19002:19010   */\n      dup2\n        /* \"#utility.yul\":18987:19010   */\n      swap1\n      pop\n        /* \"#utility.yul\":18963:19012   */\n    tag_320:\n        /* \"#utility.yul\":19025:19105   */\n      tag_321\n        /* \"#utility.yul\":19081:19103   */\n      tag_322\n        /* \"#utility.yul\":19099:19102   */\n      dup6\n        /* \"#utility.yul\":19081:19103   */\n      tag_125\n      jump\t// in\n    tag_322:\n        /* \"#utility.yul\":19071:19079   */\n      dup4\n        /* \"#utility.yul\":19067:19104   */\n      add\n        /* \"#utility.yul\":19054:19065   */\n      dup3\n        /* \"#utility.yul\":19025:19105   */\n      tag_134\n      jump\t// in\n    tag_321:\n        /* \"#utility.yul\":18684:19115   */\n      pop\n      pop\n        /* \"#utility.yul\":18669:19115   */\n    tag_317:\n        /* \"#utility.yul\":18579:19122   */\n      pop\n      pop\n      pop\n      jump\t// out\n        /* \"#utility.yul\":19128:19245   */\n    tag_136:\n        /* \"#utility.yul\":19182:19190   */\n      0x00\n        /* \"#utility.yul\":19232:19237   */\n      dup3\n        /* \"#utility.yul\":19226:19230   */\n      dup3\n        /* \"#utility.yul\":19222:19238   */\n      shr\n        /* \"#utility.yul\":19201:19238   */\n      swap1\n      pop\n        /* \"#utility.yul\":19128:19245   */\n      swap3\n      swap2\n      pop\n      pop\n      jump\t// out\n        /* \"#utility.yul\":19251:19420   */\n    tag_137:\n        /* \"#utility.yul\":19295:19301   */\n      0x00\n        /* \"#utility.yul\":19328:19379   */\n      tag_325\n        /* \"#utility.yul\":19376:19377   */\n      0x00\n        /* \"#utility.yul\":19372:19378   */\n      not\n        /* \"#utility.yul\":19364:19369   */\n      dup5\n        /* \"#utility.yul\":19361:19362   */\n      0x08\n        /* \"#utility.yul\":19357:19370   */\n      mul\n        /* \"#utility.yul\":19328:19379   */\n      tag_136\n      jump\t// in\n    tag_325:\n        /* \"#utility.yul\":19324:19380   */\n      not\n        /* \"#utility.yul\":19409:19413   */\n      dup1\n        /* \"#utility.yul\":19403:19407   */\n      dup4\n        /* \"#utility.yul\":19399:19414   */\n      and\n        /* \"#utility.yul\":19389:19414   */\n      swap2\n      pop\n        /* \"#utility.yul\":19302:19420   */\n      pop\n        /* \"#utility.yul\":19251:19420   */\n      swap3\n      swap2\n      pop\n      pop\n      jump\t// out\n        /* \"#utility.yul\":19425:19720   */\n    tag_138:\n        /* \"#utility.yul\":19501:19505   */\n      0x00\n        /* \"#utility.yul\":19647:19676   */\n      tag_327\n        /* \"#utility.yul\":19672:19675   */\n      dup4\n        /* \"#utility.yul\":19666:19670   */\n      dup4\n        /* \"#utility.yul\":19647:19676   */\n      tag_137\n      jump\t// in\n    tag_327:\n        /* \"#utility.yul\":19639:19676   */\n      swap2\n      pop\n        /* \"#utility.yul\":19709:19712   */\n      dup3\n        /* \"#utility.yul\":19706:19707   */\n      0x02\n        /* \"#utility.yul\":19702:19713   */\n      mul\n        /* \"#utility.yul\":19696:19700   */\n      dup3\n        /* \"#utility.yul\":19693:19714   */\n      or\n        /* \"#utility.yul\":19685:19714   */\n      swap1\n      pop\n        /* \"#utility.yul\":19425:19720   */\n      swap3\n      swap2\n      pop\n      pop\n      jump\t// out\n        /* \"#utility.yul\":19725:21120   */\n    tag_68:\n        /* \"#utility.yul\":19842:19879   */\n      tag_329\n        /* \"#utility.yul\":19875:19878   */\n      dup3\n        /* \"#utility.yul\":19842:19879   */\n      tag_87\n      jump\t// in\n    tag_329:\n        /* \"#utility.yul\":19944:19962   */\n      0xffffffffffffffff\n        /* \"#utility.yul\":19936:19942   */\n      dup2\n        /* \"#utility.yul\":19933:19963   */\n      gt\n        /* \"#utility.yul\":19930:19986   */\n      iszero\n      tag_330\n      jumpi\n        /* \"#utility.yul\":19966:19984   */\n      tag_331\n      tag_96\n      jump\t// in\n    tag_331:\n        /* \"#utility.yul\":19930:19986   */\n    tag_330:\n        /* \"#utility.yul\":20010:20048   */\n      tag_332\n        /* \"#utility.yul\":20042:20046   */\n      dup3\n        /* \"#utility.yul\":20036:20047   */\n      sload\n        /* \"#utility.yul\":20010:20048   */\n      tag_53\n      jump\t// in\n    tag_332:\n        /* \"#utility.yul\":20095:20162   */\n      tag_333\n        /* \"#utility.yul\":20155:20161   */\n      dup3\n        /* \"#utility.yul\":20147:20153   */\n      dup3\n        /* \"#utility.yul\":20141:20145   */\n      dup6\n        /* \"#utility.yul\":20095:20162   */\n      tag_135\n      jump\t// in\n    tag_333:\n        /* \"#utility.yul\":20189:20190   */\n      0x00\n        /* \"#utility.yul\":20213:20217   */\n      0x20\n        /* \"#utility.yul\":20200:20217   */\n      swap1\n      pop\n        /* \"#utility.yul\":20245:20247   */\n      0x1f\n        /* \"#utility.yul\":20237:20243   */\n      dup4\n        /* \"#utility.yul\":20234:20248   */\n      gt\n        /* \"#utility.yul\":20262:20263   */\n      0x01\n        /* \"#utility.yul\":20257:20875   */\n      dup2\n      eq\n      tag_335\n      jumpi\n        /* \"#utility.yul\":20919:20920   */\n      0x00\n        /* \"#utility.yul\":20936:20942   */\n      dup5\n        /* \"#utility.yul\":20933:21010   */\n      iszero\n      tag_336\n      jumpi\n        /* \"#utility.yul\":20985:20994   */\n      dup3\n        /* \"#utility.yul\":20980:20983   */\n      dup8\n        /* \"#utility.yul\":20976:20995   */\n      add\n        /* \"#utility.yul\":20970:20996   */\n      mload\n        /* \"#utility.yul\":20961:20996   */\n      swap1\n      pop\n        /* \"#utility.yul\":20933:21010   */\n    tag_336:\n        /* \"#utility.yul\":21036:21103   */\n      tag_337\n        /* \"#utility.yul\":21096:21102   */\n      dup6\n        /* \"#utility.yul\":21089:21094   */\n      dup3\n        /* \"#utility.yul\":21036:21103   */\n      tag_138\n      jump\t// in\n    tag_337:\n        /* \"#utility.yul\":21030:21034   */\n      dup7\n        /* \"#utility.yul\":21023:21104   */\n      sstore\n        /* \"#utility.yul\":20892:21114   */\n      pop\n        /* \"#utility.yul\":20227:21114   */\n      jump(tag_334)\n        /* \"#utility.yul\":20257:20875   */\n    tag_335:\n        /* \"#utility.yul\":20309:20313   */\n      0x1f\n        /* \"#utility.yul\":20305:20314   */\n      not\n        /* \"#utility.yul\":20297:20303   */\n      dup5\n        /* \"#utility.yul\":20293:20315   */\n      and\n        /* \"#utility.yul\":20343:20380   */\n      tag_338\n        /* \"#utility.yul\":20375:20379   */\n      dup7\n        /* \"#utility.yul\":20343:20380   */\n      tag_124\n      jump\t// in\n    tag_338:\n        /* \"#utility.yul\":20402:20403   */\n      0x00\n        /* \"#utility.yul\":20416:20624   */\n    tag_339:\n        /* \"#utility.yul\":20430:20437   */\n      dup3\n        /* \"#utility.yul\":20427:20428   */\n      dup2\n        /* \"#utility.yul\":20424:20438   */\n      lt\n        /* \"#utility.yul\":20416:20624   */\n      iszero\n      tag_341\n      jumpi\n        /* \"#utility.yul\":20509:20518   */\n      dup5\n        /* \"#utility.yul\":20504:20507   */\n      dup10\n        /* \"#utility.yul\":20500:20519   */\n      add\n        /* \"#utility.yul\":20494:20520   */\n      mload\n        /* \"#utility.yul\":20486:20492   */\n      dup3\n        /* \"#utility.yul\":20479:20521   */\n      sstore\n        /* \"#utility.yul\":20560:20561   */\n      0x01\n        /* \"#utility.yul\":20552:20558   */\n      dup3\n        /* \"#utility.yul\":20548:20562   */\n      add\n        /* \"#utility.yul\":20538:20562   */\n      swap2\n      pop\n        /* \"#utility.yul\":20607:20609   */\n      0x20\n        /* \"#utility.yul\":20596:20605   */\n      dup6\n        /* \"#utility.yul\":20592:20610   */\n      add\n        /* \"#utility.yul\":20579:20610   */\n      swap5\n      pop\n        /* \"#utility.yul\":20453:20457   */\n      0x20\n        /* \"#utility.yul\":20450:20451   */\n      dup2\n        /* \"#utility.yul\":20446:20458   */\n      add\n        /* \"#utility.yul\":20441:20458   */\n      swap1\n      pop\n        /* \"#utility.yul\":20416:20624   */\n      jump(tag_339)\n    tag_341:\n        /* \"#utility.yul\":20652:20658   */\n      dup7\n        /* \"#utility.yul\":20643:20650   */\n      dup4\n        /* \"#utility.yul\":20640:20659   */\n      lt\n        /* \"#utility.yul\":20637:20816   */\n      iszero\n      tag_342\n      jumpi\n        /* \"#utility.yul\":20710:20719   */\n      dup5\n        /* \"#utility.yul\":20705:20708   */\n      dup10\n        /* \"#utility.yul\":20701:20720   */\n      add\n        /* \"#utility.yul\":20695:20721   */\n      mload\n        /* \"#utility.yul\":20753:20801   */\n      tag_343\n        /* \"#utility.yul\":20795:20799   */\n      0x1f\n        /* \"#utility.yul\":20787:20793   */\n      dup10\n        /* \"#utility.yul\":20783:20800   */\n      and\n        /* \"#utility.yul\":20772:20781   */\n      dup3\n        /* \"#utility.yul\":20753:20801   */\n      tag_137\n      jump\t// in\n    tag_343:\n        /* \"#utility.yul\":20745:20751   */\n      dup4\n        /* \"#utility.yul\":20738:20802   */\n      sstore\n        /* \"#utility.yul\":20660:20816   */\n      pop\n        /* \"#utility.yul\":20637:20816   */\n    tag_342:\n        /* \"#utility.yul\":20862:20863   */\n      0x01\n        /* \"#utility.yul\":20858:20859   */\n      0x02\n        /* \"#utility.yul\":20850:20856   */\n      dup9\n        /* \"#utility.yul\":20846:20860   */\n      mul\n        /* \"#utility.yul\":20842:20864   */\n      add\n        /* \"#utility.yul\":20836:20840   */\n      dup9\n        /* \"#utility.yul\":20829:20865   */\n      sstore\n        /* \"#utility.yul\":20264:20875   */\n      pop\n      pop\n      pop\n        /* \"#utility.yul\":20227:21114   */\n    tag_334:\n      pop\n        /* \"#utility.yul\":19817:21120   */\n      pop\n      pop\n      pop\n        /* \"#utility.yul\":19725:21120   */\n      pop\n      pop\n      jump\t// out\n        /* \"#utility.yul\":21126:21549   */\n    tag_70:\n        /* \"#utility.yul\":21267:21271   */\n      0x00\n        /* \"#utility.yul\":21305:21307   */\n      0x40\n        /* \"#utility.yul\":21294:21303   */\n      dup3\n        /* \"#utility.yul\":21290:21308   */\n      add\n        /* \"#utility.yul\":21282:21308   */\n      swap1\n      pop\n        /* \"#utility.yul\":21354:21363   */\n      dup2\n        /* \"#utility.yul\":21348:21352   */\n      dup2\n        /* \"#utility.yul\":21344:21364   */\n      sub\n        /* \"#utility.yul\":21340:21341   */\n      0x00\n        /* \"#utility.yul\":21329:21338   */\n      dup4\n        /* \"#utility.yul\":21325:21342   */\n      add\n        /* \"#utility.yul\":21318:21365   */\n      mstore\n        /* \"#utility.yul\":21382:21460   */\n      tag_345\n        /* \"#utility.yul\":21455:21459   */\n      dup2\n        /* \"#utility.yul\":21446:21452   */\n      dup6\n        /* \"#utility.yul\":21382:21460   */\n      tag_91\n      jump\t// in\n    tag_345:\n        /* \"#utility.yul\":21374:21460   */\n      swap1\n      pop\n        /* \"#utility.yul\":21470:21542   */\n      tag_346\n        /* \"#utility.yul\":21538:21540   */\n      0x20\n        /* \"#utility.yul\":21527:21536   */\n      dup4\n        /* \"#utility.yul\":21523:21541   */\n      add\n        /* \"#utility.yul\":21514:21520   */\n      dup5\n        /* \"#utility.yul\":21470:21542   */\n      tag_85\n      jump\t// in\n    tag_346:\n        /* \"#utility.yul\":21126:21549   */\n      swap4\n      swap3\n      pop\n      pop\n      pop\n      jump\t// out\n\n    auxdata: 0xa2646970667358221220739e0afc94f592e653e23310f8d9c15b090de221f15ddce59f567c28aa0fe10964736f6c634300081a0033\n}\n",
				"bytecode": {
					"linkReferences": {},
					"object": "6080604052348015600e575f80fd5b506113338061001c5f395ff3fe608060405260043610610049575f3560e01c80632538c5331461004d57806352d3f84914610069578063564a2864146100a75780638a7513a5146100e7578063d054b9ef14610123575b5f80fd5b610067600480360381019061006291906108cd565b61014d565b005b348015610074575f80fd5b5061008f600480360381019061008a9190610952565b61046a565b60405161009e939291906109ae565b60405180910390f35b3480156100b2575f80fd5b506100cd60048036038101906100c891906108cd565b6104c9565b6040516100de959493929190610a6d565b60405180910390f35b3480156100f2575f80fd5b5061010d60048036038101906101089190610bf1565b6105ab565b60405161011a9190610c4b565b60405180910390f35b34801561012e575f80fd5b5061013761078a565b6040516101449190610d6a565b60405180910390f35b5f805f8381526020019081526020015f209050806004015f9054906101000a900460ff166101b0576040517f08c379a00000000000000000000000000000000000000000000000000000000081526004016101a790610dd4565b60405180910390fd5b80600301543410156101f7576040517f08c379a00000000000000000000000000000000000000000000000000000000081526004016101ee90610e3c565b60405180910390fd5b3373ffffffffffffffffffffffffffffffffffffffff16816001015f9054906101000a900473ffffffffffffffffffffffffffffffffffffffff1673ffffffffffffffffffffffffffffffffffffffff1603610288576040517f08c379a000000000000000000000000000000000000000000000000000000000815260040161027f90610ea4565b60405180910390fd5b806001015f9054906101000a900473ffffffffffffffffffffffffffffffffffffffff1673ffffffffffffffffffffffffffffffffffffffff166108fc3490811502906040515f60405180830381858888f193505050501580156102ee573d5f803e3d5ffd5b5060015f3373ffffffffffffffffffffffffffffffffffffffff1673ffffffffffffffffffffffffffffffffffffffff1681526020019081526020015f2060405180606001604052808481526020013373ffffffffffffffffffffffffffffffffffffffff16815260200142815250908060018154018082558091505060019003905f5260205f2090600302015f909190919091505f820151815f01556020820151816001015f6101000a81548173ffffffffffffffffffffffffffffffffffffffff021916908373ffffffffffffffffffffffffffffffffffffffff160217905550604082015181600201555050806001015f9054906101000a900473ffffffffffffffffffffffffffffffffffffffff1673ffffffffffffffffffffffffffffffffffffffff163373ffffffffffffffffffffffffffffffffffffffff16837f775abcff6c41b260e0a6f417b1de141065bf8a7c41f56c52329354e85fd28a0d3460405161045e9190610c4b565b60405180910390a45050565b6001602052815f5260405f208181548110610483575f80fd5b905f5260205f2090600302015f9150915050805f015490806001015f9054906101000a900473ffffffffffffffffffffffffffffffffffffffff16908060020154905083565b5f602052805f5260405f205f91509050805f015490806001015f9054906101000a900473ffffffffffffffffffffffffffffffffffffffff169080600201805461051290610eef565b80601f016020809104026020016040519081016040528092919081815260200182805461053e90610eef565b80156105895780601f1061056057610100808354040283529160200191610589565b820191905f5260205f20905b81548152906001019060200180831161056c57829003601f168201915b505050505090806003015490806004015f9054906101000a900460ff16905085565b5f8082116105ee576040517f08c379a00000000000000000000000000000000000000000000000000000000081526004016105e590610f69565b60405180910390fd5b5f835111610631576040517f08c379a000000000000000000000000000000000000000000000000000000000815260040161062890610fd1565b60405180910390fd5b60025f8154809291906106439061101c565b91905055506040518060a0016040528060025481526020013373ffffffffffffffffffffffffffffffffffffffff168152602001848152602001838152602001600115158152505f8060025481526020019081526020015f205f820151815f01556020820151816001015f6101000a81548173ffffffffffffffffffffffffffffffffffffffff021916908373ffffffffffffffffffffffffffffffffffffffff16021790555060408201518160020190816106ff9190611200565b50606082015181600301556080820151816004015f6101000a81548160ff0219169083151502179055509050503373ffffffffffffffffffffffffffffffffffffffff166002547fd440a710fb11b369177df9c745fdacb819d84c297a6e2cea51efa4b819ddb3f685856040516107779291906112cf565b60405180910390a3600254905092915050565b606060015f3373ffffffffffffffffffffffffffffffffffffffff1673ffffffffffffffffffffffffffffffffffffffff1681526020019081526020015f20805480602002602001604051908101604052809291908181526020015f905b82821015610880578382905f5260205f2090600302016040518060600160405290815f8201548152602001600182015f9054906101000a900473ffffffffffffffffffffffffffffffffffffffff1673ffffffffffffffffffffffffffffffffffffffff1673ffffffffffffffffffffffffffffffffffffffff168152602001600282015481525050815260200190600101906107e8565b50505050905090565b5f604051905090565b5f80fd5b5f80fd5b5f819050919050565b6108ac8161089a565b81146108b6575f80fd5b50565b5f813590506108c7816108a3565b92915050565b5f602082840312156108e2576108e1610892565b5b5f6108ef848285016108b9565b91505092915050565b5f73ffffffffffffffffffffffffffffffffffffffff82169050919050565b5f610921826108f8565b9050919050565b61093181610917565b811461093b575f80fd5b50565b5f8135905061094c81610928565b92915050565b5f806040838503121561096857610967610892565b5b5f6109758582860161093e565b9250506020610986858286016108b9565b9150509250929050565b6109998161089a565b82525050565b6109a881610917565b82525050565b5f6060820190506109c15f830186610990565b6109ce602083018561099f565b6109db6040830184610990565b949350505050565b5f81519050919050565b5f82825260208201905092915050565b8281835e5f83830152505050565b5f601f19601f8301169050919050565b5f610a25826109e3565b610a2f81856109ed565b9350610a3f8185602086016109fd565b610a4881610a0b565b840191505092915050565b5f8115159050919050565b610a6781610a53565b82525050565b5f60a082019050610a805f830188610990565b610a8d602083018761099f565b8181036040830152610a9f8186610a1b565b9050610aae6060830185610990565b610abb6080830184610a5e565b9695505050505050565b5f80fd5b5f80fd5b7f4e487b71000000000000000000000000000000000000000000000000000000005f52604160045260245ffd5b610b0382610a0b565b810181811067ffffffffffffffff82111715610b2257610b21610acd565b5b80604052505050565b5f610b34610889565b9050610b408282610afa565b919050565b5f67ffffffffffffffff821115610b5f57610b5e610acd565b5b610b6882610a0b565b9050602081019050919050565b828183375f83830152505050565b5f610b95610b9084610b45565b610b2b565b905082815260208101848484011115610bb157610bb0610ac9565b5b610bbc848285610b75565b509392505050565b5f82601f830112610bd857610bd7610ac5565b5b8135610be8848260208601610b83565b91505092915050565b5f8060408385031215610c0757610c06610892565b5b5f83013567ffffffffffffffff811115610c2457610c23610896565b5b610c3085828601610bc4565b9250506020610c41858286016108b9565b9150509250929050565b5f602082019050610c5e5f830184610990565b92915050565b5f81519050919050565b5f82825260208201905092915050565b5f819050602082019050919050565b610c968161089a565b82525050565b610ca581610917565b82525050565b606082015f820151610cbf5f850182610c8d565b506020820151610cd26020850182610c9c565b506040820151610ce56040850182610c8d565b50505050565b5f610cf68383610cab565b60608301905092915050565b5f602082019050919050565b5f610d1882610c64565b610d228185610c6e565b9350610d2d83610c7e565b805f5b83811015610d5d578151610d448882610ceb565b9750610d4f83610d02565b925050600181019050610d30565b5085935050505092915050565b5f6020820190508181035f830152610d828184610d0e565b905092915050565b7f4d75736963206973206e6f7420616374697665000000000000000000000000005f82015250565b5f610dbe6013836109ed565b9150610dc982610d8a565b602082019050919050565b5f6020820190508181035f830152610deb81610db2565b9050919050565b7f496e73756666696369656e74207061796d656e740000000000000000000000005f82015250565b5f610e266014836109ed565b9150610e3182610df2565b602082019050919050565b5f6020820190508181035f830152610e5381610e1a565b9050919050565b7f43616e6e6f742062757920796f7572206f776e206d75736963000000000000005f82015250565b5f610e8e6019836109ed565b9150610e9982610e5a565b602082019050919050565b5f6020820190508181035f830152610ebb81610e82565b9050919050565b7f4e487b71000000000000000000000000000000000000000000000000000000005f52602260045260245ffd5b5f6002820490506001821680610f0657607f821691505b602082108103610f1957610f18610ec2565b5b50919050565b7f5072696365206d7573742062652067726561746572207468616e2030000000005f82015250565b5f610f53601c836109ed565b9150610f5e82610f1f565b602082019050919050565b5f6020820190508181035f830152610f8081610f47565b9050919050565b7f5469746c652063616e6e6f7420626520656d70747900000000000000000000005f82015250565b5f610fbb6015836109ed565b9150610fc682610f87565b602082019050919050565b5f6020820190508181035f830152610fe881610faf565b9050919050565b7f4e487b71000000000000000000000000000000000000000000000000000000005f52601160045260245ffd5b5f6110268261089a565b91507fffffffffffffffffffffffffffffffffffffffffffffffffffffffffffffffff820361105857611057610fef565b5b600182019050919050565b5f819050815f5260205f209050919050565b5f6020601f8301049050919050565b5f82821b905092915050565b5f600883026110bf7fffffffffffffffffffffffffffffffffffffffffffffffffffffffffffffffff82611084565b6110c98683611084565b95508019841693508086168417925050509392505050565b5f819050919050565b5f6111046110ff6110fa8461089a565b6110e1565b61089a565b9050919050565b5f819050919050565b61111d836110ea565b6111316111298261110b565b848454611090565b825550505050565b5f90565b611145611139565b611150818484611114565b505050565b5b81811015611173576111685f8261113d565b600181019050611156565b5050565b601f8211156111b85761118981611063565b61119284611075565b810160208510156111a1578190505b6111b56111ad85611075565b830182611155565b50505b505050565b5f82821c905092915050565b5f6111d85f19846008026111bd565b1980831691505092915050565b5f6111f083836111c9565b9150826002028217905092915050565b611209826109e3565b67ffffffffffffffff81111561122257611221610acd565b5b61122c8254610eef565b611237828285611177565b5f60209050601f831160018114611268575f8415611256578287015190505b61126085826111e5565b8655506112c7565b601f19841661127686611063565b5f5b8281101561129d57848901518255600182019150602085019450602081019050611278565b868310156112ba57848901516112b6601f8916826111c9565b8355505b6001600288020188555050505b505050505050565b5f6040820190508181035f8301526112e78185610a1b565b90506112f66020830184610990565b939250505056fea2646970667358221220739e0afc94f592e653e23310f8d9c15b090de221f15ddce59f567c28aa0fe10964736f6c634300081a0033",
					"opcodes": "PUSH1 0x80 PUSH1 0x40 MSTORE CALLVALUE DUP1 ISZERO PUSH1 0xE JUMPI PUSH0 DUP1 REVERT JUMPDEST POP PUSH2 0x1333 DUP1 PUSH2 0x1C PUSH0 CODECOPY PUSH0 RETURN INVALID PUSH1 0x80 PUSH1 0x40 MSTORE PUSH1 0x4 CALLDATASIZE LT PUSH2 0x49 JUMPI PUSH0 CALLDATALOAD PUSH1 0xE0 SHR DUP1 PUSH4 0x2538C533 EQ PUSH2 0x4D JUMPI DUP1 PUSH4 0x52D3F849 EQ PUSH2 0x69 JUMPI DUP1 PUSH4 0x564A2864 EQ PUSH2 0xA7 JUMPI DUP1 PUSH4 0x8A7513A5 EQ PUSH2 0xE7 JUMPI DUP1 PUSH4 0xD054B9EF EQ PUSH2 0x123 JUMPI JUMPDEST PUSH0 DUP1 REVERT JUMPDEST PUSH2 0x67 PUSH1 0x4 DUP1 CALLDATASIZE SUB DUP2 ADD SWAP1 PUSH2 0x62 SWAP2 SWAP1 PUSH2 0x8CD JUMP JUMPDEST PUSH2 0x14D JUMP JUMPDEST STOP JUMPDEST CALLVALUE DUP1 ISZERO PUSH2 0x74 JUMPI PUSH0 DUP1 REVERT JUMPDEST POP PUSH2 0x8F PUSH1 0x4 DUP1 CALLDATASIZE SUB DUP2 ADD SWAP1 PUSH2 0x8A SWAP2 SWAP1 PUSH2 0x952 JUMP JUMPDEST PUSH2 0x46A JUMP JUMPDEST PUSH1 0x40 MLOAD PUSH2 0x9E SWAP4 SWAP3 SWAP2 SWAP1 PUSH2 0x9AE JUMP JUMPDEST PUSH1 0x40 MLOAD DUP1 SWAP2 SUB SWAP1 RETURN JUMPDEST CALLVALUE DUP1 ISZERO PUSH2 0xB2 JUMPI PUSH0 DUP1 REVERT JUMPDEST POP PUSH2 0xCD PUSH1 0x4 DUP1 CALLDATASIZE SUB DUP2 ADD SWAP1 PUSH2 0xC8 SWAP2 SWAP1 PUSH2 0x8CD JUMP JUMPDEST PUSH2 0x4C9 JUMP JUMPDEST PUSH1 0x40 MLOAD PUSH2 0xDE SWAP6 SWAP5 SWAP4 SWAP3 SWAP2 SWAP1 PUSH2 0xA6D JUMP JUMPDEST PUSH1 0x40 MLOAD DUP1 SWAP2 SUB SWAP1 RETURN JUMPDEST CALLVALUE DUP1 ISZERO PUSH2 0xF2 JUMPI PUSH0 DUP1 REVERT JUMPDEST POP PUSH2 0x10D PUSH1 0x4 DUP1 CALLDATASIZE SUB DUP2 ADD SWAP1 PUSH2 0x108 SWAP2 SWAP1 PUSH2 0xBF1 JUMP JUMPDEST PUSH2 0x5AB JUMP JUMPDEST PUSH1 0x40 MLOAD PUSH2 0x11A SWAP2 SWAP1 PUSH2 0xC4B JUMP JUMPDEST PUSH1 0x40 MLOAD DUP1 SWAP2 SUB SWAP1 RETURN JUMPDEST CALLVALUE DUP1 ISZERO PUSH2 0x12E JUMPI PUSH0 DUP1 REVERT JUMPDEST POP PUSH2 0x137 PUSH2 0x78A JUMP JUMPDEST PUSH1 0x40 MLOAD PUSH2 0x144 SWAP2 SWAP1 PUSH2 0xD6A JUMP JUMPDEST PUSH1 0x40 MLOAD DUP1 SWAP2 SUB SWAP1 RETURN JUMPDEST PUSH0 DUP1 PUSH0 DUP4 DUP2 MSTORE PUSH1 0x20 ADD SWAP1 DUP2 MSTORE PUSH1 0x20 ADD PUSH0 KECCAK256 SWAP1 POP DUP1 PUSH1 0x4 ADD PUSH0 SWAP1 SLOAD SWAP1 PUSH2 0x100 EXP SWAP1 DIV PUSH1 0xFF AND PUSH2 0x1B0 JUMPI PUSH1 0x40 MLOAD PUSH32 0x8C379A000000000000000000000000000000000000000000000000000000000 DUP2 MSTORE PUSH1 0x4 ADD PUSH2 0x1A7 SWAP1 PUSH2 0xDD4 JUMP JUMPDEST PUSH1 0x40 MLOAD DUP1 SWAP2 SUB SWAP1 REVERT JUMPDEST DUP1 PUSH1 0x3 ADD SLOAD CALLVALUE LT ISZERO PUSH2 0x1F7 JUMPI PUSH1 0x40 MLOAD PUSH32 0x8C379A000000000000000000000000000000000000000000000000000000000 DUP2 MSTORE PUSH1 0x4 ADD PUSH2 0x1EE SWAP1 PUSH2 0xE3C JUMP JUMPDEST PUSH1 0x40 MLOAD DUP1 SWAP2 SUB SWAP1 REVERT JUMPDEST CALLER PUSH20 0xFFFFFFFFFFFFFFFFFFFFFFFFFFFFFFFFFFFFFFFF AND DUP2 PUSH1 0x1 ADD PUSH0 SWAP1 SLOAD SWAP1 PUSH2 0x100 EXP SWAP1 DIV PUSH20 0xFFFFFFFFFFFFFFFFFFFFFFFFFFFFFFFFFFFFFFFF AND PUSH20 0xFFFFFFFFFFFFFFFFFFFFFFFFFFFFFFFFFFFFFFFF AND SUB PUSH2 0x288 JUMPI PUSH1 0x40 MLOAD PUSH32 0x8C379A000000000000000000000000000000000000000000000000000000000 DUP2 MSTORE PUSH1 0x4 ADD PUSH2 0x27F SWAP1 PUSH2 0xEA4 JUMP JUMPDEST PUSH1 0x40 MLOAD DUP1 SWAP2 SUB SWAP1 REVERT JUMPDEST DUP1 PUSH1 0x1 ADD PUSH0 SWAP1 SLOAD SWAP1 PUSH2 0x100 EXP SWAP1 DIV PUSH20 0xFFFFFFFFFFFFFFFFFFFFFFFFFFFFFFFFFFFFFFFF AND PUSH20 0xFFFFFFFFFFFFFFFFFFFFFFFFFFFFFFFFFFFFFFFF AND PUSH2 0x8FC CALLVALUE SWAP1 DUP2 ISZERO MUL SWAP1 PUSH1 0x40 MLOAD PUSH0 PUSH1 0x40 MLOAD DUP1 DUP4 SUB DUP2 DUP6 DUP9 DUP9 CALL SWAP4 POP POP POP POP ISZERO DUP1 ISZERO PUSH2 0x2EE JUMPI RETURNDATASIZE PUSH0 DUP1 RETURNDATACOPY RETURNDATASIZE PUSH0 REVERT JUMPDEST POP PUSH1 0x1 PUSH0 CALLER PUSH20 0xFFFFFFFFFFFFFFFFFFFFFFFFFFFFFFFFFFFFFFFF AND PUSH20 0xFFFFFFFFFFFFFFFFFFFFFFFFFFFFFFFFFFFFFFFF AND DUP2 MSTORE PUSH1 0x20 ADD SWAP1 DUP2 MSTORE PUSH1 0x20 ADD PUSH0 KECCAK256 PUSH1 0x40 MLOAD DUP1 PUSH1 0x60 ADD PUSH1 0x40 MSTORE DUP1 DUP5 DUP2 MSTORE PUSH1 0x20 ADD CALLER PUSH20 0xFFFFFFFFFFFFFFFFFFFFFFFFFFFFFFFFFFFFFFFF AND DUP2 MSTORE PUSH1 0x20 ADD TIMESTAMP DUP2 MSTORE POP SWAP1 DUP1 PUSH1 0x1 DUP2 SLOAD ADD DUP1 DUP3 SSTORE DUP1 SWAP2 POP POP PUSH1 0x1 SWAP1 SUB SWAP1 PUSH0 MSTORE PUSH1 0x20 PUSH0 KECCAK256 SWAP1 PUSH1 0x3 MUL ADD PUSH0 SWAP1 SWAP2 SWAP1 SWAP2 SWAP1 SWAP2 POP PUSH0 DUP3 ADD MLOAD DUP2 PUSH0 ADD SSTORE PUSH1 0x20 DUP3 ADD MLOAD DUP2 PUSH1 0x1 ADD PUSH0 PUSH2 0x100 EXP DUP2 SLOAD DUP2 PUSH20 0xFFFFFFFFFFFFFFFFFFFFFFFFFFFFFFFFFFFFFFFF MUL NOT AND SWAP1 DUP4 PUSH20 0xFFFFFFFFFFFFFFFFFFFFFFFFFFFFFFFFFFFFFFFF AND MUL OR SWAP1 SSTORE POP PUSH1 0x40 DUP3 ADD MLOAD DUP2 PUSH1 0x2 ADD SSTORE POP POP DUP1 PUSH1 0x1 ADD PUSH0 SWAP1 SLOAD SWAP1 PUSH2 0x100 EXP SWAP1 DIV PUSH20 0xFFFFFFFFFFFFFFFFFFFFFFFFFFFFFFFFFFFFFFFF AND PUSH20 0xFFFFFFFFFFFFFFFFFFFFFFFFFFFFFFFFFFFFFFFF AND CALLER PUSH20 0xFFFFFFFFFFFFFFFFFFFFFFFFFFFFFFFFFFFFFFFF AND DUP4 PUSH32 0x775ABCFF6C41B260E0A6F417B1DE141065BF8A7C41F56C52329354E85FD28A0D CALLVALUE PUSH1 0x40 MLOAD PUSH2 0x45E SWAP2 SWAP1 PUSH2 0xC4B JUMP JUMPDEST PUSH1 0x40 MLOAD DUP1 SWAP2 SUB SWAP1 LOG4 POP POP JUMP JUMPDEST PUSH1 0x1 PUSH1 0x20 MSTORE DUP2 PUSH0 MSTORE PUSH1 0x40 PUSH0 KECCAK256 DUP2 DUP2 SLOAD DUP2 LT PUSH2 0x483 JUMPI PUSH0 DUP1 REVERT JUMPDEST SWAP1 PUSH0 MSTORE PUSH1 0x20 PUSH0 KECCAK256 SWAP1 PUSH1 0x3 MUL ADD PUSH0 SWAP2 POP SWAP2 POP POP DUP1 PUSH0 ADD SLOAD SWAP1 DUP1 PUSH1 0x1 ADD PUSH0 SWAP1 SLOAD SWAP1 PUSH2 0x100 EXP SWAP1 DIV PUSH20 0xFFFFFFFFFFFFFFFFFFFFFFFFFFFFFFFFFFFFFFFF AND SWAP1 DUP1 PUSH1 0x2 ADD SLOAD SWAP1 POP DUP4 JUMP JUMPDEST PUSH0 PUSH1 0x20 MSTORE DUP1 PUSH0 MSTORE PUSH1 0x40 PUSH0 KECCAK256 PUSH0 SWAP2 POP SWAP1 POP DUP1 PUSH0 ADD SLOAD SWAP1 DUP1 PUSH1 0x1 ADD PUSH0 SWAP1 SLOAD SWAP1 PUSH2 0x100 EXP SWAP1 DIV PUSH20 0xFFFFFFFFFFFFFFFFFFFFFFFFFFFFFFFFFFFFFFFF AND SWAP1 DUP1 PUSH1 0x2 ADD DUP1 SLOAD PUSH2 0x512 SWAP1 PUSH2 0xEEF JUMP JUMPDEST DUP1 PUSH1 0x1F ADD PUSH1 0x20 DUP1 SWAP2 DIV MUL PUSH1 0x20 ADD PUSH1 0x40 MLOAD SWAP1 DUP2 ADD PUSH1 0x40 MSTORE DUP1 SWAP3 SWAP2 SWAP1 DUP2 DUP2 MSTORE PUSH1 0x20 ADD DUP3 DUP1 SLOAD PUSH2 0x53E SWAP1 PUSH2 0xEEF JUMP JUMPDEST DUP1 ISZERO PUSH2 0x589 JUMPI DUP1 PUSH1 0x1F LT PUSH2 0x560 JUMPI PUSH2 0x100 DUP1 DUP4 SLOAD DIV MUL DUP4 MSTORE SWAP2 PUSH1 0x20 ADD SWAP2 PUSH2 0x589 JUMP JUMPDEST DUP3 ADD SWAP2 SWAP1 PUSH0 MSTORE PUSH1 0x20 PUSH0 KECCAK256 SWAP1 JUMPDEST DUP2 SLOAD DUP2 MSTORE SWAP1 PUSH1 0x1 ADD SWAP1 PUSH1 0x20 ADD DUP1 DUP4 GT PUSH2 0x56C JUMPI DUP3 SWAP1 SUB PUSH1 0x1F AND DUP3 ADD SWAP2 JUMPDEST POP POP POP POP POP SWAP1 DUP1 PUSH1 0x3 ADD SLOAD SWAP1 DUP1 PUSH1 0x4 ADD PUSH0 SWAP1 SLOAD SWAP1 PUSH2 0x100 EXP SWAP1 DIV PUSH1 0xFF AND SWAP1 POP DUP6 JUMP JUMPDEST PUSH0 DUP1 DUP3 GT PUSH2 0x5EE JUMPI PUSH1 0x40 MLOAD PUSH32 0x8C379A000000000000000000000000000000000000000000000000000000000 DUP2 MSTORE PUSH1 0x4 ADD PUSH2 0x5E5 SWAP1 PUSH2 0xF69 JUMP JUMPDEST PUSH1 0x40 MLOAD DUP1 SWAP2 SUB SWAP1 REVERT JUMPDEST PUSH0 DUP4 MLOAD GT PUSH2 0x631 JUMPI PUSH1 0x40 MLOAD PUSH32 0x8C379A000000000000000000000000000000000000000000000000000000000 DUP2 MSTORE PUSH1 0x4 ADD PUSH2 0x628 SWAP1 PUSH2 0xFD1 JUMP JUMPDEST PUSH1 0x40 MLOAD DUP1 SWAP2 SUB SWAP1 REVERT JUMPDEST PUSH1 0x2 PUSH0 DUP2 SLOAD DUP1 SWAP3 SWAP2 SWAP1 PUSH2 0x643 SWAP1 PUSH2 0x101C JUMP JUMPDEST SWAP2 SWAP1 POP SSTORE POP PUSH1 0x40 MLOAD DUP1 PUSH1 0xA0 ADD PUSH1 0x40 MSTORE DUP1 PUSH1 0x2 SLOAD DUP2 MSTORE PUSH1 0x20 ADD CALLER PUSH20 0xFFFFFFFFFFFFFFFFFFFFFFFFFFFFFFFFFFFFFFFF AND DUP2 MSTORE PUSH1 0x20 ADD DUP5 DUP2 MSTORE PUSH1 0x20 ADD DUP4 DUP2 MSTORE PUSH1 0x20 ADD PUSH1 0x1 ISZERO ISZERO DUP2 MSTORE POP PUSH0 DUP1 PUSH1 0x2 SLOAD DUP2 MSTORE PUSH1 0x20 ADD SWAP1 DUP2 MSTORE PUSH1 0x20 ADD PUSH0 KECCAK256 PUSH0 DUP3 ADD MLOAD DUP2 PUSH0 ADD SSTORE PUSH1 0x20 DUP3 ADD MLOAD DUP2 PUSH1 0x1 ADD PUSH0 PUSH2 0x100 EXP DUP2 SLOAD DUP2 PUSH20 0xFFFFFFFFFFFFFFFFFFFFFFFFFFFFFFFFFFFFFFFF MUL NOT AND SWAP1 DUP4 PUSH20 0xFFFFFFFFFFFFFFFFFFFFFFFFFFFFFFFFFFFFFFFF AND MUL OR SWAP1 SSTORE POP PUSH1 0x40 DUP3 ADD MLOAD DUP2 PUSH1 0x2 ADD SWAP1 DUP2 PUSH2 0x6FF SWAP2 SWAP1 PUSH2 0x1200 JUMP JUMPDEST POP PUSH1 0x60 DUP3 ADD MLOAD DUP2 PUSH1 0x3 ADD SSTORE PUSH1 0x80 DUP3 ADD MLOAD DUP2 PUSH1 0x4 ADD PUSH0 PUSH2 0x100 EXP DUP2 SLOAD DUP2 PUSH1 0xFF MUL NOT AND SWAP1 DUP4 ISZERO ISZERO MUL OR SWAP1 SSTORE POP SWAP1 POP POP CALLER PUSH20 0xFFFFFFFFFFFFFFFFFFFFFFFFFFFFFFFFFFFFFFFF AND PUSH1 0x2 SLOAD PUSH32 0xD440A710FB11B369177DF9C745FDACB819D84C297A6E2CEA51EFA4B819DDB3F6 DUP6 DUP6 PUSH1 0x40 MLOAD PUSH2 0x777 SWAP3 SWAP2 SWAP1 PUSH2 0x12CF JUMP JUMPDEST PUSH1 0x40 MLOAD DUP1 SWAP2 SUB SWAP1 LOG3 PUSH1 0x2 SLOAD SWAP1 POP SWAP3 SWAP2 POP POP JUMP JUMPDEST PUSH1 0x60 PUSH1 0x1 PUSH0 CALLER PUSH20 0xFFFFFFFFFFFFFFFFFFFFFFFFFFFFFFFFFFFFFFFF AND PUSH20 0xFFFFFFFFFFFFFFFFFFFFFFFFFFFFFFFFFFFFFFFF AND DUP2 MSTORE PUSH1 0x20 ADD SWAP1 DUP2 MSTORE PUSH1 0x20 ADD PUSH0 KECCAK256 DUP1 SLOAD DUP1 PUSH1 0x20 MUL PUSH1 0x20 ADD PUSH1 0x40 MLOAD SWAP1 DUP2 ADD PUSH1 0x40 MSTORE DUP1 SWAP3 SWAP2 SWAP1 DUP2 DUP2 MSTORE PUSH1 0x20 ADD PUSH0 SWAP1 JUMPDEST DUP3 DUP3 LT ISZERO PUSH2 0x880 JUMPI DUP4 DUP3 SWAP1 PUSH0 MSTORE PUSH1 0x20 PUSH0 KECCAK256 SWAP1 PUSH1 0x3 MUL ADD PUSH1 0x40 MLOAD DUP1 PUSH1 0x60 ADD PUSH1 0x40 MSTORE SWAP1 DUP2 PUSH0 DUP3 ADD SLOAD DUP2 MSTORE PUSH1 0x20 ADD PUSH1 0x1 DUP3 ADD PUSH0 SWAP1 SLOAD SWAP1 PUSH2 0x100 EXP SWAP1 DIV PUSH20 0xFFFFFFFFFFFFFFFFFFFFFFFFFFFFFFFFFFFFFFFF AND PUSH20 0xFFFFFFFFFFFFFFFFFFFFFFFFFFFFFFFFFFFFFFFF AND PUSH20 0xFFFFFFFFFFFFFFFFFFFFFFFFFFFFFFFFFFFFFFFF AND DUP2 MSTORE PUSH1 0x20 ADD PUSH1 0x2 DUP3 ADD SLOAD DUP2 MSTORE POP POP DUP2 MSTORE PUSH1 0x20 ADD SWAP1 PUSH1 0x1 ADD SWAP1 PUSH2 0x7E8 JUMP JUMPDEST POP POP POP POP SWAP1 POP SWAP1 JUMP JUMPDEST PUSH0 PUSH1 0x40 MLOAD SWAP1 POP SWAP1 JUMP JUMPDEST PUSH0 DUP1 REVERT JUMPDEST PUSH0 DUP1 REVERT JUMPDEST PUSH0 DUP2 SWAP1 POP SWAP2 SWAP1 POP JUMP JUMPDEST PUSH2 0x8AC DUP2 PUSH2 0x89A JUMP JUMPDEST DUP2 EQ PUSH2 0x8B6 JUMPI PUSH0 DUP1 REVERT JUMPDEST POP JUMP JUMPDEST PUSH0 DUP2 CALLDATALOAD SWAP1 POP PUSH2 0x8C7 DUP2 PUSH2 0x8A3 JUMP JUMPDEST SWAP3 SWAP2 POP POP JUMP JUMPDEST PUSH0 PUSH1 0x20 DUP3 DUP5 SUB SLT ISZERO PUSH2 0x8E2 JUMPI PUSH2 0x8E1 PUSH2 0x892 JUMP JUMPDEST JUMPDEST PUSH0 PUSH2 0x8EF DUP5 DUP3 DUP6 ADD PUSH2 0x8B9 JUMP JUMPDEST SWAP2 POP POP SWAP3 SWAP2 POP POP JUMP JUMPDEST PUSH0 PUSH20 0xFFFFFFFFFFFFFFFFFFFFFFFFFFFFFFFFFFFFFFFF DUP3 AND SWAP1 POP SWAP2 SWAP1 POP JUMP JUMPDEST PUSH0 PUSH2 0x921 DUP3 PUSH2 0x8F8 JUMP JUMPDEST SWAP1 POP SWAP2 SWAP1 POP JUMP JUMPDEST PUSH2 0x931 DUP2 PUSH2 0x917 JUMP JUMPDEST DUP2 EQ PUSH2 0x93B JUMPI PUSH0 DUP1 REVERT JUMPDEST POP JUMP JUMPDEST PUSH0 DUP2 CALLDATALOAD SWAP1 POP PUSH2 0x94C DUP2 PUSH2 0x928 JUMP JUMPDEST SWAP3 SWAP2 POP POP JUMP JUMPDEST PUSH0 DUP1 PUSH1 0x40 DUP4 DUP6 SUB SLT ISZERO PUSH2 0x968 JUMPI PUSH2 0x967 PUSH2 0x892 JUMP JUMPDEST JUMPDEST PUSH0 PUSH2 0x975 DUP6 DUP3 DUP7 ADD PUSH2 0x93E JUMP JUMPDEST SWAP3 POP POP PUSH1 0x20 PUSH2 0x986 DUP6 DUP3 DUP7 ADD PUSH2 0x8B9 JUMP JUMPDEST SWAP2 POP POP SWAP3 POP SWAP3 SWAP1 POP JUMP JUMPDEST PUSH2 0x999 DUP2 PUSH2 0x89A JUMP JUMPDEST DUP3 MSTORE POP POP JUMP JUMPDEST PUSH2 0x9A8 DUP2 PUSH2 0x917 JUMP JUMPDEST DUP3 MSTORE POP POP JUMP JUMPDEST PUSH0 PUSH1 0x60 DUP3 ADD SWAP1 POP PUSH2 0x9C1 PUSH0 DUP4 ADD DUP7 PUSH2 0x990 JUMP JUMPDEST PUSH2 0x9CE PUSH1 0x20 DUP4 ADD DUP6 PUSH2 0x99F JUMP JUMPDEST PUSH2 0x9DB PUSH1 0x40 DUP4 ADD DUP5 PUSH2 0x990 JUMP JUMPDEST SWAP5 SWAP4 POP POP POP POP JUMP JUMPDEST PUSH0 DUP2 MLOAD SWAP1 POP SWAP2 SWAP1 POP JUMP JUMPDEST PUSH0 DUP3 DUP3 MSTORE PUSH1 0x20 DUP3 ADD SWAP1 POP SWAP3 SWAP2 POP POP JUMP JUMPDEST DUP3 DUP2 DUP4 MCOPY PUSH0 DUP4 DUP4 ADD MSTORE POP POP POP JUMP JUMPDEST PUSH0 PUSH1 0x1F NOT PUSH1 0x1F DUP4 ADD AND SWAP1 POP SWAP2 SWAP1 POP JUMP JUMPDEST PUSH0 PUSH2 0xA25 DUP3 PUSH2 0x9E3 JUMP JUMPDEST PUSH2 0xA2F DUP2 DUP6 PUSH2 0x9ED JUMP JUMPDEST SWAP4 POP PUSH2 0xA3F DUP2 DUP6 PUSH1 0x20 DUP7 ADD PUSH2 0x9FD JUMP JUMPDEST PUSH2 0xA48 DUP2 PUSH2 0xA0B JUMP JUMPDEST DUP5 ADD SWAP2 POP POP SWAP3 SWAP2 POP POP JUMP JUMPDEST PUSH0 DUP2 ISZERO ISZERO SWAP1 POP SWAP2 SWAP1 POP JUMP JUMPDEST PUSH2 0xA67 DUP2 PUSH2 0xA53 JUMP JUMPDEST DUP3 MSTORE POP POP JUMP JUMPDEST PUSH0 PUSH1 0xA0 DUP3 ADD SWAP1 POP PUSH2 0xA80 PUSH0 DUP4 ADD DUP9 PUSH2 0x990 JUMP JUMPDEST PUSH2 0xA8D PUSH1 0x20 DUP4 ADD DUP8 PUSH2 0x99F JUMP JUMPDEST DUP2 DUP2 SUB PUSH1 0x40 DUP4 ADD MSTORE PUSH2 0xA9F DUP2 DUP7 PUSH2 0xA1B JUMP JUMPDEST SWAP1 POP PUSH2 0xAAE PUSH1 0x60 DUP4 ADD DUP6 PUSH2 0x990 JUMP JUMPDEST PUSH2 0xABB PUSH1 0x80 DUP4 ADD DUP5 PUSH2 0xA5E JUMP JUMPDEST SWAP7 SWAP6 POP POP POP POP POP POP JUMP JUMPDEST PUSH0 DUP1 REVERT JUMPDEST PUSH0 DUP1 REVERT JUMPDEST PUSH32 0x4E487B7100000000000000000000000000000000000000000000000000000000 PUSH0 MSTORE PUSH1 0x41 PUSH1 0x4 MSTORE PUSH1 0x24 PUSH0 REVERT JUMPDEST PUSH2 0xB03 DUP3 PUSH2 0xA0B JUMP JUMPDEST DUP2 ADD DUP2 DUP2 LT PUSH8 0xFFFFFFFFFFFFFFFF DUP3 GT OR ISZERO PUSH2 0xB22 JUMPI PUSH2 0xB21 PUSH2 0xACD JUMP JUMPDEST JUMPDEST DUP1 PUSH1 0x40 MSTORE POP POP POP JUMP JUMPDEST PUSH0 PUSH2 0xB34 PUSH2 0x889 JUMP JUMPDEST SWAP1 POP PUSH2 0xB40 DUP3 DUP3 PUSH2 0xAFA JUMP JUMPDEST SWAP2 SWAP1 POP JUMP JUMPDEST PUSH0 PUSH8 0xFFFFFFFFFFFFFFFF DUP3 GT ISZERO PUSH2 0xB5F JUMPI PUSH2 0xB5E PUSH2 0xACD JUMP JUMPDEST JUMPDEST PUSH2 0xB68 DUP3 PUSH2 0xA0B JUMP JUMPDEST SWAP1 POP PUSH1 0x20 DUP2 ADD SWAP1 POP SWAP2 SWAP1 POP JUMP JUMPDEST DUP3 DUP2 DUP4 CALLDATACOPY PUSH0 DUP4 DUP4 ADD MSTORE POP POP POP JUMP JUMPDEST PUSH0 PUSH2 0xB95 PUSH2 0xB90 DUP5 PUSH2 0xB45 JUMP JUMPDEST PUSH2 0xB2B JUMP JUMPDEST SWAP1 POP DUP3 DUP2 MSTORE PUSH1 0x20 DUP2 ADD DUP5 DUP5 DUP5 ADD GT ISZERO PUSH2 0xBB1 JUMPI PUSH2 0xBB0 PUSH2 0xAC9 JUMP JUMPDEST JUMPDEST PUSH2 0xBBC DUP5 DUP3 DUP6 PUSH2 0xB75 JUMP JUMPDEST POP SWAP4 SWAP3 POP POP POP JUMP JUMPDEST PUSH0 DUP3 PUSH1 0x1F DUP4 ADD SLT PUSH2 0xBD8 JUMPI PUSH2 0xBD7 PUSH2 0xAC5 JUMP JUMPDEST JUMPDEST DUP2 CALLDATALOAD PUSH2 0xBE8 DUP5 DUP3 PUSH1 0x20 DUP7 ADD PUSH2 0xB83 JUMP JUMPDEST SWAP2 POP POP SWAP3 SWAP2 POP POP JUMP JUMPDEST PUSH0 DUP1 PUSH1 0x40 DUP4 DUP6 SUB SLT ISZERO PUSH2 0xC07 JUMPI PUSH2 0xC06 PUSH2 0x892 JUMP JUMPDEST JUMPDEST PUSH0 DUP4 ADD CALLDATALOAD PUSH8 0xFFFFFFFFFFFFFFFF DUP2 GT ISZERO PUSH2 0xC24 JUMPI PUSH2 0xC23 PUSH2 0x896 JUMP JUMPDEST JUMPDEST PUSH2 0xC30 DUP6 DUP3 DUP7 ADD PUSH2 0xBC4 JUMP JUMPDEST SWAP3 POP POP PUSH1 0x20 PUSH2 0xC41 DUP6 DUP3 DUP7 ADD PUSH2 0x8B9 JUMP JUMPDEST SWAP2 POP POP SWAP3 POP SWAP3 SWAP1 POP JUMP JUMPDEST PUSH0 PUSH1 0x20 DUP3 ADD SWAP1 POP PUSH2 0xC5E PUSH0 DUP4 ADD DUP5 PUSH2 0x990 JUMP JUMPDEST SWAP3 SWAP2 POP POP JUMP JUMPDEST PUSH0 DUP2 MLOAD SWAP1 POP SWAP2 SWAP1 POP JUMP JUMPDEST PUSH0 DUP3 DUP3 MSTORE PUSH1 0x20 DUP3 ADD SWAP1 POP SWAP3 SWAP2 POP POP JUMP JUMPDEST PUSH0 DUP2 SWAP1 POP PUSH1 0x20 DUP3 ADD SWAP1 POP SWAP2 SWAP1 POP JUMP JUMPDEST PUSH2 0xC96 DUP2 PUSH2 0x89A JUMP JUMPDEST DUP3 MSTORE POP POP JUMP JUMPDEST PUSH2 0xCA5 DUP2 PUSH2 0x917 JUMP JUMPDEST DUP3 MSTORE POP POP JUMP JUMPDEST PUSH1 0x60 DUP3 ADD PUSH0 DUP3 ADD MLOAD PUSH2 0xCBF PUSH0 DUP6 ADD DUP3 PUSH2 0xC8D JUMP JUMPDEST POP PUSH1 0x20 DUP3 ADD MLOAD PUSH2 0xCD2 PUSH1 0x20 DUP6 ADD DUP3 PUSH2 0xC9C JUMP JUMPDEST POP PUSH1 0x40 DUP3 ADD MLOAD PUSH2 0xCE5 PUSH1 0x40 DUP6 ADD DUP3 PUSH2 0xC8D JUMP JUMPDEST POP POP POP POP JUMP JUMPDEST PUSH0 PUSH2 0xCF6 DUP4 DUP4 PUSH2 0xCAB JUMP JUMPDEST PUSH1 0x60 DUP4 ADD SWAP1 POP SWAP3 SWAP2 POP POP JUMP JUMPDEST PUSH0 PUSH1 0x20 DUP3 ADD SWAP1 POP SWAP2 SWAP1 POP JUMP JUMPDEST PUSH0 PUSH2 0xD18 DUP3 PUSH2 0xC64 JUMP JUMPDEST PUSH2 0xD22 DUP2 DUP6 PUSH2 0xC6E JUMP JUMPDEST SWAP4 POP PUSH2 0xD2D DUP4 PUSH2 0xC7E JUMP JUMPDEST DUP1 PUSH0 JUMPDEST DUP4 DUP2 LT ISZERO PUSH2 0xD5D JUMPI DUP2 MLOAD PUSH2 0xD44 DUP9 DUP3 PUSH2 0xCEB JUMP JUMPDEST SWAP8 POP PUSH2 0xD4F DUP4 PUSH2 0xD02 JUMP JUMPDEST SWAP3 POP POP PUSH1 0x1 DUP2 ADD SWAP1 POP PUSH2 0xD30 JUMP JUMPDEST POP DUP6 SWAP4 POP POP POP POP SWAP3 SWAP2 POP POP JUMP JUMPDEST PUSH0 PUSH1 0x20 DUP3 ADD SWAP1 POP DUP2 DUP2 SUB PUSH0 DUP4 ADD MSTORE PUSH2 0xD82 DUP2 DUP5 PUSH2 0xD0E JUMP JUMPDEST SWAP1 POP SWAP3 SWAP2 POP POP JUMP JUMPDEST PUSH32 0x4D75736963206973206E6F742061637469766500000000000000000000000000 PUSH0 DUP3 ADD MSTORE POP JUMP JUMPDEST PUSH0 PUSH2 0xDBE PUSH1 0x13 DUP4 PUSH2 0x9ED JUMP JUMPDEST SWAP2 POP PUSH2 0xDC9 DUP3 PUSH2 0xD8A JUMP JUMPDEST PUSH1 0x20 DUP3 ADD SWAP1 POP SWAP2 SWAP1 POP JUMP JUMPDEST PUSH0 PUSH1 0x20 DUP3 ADD SWAP1 POP DUP2 DUP2 SUB PUSH0 DUP4 ADD MSTORE PUSH2 0xDEB DUP2 PUSH2 0xDB2 JUMP JUMPDEST SWAP1 POP SWAP2 SWAP1 POP JUMP JUMPDEST PUSH32 0x496E73756666696369656E74207061796D656E74000000000000000000000000 PUSH0 DUP3 ADD MSTORE POP JUMP JUMPDEST PUSH0 PUSH2 0xE26 PUSH1 0x14 DUP4 PUSH2 0x9ED JUMP JUMPDEST SWAP2 POP PUSH2 0xE31 DUP3 PUSH2 0xDF2 JUMP JUMPDEST PUSH1 0x20 DUP3 ADD SWAP1 POP SWAP2 SWAP1 POP JUMP JUMPDEST PUSH0 PUSH1 0x20 DUP3 ADD SWAP1 POP DUP2 DUP2 SUB PUSH0 DUP4 ADD MSTORE PUSH2 0xE53 DUP2 PUSH2 0xE1A JUMP JUMPDEST SWAP1 POP SWAP2 SWAP1 POP JUMP JUMPDEST PUSH32 0x43616E6E6F742062757920796F7572206F776E206D7573696300000000000000 PUSH0 DUP3 ADD MSTORE POP JUMP JUMPDEST PUSH0 PUSH2 0xE8E PUSH1 0x19 DUP4 PUSH2 0x9ED JUMP JUMPDEST SWAP2 POP PUSH2 0xE99 DUP3 PUSH2 0xE5A JUMP JUMPDEST PUSH1 0x20 DUP3 ADD SWAP1 POP SWAP2 SWAP1 POP JUMP JUMPDEST PUSH0 PUSH1 0x20 DUP3 ADD SWAP1 POP DUP2 DUP2 SUB PUSH0 DUP4 ADD MSTORE PUSH2 0xEBB DUP2 PUSH2 0xE82 JUMP JUMPDEST SWAP1 POP SWAP2 SWAP1 POP JUMP JUMPDEST PUSH32 0x4E487B7100000000000000000000000000000000000000000000000000000000 PUSH0 MSTORE PUSH1 0x22 PUSH1 0x4 MSTORE PUSH1 0x24 PUSH0 REVERT JUMPDEST PUSH0 PUSH1 0x2 DUP3 DIV SWAP1 POP PUSH1 0x1 DUP3 AND DUP1 PUSH2 0xF06 JUMPI PUSH1 0x7F DUP3 AND SWAP2 POP JUMPDEST PUSH1 0x20 DUP3 LT DUP2 SUB PUSH2 0xF19 JUMPI PUSH2 0xF18 PUSH2 0xEC2 JUMP JUMPDEST JUMPDEST POP SWAP2 SWAP1 POP JUMP JUMPDEST PUSH32 0x5072696365206D7573742062652067726561746572207468616E203000000000 PUSH0 DUP3 ADD MSTORE POP JUMP JUMPDEST PUSH0 PUSH2 0xF53 PUSH1 0x1C DUP4 PUSH2 0x9ED JUMP JUMPDEST SWAP2 POP PUSH2 0xF5E DUP3 PUSH2 0xF1F JUMP JUMPDEST PUSH1 0x20 DUP3 ADD SWAP1 POP SWAP2 SWAP1 POP JUMP JUMPDEST PUSH0 PUSH1 0x20 DUP3 ADD SWAP1 POP DUP2 DUP2 SUB PUSH0 DUP4 ADD MSTORE PUSH2 0xF80 DUP2 PUSH2 0xF47 JUMP JUMPDEST SWAP1 POP SWAP2 SWAP1 POP JUMP JUMPDEST PUSH32 0x5469746C652063616E6E6F7420626520656D7074790000000000000000000000 PUSH0 DUP3 ADD MSTORE POP JUMP JUMPDEST PUSH0 PUSH2 0xFBB PUSH1 0x15 DUP4 PUSH2 0x9ED JUMP JUMPDEST SWAP2 POP PUSH2 0xFC6 DUP3 PUSH2 0xF87 JUMP JUMPDEST PUSH1 0x20 DUP3 ADD SWAP1 POP SWAP2 SWAP1 POP JUMP JUMPDEST PUSH0 PUSH1 0x20 DUP3 ADD SWAP1 POP DUP2 DUP2 SUB PUSH0 DUP4 ADD MSTORE PUSH2 0xFE8 DUP2 PUSH2 0xFAF JUMP JUMPDEST SWAP1 POP SWAP2 SWAP1 POP JUMP JUMPDEST PUSH32 0x4E487B7100000000000000000000000000000000000000000000000000000000 PUSH0 MSTORE PUSH1 0x11 PUSH1 0x4 MSTORE PUSH1 0x24 PUSH0 REVERT JUMPDEST PUSH0 PUSH2 0x1026 DUP3 PUSH2 0x89A JUMP JUMPDEST SWAP2 POP PUSH32 0xFFFFFFFFFFFFFFFFFFFFFFFFFFFFFFFFFFFFFFFFFFFFFFFFFFFFFFFFFFFFFFFF DUP3 SUB PUSH2 0x1058 JUMPI PUSH2 0x1057 PUSH2 0xFEF JUMP JUMPDEST JUMPDEST PUSH1 0x1 DUP3 ADD SWAP1 POP SWAP2 SWAP1 POP JUMP JUMPDEST PUSH0 DUP2 SWAP1 POP DUP2 PUSH0 MSTORE PUSH1 0x20 PUSH0 KECCAK256 SWAP1 POP SWAP2 SWAP1 POP JUMP JUMPDEST PUSH0 PUSH1 0x20 PUSH1 0x1F DUP4 ADD DIV SWAP1 POP SWAP2 SWAP1 POP JUMP JUMPDEST PUSH0 DUP3 DUP3 SHL SWAP1 POP SWAP3 SWAP2 POP POP JUMP JUMPDEST PUSH0 PUSH1 0x8 DUP4 MUL PUSH2 0x10BF PUSH32 0xFFFFFFFFFFFFFFFFFFFFFFFFFFFFFFFFFFFFFFFFFFFFFFFFFFFFFFFFFFFFFFFF DUP3 PUSH2 0x1084 JUMP JUMPDEST PUSH2 0x10C9 DUP7 DUP4 PUSH2 0x1084 JUMP JUMPDEST SWAP6 POP DUP1 NOT DUP5 AND SWAP4 POP DUP1 DUP7 AND DUP5 OR SWAP3 POP POP POP SWAP4 SWAP3 POP POP POP JUMP JUMPDEST PUSH0 DUP2 SWAP1 POP SWAP2 SWAP1 POP JUMP JUMPDEST PUSH0 PUSH2 0x1104 PUSH2 0x10FF PUSH2 0x10FA DUP5 PUSH2 0x89A JUMP JUMPDEST PUSH2 0x10E1 JUMP JUMPDEST PUSH2 0x89A JUMP JUMPDEST SWAP1 POP SWAP2 SWAP1 POP JUMP JUMPDEST PUSH0 DUP2 SWAP1 POP SWAP2 SWAP1 POP JUMP JUMPDEST PUSH2 0x111D DUP4 PUSH2 0x10EA JUMP JUMPDEST PUSH2 0x1131 PUSH2 0x1129 DUP3 PUSH2 0x110B JUMP JUMPDEST DUP5 DUP5 SLOAD PUSH2 0x1090 JUMP JUMPDEST DUP3 SSTORE POP POP POP POP JUMP JUMPDEST PUSH0 SWAP1 JUMP JUMPDEST PUSH2 0x1145 PUSH2 0x1139 JUMP JUMPDEST PUSH2 0x1150 DUP2 DUP5 DUP5 PUSH2 0x1114 JUMP JUMPDEST POP POP POP JUMP JUMPDEST JUMPDEST DUP2 DUP2 LT ISZERO PUSH2 0x1173 JUMPI PUSH2 0x1168 PUSH0 DUP3 PUSH2 0x113D JUMP JUMPDEST PUSH1 0x1 DUP2 ADD SWAP1 POP PUSH2 0x1156 JUMP JUMPDEST POP POP JUMP JUMPDEST PUSH1 0x1F DUP3 GT ISZERO PUSH2 0x11B8 JUMPI PUSH2 0x1189 DUP2 PUSH2 0x1063 JUMP JUMPDEST PUSH2 0x1192 DUP5 PUSH2 0x1075 JUMP JUMPDEST DUP2 ADD PUSH1 0x20 DUP6 LT ISZERO PUSH2 0x11A1 JUMPI DUP2 SWAP1 POP JUMPDEST PUSH2 0x11B5 PUSH2 0x11AD DUP6 PUSH2 0x1075 JUMP JUMPDEST DUP4 ADD DUP3 PUSH2 0x1155 JUMP JUMPDEST POP POP JUMPDEST POP POP POP JUMP JUMPDEST PUSH0 DUP3 DUP3 SHR SWAP1 POP SWAP3 SWAP2 POP POP JUMP JUMPDEST PUSH0 PUSH2 0x11D8 PUSH0 NOT DUP5 PUSH1 0x8 MUL PUSH2 0x11BD JUMP JUMPDEST NOT DUP1 DUP4 AND SWAP2 POP POP SWAP3 SWAP2 POP POP JUMP JUMPDEST PUSH0 PUSH2 0x11F0 DUP4 DUP4 PUSH2 0x11C9 JUMP JUMPDEST SWAP2 POP DUP3 PUSH1 0x2 MUL DUP3 OR SWAP1 POP SWAP3 SWAP2 POP POP JUMP JUMPDEST PUSH2 0x1209 DUP3 PUSH2 0x9E3 JUMP JUMPDEST PUSH8 0xFFFFFFFFFFFFFFFF DUP2 GT ISZERO PUSH2 0x1222 JUMPI PUSH2 0x1221 PUSH2 0xACD JUMP JUMPDEST JUMPDEST PUSH2 0x122C DUP3 SLOAD PUSH2 0xEEF JUMP JUMPDEST PUSH2 0x1237 DUP3 DUP3 DUP6 PUSH2 0x1177 JUMP JUMPDEST PUSH0 PUSH1 0x20 SWAP1 POP PUSH1 0x1F DUP4 GT PUSH1 0x1 DUP2 EQ PUSH2 0x1268 JUMPI PUSH0 DUP5 ISZERO PUSH2 0x1256 JUMPI DUP3 DUP8 ADD MLOAD SWAP1 POP JUMPDEST PUSH2 0x1260 DUP6 DUP3 PUSH2 0x11E5 JUMP JUMPDEST DUP7 SSTORE POP PUSH2 0x12C7 JUMP JUMPDEST PUSH1 0x1F NOT DUP5 AND PUSH2 0x1276 DUP7 PUSH2 0x1063 JUMP JUMPDEST PUSH0 JUMPDEST DUP3 DUP2 LT ISZERO PUSH2 0x129D JUMPI DUP5 DUP10 ADD MLOAD DUP3 SSTORE PUSH1 0x1 DUP3 ADD SWAP2 POP PUSH1 0x20 DUP6 ADD SWAP5 POP PUSH1 0x20 DUP2 ADD SWAP1 POP PUSH2 0x1278 JUMP JUMPDEST DUP7 DUP4 LT ISZERO PUSH2 0x12BA JUMPI DUP5 DUP10 ADD MLOAD PUSH2 0x12B6 PUSH1 0x1F DUP10 AND DUP3 PUSH2 0x11C9 JUMP JUMPDEST DUP4 SSTORE POP JUMPDEST PUSH1 0x1 PUSH1 0x2 DUP9 MUL ADD DUP9 SSTORE POP POP POP JUMPDEST POP POP POP POP POP POP JUMP JUMPDEST PUSH0 PUSH1 0x40 DUP3 ADD SWAP1 POP DUP2 DUP2 SUB PUSH0 DUP4 ADD MSTORE PUSH2 0x12E7 DUP2 DUP6 PUSH2 0xA1B JUMP JUMPDEST SWAP1 POP PUSH2 0x12F6 PUSH1 0x20 DUP4 ADD DUP5 PUSH2 0x990 JUMP JUMPDEST SWAP4 SWAP3 POP POP POP JUMP INVALID LOG2 PUSH5 0x6970667358 0x22 SLT KECCAK256 PUSH20 0x9E0AFC94F592E653E23310F8D9C15B090DE221F1 TSTORE 0xDC 0xE5 SWAP16 JUMP PUSH29 0x28AA0FE10964736F6C634300081A003300000000000000000000000000 "
				},
				"gasEstimates": {
					"creation": {
						"codeDepositCost": "983000",
						"executionCost": "1019",
						"totalCost": "984019"
					},
					"external": {
						"buyMusic(uint256)": "infinite",
						"getMyBoughtMusics()": "infinite",
						"musics(uint256)": "infinite",
						"purchases(address,uint256)": "infinite",
						"uploadMusic(string,uint256)": "infinite"
					}
				},
				"methodIdentifiers": {
					"buyMusic(uint256)": "2538c533",
					"getMyBoughtMusics()": "d054b9ef",
					"musics(uint256)": "564a2864",
					"purchases(address,uint256)": "52d3f849",
					"uploadMusic(string,uint256)": "8a7513a5"
				}
			},
			"storageLayout": {
				"storage": [
					{
						"astId": 24,
						"contract": "demo_try.sol:Echochai",
						"label": "musics",
						"offset": 0,
						"slot": "0",
						"type": "t_mapping(t_uint256,t_struct(Music)12_storage)"
					},
					{
						"astId": 30,
						"contract": "demo_try.sol:Echochai",
						"label": "purchases",
						"offset": 0,
						"slot": "1",
						"type": "t_mapping(t_address,t_array(t_struct(Purchase)19_storage)dyn_storage)"
					},
					{
						"astId": 32,
						"contract": "demo_try.sol:Echochai",
						"label": "musicCounter",
						"offset": 0,
						"slot": "2",
						"type": "t_uint256"
					}
				],
				"types": {
					"t_address": {
						"encoding": "inplace",
						"label": "address",
						"numberOfBytes": "20"
					},
					"t_array(t_struct(Purchase)19_storage)dyn_storage": {
						"base": "t_struct(Purchase)19_storage",
						"encoding": "dynamic_array",
						"label": "struct Echochai.Purchase[]",
						"numberOfBytes": "32"
					},
					"t_bool": {
						"encoding": "inplace",
						"label": "bool",
						"numberOfBytes": "1"
					},
					"t_mapping(t_address,t_array(t_struct(Purchase)19_storage)dyn_storage)": {
						"encoding": "mapping",
						"key": "t_address",
						"label": "mapping(address => struct Echochai.Purchase[])",
						"numberOfBytes": "32",
						"value": "t_array(t_struct(Purchase)19_storage)dyn_storage"
					},
					"t_mapping(t_uint256,t_struct(Music)12_storage)": {
						"encoding": "mapping",
						"key": "t_uint256",
						"label": "mapping(uint256 => struct Echochai.Music)",
						"numberOfBytes": "32",
						"value": "t_struct(Music)12_storage"
					},
					"t_string_storage": {
						"encoding": "bytes",
						"label": "string",
						"numberOfBytes": "32"
					},
					"t_struct(Music)12_storage": {
						"encoding": "inplace",
						"label": "struct Echochai.Music",
						"members": [
							{
								"astId": 3,
								"contract": "demo_try.sol:Echochai",
								"label": "id",
								"offset": 0,
								"slot": "0",
								"type": "t_uint256"
							},
							{
								"astId": 5,
								"contract": "demo_try.sol:Echochai",
								"label": "artist",
								"offset": 0,
								"slot": "1",
								"type": "t_address"
							},
							{
								"astId": 7,
								"contract": "demo_try.sol:Echochai",
								"label": "title",
								"offset": 0,
								"slot": "2",
								"type": "t_string_storage"
							},
							{
								"astId": 9,
								"contract": "demo_try.sol:Echochai",
								"label": "price",
								"offset": 0,
								"slot": "3",
								"type": "t_uint256"
							},
							{
								"astId": 11,
								"contract": "demo_try.sol:Echochai",
								"label": "isActive",
								"offset": 0,
								"slot": "4",
								"type": "t_bool"
							}
						],
						"numberOfBytes": "160"
					},
					"t_struct(Purchase)19_storage": {
						"encoding": "inplace",
						"label": "struct Echochai.Purchase",
						"members": [
							{
								"astId": 14,
								"contract": "demo_try.sol:Echochai",
								"label": "musicId",
								"offset": 0,
								"slot": "0",
								"type": "t_uint256"
							},
							{
								"astId": 16,
								"contract": "demo_try.sol:Echochai",
								"label": "buyer",
								"offset": 0,
								"slot": "1",
								"type": "t_address"
							},
							{
								"astId": 18,
								"contract": "demo_try.sol:Echochai",
								"label": "timestamp",
								"offset": 0,
								"slot": "2",
								"type": "t_uint256"
							}
						],
						"numberOfBytes": "96"
					},
					"t_uint256": {
						"encoding": "inplace",
						"label": "uint256",
						"numberOfBytes": "32"
					}
				}
			},
			"userdoc": {
				"kind": "user",
				"methods": {},
				"version": 1
			}
		}
	}
}