{
	"demo_try4.sol": {
		"Echochain": {
			"abi": [
				{
					"anonymous": false,
					"inputs": [
						{
							"indexed": true,
							"internalType": "uint256",
							"name": "tokenId",
							"type": "uint256"
						},
						{
							"indexed": true,
							"internalType": "address",
							"name": "buyer",
							"type": "address"
						},
						{
							"indexed": false,
							"internalType": "uint256",
							"name": "price",
							"type": "uint256"
						}
					],
					"name": "MusicBought",
					"type": "event"
				},
				{
					"anonymous": false,
					"inputs": [
						{
							"indexed": true,
							"internalType": "uint256",
							"name": "tokenId",
							"type": "uint256"
						},
						{
							"indexed": true,
							"internalType": "address",
							"name": "liker",
							"type": "address"
						}
					],
					"name": "MusicLiked",
					"type": "event"
				},
				{
					"anonymous": false,
					"inputs": [
						{
							"indexed": true,
							"internalType": "uint256",
							"name": "tokenId",
							"type": "uint256"
						},
						{
							"indexed": true,
							"internalType": "address",
							"name": "author",
							"type": "address"
						},
						{
							"indexed": false,
							"internalType": "string",
							"name": "musicName",
							"type": "string"
						}
					],
					"name": "MusicUploaded",
					"type": "event"
				},
				{
					"inputs": [
						{
							"internalType": "uint256",
							"name": "tokenId",
							"type": "uint256"
						}
					],
					"name": "buyMusic",
					"outputs": [],
					"stateMutability": "payable",
					"type": "function"
				},
				{
					"inputs": [],
					"name": "getAllMusic",
					"outputs": [
						{
							"components": [
								{
									"internalType": "uint256",
									"name": "tokenId",
									"type": "uint256"
								},
								{
									"internalType": "address payable",
									"name": "owner",
									"type": "address"
								},
								{
									"internalType": "address payable",
									"name": "author",
									"type": "address"
								},
								{
									"internalType": "uint256",
									"name": "price",
									"type": "uint256"
								},
								{
									"internalType": "uint256",
									"name": "likes",
									"type": "uint256"
								},
								{
									"internalType": "string",
									"name": "musicName",
									"type": "string"
								},
								{
									"internalType": "string",
									"name": "imageCID",
									"type": "string"
								},
								{
									"internalType": "string",
									"name": "audioCID",
									"type": "string"
								}
							],
							"internalType": "struct Echochain.MusicToken[]",
							"name": "",
							"type": "tuple[]"
						}
					],
					"stateMutability": "view",
					"type": "function"
				},
				{
					"inputs": [],
					"name": "getLikedMusicByUser",
					"outputs": [
						{
							"components": [
								{
									"internalType": "uint256",
									"name": "tokenId",
									"type": "uint256"
								},
								{
									"internalType": "address payable",
									"name": "owner",
									"type": "address"
								},
								{
									"internalType": "address payable",
									"name": "author",
									"type": "address"
								},
								{
									"internalType": "uint256",
									"name": "price",
									"type": "uint256"
								},
								{
									"internalType": "uint256",
									"name": "likes",
									"type": "uint256"
								},
								{
									"internalType": "string",
									"name": "musicName",
									"type": "string"
								},
								{
									"internalType": "string",
									"name": "imageCID",
									"type": "string"
								},
								{
									"internalType": "string",
									"name": "audioCID",
									"type": "string"
								}
							],
							"internalType": "struct Echochain.MusicToken[]",
							"name": "",
							"type": "tuple[]"
						}
					],
					"stateMutability": "view",
					"type": "function"
				},
				{
					"inputs": [],
					"name": "getMyBoughtMusics",
					"outputs": [
						{
							"components": [
								{
									"internalType": "uint256",
									"name": "tokenId",
									"type": "uint256"
								},
								{
									"internalType": "address payable",
									"name": "owner",
									"type": "address"
								},
								{
									"internalType": "address payable",
									"name": "author",
									"type": "address"
								},
								{
									"internalType": "uint256",
									"name": "price",
									"type": "uint256"
								},
								{
									"internalType": "uint256",
									"name": "likes",
									"type": "uint256"
								},
								{
									"internalType": "string",
									"name": "musicName",
									"type": "string"
								},
								{
									"internalType": "string",
									"name": "imageCID",
									"type": "string"
								},
								{
									"internalType": "string",
									"name": "audioCID",
									"type": "string"
								}
							],
							"internalType": "struct Echochain.MusicToken[]",
							"name": "",
							"type": "tuple[]"
						}
					],
					"stateMutability": "view",
					"type": "function"
				},
				{
					"inputs": [],
					"name": "getMyMusics",
					"outputs": [
						{
							"components": [
								{
									"internalType": "uint256",
									"name": "tokenId",
									"type": "uint256"
								},
								{
									"internalType": "address payable",
									"name": "owner",
									"type": "address"
								},
								{
									"internalType": "address payable",
									"name": "author",
									"type": "address"
								},
								{
									"internalType": "uint256",
									"name": "price",
									"type": "uint256"
								},
								{
									"internalType": "uint256",
									"name": "likes",
									"type": "uint256"
								},
								{
									"internalType": "string",
									"name": "musicName",
									"type": "string"
								},
								{
									"internalType": "string",
									"name": "imageCID",
									"type": "string"
								},
								{
									"internalType": "string",
									"name": "audioCID",
									"type": "string"
								}
							],
							"internalType": "struct Echochain.MusicToken[]",
							"name": "",
							"type": "tuple[]"
						}
					],
					"stateMutability": "view",
					"type": "function"
				},
				{
					"inputs": [
						{
							"internalType": "uint256",
							"name": "tokenId",
							"type": "uint256"
						}
					],
					"name": "getTotalLikes",
					"outputs": [
						{
							"internalType": "uint256",
							"name": "",
							"type": "uint256"
						}
					],
					"stateMutability": "view",
					"type": "function"
				},
				{
					"inputs": [
						{
							"internalType": "uint256",
							"name": "tokenId",
							"type": "uint256"
						}
					],
					"name": "likeMusic",
					"outputs": [],
					"stateMutability": "nonpayable",
					"type": "function"
				},
				{
					"inputs": [
						{
							"internalType": "uint256",
							"name": "tokenId",
							"type": "uint256"
						}
					],
					"name": "unlikeMusic",
					"outputs": [],
					"stateMutability": "nonpayable",
					"type": "function"
				},
				{
					"inputs": [
						{
							"internalType": "string",
							"name": "_musicName",
							"type": "string"
						},
						{
							"internalType": "string",
							"name": "_imageCID",
							"type": "string"
						},
						{
							"internalType": "string",
							"name": "_audioCID",
							"type": "string"
						},
						{
							"internalType": "uint256",
							"name": "_price",
							"type": "uint256"
						}
					],
					"name": "uploadMusic",
					"outputs": [],
					"stateMutability": "nonpayable",
					"type": "function"
				}
			],
			"devdoc": {
				"kind": "dev",
				"methods": {},
				"version": 1
			},
			"evm": {
				"assembly": "    /* \"demo_try4.sol\":60:6579  contract Echochain {... */\n  mstore(0x40, 0x80)\n    /* \"demo_try4.sol\":414:415  1 */\n  0x01\n    /* \"demo_try4.sol\":392:415  uint256 nextTokenId = 1 */\n  dup1\n  sstore\n    /* \"demo_try4.sol\":60:6579  contract Echochain {... */\n  callvalue\n  dup1\n  iszero\n  tag_1\n  jumpi\n  0x00\n  dup1\n  revert\ntag_1:\n  pop\n  dataSize(sub_0)\n  dup1\n  dataOffset(sub_0)\n  0x00\n  codecopy\n  0x00\n  return\nstop\n\nsub_0: assembly {\n        /* \"demo_try4.sol\":60:6579  contract Echochain {... */\n      mstore(0x40, 0x80)\n      jumpi(tag_1, lt(calldatasize, 0x04))\n      shr(0xe0, calldataload(0x00))\n      dup1\n      0x6ac028be\n      gt\n      tag_11\n      jumpi\n      dup1\n      0x6ac028be\n      eq\n      tag_6\n      jumpi\n      dup1\n      0x6b792d5b\n      eq\n      tag_7\n      jumpi\n      dup1\n      0x75c6e6f5\n      eq\n      tag_8\n      jumpi\n      dup1\n      0xcc7414d0\n      eq\n      tag_9\n      jumpi\n      dup1\n      0xd054b9ef\n      eq\n      tag_10\n      jumpi\n      jump(tag_1)\n    tag_11:\n      dup1\n      0x0feb80e6\n      eq\n      tag_2\n      jumpi\n      dup1\n      0x2538c533\n      eq\n      tag_3\n      jumpi\n      dup1\n      0x3e45ff47\n      eq\n      tag_4\n      jumpi\n      dup1\n      0x4a4b6656\n      eq\n      tag_5\n      jumpi\n    tag_1:\n      0x00\n      dup1\n      revert\n        /* \"demo_try4.sol\":3934:4051  function getTotalLikes(uint256 tokenId) external view returns (uint256) {... */\n    tag_2:\n      callvalue\n      dup1\n      iszero\n      tag_12\n      jumpi\n      0x00\n      dup1\n      revert\n    tag_12:\n      pop\n      tag_13\n      0x04\n      dup1\n      calldatasize\n      sub\n      dup2\n      add\n      swap1\n      tag_14\n      swap2\n      swap1\n      tag_15\n      jump\t// in\n    tag_14:\n      tag_16\n      jump\t// in\n    tag_13:\n      mload(0x40)\n      tag_17\n      swap2\n      swap1\n      tag_18\n      jump\t// in\n    tag_17:\n      mload(0x40)\n      dup1\n      swap2\n      sub\n      swap1\n      return\n        /* \"demo_try4.sol\":4057:4642  function buyMusic(uint256 tokenId) external payable {... */\n    tag_3:\n      tag_19\n      0x04\n      dup1\n      calldatasize\n      sub\n      dup2\n      add\n      swap1\n      tag_20\n      swap2\n      swap1\n      tag_15\n      jump\t// in\n    tag_20:\n      tag_21\n      jump\t// in\n    tag_19:\n      stop\n        /* \"demo_try4.sol\":1645:2514  function getMyMusics() external view returns (MusicToken[] memory) {... */\n    tag_4:\n      callvalue\n      dup1\n      iszero\n      tag_22\n      jumpi\n      0x00\n      dup1\n      revert\n    tag_22:\n      pop\n      tag_23\n      tag_24\n      jump\t// in\n    tag_23:\n      mload(0x40)\n      tag_25\n      swap2\n      swap1\n      tag_26\n      jump\t// in\n    tag_25:\n      mload(0x40)\n      dup1\n      swap2\n      sub\n      swap1\n      return\n        /* \"demo_try4.sol\":1348:1637  function getAllMusic() external view returns (MusicToken[] memory) {... */\n    tag_5:\n      callvalue\n      dup1\n      iszero\n      tag_27\n      jumpi\n      0x00\n      dup1\n      revert\n    tag_27:\n      pop\n      tag_28\n      tag_29\n      jump\t// in\n    tag_28:\n      mload(0x40)\n      tag_30\n      swap2\n      swap1\n      tag_26\n      jump\t// in\n    tag_30:\n      mload(0x40)\n      dup1\n      swap2\n      sub\n      swap1\n      return\n        /* \"demo_try4.sol\":777:1338  function uploadMusic(string memory _musicName,string memory _imageCID,string memory _audioCID, uint256 _price) public {... */\n    tag_6:\n      callvalue\n      dup1\n      iszero\n      tag_31\n      jumpi\n      0x00\n      dup1\n      revert\n    tag_31:\n      pop\n      tag_32\n      0x04\n      dup1\n      calldatasize\n      sub\n      dup2\n      add\n      swap1\n      tag_33\n      swap2\n      swap1\n      tag_34\n      jump\t// in\n    tag_33:\n      tag_35\n      jump\t// in\n    tag_32:\n      stop\n        /* \"demo_try4.sol\":2524:3191  function likeMusic(uint256 tokenId) external {... */\n    tag_7:\n      callvalue\n      dup1\n      iszero\n      tag_36\n      jumpi\n      0x00\n      dup1\n      revert\n    tag_36:\n      pop\n      tag_37\n      0x04\n      dup1\n      calldatasize\n      sub\n      dup2\n      add\n      swap1\n      tag_38\n      swap2\n      swap1\n      tag_15\n      jump\t// in\n    tag_38:\n      tag_39\n      jump\t// in\n    tag_37:\n      stop\n        /* \"demo_try4.sol\":4654:5589  function unlikeMusic(uint256 tokenId) external {... */\n    tag_8:\n      callvalue\n      dup1\n      iszero\n      tag_40\n      jumpi\n      0x00\n      dup1\n      revert\n    tag_40:\n      pop\n      tag_41\n      0x04\n      dup1\n      calldatasize\n      sub\n      dup2\n      add\n      swap1\n      tag_42\n      swap2\n      swap1\n      tag_15\n      jump\t// in\n    tag_42:\n      tag_43\n      jump\t// in\n    tag_41:\n      stop\n        /* \"demo_try4.sol\":3198:3924  function getLikedMusicByUser() external view returns (MusicToken[] memory) {... */\n    tag_9:\n      callvalue\n      dup1\n      iszero\n      tag_44\n      jumpi\n      0x00\n      dup1\n      revert\n    tag_44:\n      pop\n      tag_45\n      tag_46\n      jump\t// in\n    tag_45:\n      mload(0x40)\n      tag_47\n      swap2\n      swap1\n      tag_26\n      jump\t// in\n    tag_47:\n      mload(0x40)\n      dup1\n      swap2\n      sub\n      swap1\n      return\n        /* \"demo_try4.sol\":5599:6574  function getMyBoughtMusics() external view returns (MusicToken[] memory) {... */\n    tag_10:\n      callvalue\n      dup1\n      iszero\n      tag_48\n      jumpi\n      0x00\n      dup1\n      revert\n    tag_48:\n      pop\n      tag_49\n      tag_50\n      jump\t// in\n    tag_49:\n      mload(0x40)\n      tag_51\n      swap2\n      swap1\n      tag_26\n      jump\t// in\n    tag_51:\n      mload(0x40)\n      dup1\n      swap2\n      sub\n      swap1\n      return\n        /* \"demo_try4.sol\":3934:4051  function getTotalLikes(uint256 tokenId) external view returns (uint256) {... */\n    tag_16:\n        /* \"demo_try4.sol\":3997:4004  uint256 */\n      0x00\n        /* \"demo_try4.sol\":4024:4034  totalLikes */\n      0x03\n        /* \"demo_try4.sol\":4024:4043  totalLikes[tokenId] */\n      0x00\n        /* \"demo_try4.sol\":4035:4042  tokenId */\n      dup4\n        /* \"demo_try4.sol\":4024:4043  totalLikes[tokenId] */\n      dup2\n      mstore\n      0x20\n      add\n      swap1\n      dup2\n      mstore\n      0x20\n      add\n      0x00\n      keccak256\n      sload\n        /* \"demo_try4.sol\":4017:4043  return totalLikes[tokenId] */\n      swap1\n      pop\n        /* \"demo_try4.sol\":3934:4051  function getTotalLikes(uint256 tokenId) external view returns (uint256) {... */\n      swap2\n      swap1\n      pop\n      jump\t// out\n        /* \"demo_try4.sol\":4057:4642  function buyMusic(uint256 tokenId) external payable {... */\n    tag_21:\n        /* \"demo_try4.sol\":4116:4140  MusicToken storage music */\n      0x00\n        /* \"demo_try4.sol\":4143:4154  musicTokens */\n      dup1\n        /* \"demo_try4.sol\":4143:4163  musicTokens[tokenId] */\n      0x00\n        /* \"demo_try4.sol\":4155:4162  tokenId */\n      dup4\n        /* \"demo_try4.sol\":4143:4163  musicTokens[tokenId] */\n      dup2\n      mstore\n      0x20\n      add\n      swap1\n      dup2\n      mstore\n      0x20\n      add\n      0x00\n      keccak256\n        /* \"demo_try4.sol\":4116:4163  MusicToken storage music = musicTokens[tokenId] */\n      swap1\n      pop\n        /* \"demo_try4.sol\":4195:4196  0 */\n      0x00\n        /* \"demo_try4.sol\":4178:4183  music */\n      dup2\n        /* \"demo_try4.sol\":4178:4191  music.tokenId */\n      0x00\n      add\n      sload\n        /* \"demo_try4.sol\":4178:4196  music.tokenId != 0 */\n      sub\n        /* \"demo_try4.sol\":4170:4227  require(music.tokenId != 0, \"Music Token does not exist\") */\n      tag_54\n      jumpi\n      mload(0x40)\n      0x08c379a000000000000000000000000000000000000000000000000000000000\n      dup2\n      mstore\n      0x04\n      add\n      tag_55\n      swap1\n      tag_56\n      jump\t// in\n    tag_55:\n      mload(0x40)\n      dup1\n      swap2\n      sub\n      swap1\n      revert\n    tag_54:\n        /* \"demo_try4.sol\":4257:4267  msg.sender */\n      caller\n        /* \"demo_try4.sol\":4242:4267  music.owner != msg.sender */\n      0xffffffffffffffffffffffffffffffffffffffff\n      and\n        /* \"demo_try4.sol\":4242:4247  music */\n      dup2\n        /* \"demo_try4.sol\":4242:4253  music.owner */\n      0x01\n      add\n      0x00\n      swap1\n      sload\n      swap1\n      0x0100\n      exp\n      swap1\n      div\n      0xffffffffffffffffffffffffffffffffffffffff\n      and\n        /* \"demo_try4.sol\":4242:4267  music.owner != msg.sender */\n      0xffffffffffffffffffffffffffffffffffffffff\n      and\n      sub\n        /* \"demo_try4.sol\":4234:4301  require(music.owner != msg.sender, \"You cannot buy your own music\") */\n      tag_57\n      jumpi\n      mload(0x40)\n      0x08c379a000000000000000000000000000000000000000000000000000000000\n      dup2\n      mstore\n      0x04\n      add\n      tag_58\n      swap1\n      tag_59\n      jump\t// in\n    tag_58:\n      mload(0x40)\n      dup1\n      swap2\n      sub\n      swap1\n      revert\n    tag_57:\n        /* \"demo_try4.sol\":4332:4342  msg.sender */\n      caller\n        /* \"demo_try4.sol\":4316:4342  music.author != msg.sender */\n      0xffffffffffffffffffffffffffffffffffffffff\n      and\n        /* \"demo_try4.sol\":4316:4321  music */\n      dup2\n        /* \"demo_try4.sol\":4316:4328  music.author */\n      0x02\n      add\n      0x00\n      swap1\n      sload\n      swap1\n      0x0100\n      exp\n      swap1\n      div\n      0xffffffffffffffffffffffffffffffffffffffff\n      and\n        /* \"demo_try4.sol\":4316:4342  music.author != msg.sender */\n      0xffffffffffffffffffffffffffffffffffffffff\n      and\n      sub\n        /* \"demo_try4.sol\":4308:4376  require(music.author != msg.sender, \"You cannot buy your own music\") */\n      tag_60\n      jumpi\n      mload(0x40)\n      0x08c379a000000000000000000000000000000000000000000000000000000000\n      dup2\n      mstore\n      0x04\n      add\n      tag_61\n      swap1\n      tag_59\n      jump\t// in\n    tag_61:\n      mload(0x40)\n      dup1\n      swap2\n      sub\n      swap1\n      revert\n    tag_60:\n        /* \"demo_try4.sol\":4404:4409  music */\n      dup1\n        /* \"demo_try4.sol\":4404:4415  music.price */\n      0x03\n      add\n      sload\n        /* \"demo_try4.sol\":4391:4400  msg.value */\n      callvalue\n        /* \"demo_try4.sol\":4391:4415  msg.value >= music.price */\n      lt\n      iszero\n        /* \"demo_try4.sol\":4383:4445  require(msg.value >= music.price, \"Insufficient funds to buy\") */\n      tag_62\n      jumpi\n      mload(0x40)\n      0x08c379a000000000000000000000000000000000000000000000000000000000\n      dup2\n      mstore\n      0x04\n      add\n      tag_63\n      swap1\n      tag_64\n      jump\t// in\n    tag_63:\n      mload(0x40)\n      dup1\n      swap2\n      sub\n      swap1\n      revert\n    tag_62:\n        /* \"demo_try4.sol\":4454:4483  address payable previousOwner */\n      0x00\n        /* \"demo_try4.sol\":4486:4491  music */\n      dup2\n        /* \"demo_try4.sol\":4486:4497  music.owner */\n      0x01\n      add\n      0x00\n      swap1\n      sload\n      swap1\n      0x0100\n      exp\n      swap1\n      div\n      0xffffffffffffffffffffffffffffffffffffffff\n      and\n        /* \"demo_try4.sol\":4454:4497  address payable previousOwner = music.owner */\n      swap1\n      pop\n        /* \"demo_try4.sol\":4504:4517  previousOwner */\n      dup1\n        /* \"demo_try4.sol\":4504:4526  previousOwner.transfer */\n      0xffffffffffffffffffffffffffffffffffffffff\n      and\n        /* \"demo_try4.sol\":4504:4539  previousOwner.transfer(music.price) */\n      0x08fc\n        /* \"demo_try4.sol\":4527:4532  music */\n      dup4\n        /* \"demo_try4.sol\":4527:4538  music.price */\n      0x03\n      add\n      sload\n        /* \"demo_try4.sol\":4504:4539  previousOwner.transfer(music.price) */\n      swap1\n      dup2\n      iszero\n      mul\n      swap1\n      mload(0x40)\n      0x00\n      mload(0x40)\n      dup1\n      dup4\n      sub\n      dup2\n      dup6\n      dup9\n      dup9\n      call\n      swap4\n      pop\n      pop\n      pop\n      pop\n      iszero\n      dup1\n      iszero\n      tag_66\n      jumpi\n      returndatasize\n      0x00\n      dup1\n      returndatacopy\n      revert(0x00, returndatasize)\n    tag_66:\n      pop\n        /* \"demo_try4.sol\":4568:4578  msg.sender */\n      caller\n        /* \"demo_try4.sol\":4546:4551  music */\n      dup3\n        /* \"demo_try4.sol\":4546:4557  music.owner */\n      0x01\n      add\n      0x00\n        /* \"demo_try4.sol\":4546:4579  music.owner = payable(msg.sender) */\n      0x0100\n      exp\n      dup2\n      sload\n      dup2\n      0xffffffffffffffffffffffffffffffffffffffff\n      mul\n      not\n      and\n      swap1\n      dup4\n      0xffffffffffffffffffffffffffffffffffffffff\n      and\n      mul\n      or\n      swap1\n      sstore\n      pop\n        /* \"demo_try4.sol\":4614:4624  msg.sender */\n      caller\n        /* \"demo_try4.sol\":4593:4638  MusicBought(tokenId, msg.sender, music.price) */\n      0xffffffffffffffffffffffffffffffffffffffff\n      and\n        /* \"demo_try4.sol\":4605:4612  tokenId */\n      dup4\n        /* \"demo_try4.sol\":4593:4638  MusicBought(tokenId, msg.sender, music.price) */\n      0x36b7402e3697821c4bcfe9ac412c0b7922a9308d632b152d8384b9a3be73ad10\n        /* \"demo_try4.sol\":4626:4631  music */\n      dup5\n        /* \"demo_try4.sol\":4626:4637  music.price */\n      0x03\n      add\n      sload\n        /* \"demo_try4.sol\":4593:4638  MusicBought(tokenId, msg.sender, music.price) */\n      mload(0x40)\n      tag_67\n      swap2\n      swap1\n      tag_18\n      jump\t// in\n    tag_67:\n      mload(0x40)\n      dup1\n      swap2\n      sub\n      swap1\n      log3\n        /* \"demo_try4.sol\":4109:4642  {... */\n      pop\n      pop\n        /* \"demo_try4.sol\":4057:4642  function buyMusic(uint256 tokenId) external payable {... */\n      pop\n      jump\t// out\n        /* \"demo_try4.sol\":1645:2514  function getMyMusics() external view returns (MusicToken[] memory) {... */\n    tag_24:\n        /* \"demo_try4.sol\":1691:1710  MusicToken[] memory */\n      0x60\n        /* \"demo_try4.sol\":1719:1732  uint256 count */\n      0x00\n        /* \"demo_try4.sol\":1748:1757  uint256 i */\n      dup1\n        /* \"demo_try4.sol\":1760:1761  1 */\n      0x01\n        /* \"demo_try4.sol\":1748:1761  uint256 i = 1 */\n      swap1\n      pop\n        /* \"demo_try4.sol\":1743:1878  for (uint256 i = 1; i < nextTokenId; i++) {... */\n    tag_69:\n        /* \"demo_try4.sol\":1767:1778  nextTokenId */\n      sload(0x01)\n        /* \"demo_try4.sol\":1763:1764  i */\n      dup2\n        /* \"demo_try4.sol\":1763:1778  i < nextTokenId */\n      lt\n        /* \"demo_try4.sol\":1743:1878  for (uint256 i = 1; i < nextTokenId; i++) {... */\n      iszero\n      tag_70\n      jumpi\n        /* \"demo_try4.sol\":1825:1835  msg.sender */\n      caller\n        /* \"demo_try4.sol\":1800:1835  musicTokens[i].author == msg.sender */\n      0xffffffffffffffffffffffffffffffffffffffff\n      and\n        /* \"demo_try4.sol\":1800:1811  musicTokens */\n      0x00\n        /* \"demo_try4.sol\":1800:1814  musicTokens[i] */\n      dup1\n        /* \"demo_try4.sol\":1812:1813  i */\n      dup4\n        /* \"demo_try4.sol\":1800:1814  musicTokens[i] */\n      dup2\n      mstore\n      0x20\n      add\n      swap1\n      dup2\n      mstore\n      0x20\n      add\n      0x00\n      keccak256\n        /* \"demo_try4.sol\":1800:1821  musicTokens[i].author */\n      0x02\n      add\n      0x00\n      swap1\n      sload\n      swap1\n      0x0100\n      exp\n      swap1\n      div\n      0xffffffffffffffffffffffffffffffffffffffff\n      and\n        /* \"demo_try4.sol\":1800:1835  musicTokens[i].author == msg.sender */\n      0xffffffffffffffffffffffffffffffffffffffff\n      and\n      sub\n        /* \"demo_try4.sol\":1796:1871  if (musicTokens[i].author == msg.sender) {... */\n      tag_72\n      jumpi\n        /* \"demo_try4.sol\":1852:1859  count++ */\n      dup2\n      dup1\n      tag_73\n      swap1\n      tag_74\n      jump\t// in\n    tag_73:\n      swap3\n      pop\n      pop\n        /* \"demo_try4.sol\":1796:1871  if (musicTokens[i].author == msg.sender) {... */\n    tag_72:\n        /* \"demo_try4.sol\":1780:1783  i++ */\n      dup1\n      dup1\n      0x01\n      add\n      swap2\n      pop\n      pop\n        /* \"demo_try4.sol\":1743:1878  for (uint256 i = 1; i < nextTokenId; i++) {... */\n      jump(tag_69)\n    tag_70:\n      pop\n        /* \"demo_try4.sol\":1884:1912  MusicToken[] memory myMusics */\n      0x00\n        /* \"demo_try4.sol\":1932:1937  count */\n      dup2\n        /* \"demo_try4.sol\":1915:1938  new MusicToken[](count) */\n      0xffffffffffffffff\n      dup2\n      gt\n      iszero\n      tag_75\n      jumpi\n      tag_76\n      tag_77\n      jump\t// in\n    tag_76:\n    tag_75:\n      mload(0x40)\n      swap1\n      dup1\n      dup3\n      mstore\n      dup1\n      0x20\n      mul\n      0x20\n      add\n      dup3\n      add\n      0x40\n      mstore\n      dup1\n      iszero\n      tag_78\n      jumpi\n      dup2\n      0x20\n      add\n    tag_79:\n      tag_80\n      tag_81\n      jump\t// in\n    tag_80:\n      dup2\n      mstore\n      0x20\n      add\n      swap1\n      0x01\n      swap1\n      sub\n      swap1\n      dup2\n      tag_79\n      jumpi\n      swap1\n      pop\n    tag_78:\n      pop\n        /* \"demo_try4.sol\":1884:1938  MusicToken[] memory myMusics = new MusicToken[](count) */\n      swap1\n      pop\n        /* \"demo_try4.sol\":1945:1958  uint256 index */\n      0x00\n        /* \"demo_try4.sol\":1976:1985  uint256 i */\n      dup1\n        /* \"demo_try4.sol\":1988:1989  1 */\n      0x01\n        /* \"demo_try4.sol\":1976:1989  uint256 i = 1 */\n      swap1\n      pop\n        /* \"demo_try4.sol\":1971:2489  for (uint256 i = 1; i < nextTokenId; i++) {... */\n    tag_82:\n        /* \"demo_try4.sol\":1995:2006  nextTokenId */\n      sload(0x01)\n        /* \"demo_try4.sol\":1991:1992  i */\n      dup2\n        /* \"demo_try4.sol\":1991:2006  i < nextTokenId */\n      lt\n        /* \"demo_try4.sol\":1971:2489  for (uint256 i = 1; i < nextTokenId; i++) {... */\n      iszero\n      tag_83\n      jumpi\n        /* \"demo_try4.sol\":2053:2063  msg.sender */\n      caller\n        /* \"demo_try4.sol\":2028:2063  musicTokens[i].author == msg.sender */\n      0xffffffffffffffffffffffffffffffffffffffff\n      and\n        /* \"demo_try4.sol\":2028:2039  musicTokens */\n      0x00\n        /* \"demo_try4.sol\":2028:2042  musicTokens[i] */\n      dup1\n        /* \"demo_try4.sol\":2040:2041  i */\n      dup4\n        /* \"demo_try4.sol\":2028:2042  musicTokens[i] */\n      dup2\n      mstore\n      0x20\n      add\n      swap1\n      dup2\n      mstore\n      0x20\n      add\n      0x00\n      keccak256\n        /* \"demo_try4.sol\":2028:2049  musicTokens[i].author */\n      0x02\n      add\n      0x00\n      swap1\n      sload\n      swap1\n      0x0100\n      exp\n      swap1\n      div\n      0xffffffffffffffffffffffffffffffffffffffff\n      and\n        /* \"demo_try4.sol\":2028:2063  musicTokens[i].author == msg.sender */\n      0xffffffffffffffffffffffffffffffffffffffff\n      and\n      sub\n        /* \"demo_try4.sol\":2024:2482  if (musicTokens[i].author == msg.sender) {... */\n      tag_85\n      jumpi\n        /* \"demo_try4.sol\":2098:2448  MusicToken(... */\n      mload(0x40)\n      dup1\n      0x0100\n      add\n      0x40\n      mstore\n      dup1\n        /* \"demo_try4.sol\":2127:2138  musicTokens */\n      0x00\n        /* \"demo_try4.sol\":2127:2141  musicTokens[i] */\n      dup1\n        /* \"demo_try4.sol\":2139:2140  i */\n      dup5\n        /* \"demo_try4.sol\":2127:2141  musicTokens[i] */\n      dup2\n      mstore\n      0x20\n      add\n      swap1\n      dup2\n      mstore\n      0x20\n      add\n      0x00\n      keccak256\n        /* \"demo_try4.sol\":2127:2149  musicTokens[i].tokenId */\n      0x00\n      add\n      sload\n        /* \"demo_try4.sol\":2098:2448  MusicToken(... */\n      dup2\n      mstore\n      0x20\n      add\n        /* \"demo_try4.sol\":2168:2179  musicTokens */\n      0x00\n        /* \"demo_try4.sol\":2168:2182  musicTokens[i] */\n      dup1\n        /* \"demo_try4.sol\":2180:2181  i */\n      dup5\n        /* \"demo_try4.sol\":2168:2182  musicTokens[i] */\n      dup2\n      mstore\n      0x20\n      add\n      swap1\n      dup2\n      mstore\n      0x20\n      add\n      0x00\n      keccak256\n        /* \"demo_try4.sol\":2168:2188  musicTokens[i].owner */\n      0x01\n      add\n      0x00\n      swap1\n      sload\n      swap1\n      0x0100\n      exp\n      swap1\n      div\n      0xffffffffffffffffffffffffffffffffffffffff\n      and\n        /* \"demo_try4.sol\":2098:2448  MusicToken(... */\n      0xffffffffffffffffffffffffffffffffffffffff\n      and\n      dup2\n      mstore\n      0x20\n      add\n        /* \"demo_try4.sol\":2207:2218  musicTokens */\n      0x00\n        /* \"demo_try4.sol\":2207:2221  musicTokens[i] */\n      dup1\n        /* \"demo_try4.sol\":2219:2220  i */\n      dup5\n        /* \"demo_try4.sol\":2207:2221  musicTokens[i] */\n      dup2\n      mstore\n      0x20\n      add\n      swap1\n      dup2\n      mstore\n      0x20\n      add\n      0x00\n      keccak256\n        /* \"demo_try4.sol\":2207:2228  musicTokens[i].author */\n      0x02\n      add\n      0x00\n      swap1\n      sload\n      swap1\n      0x0100\n      exp\n      swap1\n      div\n      0xffffffffffffffffffffffffffffffffffffffff\n      and\n        /* \"demo_try4.sol\":2098:2448  MusicToken(... */\n      0xffffffffffffffffffffffffffffffffffffffff\n      and\n      dup2\n      mstore\n      0x20\n      add\n        /* \"demo_try4.sol\":2247:2258  musicTokens */\n      0x00\n        /* \"demo_try4.sol\":2247:2261  musicTokens[i] */\n      dup1\n        /* \"demo_try4.sol\":2259:2260  i */\n      dup5\n        /* \"demo_try4.sol\":2247:2261  musicTokens[i] */\n      dup2\n      mstore\n      0x20\n      add\n      swap1\n      dup2\n      mstore\n      0x20\n      add\n      0x00\n      keccak256\n        /* \"demo_try4.sol\":2247:2267  musicTokens[i].price */\n      0x03\n      add\n      sload\n        /* \"demo_try4.sol\":2098:2448  MusicToken(... */\n      dup2\n      mstore\n      0x20\n      add\n        /* \"demo_try4.sol\":2286:2297  musicTokens */\n      0x00\n        /* \"demo_try4.sol\":2286:2300  musicTokens[i] */\n      dup1\n        /* \"demo_try4.sol\":2298:2299  i */\n      dup5\n        /* \"demo_try4.sol\":2286:2300  musicTokens[i] */\n      dup2\n      mstore\n      0x20\n      add\n      swap1\n      dup2\n      mstore\n      0x20\n      add\n      0x00\n      keccak256\n        /* \"demo_try4.sol\":2286:2306  musicTokens[i].likes */\n      0x04\n      add\n      sload\n        /* \"demo_try4.sol\":2098:2448  MusicToken(... */\n      dup2\n      mstore\n      0x20\n      add\n        /* \"demo_try4.sol\":2325:2336  musicTokens */\n      0x00\n        /* \"demo_try4.sol\":2325:2339  musicTokens[i] */\n      dup1\n        /* \"demo_try4.sol\":2337:2338  i */\n      dup5\n        /* \"demo_try4.sol\":2325:2339  musicTokens[i] */\n      dup2\n      mstore\n      0x20\n      add\n      swap1\n      dup2\n      mstore\n      0x20\n      add\n      0x00\n      keccak256\n        /* \"demo_try4.sol\":2325:2349  musicTokens[i].musicName */\n      0x05\n      add\n        /* \"demo_try4.sol\":2098:2448  MusicToken(... */\n      dup1\n      sload\n      tag_86\n      swap1\n      tag_87\n      jump\t// in\n    tag_86:\n      dup1\n      0x1f\n      add\n      0x20\n      dup1\n      swap2\n      div\n      mul\n      0x20\n      add\n      mload(0x40)\n      swap1\n      dup2\n      add\n      0x40\n      mstore\n      dup1\n      swap3\n      swap2\n      swap1\n      dup2\n      dup2\n      mstore\n      0x20\n      add\n      dup3\n      dup1\n      sload\n      tag_88\n      swap1\n      tag_87\n      jump\t// in\n    tag_88:\n      dup1\n      iszero\n      tag_89\n      jumpi\n      dup1\n      0x1f\n      lt\n      tag_90\n      jumpi\n      0x0100\n      dup1\n      dup4\n      sload\n      div\n      mul\n      dup4\n      mstore\n      swap2\n      0x20\n      add\n      swap2\n      jump(tag_89)\n    tag_90:\n      dup3\n      add\n      swap2\n      swap1\n      0x00\n      mstore\n      keccak256(0x00, 0x20)\n      swap1\n    tag_91:\n      dup2\n      sload\n      dup2\n      mstore\n      swap1\n      0x01\n      add\n      swap1\n      0x20\n      add\n      dup1\n      dup4\n      gt\n      tag_91\n      jumpi\n      dup3\n      swap1\n      sub\n      0x1f\n      and\n      dup3\n      add\n      swap2\n    tag_89:\n      pop\n      pop\n      pop\n      pop\n      pop\n      dup2\n      mstore\n      0x20\n      add\n        /* \"demo_try4.sol\":2368:2379  musicTokens */\n      0x00\n        /* \"demo_try4.sol\":2368:2382  musicTokens[i] */\n      dup1\n        /* \"demo_try4.sol\":2380:2381  i */\n      dup5\n        /* \"demo_try4.sol\":2368:2382  musicTokens[i] */\n      dup2\n      mstore\n      0x20\n      add\n      swap1\n      dup2\n      mstore\n      0x20\n      add\n      0x00\n      keccak256\n        /* \"demo_try4.sol\":2368:2391  musicTokens[i].imageCID */\n      0x06\n      add\n        /* \"demo_try4.sol\":2098:2448  MusicToken(... */\n      dup1\n      sload\n      tag_92\n      swap1\n      tag_87\n      jump\t// in\n    tag_92:\n      dup1\n      0x1f\n      add\n      0x20\n      dup1\n      swap2\n      div\n      mul\n      0x20\n      add\n      mload(0x40)\n      swap1\n      dup2\n      add\n      0x40\n      mstore\n      dup1\n      swap3\n      swap2\n      swap1\n      dup2\n      dup2\n      mstore\n      0x20\n      add\n      dup3\n      dup1\n      sload\n      tag_93\n      swap1\n      tag_87\n      jump\t// in\n    tag_93:\n      dup1\n      iszero\n      tag_94\n      jumpi\n      dup1\n      0x1f\n      lt\n      tag_95\n      jumpi\n      0x0100\n      dup1\n      dup4\n      sload\n      div\n      mul\n      dup4\n      mstore\n      swap2\n      0x20\n      add\n      swap2\n      jump(tag_94)\n    tag_95:\n      dup3\n      add\n      swap2\n      swap1\n      0x00\n      mstore\n      keccak256(0x00, 0x20)\n      swap1\n    tag_96:\n      dup2\n      sload\n      dup2\n      mstore\n      swap1\n      0x01\n      add\n      swap1\n      0x20\n      add\n      dup1\n      dup4\n      gt\n      tag_96\n      jumpi\n      dup3\n      swap1\n      sub\n      0x1f\n      and\n      dup3\n      add\n      swap2\n    tag_94:\n      pop\n      pop\n      pop\n      pop\n      pop\n      dup2\n      mstore\n      0x20\n      add\n        /* \"demo_try4.sol\":2410:2421  musicTokens */\n      0x00\n        /* \"demo_try4.sol\":2410:2424  musicTokens[i] */\n      dup1\n        /* \"demo_try4.sol\":2422:2423  i */\n      dup5\n        /* \"demo_try4.sol\":2410:2424  musicTokens[i] */\n      dup2\n      mstore\n      0x20\n      add\n      swap1\n      dup2\n      mstore\n      0x20\n      add\n      0x00\n      keccak256\n        /* \"demo_try4.sol\":2410:2433  musicTokens[i].audioCID */\n      0x07\n      add\n        /* \"demo_try4.sol\":2098:2448  MusicToken(... */\n      dup1\n      sload\n      tag_97\n      swap1\n      tag_87\n      jump\t// in\n    tag_97:\n      dup1\n      0x1f\n      add\n      0x20\n      dup1\n      swap2\n      div\n      mul\n      0x20\n      add\n      mload(0x40)\n      swap1\n      dup2\n      add\n      0x40\n      mstore\n      dup1\n      swap3\n      swap2\n      swap1\n      dup2\n      dup2\n      mstore\n      0x20\n      add\n      dup3\n      dup1\n      sload\n      tag_98\n      swap1\n      tag_87\n      jump\t// in\n    tag_98:\n      dup1\n      iszero\n      tag_99\n      jumpi\n      dup1\n      0x1f\n      lt\n      tag_100\n      jumpi\n      0x0100\n      dup1\n      dup4\n      sload\n      div\n      mul\n      dup4\n      mstore\n      swap2\n      0x20\n      add\n      swap2\n      jump(tag_99)\n    tag_100:\n      dup3\n      add\n      swap2\n      swap1\n      0x00\n      mstore\n      keccak256(0x00, 0x20)\n      swap1\n    tag_101:\n      dup2\n      sload\n      dup2\n      mstore\n      swap1\n      0x01\n      add\n      swap1\n      0x20\n      add\n      dup1\n      dup4\n      gt\n      tag_101\n      jumpi\n      dup3\n      swap1\n      sub\n      0x1f\n      and\n      dup3\n      add\n      swap2\n    tag_99:\n      pop\n      pop\n      pop\n      pop\n      pop\n      dup2\n      mstore\n      pop\n        /* \"demo_try4.sol\":2080:2088  myMusics */\n      dup4\n        /* \"demo_try4.sol\":2089:2094  index */\n      dup4\n        /* \"demo_try4.sol\":2080:2095  myMusics[index] */\n      dup2\n      mload\n      dup2\n      lt\n      tag_102\n      jumpi\n      tag_103\n      tag_104\n      jump\t// in\n    tag_103:\n    tag_102:\n      0x20\n      mul\n      0x20\n      add\n      add\n        /* \"demo_try4.sol\":2080:2448  myMusics[index] = MusicToken(... */\n      dup2\n      swap1\n      mstore\n      pop\n        /* \"demo_try4.sol\":2463:2470  index++ */\n      dup2\n      dup1\n      tag_105\n      swap1\n      tag_74\n      jump\t// in\n    tag_105:\n      swap3\n      pop\n      pop\n        /* \"demo_try4.sol\":2024:2482  if (musicTokens[i].author == msg.sender) {... */\n    tag_85:\n        /* \"demo_try4.sol\":2008:2011  i++ */\n      dup1\n      dup1\n      0x01\n      add\n      swap2\n      pop\n      pop\n        /* \"demo_try4.sol\":1971:2489  for (uint256 i = 1; i < nextTokenId; i++) {... */\n      jump(tag_82)\n    tag_83:\n      pop\n        /* \"demo_try4.sol\":2502:2510  myMusics */\n      dup2\n        /* \"demo_try4.sol\":2495:2510  return myMusics */\n      swap4\n      pop\n      pop\n      pop\n      pop\n        /* \"demo_try4.sol\":1645:2514  function getMyMusics() external view returns (MusicToken[] memory) {... */\n      swap1\n      jump\t// out\n        /* \"demo_try4.sol\":1348:1637  function getAllMusic() external view returns (MusicToken[] memory) {... */\n    tag_29:\n        /* \"demo_try4.sol\":1394:1413  MusicToken[] memory */\n      0x60\n        /* \"demo_try4.sol\":1426:1454  MusicToken[] memory allMusic */\n      0x00\n        /* \"demo_try4.sol\":1488:1489  1 */\n      0x01\n        /* \"demo_try4.sol\":1474:1485  nextTokenId */\n      dup1\n      sload\n        /* \"demo_try4.sol\":1474:1489  nextTokenId - 1 */\n      tag_107\n      swap2\n      swap1\n      tag_108\n      jump\t// in\n    tag_107:\n        /* \"demo_try4.sol\":1457:1490  new MusicToken[](nextTokenId - 1) */\n      0xffffffffffffffff\n      dup2\n      gt\n      iszero\n      tag_109\n      jumpi\n      tag_110\n      tag_77\n      jump\t// in\n    tag_110:\n    tag_109:\n      mload(0x40)\n      swap1\n      dup1\n      dup3\n      mstore\n      dup1\n      0x20\n      mul\n      0x20\n      add\n      dup3\n      add\n      0x40\n      mstore\n      dup1\n      iszero\n      tag_111\n      jumpi\n      dup2\n      0x20\n      add\n    tag_112:\n      tag_113\n      tag_81\n      jump\t// in\n    tag_113:\n      dup2\n      mstore\n      0x20\n      add\n      swap1\n      0x01\n      swap1\n      sub\n      swap1\n      dup2\n      tag_112\n      jumpi\n      swap1\n      pop\n    tag_111:\n      pop\n        /* \"demo_try4.sol\":1426:1490  MusicToken[] memory allMusic = new MusicToken[](nextTokenId - 1) */\n      swap1\n      pop\n        /* \"demo_try4.sol\":1508:1517  uint256 i */\n      0x00\n        /* \"demo_try4.sol\":1520:1521  1 */\n      0x01\n        /* \"demo_try4.sol\":1508:1521  uint256 i = 1 */\n      swap1\n      pop\n        /* \"demo_try4.sol\":1503:1604  for (uint256 i = 1; i < nextTokenId; i++) {... */\n    tag_114:\n        /* \"demo_try4.sol\":1527:1538  nextTokenId */\n      sload(0x01)\n        /* \"demo_try4.sol\":1523:1524  i */\n      dup2\n        /* \"demo_try4.sol\":1523:1538  i < nextTokenId */\n      lt\n        /* \"demo_try4.sol\":1503:1604  for (uint256 i = 1; i < nextTokenId; i++) {... */\n      iszero\n      tag_115\n      jumpi\n        /* \"demo_try4.sol\":1578:1589  musicTokens */\n      0x00\n        /* \"demo_try4.sol\":1578:1592  musicTokens[i] */\n      dup1\n        /* \"demo_try4.sol\":1590:1591  i */\n      dup3\n        /* \"demo_try4.sol\":1578:1592  musicTokens[i] */\n      dup2\n      mstore\n      0x20\n      add\n      swap1\n      dup2\n      mstore\n      0x20\n      add\n      0x00\n      keccak256\n        /* \"demo_try4.sol\":1560:1592  allMusic[i - 1] = musicTokens[i] */\n      mload(0x40)\n      dup1\n      0x0100\n      add\n      0x40\n      mstore\n      swap1\n      dup2\n      0x00\n      dup3\n      add\n      sload\n      dup2\n      mstore\n      0x20\n      add\n      0x01\n      dup3\n      add\n      0x00\n      swap1\n      sload\n      swap1\n      0x0100\n      exp\n      swap1\n      div\n      0xffffffffffffffffffffffffffffffffffffffff\n      and\n      0xffffffffffffffffffffffffffffffffffffffff\n      and\n      0xffffffffffffffffffffffffffffffffffffffff\n      and\n      dup2\n      mstore\n      0x20\n      add\n      0x02\n      dup3\n      add\n      0x00\n      swap1\n      sload\n      swap1\n      0x0100\n      exp\n      swap1\n      div\n      0xffffffffffffffffffffffffffffffffffffffff\n      and\n      0xffffffffffffffffffffffffffffffffffffffff\n      and\n      0xffffffffffffffffffffffffffffffffffffffff\n      and\n      dup2\n      mstore\n      0x20\n      add\n      0x03\n      dup3\n      add\n      sload\n      dup2\n      mstore\n      0x20\n      add\n      0x04\n      dup3\n      add\n      sload\n      dup2\n      mstore\n      0x20\n      add\n      0x05\n      dup3\n      add\n      dup1\n      sload\n      tag_117\n      swap1\n      tag_87\n      jump\t// in\n    tag_117:\n      dup1\n      0x1f\n      add\n      0x20\n      dup1\n      swap2\n      div\n      mul\n      0x20\n      add\n      mload(0x40)\n      swap1\n      dup2\n      add\n      0x40\n      mstore\n      dup1\n      swap3\n      swap2\n      swap1\n      dup2\n      dup2\n      mstore\n      0x20\n      add\n      dup3\n      dup1\n      sload\n      tag_118\n      swap1\n      tag_87\n      jump\t// in\n    tag_118:\n      dup1\n      iszero\n      tag_119\n      jumpi\n      dup1\n      0x1f\n      lt\n      tag_120\n      jumpi\n      0x0100\n      dup1\n      dup4\n      sload\n      div\n      mul\n      dup4\n      mstore\n      swap2\n      0x20\n      add\n      swap2\n      jump(tag_119)\n    tag_120:\n      dup3\n      add\n      swap2\n      swap1\n      0x00\n      mstore\n      keccak256(0x00, 0x20)\n      swap1\n    tag_121:\n      dup2\n      sload\n      dup2\n      mstore\n      swap1\n      0x01\n      add\n      swap1\n      0x20\n      add\n      dup1\n      dup4\n      gt\n      tag_121\n      jumpi\n      dup3\n      swap1\n      sub\n      0x1f\n      and\n      dup3\n      add\n      swap2\n    tag_119:\n      pop\n      pop\n      pop\n      pop\n      pop\n      dup2\n      mstore\n      0x20\n      add\n      0x06\n      dup3\n      add\n      dup1\n      sload\n      tag_122\n      swap1\n      tag_87\n      jump\t// in\n    tag_122:\n      dup1\n      0x1f\n      add\n      0x20\n      dup1\n      swap2\n      div\n      mul\n      0x20\n      add\n      mload(0x40)\n      swap1\n      dup2\n      add\n      0x40\n      mstore\n      dup1\n      swap3\n      swap2\n      swap1\n      dup2\n      dup2\n      mstore\n      0x20\n      add\n      dup3\n      dup1\n      sload\n      tag_123\n      swap1\n      tag_87\n      jump\t// in\n    tag_123:\n      dup1\n      iszero\n      tag_124\n      jumpi\n      dup1\n      0x1f\n      lt\n      tag_125\n      jumpi\n      0x0100\n      dup1\n      dup4\n      sload\n      div\n      mul\n      dup4\n      mstore\n      swap2\n      0x20\n      add\n      swap2\n      jump(tag_124)\n    tag_125:\n      dup3\n      add\n      swap2\n      swap1\n      0x00\n      mstore\n      keccak256(0x00, 0x20)\n      swap1\n    tag_126:\n      dup2\n      sload\n      dup2\n      mstore\n      swap1\n      0x01\n      add\n      swap1\n      0x20\n      add\n      dup1\n      dup4\n      gt\n      tag_126\n      jumpi\n      dup3\n      swap1\n      sub\n      0x1f\n      and\n      dup3\n      add\n      swap2\n    tag_124:\n      pop\n      pop\n      pop\n      pop\n      pop\n      dup2\n      mstore\n      0x20\n      add\n      0x07\n      dup3\n      add\n      dup1\n      sload\n      tag_127\n      swap1\n      tag_87\n      jump\t// in\n    tag_127:\n      dup1\n      0x1f\n      add\n      0x20\n      dup1\n      swap2\n      div\n      mul\n      0x20\n      add\n      mload(0x40)\n      swap1\n      dup2\n      add\n      0x40\n      mstore\n      dup1\n      swap3\n      swap2\n      swap1\n      dup2\n      dup2\n      mstore\n      0x20\n      add\n      dup3\n      dup1\n      sload\n      tag_128\n      swap1\n      tag_87\n      jump\t// in\n    tag_128:\n      dup1\n      iszero\n      tag_129\n      jumpi\n      dup1\n      0x1f\n      lt\n      tag_130\n      jumpi\n      0x0100\n      dup1\n      dup4\n      sload\n      div\n      mul\n      dup4\n      mstore\n      swap2\n      0x20\n      add\n      swap2\n      jump(tag_129)\n    tag_130:\n      dup3\n      add\n      swap2\n      swap1\n      0x00\n      mstore\n      keccak256(0x00, 0x20)\n      swap1\n    tag_131:\n      dup2\n      sload\n      dup2\n      mstore\n      swap1\n      0x01\n      add\n      swap1\n      0x20\n      add\n      dup1\n      dup4\n      gt\n      tag_131\n      jumpi\n      dup3\n      swap1\n      sub\n      0x1f\n      and\n      dup3\n      add\n      swap2\n    tag_129:\n      pop\n      pop\n      pop\n      pop\n      pop\n      dup2\n      mstore\n      pop\n      pop\n        /* \"demo_try4.sol\":1560:1568  allMusic */\n      dup3\n        /* \"demo_try4.sol\":1573:1574  1 */\n      0x01\n        /* \"demo_try4.sol\":1569:1570  i */\n      dup4\n        /* \"demo_try4.sol\":1569:1574  i - 1 */\n      tag_132\n      swap2\n      swap1\n      tag_108\n      jump\t// in\n    tag_132:\n        /* \"demo_try4.sol\":1560:1575  allMusic[i - 1] */\n      dup2\n      mload\n      dup2\n      lt\n      tag_133\n      jumpi\n      tag_134\n      tag_104\n      jump\t// in\n    tag_134:\n    tag_133:\n      0x20\n      mul\n      0x20\n      add\n      add\n        /* \"demo_try4.sol\":1560:1592  allMusic[i - 1] = musicTokens[i] */\n      dup2\n      swap1\n      mstore\n      pop\n        /* \"demo_try4.sol\":1540:1543  i++ */\n      dup1\n      dup1\n      0x01\n      add\n      swap2\n      pop\n      pop\n        /* \"demo_try4.sol\":1503:1604  for (uint256 i = 1; i < nextTokenId; i++) {... */\n      jump(tag_114)\n    tag_115:\n      pop\n        /* \"demo_try4.sol\":1621:1629  allMusic */\n      dup1\n        /* \"demo_try4.sol\":1614:1629  return allMusic */\n      swap2\n      pop\n      pop\n        /* \"demo_try4.sol\":1348:1637  function getAllMusic() external view returns (MusicToken[] memory) {... */\n      swap1\n      jump\t// out\n        /* \"demo_try4.sol\":777:1338  function uploadMusic(string memory _musicName,string memory _imageCID,string memory _audioCID, uint256 _price) public {... */\n    tag_35:\n        /* \"demo_try4.sol\":941:942  0 */\n      0x00\n        /* \"demo_try4.sol\":920:930  _musicName */\n      dup5\n        /* \"demo_try4.sol\":914:938  bytes(_musicName).length */\n      mload\n        /* \"demo_try4.sol\":914:942  bytes(_musicName).length > 0 */\n      gt\n        /* \"demo_try4.sol\":906:973  require(bytes(_musicName).length > 0, \"Music name cannot be empty\") */\n      tag_136\n      jumpi\n      mload(0x40)\n      0x08c379a000000000000000000000000000000000000000000000000000000000\n      dup2\n      mstore\n      0x04\n      add\n      tag_137\n      swap1\n      tag_138\n      jump\t// in\n    tag_137:\n      mload(0x40)\n      dup1\n      swap2\n      sub\n      swap1\n      revert\n    tag_136:\n        /* \"demo_try4.sol\":1013:1238  MusicToken(... */\n      mload(0x40)\n      dup1\n      0x0100\n      add\n      0x40\n      mstore\n      dup1\n        /* \"demo_try4.sol\":1038:1049  nextTokenId */\n      sload(0x01)\n        /* \"demo_try4.sol\":1013:1238  MusicToken(... */\n      dup2\n      mstore\n      0x20\n      add\n        /* \"demo_try4.sol\":1072:1082  msg.sender */\n      caller\n        /* \"demo_try4.sol\":1013:1238  MusicToken(... */\n      0xffffffffffffffffffffffffffffffffffffffff\n      and\n      dup2\n      mstore\n      0x20\n      add\n        /* \"demo_try4.sol\":1106:1116  msg.sender */\n      caller\n        /* \"demo_try4.sol\":1013:1238  MusicToken(... */\n      0xffffffffffffffffffffffffffffffffffffffff\n      and\n      dup2\n      mstore\n      0x20\n      add\n        /* \"demo_try4.sol\":1132:1138  _price */\n      dup3\n        /* \"demo_try4.sol\":1013:1238  MusicToken(... */\n      dup2\n      mstore\n      0x20\n      add\n        /* \"demo_try4.sol\":1153:1154  0 */\n      0x00\n        /* \"demo_try4.sol\":1013:1238  MusicToken(... */\n      dup2\n      mstore\n      0x20\n      add\n        /* \"demo_try4.sol\":1169:1179  _musicName */\n      dup6\n        /* \"demo_try4.sol\":1013:1238  MusicToken(... */\n      dup2\n      mstore\n      0x20\n      add\n        /* \"demo_try4.sol\":1194:1203  _imageCID */\n      dup5\n        /* \"demo_try4.sol\":1013:1238  MusicToken(... */\n      dup2\n      mstore\n      0x20\n      add\n        /* \"demo_try4.sol\":1218:1227  _audioCID */\n      dup4\n        /* \"demo_try4.sol\":1013:1238  MusicToken(... */\n      dup2\n      mstore\n      pop\n        /* \"demo_try4.sol\":986:997  musicTokens */\n      0x00\n        /* \"demo_try4.sol\":986:1010  musicTokens[nextTokenId] */\n      dup1\n        /* \"demo_try4.sol\":998:1009  nextTokenId */\n      sload(0x01)\n        /* \"demo_try4.sol\":986:1010  musicTokens[nextTokenId] */\n      dup2\n      mstore\n      0x20\n      add\n      swap1\n      dup2\n      mstore\n      0x20\n      add\n      0x00\n      keccak256\n        /* \"demo_try4.sol\":986:1238  musicTokens[nextTokenId] = MusicToken(... */\n      0x00\n      dup3\n      add\n      mload\n      dup2\n      0x00\n      add\n      sstore\n      0x20\n      dup3\n      add\n      mload\n      dup2\n      0x01\n      add\n      exp(0x0100, 0x00)\n      dup2\n      sload\n      dup2\n      0xffffffffffffffffffffffffffffffffffffffff\n      mul\n      not\n      and\n      swap1\n      dup4\n      0xffffffffffffffffffffffffffffffffffffffff\n      and\n      mul\n      or\n      swap1\n      sstore\n      pop\n      0x40\n      dup3\n      add\n      mload\n      dup2\n      0x02\n      add\n      exp(0x0100, 0x00)\n      dup2\n      sload\n      dup2\n      0xffffffffffffffffffffffffffffffffffffffff\n      mul\n      not\n      and\n      swap1\n      dup4\n      0xffffffffffffffffffffffffffffffffffffffff\n      and\n      mul\n      or\n      swap1\n      sstore\n      pop\n      0x60\n      dup3\n      add\n      mload\n      dup2\n      0x03\n      add\n      sstore\n      0x80\n      dup3\n      add\n      mload\n      dup2\n      0x04\n      add\n      sstore\n      0xa0\n      dup3\n      add\n      mload\n      dup2\n      0x05\n      add\n      swap1\n      dup2\n      tag_139\n      swap2\n      swap1\n      tag_140\n      jump\t// in\n    tag_139:\n      pop\n      0xc0\n      dup3\n      add\n      mload\n      dup2\n      0x06\n      add\n      swap1\n      dup2\n      tag_141\n      swap2\n      swap1\n      tag_140\n      jump\t// in\n    tag_141:\n      pop\n      0xe0\n      dup3\n      add\n      mload\n      dup2\n      0x07\n      add\n      swap1\n      dup2\n      tag_142\n      swap2\n      swap1\n      tag_140\n      jump\t// in\n    tag_142:\n      pop\n      swap1\n      pop\n      pop\n        /* \"demo_try4.sol\":1283:1293  msg.sender */\n      caller\n        /* \"demo_try4.sol\":1256:1306  MusicUploaded(nextTokenId, msg.sender, _musicName) */\n      0xffffffffffffffffffffffffffffffffffffffff\n      and\n        /* \"demo_try4.sol\":1270:1281  nextTokenId */\n      sload(0x01)\n        /* \"demo_try4.sol\":1256:1306  MusicUploaded(nextTokenId, msg.sender, _musicName) */\n      0xc1731d471547e930af67ac7b6518cb22212e43f91965a7f12aa417a83864f4ba\n        /* \"demo_try4.sol\":1295:1305  _musicName */\n      dup7\n        /* \"demo_try4.sol\":1256:1306  MusicUploaded(nextTokenId, msg.sender, _musicName) */\n      mload(0x40)\n      tag_143\n      swap2\n      swap1\n      tag_144\n      jump\t// in\n    tag_143:\n      mload(0x40)\n      dup1\n      swap2\n      sub\n      swap1\n      log3\n        /* \"demo_try4.sol\":1317:1328  nextTokenId */\n      0x01\n      0x00\n        /* \"demo_try4.sol\":1317:1330  nextTokenId++ */\n      dup2\n      sload\n      dup1\n      swap3\n      swap2\n      swap1\n      tag_145\n      swap1\n      tag_74\n      jump\t// in\n    tag_145:\n      swap2\n      swap1\n      pop\n      sstore\n      pop\n        /* \"demo_try4.sol\":777:1338  function uploadMusic(string memory _musicName,string memory _imageCID,string memory _audioCID, uint256 _price) public {... */\n      pop\n      pop\n      pop\n      pop\n      jump\t// out\n        /* \"demo_try4.sol\":2524:3191  function likeMusic(uint256 tokenId) external {... */\n    tag_39:\n        /* \"demo_try4.sol\":2580:2604  MusicToken storage music */\n      0x00\n        /* \"demo_try4.sol\":2607:2618  musicTokens */\n      dup1\n        /* \"demo_try4.sol\":2607:2627  musicTokens[tokenId] */\n      0x00\n        /* \"demo_try4.sol\":2619:2626  tokenId */\n      dup4\n        /* \"demo_try4.sol\":2607:2627  musicTokens[tokenId] */\n      dup2\n      mstore\n      0x20\n      add\n      swap1\n      dup2\n      mstore\n      0x20\n      add\n      0x00\n      keccak256\n        /* \"demo_try4.sol\":2580:2627  MusicToken storage music = musicTokens[tokenId] */\n      swap1\n      pop\n        /* \"demo_try4.sol\":2663:2664  0 */\n      0x00\n        /* \"demo_try4.sol\":2646:2651  music */\n      dup2\n        /* \"demo_try4.sol\":2646:2659  music.tokenId */\n      0x00\n      add\n      sload\n        /* \"demo_try4.sol\":2646:2664  music.tokenId != 0 */\n      sub\n        /* \"demo_try4.sol\":2638:2695  require(music.tokenId != 0, \"Music Token does not exist\") */\n      tag_147\n      jumpi\n      mload(0x40)\n      0x08c379a000000000000000000000000000000000000000000000000000000000\n      dup2\n      mstore\n      0x04\n      add\n      tag_148\n      swap1\n      tag_56\n      jump\t// in\n    tag_148:\n      mload(0x40)\n      dup1\n      swap2\n      sub\n      swap1\n      revert\n    tag_147:\n        /* \"demo_try4.sol\":2702:2733  uint256[] storage likedTokenIds */\n      0x00\n        /* \"demo_try4.sol\":2736:2746  likedMusic */\n      0x02\n        /* \"demo_try4.sol\":2736:2758  likedMusic[msg.sender] */\n      0x00\n        /* \"demo_try4.sol\":2747:2757  msg.sender */\n      caller\n        /* \"demo_try4.sol\":2736:2758  likedMusic[msg.sender] */\n      0xffffffffffffffffffffffffffffffffffffffff\n      and\n      0xffffffffffffffffffffffffffffffffffffffff\n      and\n      dup2\n      mstore\n      0x20\n      add\n      swap1\n      dup2\n      mstore\n      0x20\n      add\n      0x00\n      keccak256\n        /* \"demo_try4.sol\":2702:2758  uint256[] storage likedTokenIds = likedMusic[msg.sender] */\n      swap1\n      pop\n        /* \"demo_try4.sol\":2770:2779  uint256 i */\n      0x00\n        /* \"demo_try4.sol\":2765:2897  for (uint256 i = 0; i < likedTokenIds.length; i++) {... */\n    tag_149:\n        /* \"demo_try4.sol\":2789:2802  likedTokenIds */\n      dup2\n        /* \"demo_try4.sol\":2789:2809  likedTokenIds.length */\n      dup1\n      sload\n      swap1\n      pop\n        /* \"demo_try4.sol\":2785:2786  i */\n      dup2\n        /* \"demo_try4.sol\":2785:2809  i < likedTokenIds.length */\n      lt\n        /* \"demo_try4.sol\":2765:2897  for (uint256 i = 0; i < likedTokenIds.length; i++) {... */\n      iszero\n      tag_150\n      jumpi\n        /* \"demo_try4.sol\":2855:2862  tokenId */\n      dup4\n        /* \"demo_try4.sol\":2835:2848  likedTokenIds */\n      dup3\n        /* \"demo_try4.sol\":2849:2850  i */\n      dup3\n        /* \"demo_try4.sol\":2835:2851  likedTokenIds[i] */\n      dup2\n      sload\n      dup2\n      lt\n      tag_152\n      jumpi\n      tag_153\n      tag_104\n      jump\t// in\n    tag_153:\n    tag_152:\n      swap1\n      0x00\n      mstore\n      keccak256(0x00, 0x20)\n      add\n      sload\n        /* \"demo_try4.sol\":2835:2862  likedTokenIds[i] != tokenId */\n      sub\n        /* \"demo_try4.sol\":2827:2889  require(likedTokenIds[i] != tokenId, \"Music is already liked\") */\n      tag_155\n      jumpi\n      mload(0x40)\n      0x08c379a000000000000000000000000000000000000000000000000000000000\n      dup2\n      mstore\n      0x04\n      add\n      tag_156\n      swap1\n      tag_157\n      jump\t// in\n    tag_156:\n      mload(0x40)\n      dup1\n      swap2\n      sub\n      swap1\n      revert\n    tag_155:\n        /* \"demo_try4.sol\":2811:2814  i++ */\n      dup1\n      dup1\n      0x01\n      add\n      swap2\n      pop\n      pop\n        /* \"demo_try4.sol\":2765:2897  for (uint256 i = 0; i < likedTokenIds.length; i++) {... */\n      jump(tag_149)\n    tag_150:\n      pop\n        /* \"demo_try4.sol\":2907:2912  music */\n      dup2\n        /* \"demo_try4.sol\":2907:2918  music.likes */\n      0x04\n      add\n      0x00\n        /* \"demo_try4.sol\":2907:2920  music.likes++ */\n      dup2\n      sload\n      dup1\n      swap3\n      swap2\n      swap1\n      tag_158\n      swap1\n      tag_74\n      jump\t// in\n    tag_158:\n      swap2\n      swap1\n      pop\n      sstore\n      pop\n        /* \"demo_try4.sol\":2931:2941  totalLikes */\n      0x03\n        /* \"demo_try4.sol\":2931:2950  totalLikes[tokenId] */\n      0x00\n        /* \"demo_try4.sol\":2942:2949  tokenId */\n      dup5\n        /* \"demo_try4.sol\":2931:2950  totalLikes[tokenId] */\n      dup2\n      mstore\n      0x20\n      add\n      swap1\n      dup2\n      mstore\n      0x20\n      add\n      0x00\n      keccak256\n      0x00\n        /* \"demo_try4.sol\":2931:2952  totalLikes[tokenId]++ */\n      dup2\n      sload\n      dup1\n      swap3\n      swap2\n      swap1\n      tag_159\n      swap1\n      tag_74\n      jump\t// in\n    tag_159:\n      swap2\n      swap1\n      pop\n      sstore\n      pop\n        /* \"demo_try4.sol\":3002:3003  0 */\n      0x00\n        /* \"demo_try4.sol\":2969:2979  likedMusic */\n      0x02\n        /* \"demo_try4.sol\":2969:2991  likedMusic[msg.sender] */\n      0x00\n        /* \"demo_try4.sol\":2980:2990  msg.sender */\n      caller\n        /* \"demo_try4.sol\":2969:2991  likedMusic[msg.sender] */\n      0xffffffffffffffffffffffffffffffffffffffff\n      and\n      0xffffffffffffffffffffffffffffffffffffffff\n      and\n      dup2\n      mstore\n      0x20\n      add\n      swap1\n      dup2\n      mstore\n      0x20\n      add\n      0x00\n      keccak256\n        /* \"demo_try4.sol\":2969:2998  likedMusic[msg.sender].length */\n      dup1\n      sload\n      swap1\n      pop\n        /* \"demo_try4.sol\":2969:3003  likedMusic[msg.sender].length == 0 */\n      sub\n        /* \"demo_try4.sol\":2965:3135  if (likedMusic[msg.sender].length == 0) {... */\n      tag_160\n      jumpi\n        /* \"demo_try4.sol\":3020:3054  likedMusic[msg.sender] = [tokenId] */\n      mload(0x40)\n      dup1\n      0x20\n      add\n      0x40\n      mstore\n      dup1\n        /* \"demo_try4.sol\":3046:3053  tokenId */\n      dup5\n        /* \"demo_try4.sol\":3020:3054  likedMusic[msg.sender] = [tokenId] */\n      dup2\n      mstore\n      pop\n        /* \"demo_try4.sol\":3020:3030  likedMusic */\n      0x02\n        /* \"demo_try4.sol\":3020:3042  likedMusic[msg.sender] */\n      0x00\n        /* \"demo_try4.sol\":3031:3041  msg.sender */\n      caller\n        /* \"demo_try4.sol\":3020:3042  likedMusic[msg.sender] */\n      0xffffffffffffffffffffffffffffffffffffffff\n      and\n      0xffffffffffffffffffffffffffffffffffffffff\n      and\n      dup2\n      mstore\n      0x20\n      add\n      swap1\n      dup2\n      mstore\n      0x20\n      add\n      0x00\n      keccak256\n        /* \"demo_try4.sol\":3020:3054  likedMusic[msg.sender] = [tokenId] */\n      swap1\n      0x01\n      tag_161\n      swap3\n      swap2\n      swap1\n      tag_162\n      jump\t// in\n    tag_161:\n      pop\n        /* \"demo_try4.sol\":2965:3135  if (likedMusic[msg.sender].length == 0) {... */\n      jump(tag_163)\n    tag_160:\n        /* \"demo_try4.sol\":3087:3097  likedMusic */\n      0x02\n        /* \"demo_try4.sol\":3087:3109  likedMusic[msg.sender] */\n      0x00\n        /* \"demo_try4.sol\":3098:3108  msg.sender */\n      caller\n        /* \"demo_try4.sol\":3087:3109  likedMusic[msg.sender] */\n      0xffffffffffffffffffffffffffffffffffffffff\n      and\n      0xffffffffffffffffffffffffffffffffffffffff\n      and\n      dup2\n      mstore\n      0x20\n      add\n      swap1\n      dup2\n      mstore\n      0x20\n      add\n      0x00\n      keccak256\n        /* \"demo_try4.sol\":3115:3122  tokenId */\n      dup4\n        /* \"demo_try4.sol\":3087:3123  likedMusic[msg.sender].push(tokenId) */\n      swap1\n      dup1\n      0x01\n      dup2\n      sload\n      add\n      dup1\n      dup3\n      sstore\n      dup1\n      swap2\n      pop\n      pop\n      0x01\n      swap1\n      sub\n      swap1\n      0x00\n      mstore\n      keccak256(0x00, 0x20)\n      add\n      0x00\n      swap1\n      swap2\n      swap1\n      swap2\n      swap1\n      swap2\n      pop\n      sstore\n        /* \"demo_try4.sol\":2965:3135  if (likedMusic[msg.sender].length == 0) {... */\n    tag_163:\n        /* \"demo_try4.sol\":3172:3182  msg.sender */\n      caller\n        /* \"demo_try4.sol\":3152:3183  MusicLiked(tokenId, msg.sender) */\n      0xffffffffffffffffffffffffffffffffffffffff\n      and\n        /* \"demo_try4.sol\":3163:3170  tokenId */\n      dup4\n        /* \"demo_try4.sol\":3152:3183  MusicLiked(tokenId, msg.sender) */\n      0x201735a6ff64e1da0dc3df2d17ecf024f61008ee5d86da74e1596dc140b4a74f\n      mload(0x40)\n      mload(0x40)\n      dup1\n      swap2\n      sub\n      swap1\n      log3\n        /* \"demo_try4.sol\":2569:3191  {... */\n      pop\n      pop\n        /* \"demo_try4.sol\":2524:3191  function likeMusic(uint256 tokenId) external {... */\n      pop\n      jump\t// out\n        /* \"demo_try4.sol\":4654:5589  function unlikeMusic(uint256 tokenId) external {... */\n    tag_43:\n        /* \"demo_try4.sol\":4712:4736  MusicToken storage music */\n      0x00\n        /* \"demo_try4.sol\":4739:4750  musicTokens */\n      dup1\n        /* \"demo_try4.sol\":4739:4759  musicTokens[tokenId] */\n      0x00\n        /* \"demo_try4.sol\":4751:4758  tokenId */\n      dup4\n        /* \"demo_try4.sol\":4739:4759  musicTokens[tokenId] */\n      dup2\n      mstore\n      0x20\n      add\n      swap1\n      dup2\n      mstore\n      0x20\n      add\n      0x00\n      keccak256\n        /* \"demo_try4.sol\":4712:4759  MusicToken storage music = musicTokens[tokenId] */\n      swap1\n      pop\n        /* \"demo_try4.sol\":4795:4796  0 */\n      0x00\n        /* \"demo_try4.sol\":4778:4783  music */\n      dup2\n        /* \"demo_try4.sol\":4778:4791  music.tokenId */\n      0x00\n      add\n      sload\n        /* \"demo_try4.sol\":4778:4796  music.tokenId != 0 */\n      sub\n        /* \"demo_try4.sol\":4770:4827  require(music.tokenId != 0, \"Music Token does not exist\") */\n      tag_166\n      jumpi\n      mload(0x40)\n      0x08c379a000000000000000000000000000000000000000000000000000000000\n      dup2\n      mstore\n      0x04\n      add\n      tag_167\n      swap1\n      tag_56\n      jump\t// in\n    tag_167:\n      mload(0x40)\n      dup1\n      swap2\n      sub\n      swap1\n      revert\n    tag_166:\n        /* \"demo_try4.sol\":4893:4924  uint256[] storage likedTokenIds */\n      0x00\n        /* \"demo_try4.sol\":4927:4937  likedMusic */\n      0x02\n        /* \"demo_try4.sol\":4927:4949  likedMusic[msg.sender] */\n      0x00\n        /* \"demo_try4.sol\":4938:4948  msg.sender */\n      caller\n        /* \"demo_try4.sol\":4927:4949  likedMusic[msg.sender] */\n      0xffffffffffffffffffffffffffffffffffffffff\n      and\n      0xffffffffffffffffffffffffffffffffffffffff\n      and\n      dup2\n      mstore\n      0x20\n      add\n      swap1\n      dup2\n      mstore\n      0x20\n      add\n      0x00\n      keccak256\n        /* \"demo_try4.sol\":4893:4949  uint256[] storage likedTokenIds = likedMusic[msg.sender] */\n      swap1\n      pop\n        /* \"demo_try4.sol\":4960:4972  bool isLiked */\n      0x00\n        /* \"demo_try4.sol\":4991:5012  uint256 indexToRemove */\n      dup1\n        /* \"demo_try4.sol\":5028:5037  uint256 i */\n      dup1\n        /* \"demo_try4.sol\":5040:5041  0 */\n      0x00\n        /* \"demo_try4.sol\":5028:5041  uint256 i = 0 */\n      swap1\n      pop\n        /* \"demo_try4.sol\":5023:5242  for (uint256 i = 0; i < likedTokenIds.length; i++) {... */\n    tag_168:\n        /* \"demo_try4.sol\":5047:5060  likedTokenIds */\n      dup4\n        /* \"demo_try4.sol\":5047:5067  likedTokenIds.length */\n      dup1\n      sload\n      swap1\n      pop\n        /* \"demo_try4.sol\":5043:5044  i */\n      dup2\n        /* \"demo_try4.sol\":5043:5067  i < likedTokenIds.length */\n      lt\n        /* \"demo_try4.sol\":5023:5242  for (uint256 i = 0; i < likedTokenIds.length; i++) {... */\n      iszero\n      tag_169\n      jumpi\n        /* \"demo_try4.sol\":5113:5120  tokenId */\n      dup6\n        /* \"demo_try4.sol\":5093:5106  likedTokenIds */\n      dup5\n        /* \"demo_try4.sol\":5107:5108  i */\n      dup3\n        /* \"demo_try4.sol\":5093:5109  likedTokenIds[i] */\n      dup2\n      sload\n      dup2\n      lt\n      tag_171\n      jumpi\n      tag_172\n      tag_104\n      jump\t// in\n    tag_172:\n    tag_171:\n      swap1\n      0x00\n      mstore\n      keccak256(0x00, 0x20)\n      add\n      sload\n        /* \"demo_try4.sol\":5093:5120  likedTokenIds[i] == tokenId */\n      sub\n        /* \"demo_try4.sol\":5089:5231  if (likedTokenIds[i] == tokenId) {... */\n      tag_174\n      jumpi\n        /* \"demo_try4.sol\":5151:5155  true */\n      0x01\n        /* \"demo_try4.sol\":5141:5155  isLiked = true */\n      swap3\n      pop\n        /* \"demo_try4.sol\":5190:5191  i */\n      dup1\n        /* \"demo_try4.sol\":5174:5191  indexToRemove = i */\n      swap2\n      pop\n        /* \"demo_try4.sol\":5210:5215  break */\n      jump(tag_169)\n        /* \"demo_try4.sol\":5089:5231  if (likedTokenIds[i] == tokenId) {... */\n    tag_174:\n        /* \"demo_try4.sol\":5069:5072  i++ */\n      dup1\n      dup1\n      0x01\n      add\n      swap2\n      pop\n      pop\n        /* \"demo_try4.sol\":5023:5242  for (uint256 i = 0; i < likedTokenIds.length; i++) {... */\n      jump(tag_168)\n    tag_169:\n      pop\n        /* \"demo_try4.sol\":5260:5267  isLiked */\n      dup2\n        /* \"demo_try4.sol\":5252:5290  require(isLiked, \"Music is not liked\") */\n      tag_175\n      jumpi\n      mload(0x40)\n      0x08c379a000000000000000000000000000000000000000000000000000000000\n      dup2\n      mstore\n      0x04\n      add\n      tag_176\n      swap1\n      tag_177\n      jump\t// in\n    tag_176:\n      mload(0x40)\n      dup1\n      swap2\n      sub\n      swap1\n      revert\n    tag_175:\n        /* \"demo_try4.sol\":5301:5306  music */\n      dup4\n        /* \"demo_try4.sol\":5301:5312  music.likes */\n      0x04\n      add\n      0x00\n        /* \"demo_try4.sol\":5301:5314  music.likes-- */\n      dup2\n      sload\n      dup1\n      swap3\n      swap2\n      swap1\n      tag_178\n      swap1\n      tag_179\n      jump\t// in\n    tag_178:\n      swap2\n      swap1\n      pop\n      sstore\n      pop\n        /* \"demo_try4.sol\":5325:5335  totalLikes */\n      0x03\n        /* \"demo_try4.sol\":5325:5344  totalLikes[tokenId] */\n      0x00\n        /* \"demo_try4.sol\":5336:5343  tokenId */\n      dup7\n        /* \"demo_try4.sol\":5325:5344  totalLikes[tokenId] */\n      dup2\n      mstore\n      0x20\n      add\n      swap1\n      dup2\n      mstore\n      0x20\n      add\n      0x00\n      keccak256\n      0x00\n        /* \"demo_try4.sol\":5325:5346  totalLikes[tokenId]-- */\n      dup2\n      sload\n      dup1\n      swap3\n      swap2\n      swap1\n      tag_180\n      swap1\n      tag_179\n      jump\t// in\n    tag_180:\n      swap2\n      swap1\n      pop\n      sstore\n      pop\n        /* \"demo_try4.sol\":5403:5404  1 */\n      0x01\n        /* \"demo_try4.sol\":5380:5393  likedTokenIds */\n      dup4\n        /* \"demo_try4.sol\":5380:5400  likedTokenIds.length */\n      dup1\n      sload\n      swap1\n      pop\n        /* \"demo_try4.sol\":5380:5404  likedTokenIds.length - 1 */\n      tag_181\n      swap2\n      swap1\n      tag_108\n      jump\t// in\n    tag_181:\n        /* \"demo_try4.sol\":5363:5376  indexToRemove */\n      dup2\n        /* \"demo_try4.sol\":5363:5404  indexToRemove != likedTokenIds.length - 1 */\n      eq\n        /* \"demo_try4.sol\":5359:5503  if (indexToRemove != likedTokenIds.length - 1) {... */\n      tag_182\n      jumpi\n        /* \"demo_try4.sol\":5452:5465  likedTokenIds */\n      dup3\n        /* \"demo_try4.sol\":5489:5490  1 */\n      0x01\n        /* \"demo_try4.sol\":5466:5479  likedTokenIds */\n      dup5\n        /* \"demo_try4.sol\":5466:5486  likedTokenIds.length */\n      dup1\n      sload\n      swap1\n      pop\n        /* \"demo_try4.sol\":5466:5490  likedTokenIds.length - 1 */\n      tag_183\n      swap2\n      swap1\n      tag_108\n      jump\t// in\n    tag_183:\n        /* \"demo_try4.sol\":5452:5491  likedTokenIds[likedTokenIds.length - 1] */\n      dup2\n      sload\n      dup2\n      lt\n      tag_184\n      jumpi\n      tag_185\n      tag_104\n      jump\t// in\n    tag_185:\n    tag_184:\n      swap1\n      0x00\n      mstore\n      keccak256(0x00, 0x20)\n      add\n      sload\n        /* \"demo_try4.sol\":5421:5434  likedTokenIds */\n      dup4\n        /* \"demo_try4.sol\":5435:5448  indexToRemove */\n      dup3\n        /* \"demo_try4.sol\":5421:5449  likedTokenIds[indexToRemove] */\n      dup2\n      sload\n      dup2\n      lt\n      tag_187\n      jumpi\n      tag_188\n      tag_104\n      jump\t// in\n    tag_188:\n    tag_187:\n      swap1\n      0x00\n      mstore\n      keccak256(0x00, 0x20)\n      add\n        /* \"demo_try4.sol\":5421:5491  likedTokenIds[indexToRemove] = likedTokenIds[likedTokenIds.length - 1] */\n      dup2\n      swap1\n      sstore\n      pop\n        /* \"demo_try4.sol\":5359:5503  if (indexToRemove != likedTokenIds.length - 1) {... */\n    tag_182:\n        /* \"demo_try4.sol\":5513:5526  likedTokenIds */\n      dup3\n        /* \"demo_try4.sol\":5513:5532  likedTokenIds.pop() */\n      dup1\n      sload\n      dup1\n      tag_190\n      jumpi\n      tag_191\n      tag_192\n      jump\t// in\n    tag_191:\n    tag_190:\n      0x01\n      swap1\n      sub\n      dup2\n      dup2\n      swap1\n      0x00\n      mstore\n      keccak256(0x00, 0x20)\n      add\n      0x00\n      swap1\n      sstore\n      swap1\n      sstore\n        /* \"demo_try4.sol\":5570:5580  msg.sender */\n      caller\n        /* \"demo_try4.sol\":5550:5581  MusicLiked(tokenId, msg.sender) */\n      0xffffffffffffffffffffffffffffffffffffffff\n      and\n        /* \"demo_try4.sol\":5561:5568  tokenId */\n      dup6\n        /* \"demo_try4.sol\":5550:5581  MusicLiked(tokenId, msg.sender) */\n      0x201735a6ff64e1da0dc3df2d17ecf024f61008ee5d86da74e1596dc140b4a74f\n      mload(0x40)\n      mload(0x40)\n      dup1\n      swap2\n      sub\n      swap1\n      log3\n        /* \"demo_try4.sol\":4701:5589  {... */\n      pop\n      pop\n      pop\n      pop\n        /* \"demo_try4.sol\":4654:5589  function unlikeMusic(uint256 tokenId) external {... */\n      pop\n      jump\t// out\n        /* \"demo_try4.sol\":3198:3924  function getLikedMusicByUser() external view returns (MusicToken[] memory) {... */\n    tag_46:\n        /* \"demo_try4.sol\":3252:3271  MusicToken[] memory */\n      0x60\n        /* \"demo_try4.sol\":3284:3314  uint256[] memory likedTokenIds */\n      0x00\n        /* \"demo_try4.sol\":3317:3327  likedMusic */\n      0x02\n        /* \"demo_try4.sol\":3317:3339  likedMusic[msg.sender] */\n      0x00\n        /* \"demo_try4.sol\":3328:3338  msg.sender */\n      caller\n        /* \"demo_try4.sol\":3317:3339  likedMusic[msg.sender] */\n      0xffffffffffffffffffffffffffffffffffffffff\n      and\n      0xffffffffffffffffffffffffffffffffffffffff\n      and\n      dup2\n      mstore\n      0x20\n      add\n      swap1\n      dup2\n      mstore\n      0x20\n      add\n      0x00\n      keccak256\n        /* \"demo_try4.sol\":3284:3339  uint256[] memory likedTokenIds = likedMusic[msg.sender] */\n      dup1\n      sload\n      dup1\n      0x20\n      mul\n      0x20\n      add\n      mload(0x40)\n      swap1\n      dup2\n      add\n      0x40\n      mstore\n      dup1\n      swap3\n      swap2\n      swap1\n      dup2\n      dup2\n      mstore\n      0x20\n      add\n      dup3\n      dup1\n      sload\n      dup1\n      iszero\n      tag_195\n      jumpi\n      0x20\n      mul\n      dup3\n      add\n      swap2\n      swap1\n      0x00\n      mstore\n      keccak256(0x00, 0x20)\n      swap1\n    tag_196:\n      dup2\n      sload\n      dup2\n      mstore\n      0x20\n      add\n      swap1\n      0x01\n      add\n      swap1\n      dup1\n      dup4\n      gt\n      tag_196\n      jumpi\n    tag_195:\n      pop\n      pop\n      pop\n      pop\n      pop\n      swap1\n      pop\n        /* \"demo_try4.sol\":3350:3384  MusicToken[] memory userLikedMusic */\n      0x00\n        /* \"demo_try4.sol\":3404:3417  likedTokenIds */\n      dup2\n        /* \"demo_try4.sol\":3404:3424  likedTokenIds.length */\n      mload\n        /* \"demo_try4.sol\":3387:3425  new MusicToken[](likedTokenIds.length) */\n      0xffffffffffffffff\n      dup2\n      gt\n      iszero\n      tag_197\n      jumpi\n      tag_198\n      tag_77\n      jump\t// in\n    tag_198:\n    tag_197:\n      mload(0x40)\n      swap1\n      dup1\n      dup3\n      mstore\n      dup1\n      0x20\n      mul\n      0x20\n      add\n      dup3\n      add\n      0x40\n      mstore\n      dup1\n      iszero\n      tag_199\n      jumpi\n      dup2\n      0x20\n      add\n    tag_200:\n      tag_201\n      tag_81\n      jump\t// in\n    tag_201:\n      dup2\n      mstore\n      0x20\n      add\n      swap1\n      0x01\n      swap1\n      sub\n      swap1\n      dup2\n      tag_200\n      jumpi\n      swap1\n      pop\n    tag_199:\n      pop\n        /* \"demo_try4.sol\":3350:3425  MusicToken[] memory userLikedMusic = new MusicToken[](likedTokenIds.length) */\n      swap1\n      pop\n        /* \"demo_try4.sol\":3443:3452  uint256 i */\n      0x00\n        /* \"demo_try4.sol\":3438:3885  for (uint256 i = 0; i < likedTokenIds.length; i++) {... */\n    tag_202:\n        /* \"demo_try4.sol\":3462:3475  likedTokenIds */\n      dup3\n        /* \"demo_try4.sol\":3462:3482  likedTokenIds.length */\n      mload\n        /* \"demo_try4.sol\":3458:3459  i */\n      dup2\n        /* \"demo_try4.sol\":3458:3482  i < likedTokenIds.length */\n      lt\n        /* \"demo_try4.sol\":3438:3885  for (uint256 i = 0; i < likedTokenIds.length; i++) {... */\n      iszero\n      tag_203\n      jumpi\n        /* \"demo_try4.sol\":3504:3528  MusicToken storage music */\n      0x00\n        /* \"demo_try4.sol\":3531:3542  musicTokens */\n      dup1\n        /* \"demo_try4.sol\":3531:3560  musicTokens[likedTokenIds[i]] */\n      0x00\n        /* \"demo_try4.sol\":3543:3556  likedTokenIds */\n      dup6\n        /* \"demo_try4.sol\":3557:3558  i */\n      dup5\n        /* \"demo_try4.sol\":3543:3559  likedTokenIds[i] */\n      dup2\n      mload\n      dup2\n      lt\n      tag_205\n      jumpi\n      tag_206\n      tag_104\n      jump\t// in\n    tag_206:\n    tag_205:\n      0x20\n      mul\n      0x20\n      add\n      add\n      mload\n        /* \"demo_try4.sol\":3531:3560  musicTokens[likedTokenIds[i]] */\n      dup2\n      mstore\n      0x20\n      add\n      swap1\n      dup2\n      mstore\n      0x20\n      add\n      0x00\n      keccak256\n        /* \"demo_try4.sol\":3504:3560  MusicToken storage music = musicTokens[likedTokenIds[i]] */\n      swap1\n      pop\n        /* \"demo_try4.sol\":3595:3873  MusicToken(... */\n      mload(0x40)\n      dup1\n      0x0100\n      add\n      0x40\n      mstore\n      dup1\n        /* \"demo_try4.sol\":3624:3629  music */\n      dup3\n        /* \"demo_try4.sol\":3624:3637  music.tokenId */\n      0x00\n      add\n      sload\n        /* \"demo_try4.sol\":3595:3873  MusicToken(... */\n      dup2\n      mstore\n      0x20\n      add\n        /* \"demo_try4.sol\":3656:3661  music */\n      dup3\n        /* \"demo_try4.sol\":3656:3667  music.owner */\n      0x01\n      add\n      0x00\n      swap1\n      sload\n      swap1\n      0x0100\n      exp\n      swap1\n      div\n      0xffffffffffffffffffffffffffffffffffffffff\n      and\n        /* \"demo_try4.sol\":3595:3873  MusicToken(... */\n      0xffffffffffffffffffffffffffffffffffffffff\n      and\n      dup2\n      mstore\n      0x20\n      add\n        /* \"demo_try4.sol\":3686:3691  music */\n      dup3\n        /* \"demo_try4.sol\":3686:3698  music.author */\n      0x02\n      add\n      0x00\n      swap1\n      sload\n      swap1\n      0x0100\n      exp\n      swap1\n      div\n      0xffffffffffffffffffffffffffffffffffffffff\n      and\n        /* \"demo_try4.sol\":3595:3873  MusicToken(... */\n      0xffffffffffffffffffffffffffffffffffffffff\n      and\n      dup2\n      mstore\n      0x20\n      add\n        /* \"demo_try4.sol\":3717:3722  music */\n      dup3\n        /* \"demo_try4.sol\":3717:3728  music.price */\n      0x03\n      add\n      sload\n        /* \"demo_try4.sol\":3595:3873  MusicToken(... */\n      dup2\n      mstore\n      0x20\n      add\n        /* \"demo_try4.sol\":3747:3752  music */\n      dup3\n        /* \"demo_try4.sol\":3747:3758  music.likes */\n      0x04\n      add\n      sload\n        /* \"demo_try4.sol\":3595:3873  MusicToken(... */\n      dup2\n      mstore\n      0x20\n      add\n        /* \"demo_try4.sol\":3777:3782  music */\n      dup3\n        /* \"demo_try4.sol\":3777:3792  music.musicName */\n      0x05\n      add\n        /* \"demo_try4.sol\":3595:3873  MusicToken(... */\n      dup1\n      sload\n      tag_207\n      swap1\n      tag_87\n      jump\t// in\n    tag_207:\n      dup1\n      0x1f\n      add\n      0x20\n      dup1\n      swap2\n      div\n      mul\n      0x20\n      add\n      mload(0x40)\n      swap1\n      dup2\n      add\n      0x40\n      mstore\n      dup1\n      swap3\n      swap2\n      swap1\n      dup2\n      dup2\n      mstore\n      0x20\n      add\n      dup3\n      dup1\n      sload\n      tag_208\n      swap1\n      tag_87\n      jump\t// in\n    tag_208:\n      dup1\n      iszero\n      tag_209\n      jumpi\n      dup1\n      0x1f\n      lt\n      tag_210\n      jumpi\n      0x0100\n      dup1\n      dup4\n      sload\n      div\n      mul\n      dup4\n      mstore\n      swap2\n      0x20\n      add\n      swap2\n      jump(tag_209)\n    tag_210:\n      dup3\n      add\n      swap2\n      swap1\n      0x00\n      mstore\n      keccak256(0x00, 0x20)\n      swap1\n    tag_211:\n      dup2\n      sload\n      dup2\n      mstore\n      swap1\n      0x01\n      add\n      swap1\n      0x20\n      add\n      dup1\n      dup4\n      gt\n      tag_211\n      jumpi\n      dup3\n      swap1\n      sub\n      0x1f\n      and\n      dup3\n      add\n      swap2\n    tag_209:\n      pop\n      pop\n      pop\n      pop\n      pop\n      dup2\n      mstore\n      0x20\n      add\n        /* \"demo_try4.sol\":3811:3816  music */\n      dup3\n        /* \"demo_try4.sol\":3811:3825  music.imageCID */\n      0x06\n      add\n        /* \"demo_try4.sol\":3595:3873  MusicToken(... */\n      dup1\n      sload\n      tag_212\n      swap1\n      tag_87\n      jump\t// in\n    tag_212:\n      dup1\n      0x1f\n      add\n      0x20\n      dup1\n      swap2\n      div\n      mul\n      0x20\n      add\n      mload(0x40)\n      swap1\n      dup2\n      add\n      0x40\n      mstore\n      dup1\n      swap3\n      swap2\n      swap1\n      dup2\n      dup2\n      mstore\n      0x20\n      add\n      dup3\n      dup1\n      sload\n      tag_213\n      swap1\n      tag_87\n      jump\t// in\n    tag_213:\n      dup1\n      iszero\n      tag_214\n      jumpi\n      dup1\n      0x1f\n      lt\n      tag_215\n      jumpi\n      0x0100\n      dup1\n      dup4\n      sload\n      div\n      mul\n      dup4\n      mstore\n      swap2\n      0x20\n      add\n      swap2\n      jump(tag_214)\n    tag_215:\n      dup3\n      add\n      swap2\n      swap1\n      0x00\n      mstore\n      keccak256(0x00, 0x20)\n      swap1\n    tag_216:\n      dup2\n      sload\n      dup2\n      mstore\n      swap1\n      0x01\n      add\n      swap1\n      0x20\n      add\n      dup1\n      dup4\n      gt\n      tag_216\n      jumpi\n      dup3\n      swap1\n      sub\n      0x1f\n      and\n      dup3\n      add\n      swap2\n    tag_214:\n      pop\n      pop\n      pop\n      pop\n      pop\n      dup2\n      mstore\n      0x20\n      add\n        /* \"demo_try4.sol\":3844:3849  music */\n      dup3\n        /* \"demo_try4.sol\":3844:3858  music.audioCID */\n      0x07\n      add\n        /* \"demo_try4.sol\":3595:3873  MusicToken(... */\n      dup1\n      sload\n      tag_217\n      swap1\n      tag_87\n      jump\t// in\n    tag_217:\n      dup1\n      0x1f\n      add\n      0x20\n      dup1\n      swap2\n      div\n      mul\n      0x20\n      add\n      mload(0x40)\n      swap1\n      dup2\n      add\n      0x40\n      mstore\n      dup1\n      swap3\n      swap2\n      swap1\n      dup2\n      dup2\n      mstore\n      0x20\n      add\n      dup3\n      dup1\n      sload\n      tag_218\n      swap1\n      tag_87\n      jump\t// in\n    tag_218:\n      dup1\n      iszero\n      tag_219\n      jumpi\n      dup1\n      0x1f\n      lt\n      tag_220\n      jumpi\n      0x0100\n      dup1\n      dup4\n      sload\n      div\n      mul\n      dup4\n      mstore\n      swap2\n      0x20\n      add\n      swap2\n      jump(tag_219)\n    tag_220:\n      dup3\n      add\n      swap2\n      swap1\n      0x00\n      mstore\n      keccak256(0x00, 0x20)\n      swap1\n    tag_221:\n      dup2\n      sload\n      dup2\n      mstore\n      swap1\n      0x01\n      add\n      swap1\n      0x20\n      add\n      dup1\n      dup4\n      gt\n      tag_221\n      jumpi\n      dup3\n      swap1\n      sub\n      0x1f\n      and\n      dup3\n      add\n      swap2\n    tag_219:\n      pop\n      pop\n      pop\n      pop\n      pop\n      dup2\n      mstore\n      pop\n        /* \"demo_try4.sol\":3575:3589  userLikedMusic */\n      dup4\n        /* \"demo_try4.sol\":3590:3591  i */\n      dup4\n        /* \"demo_try4.sol\":3575:3592  userLikedMusic[i] */\n      dup2\n      mload\n      dup2\n      lt\n      tag_222\n      jumpi\n      tag_223\n      tag_104\n      jump\t// in\n    tag_223:\n    tag_222:\n      0x20\n      mul\n      0x20\n      add\n      add\n        /* \"demo_try4.sol\":3575:3873  userLikedMusic[i] = MusicToken(... */\n      dup2\n      swap1\n      mstore\n      pop\n        /* \"demo_try4.sol\":3489:3885  {... */\n      pop\n        /* \"demo_try4.sol\":3484:3487  i++ */\n      dup1\n      dup1\n      0x01\n      add\n      swap2\n      pop\n      pop\n        /* \"demo_try4.sol\":3438:3885  for (uint256 i = 0; i < likedTokenIds.length; i++) {... */\n      jump(tag_202)\n    tag_203:\n      pop\n        /* \"demo_try4.sol\":3902:3916  userLikedMusic */\n      dup1\n        /* \"demo_try4.sol\":3895:3916  return userLikedMusic */\n      swap3\n      pop\n      pop\n      pop\n        /* \"demo_try4.sol\":3198:3924  function getLikedMusicByUser() external view returns (MusicToken[] memory) {... */\n      swap1\n      jump\t// out\n        /* \"demo_try4.sol\":5599:6574  function getMyBoughtMusics() external view returns (MusicToken[] memory) {... */\n    tag_50:\n        /* \"demo_try4.sol\":5651:5670  MusicToken[] memory */\n      0x60\n        /* \"demo_try4.sol\":5679:5692  uint256 count */\n      0x00\n        /* \"demo_try4.sol\":5710:5719  uint256 i */\n      dup1\n        /* \"demo_try4.sol\":5722:5723  1 */\n      0x01\n        /* \"demo_try4.sol\":5710:5723  uint256 i = 1 */\n      swap1\n      pop\n        /* \"demo_try4.sol\":5705:5878  for (uint256 i = 1; i < nextTokenId; i++) {... */\n    tag_225:\n        /* \"demo_try4.sol\":5729:5740  nextTokenId */\n      sload(0x01)\n        /* \"demo_try4.sol\":5725:5726  i */\n      dup2\n        /* \"demo_try4.sol\":5725:5740  i < nextTokenId */\n      lt\n        /* \"demo_try4.sol\":5705:5878  for (uint256 i = 1; i < nextTokenId; i++) {... */\n      iszero\n      tag_226\n      jumpi\n        /* \"demo_try4.sol\":5786:5796  msg.sender */\n      caller\n        /* \"demo_try4.sol\":5762:5796  musicTokens[i].owner == msg.sender */\n      0xffffffffffffffffffffffffffffffffffffffff\n      and\n        /* \"demo_try4.sol\":5762:5773  musicTokens */\n      0x00\n        /* \"demo_try4.sol\":5762:5776  musicTokens[i] */\n      dup1\n        /* \"demo_try4.sol\":5774:5775  i */\n      dup4\n        /* \"demo_try4.sol\":5762:5776  musicTokens[i] */\n      dup2\n      mstore\n      0x20\n      add\n      swap1\n      dup2\n      mstore\n      0x20\n      add\n      0x00\n      keccak256\n        /* \"demo_try4.sol\":5762:5782  musicTokens[i].owner */\n      0x01\n      add\n      0x00\n      swap1\n      sload\n      swap1\n      0x0100\n      exp\n      swap1\n      div\n      0xffffffffffffffffffffffffffffffffffffffff\n      and\n        /* \"demo_try4.sol\":5762:5796  musicTokens[i].owner == msg.sender */\n      0xffffffffffffffffffffffffffffffffffffffff\n      and\n      eq\n        /* \"demo_try4.sol\":5762:5835  musicTokens[i].owner == msg.sender && musicTokens[i].author != msg.sender */\n      dup1\n      iszero\n      tag_228\n      jumpi\n      pop\n        /* \"demo_try4.sol\":5825:5835  msg.sender */\n      caller\n        /* \"demo_try4.sol\":5800:5835  musicTokens[i].author != msg.sender */\n      0xffffffffffffffffffffffffffffffffffffffff\n      and\n        /* \"demo_try4.sol\":5800:5811  musicTokens */\n      0x00\n        /* \"demo_try4.sol\":5800:5814  musicTokens[i] */\n      dup1\n        /* \"demo_try4.sol\":5812:5813  i */\n      dup4\n        /* \"demo_try4.sol\":5800:5814  musicTokens[i] */\n      dup2\n      mstore\n      0x20\n      add\n      swap1\n      dup2\n      mstore\n      0x20\n      add\n      0x00\n      keccak256\n        /* \"demo_try4.sol\":5800:5821  musicTokens[i].author */\n      0x02\n      add\n      0x00\n      swap1\n      sload\n      swap1\n      0x0100\n      exp\n      swap1\n      div\n      0xffffffffffffffffffffffffffffffffffffffff\n      and\n        /* \"demo_try4.sol\":5800:5835  musicTokens[i].author != msg.sender */\n      0xffffffffffffffffffffffffffffffffffffffff\n      and\n      eq\n      iszero\n        /* \"demo_try4.sol\":5762:5835  musicTokens[i].owner == msg.sender && musicTokens[i].author != msg.sender */\n    tag_228:\n        /* \"demo_try4.sol\":5758:5871  if (musicTokens[i].owner == msg.sender && musicTokens[i].author != msg.sender) {... */\n      iszero\n      tag_229\n      jumpi\n        /* \"demo_try4.sol\":5852:5859  count++ */\n      dup2\n      dup1\n      tag_230\n      swap1\n      tag_74\n      jump\t// in\n    tag_230:\n      swap3\n      pop\n      pop\n        /* \"demo_try4.sol\":5758:5871  if (musicTokens[i].owner == msg.sender && musicTokens[i].author != msg.sender) {... */\n    tag_229:\n        /* \"demo_try4.sol\":5742:5745  i++ */\n      dup1\n      dup1\n      0x01\n      add\n      swap2\n      pop\n      pop\n        /* \"demo_try4.sol\":5705:5878  for (uint256 i = 1; i < nextTokenId; i++) {... */\n      jump(tag_225)\n    tag_226:\n      pop\n        /* \"demo_try4.sol\":5886:5920  MusicToken[] memory myBoughtMusics */\n      0x00\n        /* \"demo_try4.sol\":5940:5945  count */\n      dup2\n        /* \"demo_try4.sol\":5923:5946  new MusicToken[](count) */\n      0xffffffffffffffff\n      dup2\n      gt\n      iszero\n      tag_231\n      jumpi\n      tag_232\n      tag_77\n      jump\t// in\n    tag_232:\n    tag_231:\n      mload(0x40)\n      swap1\n      dup1\n      dup3\n      mstore\n      dup1\n      0x20\n      mul\n      0x20\n      add\n      dup3\n      add\n      0x40\n      mstore\n      dup1\n      iszero\n      tag_233\n      jumpi\n      dup2\n      0x20\n      add\n    tag_234:\n      tag_235\n      tag_81\n      jump\t// in\n    tag_235:\n      dup2\n      mstore\n      0x20\n      add\n      swap1\n      0x01\n      swap1\n      sub\n      swap1\n      dup2\n      tag_234\n      jumpi\n      swap1\n      pop\n    tag_233:\n      pop\n        /* \"demo_try4.sol\":5886:5946  MusicToken[] memory myBoughtMusics = new MusicToken[](count) */\n      swap1\n      pop\n        /* \"demo_try4.sol\":5953:5966  uint256 index */\n      0x00\n        /* \"demo_try4.sol\":5984:5993  uint256 i */\n      dup1\n        /* \"demo_try4.sol\":5996:5997  1 */\n      0x01\n        /* \"demo_try4.sol\":5984:5997  uint256 i = 1 */\n      swap1\n      pop\n        /* \"demo_try4.sol\":5979:6541  for (uint256 i = 1; i < nextTokenId; i++) {... */\n    tag_236:\n        /* \"demo_try4.sol\":6003:6014  nextTokenId */\n      sload(0x01)\n        /* \"demo_try4.sol\":5999:6000  i */\n      dup2\n        /* \"demo_try4.sol\":5999:6014  i < nextTokenId */\n      lt\n        /* \"demo_try4.sol\":5979:6541  for (uint256 i = 1; i < nextTokenId; i++) {... */\n      iszero\n      tag_237\n      jumpi\n        /* \"demo_try4.sol\":6060:6070  msg.sender */\n      caller\n        /* \"demo_try4.sol\":6036:6070  musicTokens[i].owner == msg.sender */\n      0xffffffffffffffffffffffffffffffffffffffff\n      and\n        /* \"demo_try4.sol\":6036:6047  musicTokens */\n      0x00\n        /* \"demo_try4.sol\":6036:6050  musicTokens[i] */\n      dup1\n        /* \"demo_try4.sol\":6048:6049  i */\n      dup4\n        /* \"demo_try4.sol\":6036:6050  musicTokens[i] */\n      dup2\n      mstore\n      0x20\n      add\n      swap1\n      dup2\n      mstore\n      0x20\n      add\n      0x00\n      keccak256\n        /* \"demo_try4.sol\":6036:6056  musicTokens[i].owner */\n      0x01\n      add\n      0x00\n      swap1\n      sload\n      swap1\n      0x0100\n      exp\n      swap1\n      div\n      0xffffffffffffffffffffffffffffffffffffffff\n      and\n        /* \"demo_try4.sol\":6036:6070  musicTokens[i].owner == msg.sender */\n      0xffffffffffffffffffffffffffffffffffffffff\n      and\n      eq\n        /* \"demo_try4.sol\":6036:6109  musicTokens[i].owner == msg.sender && musicTokens[i].author != msg.sender */\n      dup1\n      iszero\n      tag_239\n      jumpi\n      pop\n        /* \"demo_try4.sol\":6099:6109  msg.sender */\n      caller\n        /* \"demo_try4.sol\":6074:6109  musicTokens[i].author != msg.sender */\n      0xffffffffffffffffffffffffffffffffffffffff\n      and\n        /* \"demo_try4.sol\":6074:6085  musicTokens */\n      0x00\n        /* \"demo_try4.sol\":6074:6088  musicTokens[i] */\n      dup1\n        /* \"demo_try4.sol\":6086:6087  i */\n      dup4\n        /* \"demo_try4.sol\":6074:6088  musicTokens[i] */\n      dup2\n      mstore\n      0x20\n      add\n      swap1\n      dup2\n      mstore\n      0x20\n      add\n      0x00\n      keccak256\n        /* \"demo_try4.sol\":6074:6095  musicTokens[i].author */\n      0x02\n      add\n      0x00\n      swap1\n      sload\n      swap1\n      0x0100\n      exp\n      swap1\n      div\n      0xffffffffffffffffffffffffffffffffffffffff\n      and\n        /* \"demo_try4.sol\":6074:6109  musicTokens[i].author != msg.sender */\n      0xffffffffffffffffffffffffffffffffffffffff\n      and\n      eq\n      iszero\n        /* \"demo_try4.sol\":6036:6109  musicTokens[i].owner == msg.sender && musicTokens[i].author != msg.sender */\n    tag_239:\n        /* \"demo_try4.sol\":6032:6534  if (musicTokens[i].owner == msg.sender && musicTokens[i].author != msg.sender) {... */\n      iszero\n      tag_240\n      jumpi\n        /* \"demo_try4.sol\":6150:6500  MusicToken(... */\n      mload(0x40)\n      dup1\n      0x0100\n      add\n      0x40\n      mstore\n      dup1\n        /* \"demo_try4.sol\":6179:6190  musicTokens */\n      0x00\n        /* \"demo_try4.sol\":6179:6193  musicTokens[i] */\n      dup1\n        /* \"demo_try4.sol\":6191:6192  i */\n      dup5\n        /* \"demo_try4.sol\":6179:6193  musicTokens[i] */\n      dup2\n      mstore\n      0x20\n      add\n      swap1\n      dup2\n      mstore\n      0x20\n      add\n      0x00\n      keccak256\n        /* \"demo_try4.sol\":6179:6201  musicTokens[i].tokenId */\n      0x00\n      add\n      sload\n        /* \"demo_try4.sol\":6150:6500  MusicToken(... */\n      dup2\n      mstore\n      0x20\n      add\n        /* \"demo_try4.sol\":6220:6231  musicTokens */\n      0x00\n        /* \"demo_try4.sol\":6220:6234  musicTokens[i] */\n      dup1\n        /* \"demo_try4.sol\":6232:6233  i */\n      dup5\n        /* \"demo_try4.sol\":6220:6234  musicTokens[i] */\n      dup2\n      mstore\n      0x20\n      add\n      swap1\n      dup2\n      mstore\n      0x20\n      add\n      0x00\n      keccak256\n        /* \"demo_try4.sol\":6220:6240  musicTokens[i].owner */\n      0x01\n      add\n      0x00\n      swap1\n      sload\n      swap1\n      0x0100\n      exp\n      swap1\n      div\n      0xffffffffffffffffffffffffffffffffffffffff\n      and\n        /* \"demo_try4.sol\":6150:6500  MusicToken(... */\n      0xffffffffffffffffffffffffffffffffffffffff\n      and\n      dup2\n      mstore\n      0x20\n      add\n        /* \"demo_try4.sol\":6259:6270  musicTokens */\n      0x00\n        /* \"demo_try4.sol\":6259:6273  musicTokens[i] */\n      dup1\n        /* \"demo_try4.sol\":6271:6272  i */\n      dup5\n        /* \"demo_try4.sol\":6259:6273  musicTokens[i] */\n      dup2\n      mstore\n      0x20\n      add\n      swap1\n      dup2\n      mstore\n      0x20\n      add\n      0x00\n      keccak256\n        /* \"demo_try4.sol\":6259:6280  musicTokens[i].author */\n      0x02\n      add\n      0x00\n      swap1\n      sload\n      swap1\n      0x0100\n      exp\n      swap1\n      div\n      0xffffffffffffffffffffffffffffffffffffffff\n      and\n        /* \"demo_try4.sol\":6150:6500  MusicToken(... */\n      0xffffffffffffffffffffffffffffffffffffffff\n      and\n      dup2\n      mstore\n      0x20\n      add\n        /* \"demo_try4.sol\":6299:6310  musicTokens */\n      0x00\n        /* \"demo_try4.sol\":6299:6313  musicTokens[i] */\n      dup1\n        /* \"demo_try4.sol\":6311:6312  i */\n      dup5\n        /* \"demo_try4.sol\":6299:6313  musicTokens[i] */\n      dup2\n      mstore\n      0x20\n      add\n      swap1\n      dup2\n      mstore\n      0x20\n      add\n      0x00\n      keccak256\n        /* \"demo_try4.sol\":6299:6319  musicTokens[i].price */\n      0x03\n      add\n      sload\n        /* \"demo_try4.sol\":6150:6500  MusicToken(... */\n      dup2\n      mstore\n      0x20\n      add\n        /* \"demo_try4.sol\":6338:6349  musicTokens */\n      0x00\n        /* \"demo_try4.sol\":6338:6352  musicTokens[i] */\n      dup1\n        /* \"demo_try4.sol\":6350:6351  i */\n      dup5\n        /* \"demo_try4.sol\":6338:6352  musicTokens[i] */\n      dup2\n      mstore\n      0x20\n      add\n      swap1\n      dup2\n      mstore\n      0x20\n      add\n      0x00\n      keccak256\n        /* \"demo_try4.sol\":6338:6358  musicTokens[i].likes */\n      0x04\n      add\n      sload\n        /* \"demo_try4.sol\":6150:6500  MusicToken(... */\n      dup2\n      mstore\n      0x20\n      add\n        /* \"demo_try4.sol\":6377:6388  musicTokens */\n      0x00\n        /* \"demo_try4.sol\":6377:6391  musicTokens[i] */\n      dup1\n        /* \"demo_try4.sol\":6389:6390  i */\n      dup5\n        /* \"demo_try4.sol\":6377:6391  musicTokens[i] */\n      dup2\n      mstore\n      0x20\n      add\n      swap1\n      dup2\n      mstore\n      0x20\n      add\n      0x00\n      keccak256\n        /* \"demo_try4.sol\":6377:6401  musicTokens[i].musicName */\n      0x05\n      add\n        /* \"demo_try4.sol\":6150:6500  MusicToken(... */\n      dup1\n      sload\n      tag_241\n      swap1\n      tag_87\n      jump\t// in\n    tag_241:\n      dup1\n      0x1f\n      add\n      0x20\n      dup1\n      swap2\n      div\n      mul\n      0x20\n      add\n      mload(0x40)\n      swap1\n      dup2\n      add\n      0x40\n      mstore\n      dup1\n      swap3\n      swap2\n      swap1\n      dup2\n      dup2\n      mstore\n      0x20\n      add\n      dup3\n      dup1\n      sload\n      tag_242\n      swap1\n      tag_87\n      jump\t// in\n    tag_242:\n      dup1\n      iszero\n      tag_243\n      jumpi\n      dup1\n      0x1f\n      lt\n      tag_244\n      jumpi\n      0x0100\n      dup1\n      dup4\n      sload\n      div\n      mul\n      dup4\n      mstore\n      swap2\n      0x20\n      add\n      swap2\n      jump(tag_243)\n    tag_244:\n      dup3\n      add\n      swap2\n      swap1\n      0x00\n      mstore\n      keccak256(0x00, 0x20)\n      swap1\n    tag_245:\n      dup2\n      sload\n      dup2\n      mstore\n      swap1\n      0x01\n      add\n      swap1\n      0x20\n      add\n      dup1\n      dup4\n      gt\n      tag_245\n      jumpi\n      dup3\n      swap1\n      sub\n      0x1f\n      and\n      dup3\n      add\n      swap2\n    tag_243:\n      pop\n      pop\n      pop\n      pop\n      pop\n      dup2\n      mstore\n      0x20\n      add\n        /* \"demo_try4.sol\":6420:6431  musicTokens */\n      0x00\n        /* \"demo_try4.sol\":6420:6434  musicTokens[i] */\n      dup1\n        /* \"demo_try4.sol\":6432:6433  i */\n      dup5\n        /* \"demo_try4.sol\":6420:6434  musicTokens[i] */\n      dup2\n      mstore\n      0x20\n      add\n      swap1\n      dup2\n      mstore\n      0x20\n      add\n      0x00\n      keccak256\n        /* \"demo_try4.sol\":6420:6443  musicTokens[i].imageCID */\n      0x06\n      add\n        /* \"demo_try4.sol\":6150:6500  MusicToken(... */\n      dup1\n      sload\n      tag_246\n      swap1\n      tag_87\n      jump\t// in\n    tag_246:\n      dup1\n      0x1f\n      add\n      0x20\n      dup1\n      swap2\n      div\n      mul\n      0x20\n      add\n      mload(0x40)\n      swap1\n      dup2\n      add\n      0x40\n      mstore\n      dup1\n      swap3\n      swap2\n      swap1\n      dup2\n      dup2\n      mstore\n      0x20\n      add\n      dup3\n      dup1\n      sload\n      tag_247\n      swap1\n      tag_87\n      jump\t// in\n    tag_247:\n      dup1\n      iszero\n      tag_248\n      jumpi\n      dup1\n      0x1f\n      lt\n      tag_249\n      jumpi\n      0x0100\n      dup1\n      dup4\n      sload\n      div\n      mul\n      dup4\n      mstore\n      swap2\n      0x20\n      add\n      swap2\n      jump(tag_248)\n    tag_249:\n      dup3\n      add\n      swap2\n      swap1\n      0x00\n      mstore\n      keccak256(0x00, 0x20)\n      swap1\n    tag_250:\n      dup2\n      sload\n      dup2\n      mstore\n      swap1\n      0x01\n      add\n      swap1\n      0x20\n      add\n      dup1\n      dup4\n      gt\n      tag_250\n      jumpi\n      dup3\n      swap1\n      sub\n      0x1f\n      and\n      dup3\n      add\n      swap2\n    tag_248:\n      pop\n      pop\n      pop\n      pop\n      pop\n      dup2\n      mstore\n      0x20\n      add\n        /* \"demo_try4.sol\":6462:6473  musicTokens */\n      0x00\n        /* \"demo_try4.sol\":6462:6476  musicTokens[i] */\n      dup1\n        /* \"demo_try4.sol\":6474:6475  i */\n      dup5\n        /* \"demo_try4.sol\":6462:6476  musicTokens[i] */\n      dup2\n      mstore\n      0x20\n      add\n      swap1\n      dup2\n      mstore\n      0x20\n      add\n      0x00\n      keccak256\n        /* \"demo_try4.sol\":6462:6485  musicTokens[i].audioCID */\n      0x07\n      add\n        /* \"demo_try4.sol\":6150:6500  MusicToken(... */\n      dup1\n      sload\n      tag_251\n      swap1\n      tag_87\n      jump\t// in\n    tag_251:\n      dup1\n      0x1f\n      add\n      0x20\n      dup1\n      swap2\n      div\n      mul\n      0x20\n      add\n      mload(0x40)\n      swap1\n      dup2\n      add\n      0x40\n      mstore\n      dup1\n      swap3\n      swap2\n      swap1\n      dup2\n      dup2\n      mstore\n      0x20\n      add\n      dup3\n      dup1\n      sload\n      tag_252\n      swap1\n      tag_87\n      jump\t// in\n    tag_252:\n      dup1\n      iszero\n      tag_253\n      jumpi\n      dup1\n      0x1f\n      lt\n      tag_254\n      jumpi\n      0x0100\n      dup1\n      dup4\n      sload\n      div\n      mul\n      dup4\n      mstore\n      swap2\n      0x20\n      add\n      swap2\n      jump(tag_253)\n    tag_254:\n      dup3\n      add\n      swap2\n      swap1\n      0x00\n      mstore\n      keccak256(0x00, 0x20)\n      swap1\n    tag_255:\n      dup2\n      sload\n      dup2\n      mstore\n      swap1\n      0x01\n      add\n      swap1\n      0x20\n      add\n      dup1\n      dup4\n      gt\n      tag_255\n      jumpi\n      dup3\n      swap1\n      sub\n      0x1f\n      and\n      dup3\n      add\n      swap2\n    tag_253:\n      pop\n      pop\n      pop\n      pop\n      pop\n      dup2\n      mstore\n      pop\n        /* \"demo_try4.sol\":6126:6140  myBoughtMusics */\n      dup4\n        /* \"demo_try4.sol\":6141:6146  index */\n      dup4\n        /* \"demo_try4.sol\":6126:6147  myBoughtMusics[index] */\n      dup2\n      mload\n      dup2\n      lt\n      tag_256\n      jumpi\n      tag_257\n      tag_104\n      jump\t// in\n    tag_257:\n    tag_256:\n      0x20\n      mul\n      0x20\n      add\n      add\n        /* \"demo_try4.sol\":6126:6500  myBoughtMusics[index] = MusicToken(... */\n      dup2\n      swap1\n      mstore\n      pop\n        /* \"demo_try4.sol\":6515:6522  index++ */\n      dup2\n      dup1\n      tag_258\n      swap1\n      tag_74\n      jump\t// in\n    tag_258:\n      swap3\n      pop\n      pop\n        /* \"demo_try4.sol\":6032:6534  if (musicTokens[i].owner == msg.sender && musicTokens[i].author != msg.sender) {... */\n    tag_240:\n        /* \"demo_try4.sol\":6016:6019  i++ */\n      dup1\n      dup1\n      0x01\n      add\n      swap2\n      pop\n      pop\n        /* \"demo_try4.sol\":5979:6541  for (uint256 i = 1; i < nextTokenId; i++) {... */\n      jump(tag_236)\n    tag_237:\n      pop\n        /* \"demo_try4.sol\":6556:6570  myBoughtMusics */\n      dup2\n        /* \"demo_try4.sol\":6549:6570  return myBoughtMusics */\n      swap4\n      pop\n      pop\n      pop\n      pop\n        /* \"demo_try4.sol\":5599:6574  function getMyBoughtMusics() external view returns (MusicToken[] memory) {... */\n      swap1\n      jump\t// out\n    tag_81:\n      mload(0x40)\n      dup1\n      0x0100\n      add\n      0x40\n      mstore\n      dup1\n      0x00\n      dup2\n      mstore\n      0x20\n      add\n      and(0xffffffffffffffffffffffffffffffffffffffff, 0x00)\n      dup2\n      mstore\n      0x20\n      add\n      and(0xffffffffffffffffffffffffffffffffffffffff, 0x00)\n      dup2\n      mstore\n      0x20\n      add\n      0x00\n      dup2\n      mstore\n      0x20\n      add\n      0x00\n      dup2\n      mstore\n      0x20\n      add\n      0x60\n      dup2\n      mstore\n      0x20\n      add\n      0x60\n      dup2\n      mstore\n      0x20\n      add\n      0x60\n      dup2\n      mstore\n      pop\n      swap1\n      jump\t// out\n    tag_162:\n      dup3\n      dup1\n      sload\n      dup3\n      dup3\n      sstore\n      swap1\n      0x00\n      mstore\n      keccak256(0x00, 0x20)\n      swap1\n      dup2\n      add\n      swap3\n      dup3\n      iszero\n      tag_259\n      jumpi\n      swap2\n      0x20\n      mul\n      dup3\n      add\n    tag_260:\n      dup3\n      dup2\n      gt\n      iszero\n      tag_261\n      jumpi\n      dup3\n      mload\n      dup3\n      sstore\n      swap2\n      0x20\n      add\n      swap2\n      swap1\n      0x01\n      add\n      swap1\n      jump(tag_260)\n    tag_261:\n    tag_259:\n      pop\n      swap1\n      pop\n      tag_262\n      swap2\n      swap1\n      tag_263\n      jump\t// in\n    tag_262:\n      pop\n      swap1\n      jump\t// out\n    tag_263:\n    tag_264:\n      dup1\n      dup3\n      gt\n      iszero\n      tag_265\n      jumpi\n      0x00\n      dup2\n      0x00\n      swap1\n      sstore\n      pop\n      0x01\n      add\n      jump(tag_264)\n    tag_265:\n      pop\n      swap1\n      jump\t// out\n        /* \"#utility.yul\":7:82   */\n    tag_266:\n        /* \"#utility.yul\":40:46   */\n      0x00\n        /* \"#utility.yul\":73:75   */\n      0x40\n        /* \"#utility.yul\":67:76   */\n      mload\n        /* \"#utility.yul\":57:76   */\n      swap1\n      pop\n        /* \"#utility.yul\":7:82   */\n      swap1\n      jump\t// out\n        /* \"#utility.yul\":88:205   */\n    tag_267:\n        /* \"#utility.yul\":197:198   */\n      0x00\n        /* \"#utility.yul\":194:195   */\n      dup1\n        /* \"#utility.yul\":187:199   */\n      revert\n        /* \"#utility.yul\":211:328   */\n    tag_268:\n        /* \"#utility.yul\":320:321   */\n      0x00\n        /* \"#utility.yul\":317:318   */\n      dup1\n        /* \"#utility.yul\":310:322   */\n      revert\n        /* \"#utility.yul\":334:411   */\n    tag_269:\n        /* \"#utility.yul\":371:378   */\n      0x00\n        /* \"#utility.yul\":400:405   */\n      dup2\n        /* \"#utility.yul\":389:405   */\n      swap1\n      pop\n        /* \"#utility.yul\":334:411   */\n      swap2\n      swap1\n      pop\n      jump\t// out\n        /* \"#utility.yul\":417:539   */\n    tag_270:\n        /* \"#utility.yul\":490:514   */\n      tag_334\n        /* \"#utility.yul\":508:513   */\n      dup2\n        /* \"#utility.yul\":490:514   */\n      tag_269\n      jump\t// in\n    tag_334:\n        /* \"#utility.yul\":483:488   */\n      dup2\n        /* \"#utility.yul\":480:515   */\n      eq\n        /* \"#utility.yul\":470:533   */\n      tag_335\n      jumpi\n        /* \"#utility.yul\":529:530   */\n      0x00\n        /* \"#utility.yul\":526:527   */\n      dup1\n        /* \"#utility.yul\":519:531   */\n      revert\n        /* \"#utility.yul\":470:533   */\n    tag_335:\n        /* \"#utility.yul\":417:539   */\n      pop\n      jump\t// out\n        /* \"#utility.yul\":545:684   */\n    tag_271:\n        /* \"#utility.yul\":591:596   */\n      0x00\n        /* \"#utility.yul\":629:635   */\n      dup2\n        /* \"#utility.yul\":616:636   */\n      calldataload\n        /* \"#utility.yul\":607:636   */\n      swap1\n      pop\n        /* \"#utility.yul\":645:678   */\n      tag_337\n        /* \"#utility.yul\":672:677   */\n      dup2\n        /* \"#utility.yul\":645:678   */\n      tag_270\n      jump\t// in\n    tag_337:\n        /* \"#utility.yul\":545:684   */\n      swap3\n      swap2\n      pop\n      pop\n      jump\t// out\n        /* \"#utility.yul\":690:1019   */\n    tag_15:\n        /* \"#utility.yul\":749:755   */\n      0x00\n        /* \"#utility.yul\":798:800   */\n      0x20\n        /* \"#utility.yul\":786:795   */\n      dup3\n        /* \"#utility.yul\":777:784   */\n      dup5\n        /* \"#utility.yul\":773:796   */\n      sub\n        /* \"#utility.yul\":769:801   */\n      slt\n        /* \"#utility.yul\":766:885   */\n      iszero\n      tag_339\n      jumpi\n        /* \"#utility.yul\":804:883   */\n      tag_340\n      tag_267\n      jump\t// in\n    tag_340:\n        /* \"#utility.yul\":766:885   */\n    tag_339:\n        /* \"#utility.yul\":924:925   */\n      0x00\n        /* \"#utility.yul\":949:1002   */\n      tag_341\n        /* \"#utility.yul\":994:1001   */\n      dup5\n        /* \"#utility.yul\":985:991   */\n      dup3\n        /* \"#utility.yul\":974:983   */\n      dup6\n        /* \"#utility.yul\":970:992   */\n      add\n        /* \"#utility.yul\":949:1002   */\n      tag_271\n      jump\t// in\n    tag_341:\n        /* \"#utility.yul\":939:1002   */\n      swap2\n      pop\n        /* \"#utility.yul\":895:1012   */\n      pop\n        /* \"#utility.yul\":690:1019   */\n      swap3\n      swap2\n      pop\n      pop\n      jump\t// out\n        /* \"#utility.yul\":1025:1143   */\n    tag_272:\n        /* \"#utility.yul\":1112:1136   */\n      tag_343\n        /* \"#utility.yul\":1130:1135   */\n      dup2\n        /* \"#utility.yul\":1112:1136   */\n      tag_269\n      jump\t// in\n    tag_343:\n        /* \"#utility.yul\":1107:1110   */\n      dup3\n        /* \"#utility.yul\":1100:1137   */\n      mstore\n        /* \"#utility.yul\":1025:1143   */\n      pop\n      pop\n      jump\t// out\n        /* \"#utility.yul\":1149:1371   */\n    tag_18:\n        /* \"#utility.yul\":1242:1246   */\n      0x00\n        /* \"#utility.yul\":1280:1282   */\n      0x20\n        /* \"#utility.yul\":1269:1278   */\n      dup3\n        /* \"#utility.yul\":1265:1283   */\n      add\n        /* \"#utility.yul\":1257:1283   */\n      swap1\n      pop\n        /* \"#utility.yul\":1293:1364   */\n      tag_345\n        /* \"#utility.yul\":1361:1362   */\n      0x00\n        /* \"#utility.yul\":1350:1359   */\n      dup4\n        /* \"#utility.yul\":1346:1363   */\n      add\n        /* \"#utility.yul\":1337:1343   */\n      dup5\n        /* \"#utility.yul\":1293:1364   */\n      tag_272\n      jump\t// in\n    tag_345:\n        /* \"#utility.yul\":1149:1371   */\n      swap3\n      swap2\n      pop\n      pop\n      jump\t// out\n        /* \"#utility.yul\":1377:1517   */\n    tag_273:\n        /* \"#utility.yul\":1470:1476   */\n      0x00\n        /* \"#utility.yul\":1504:1509   */\n      dup2\n        /* \"#utility.yul\":1498:1510   */\n      mload\n        /* \"#utility.yul\":1488:1510   */\n      swap1\n      pop\n        /* \"#utility.yul\":1377:1517   */\n      swap2\n      swap1\n      pop\n      jump\t// out\n        /* \"#utility.yul\":1523:1733   */\n    tag_274:\n        /* \"#utility.yul\":1648:1659   */\n      0x00\n        /* \"#utility.yul\":1682:1688   */\n      dup3\n        /* \"#utility.yul\":1677:1680   */\n      dup3\n        /* \"#utility.yul\":1670:1689   */\n      mstore\n        /* \"#utility.yul\":1722:1726   */\n      0x20\n        /* \"#utility.yul\":1717:1720   */\n      dup3\n        /* \"#utility.yul\":1713:1727   */\n      add\n        /* \"#utility.yul\":1698:1727   */\n      swap1\n      pop\n        /* \"#utility.yul\":1523:1733   */\n      swap3\n      swap2\n      pop\n      pop\n      jump\t// out\n        /* \"#utility.yul\":1739:1897   */\n    tag_275:\n        /* \"#utility.yul\":1832:1836   */\n      0x00\n        /* \"#utility.yul\":1855:1858   */\n      dup2\n        /* \"#utility.yul\":1847:1858   */\n      swap1\n      pop\n        /* \"#utility.yul\":1885:1889   */\n      0x20\n        /* \"#utility.yul\":1880:1883   */\n      dup3\n        /* \"#utility.yul\":1876:1890   */\n      add\n        /* \"#utility.yul\":1868:1890   */\n      swap1\n      pop\n        /* \"#utility.yul\":1739:1897   */\n      swap2\n      swap1\n      pop\n      jump\t// out\n        /* \"#utility.yul\":1903:2011   */\n    tag_276:\n        /* \"#utility.yul\":1980:2004   */\n      tag_350\n        /* \"#utility.yul\":1998:2003   */\n      dup2\n        /* \"#utility.yul\":1980:2004   */\n      tag_269\n      jump\t// in\n    tag_350:\n        /* \"#utility.yul\":1975:1978   */\n      dup3\n        /* \"#utility.yul\":1968:2005   */\n      mstore\n        /* \"#utility.yul\":1903:2011   */\n      pop\n      pop\n      jump\t// out\n        /* \"#utility.yul\":2017:2143   */\n    tag_277:\n        /* \"#utility.yul\":2054:2061   */\n      0x00\n        /* \"#utility.yul\":2094:2136   */\n      0xffffffffffffffffffffffffffffffffffffffff\n        /* \"#utility.yul\":2087:2092   */\n      dup3\n        /* \"#utility.yul\":2083:2137   */\n      and\n        /* \"#utility.yul\":2072:2137   */\n      swap1\n      pop\n        /* \"#utility.yul\":2017:2143   */\n      swap2\n      swap1\n      pop\n      jump\t// out\n        /* \"#utility.yul\":2149:2253   */\n    tag_278:\n        /* \"#utility.yul\":2194:2201   */\n      0x00\n        /* \"#utility.yul\":2223:2247   */\n      tag_353\n        /* \"#utility.yul\":2241:2246   */\n      dup3\n        /* \"#utility.yul\":2223:2247   */\n      tag_277\n      jump\t// in\n    tag_353:\n        /* \"#utility.yul\":2212:2247   */\n      swap1\n      pop\n        /* \"#utility.yul\":2149:2253   */\n      swap2\n      swap1\n      pop\n      jump\t// out\n        /* \"#utility.yul\":2259:2391   */\n    tag_279:\n        /* \"#utility.yul\":2352:2384   */\n      tag_355\n        /* \"#utility.yul\":2378:2383   */\n      dup2\n        /* \"#utility.yul\":2352:2384   */\n      tag_278\n      jump\t// in\n    tag_355:\n        /* \"#utility.yul\":2347:2350   */\n      dup3\n        /* \"#utility.yul\":2340:2385   */\n      mstore\n        /* \"#utility.yul\":2259:2391   */\n      pop\n      pop\n      jump\t// out\n        /* \"#utility.yul\":2397:2496   */\n    tag_280:\n        /* \"#utility.yul\":2449:2455   */\n      0x00\n        /* \"#utility.yul\":2483:2488   */\n      dup2\n        /* \"#utility.yul\":2477:2489   */\n      mload\n        /* \"#utility.yul\":2467:2489   */\n      swap1\n      pop\n        /* \"#utility.yul\":2397:2496   */\n      swap2\n      swap1\n      pop\n      jump\t// out\n        /* \"#utility.yul\":2502:2661   */\n    tag_281:\n        /* \"#utility.yul\":2576:2587   */\n      0x00\n        /* \"#utility.yul\":2610:2616   */\n      dup3\n        /* \"#utility.yul\":2605:2608   */\n      dup3\n        /* \"#utility.yul\":2598:2617   */\n      mstore\n        /* \"#utility.yul\":2650:2654   */\n      0x20\n        /* \"#utility.yul\":2645:2648   */\n      dup3\n        /* \"#utility.yul\":2641:2655   */\n      add\n        /* \"#utility.yul\":2626:2655   */\n      swap1\n      pop\n        /* \"#utility.yul\":2502:2661   */\n      swap3\n      swap2\n      pop\n      pop\n      jump\t// out\n        /* \"#utility.yul\":2667:2806   */\n    tag_282:\n        /* \"#utility.yul\":2756:2762   */\n      dup3\n        /* \"#utility.yul\":2751:2754   */\n      dup2\n        /* \"#utility.yul\":2746:2749   */\n      dup4\n        /* \"#utility.yul\":2740:2763   */\n      mcopy\n        /* \"#utility.yul\":2797:2798   */\n      0x00\n        /* \"#utility.yul\":2788:2794   */\n      dup4\n        /* \"#utility.yul\":2783:2786   */\n      dup4\n        /* \"#utility.yul\":2779:2795   */\n      add\n        /* \"#utility.yul\":2772:2799   */\n      mstore\n        /* \"#utility.yul\":2667:2806   */\n      pop\n      pop\n      pop\n      jump\t// out\n        /* \"#utility.yul\":2812:2914   */\n    tag_283:\n        /* \"#utility.yul\":2853:2859   */\n      0x00\n        /* \"#utility.yul\":2904:2906   */\n      0x1f\n        /* \"#utility.yul\":2900:2907   */\n      not\n        /* \"#utility.yul\":2895:2897   */\n      0x1f\n        /* \"#utility.yul\":2888:2893   */\n      dup4\n        /* \"#utility.yul\":2884:2898   */\n      add\n        /* \"#utility.yul\":2880:2908   */\n      and\n        /* \"#utility.yul\":2870:2908   */\n      swap1\n      pop\n        /* \"#utility.yul\":2812:2914   */\n      swap2\n      swap1\n      pop\n      jump\t// out\n        /* \"#utility.yul\":2920:3277   */\n    tag_284:\n        /* \"#utility.yul\":2998:3001   */\n      0x00\n        /* \"#utility.yul\":3026:3065   */\n      tag_361\n        /* \"#utility.yul\":3059:3064   */\n      dup3\n        /* \"#utility.yul\":3026:3065   */\n      tag_280\n      jump\t// in\n    tag_361:\n        /* \"#utility.yul\":3081:3142   */\n      tag_362\n        /* \"#utility.yul\":3135:3141   */\n      dup2\n        /* \"#utility.yul\":3130:3133   */\n      dup6\n        /* \"#utility.yul\":3081:3142   */\n      tag_281\n      jump\t// in\n    tag_362:\n        /* \"#utility.yul\":3074:3142   */\n      swap4\n      pop\n        /* \"#utility.yul\":3151:3216   */\n      tag_363\n        /* \"#utility.yul\":3209:3215   */\n      dup2\n        /* \"#utility.yul\":3204:3207   */\n      dup6\n        /* \"#utility.yul\":3197:3201   */\n      0x20\n        /* \"#utility.yul\":3190:3195   */\n      dup7\n        /* \"#utility.yul\":3186:3202   */\n      add\n        /* \"#utility.yul\":3151:3216   */\n      tag_282\n      jump\t// in\n    tag_363:\n        /* \"#utility.yul\":3241:3270   */\n      tag_364\n        /* \"#utility.yul\":3263:3269   */\n      dup2\n        /* \"#utility.yul\":3241:3270   */\n      tag_283\n      jump\t// in\n    tag_364:\n        /* \"#utility.yul\":3236:3239   */\n      dup5\n        /* \"#utility.yul\":3232:3271   */\n      add\n        /* \"#utility.yul\":3225:3271   */\n      swap2\n      pop\n        /* \"#utility.yul\":3002:3277   */\n      pop\n        /* \"#utility.yul\":2920:3277   */\n      swap3\n      swap2\n      pop\n      pop\n      jump\t// out\n        /* \"#utility.yul\":3349:5188   */\n    tag_285:\n        /* \"#utility.yul\":3460:3463   */\n      0x00\n        /* \"#utility.yul\":3496:3502   */\n      0x0100\n        /* \"#utility.yul\":3491:3494   */\n      dup4\n        /* \"#utility.yul\":3487:3503   */\n      add\n        /* \"#utility.yul\":3588:3592   */\n      0x00\n        /* \"#utility.yul\":3581:3586   */\n      dup4\n        /* \"#utility.yul\":3577:3593   */\n      add\n        /* \"#utility.yul\":3571:3594   */\n      mload\n        /* \"#utility.yul\":3607:3670   */\n      tag_366\n        /* \"#utility.yul\":3664:3668   */\n      0x00\n        /* \"#utility.yul\":3659:3662   */\n      dup7\n        /* \"#utility.yul\":3655:3669   */\n      add\n        /* \"#utility.yul\":3641:3653   */\n      dup3\n        /* \"#utility.yul\":3607:3670   */\n      tag_276\n      jump\t// in\n    tag_366:\n        /* \"#utility.yul\":3513:3680   */\n      pop\n        /* \"#utility.yul\":3763:3767   */\n      0x20\n        /* \"#utility.yul\":3756:3761   */\n      dup4\n        /* \"#utility.yul\":3752:3768   */\n      add\n        /* \"#utility.yul\":3746:3769   */\n      mload\n        /* \"#utility.yul\":3782:3861   */\n      tag_367\n        /* \"#utility.yul\":3855:3859   */\n      0x20\n        /* \"#utility.yul\":3850:3853   */\n      dup7\n        /* \"#utility.yul\":3846:3860   */\n      add\n        /* \"#utility.yul\":3832:3844   */\n      dup3\n        /* \"#utility.yul\":3782:3861   */\n      tag_279\n      jump\t// in\n    tag_367:\n        /* \"#utility.yul\":3690:3871   */\n      pop\n        /* \"#utility.yul\":3955:3959   */\n      0x40\n        /* \"#utility.yul\":3948:3953   */\n      dup4\n        /* \"#utility.yul\":3944:3960   */\n      add\n        /* \"#utility.yul\":3938:3961   */\n      mload\n        /* \"#utility.yul\":3974:4053   */\n      tag_368\n        /* \"#utility.yul\":4047:4051   */\n      0x40\n        /* \"#utility.yul\":4042:4045   */\n      dup7\n        /* \"#utility.yul\":4038:4052   */\n      add\n        /* \"#utility.yul\":4024:4036   */\n      dup3\n        /* \"#utility.yul\":3974:4053   */\n      tag_279\n      jump\t// in\n    tag_368:\n        /* \"#utility.yul\":3881:4063   */\n      pop\n        /* \"#utility.yul\":4146:4150   */\n      0x60\n        /* \"#utility.yul\":4139:4144   */\n      dup4\n        /* \"#utility.yul\":4135:4151   */\n      add\n        /* \"#utility.yul\":4129:4152   */\n      mload\n        /* \"#utility.yul\":4165:4228   */\n      tag_369\n        /* \"#utility.yul\":4222:4226   */\n      0x60\n        /* \"#utility.yul\":4217:4220   */\n      dup7\n        /* \"#utility.yul\":4213:4227   */\n      add\n        /* \"#utility.yul\":4199:4211   */\n      dup3\n        /* \"#utility.yul\":4165:4228   */\n      tag_276\n      jump\t// in\n    tag_369:\n        /* \"#utility.yul\":4073:4238   */\n      pop\n        /* \"#utility.yul\":4321:4325   */\n      0x80\n        /* \"#utility.yul\":4314:4319   */\n      dup4\n        /* \"#utility.yul\":4310:4326   */\n      add\n        /* \"#utility.yul\":4304:4327   */\n      mload\n        /* \"#utility.yul\":4340:4403   */\n      tag_370\n        /* \"#utility.yul\":4397:4401   */\n      0x80\n        /* \"#utility.yul\":4392:4395   */\n      dup7\n        /* \"#utility.yul\":4388:4402   */\n      add\n        /* \"#utility.yul\":4374:4386   */\n      dup3\n        /* \"#utility.yul\":4340:4403   */\n      tag_276\n      jump\t// in\n    tag_370:\n        /* \"#utility.yul\":4248:4413   */\n      pop\n        /* \"#utility.yul\":4500:4504   */\n      0xa0\n        /* \"#utility.yul\":4493:4498   */\n      dup4\n        /* \"#utility.yul\":4489:4505   */\n      add\n        /* \"#utility.yul\":4483:4506   */\n      mload\n        /* \"#utility.yul\":4553:4556   */\n      dup5\n        /* \"#utility.yul\":4547:4551   */\n      dup3\n        /* \"#utility.yul\":4543:4557   */\n      sub\n        /* \"#utility.yul\":4536:4540   */\n      0xa0\n        /* \"#utility.yul\":4531:4534   */\n      dup7\n        /* \"#utility.yul\":4527:4541   */\n      add\n        /* \"#utility.yul\":4520:4558   */\n      mstore\n        /* \"#utility.yul\":4579:4652   */\n      tag_371\n        /* \"#utility.yul\":4647:4651   */\n      dup3\n        /* \"#utility.yul\":4633:4645   */\n      dup3\n        /* \"#utility.yul\":4579:4652   */\n      tag_284\n      jump\t// in\n    tag_371:\n        /* \"#utility.yul\":4571:4652   */\n      swap2\n      pop\n        /* \"#utility.yul\":4423:4663   */\n      pop\n        /* \"#utility.yul\":4749:4753   */\n      0xc0\n        /* \"#utility.yul\":4742:4747   */\n      dup4\n        /* \"#utility.yul\":4738:4754   */\n      add\n        /* \"#utility.yul\":4732:4755   */\n      mload\n        /* \"#utility.yul\":4802:4805   */\n      dup5\n        /* \"#utility.yul\":4796:4800   */\n      dup3\n        /* \"#utility.yul\":4792:4806   */\n      sub\n        /* \"#utility.yul\":4785:4789   */\n      0xc0\n        /* \"#utility.yul\":4780:4783   */\n      dup7\n        /* \"#utility.yul\":4776:4790   */\n      add\n        /* \"#utility.yul\":4769:4807   */\n      mstore\n        /* \"#utility.yul\":4828:4901   */\n      tag_372\n        /* \"#utility.yul\":4896:4900   */\n      dup3\n        /* \"#utility.yul\":4882:4894   */\n      dup3\n        /* \"#utility.yul\":4828:4901   */\n      tag_284\n      jump\t// in\n    tag_372:\n        /* \"#utility.yul\":4820:4901   */\n      swap2\n      pop\n        /* \"#utility.yul\":4673:4912   */\n      pop\n        /* \"#utility.yul\":4998:5002   */\n      0xe0\n        /* \"#utility.yul\":4991:4996   */\n      dup4\n        /* \"#utility.yul\":4987:5003   */\n      add\n        /* \"#utility.yul\":4981:5004   */\n      mload\n        /* \"#utility.yul\":5051:5054   */\n      dup5\n        /* \"#utility.yul\":5045:5049   */\n      dup3\n        /* \"#utility.yul\":5041:5055   */\n      sub\n        /* \"#utility.yul\":5034:5038   */\n      0xe0\n        /* \"#utility.yul\":5029:5032   */\n      dup7\n        /* \"#utility.yul\":5025:5039   */\n      add\n        /* \"#utility.yul\":5018:5056   */\n      mstore\n        /* \"#utility.yul\":5077:5150   */\n      tag_373\n        /* \"#utility.yul\":5145:5149   */\n      dup3\n        /* \"#utility.yul\":5131:5143   */\n      dup3\n        /* \"#utility.yul\":5077:5150   */\n      tag_284\n      jump\t// in\n    tag_373:\n        /* \"#utility.yul\":5069:5150   */\n      swap2\n      pop\n        /* \"#utility.yul\":4922:5161   */\n      pop\n        /* \"#utility.yul\":5178:5182   */\n      dup1\n        /* \"#utility.yul\":5171:5182   */\n      swap2\n      pop\n        /* \"#utility.yul\":3465:5188   */\n      pop\n        /* \"#utility.yul\":3349:5188   */\n      swap3\n      swap2\n      pop\n      pop\n      jump\t// out\n        /* \"#utility.yul\":5194:5454   */\n    tag_286:\n        /* \"#utility.yul\":5315:5325   */\n      0x00\n        /* \"#utility.yul\":5350:5448   */\n      tag_375\n        /* \"#utility.yul\":5444:5447   */\n      dup4\n        /* \"#utility.yul\":5436:5442   */\n      dup4\n        /* \"#utility.yul\":5350:5448   */\n      tag_285\n      jump\t// in\n    tag_375:\n        /* \"#utility.yul\":5336:5448   */\n      swap1\n      pop\n        /* \"#utility.yul\":5194:5454   */\n      swap3\n      swap2\n      pop\n      pop\n      jump\t// out\n        /* \"#utility.yul\":5460:5599   */\n    tag_287:\n        /* \"#utility.yul\":5556:5560   */\n      0x00\n        /* \"#utility.yul\":5588:5592   */\n      0x20\n        /* \"#utility.yul\":5583:5586   */\n      dup3\n        /* \"#utility.yul\":5579:5593   */\n      add\n        /* \"#utility.yul\":5571:5593   */\n      swap1\n      pop\n        /* \"#utility.yul\":5460:5599   */\n      swap2\n      swap1\n      pop\n      jump\t// out\n        /* \"#utility.yul\":5675:6794   */\n    tag_288:\n        /* \"#utility.yul\":5846:5849   */\n      0x00\n        /* \"#utility.yul\":5875:5955   */\n      tag_378\n        /* \"#utility.yul\":5949:5954   */\n      dup3\n        /* \"#utility.yul\":5875:5955   */\n      tag_273\n      jump\t// in\n    tag_378:\n        /* \"#utility.yul\":5971:6083   */\n      tag_379\n        /* \"#utility.yul\":6076:6082   */\n      dup2\n        /* \"#utility.yul\":6071:6074   */\n      dup6\n        /* \"#utility.yul\":5971:6083   */\n      tag_274\n      jump\t// in\n    tag_379:\n        /* \"#utility.yul\":5964:6083   */\n      swap4\n      pop\n        /* \"#utility.yul\":6109:6112   */\n      dup4\n        /* \"#utility.yul\":6154:6158   */\n      0x20\n        /* \"#utility.yul\":6146:6152   */\n      dup3\n        /* \"#utility.yul\":6142:6159   */\n      mul\n        /* \"#utility.yul\":6137:6140   */\n      dup6\n        /* \"#utility.yul\":6133:6160   */\n      add\n        /* \"#utility.yul\":6184:6266   */\n      tag_380\n        /* \"#utility.yul\":6260:6265   */\n      dup6\n        /* \"#utility.yul\":6184:6266   */\n      tag_275\n      jump\t// in\n    tag_380:\n        /* \"#utility.yul\":6289:6296   */\n      dup1\n        /* \"#utility.yul\":6320:6321   */\n      0x00\n        /* \"#utility.yul\":6305:6749   */\n    tag_381:\n        /* \"#utility.yul\":6330:6336   */\n      dup6\n        /* \"#utility.yul\":6327:6328   */\n      dup2\n        /* \"#utility.yul\":6324:6337   */\n      lt\n        /* \"#utility.yul\":6305:6749   */\n      iszero\n      tag_383\n      jumpi\n        /* \"#utility.yul\":6401:6410   */\n      dup5\n        /* \"#utility.yul\":6395:6399   */\n      dup5\n        /* \"#utility.yul\":6391:6411   */\n      sub\n        /* \"#utility.yul\":6386:6389   */\n      dup10\n        /* \"#utility.yul\":6379:6412   */\n      mstore\n        /* \"#utility.yul\":6452:6458   */\n      dup2\n        /* \"#utility.yul\":6446:6459   */\n      mload\n        /* \"#utility.yul\":6480:6596   */\n      tag_384\n        /* \"#utility.yul\":6591:6595   */\n      dup6\n        /* \"#utility.yul\":6576:6589   */\n      dup3\n        /* \"#utility.yul\":6480:6596   */\n      tag_286\n      jump\t// in\n    tag_384:\n        /* \"#utility.yul\":6472:6596   */\n      swap5\n      pop\n        /* \"#utility.yul\":6619:6705   */\n      tag_385\n        /* \"#utility.yul\":6698:6704   */\n      dup4\n        /* \"#utility.yul\":6619:6705   */\n      tag_287\n      jump\t// in\n    tag_385:\n        /* \"#utility.yul\":6609:6705   */\n      swap3\n      pop\n        /* \"#utility.yul\":6734:6738   */\n      0x20\n        /* \"#utility.yul\":6729:6732   */\n      dup11\n        /* \"#utility.yul\":6725:6739   */\n      add\n        /* \"#utility.yul\":6718:6739   */\n      swap10\n      pop\n        /* \"#utility.yul\":6365:6749   */\n      pop\n        /* \"#utility.yul\":6352:6353   */\n      0x01\n        /* \"#utility.yul\":6349:6350   */\n      dup2\n        /* \"#utility.yul\":6345:6354   */\n      add\n        /* \"#utility.yul\":6340:6354   */\n      swap1\n      pop\n        /* \"#utility.yul\":6305:6749   */\n      jump(tag_381)\n    tag_383:\n        /* \"#utility.yul\":6309:6323   */\n      pop\n        /* \"#utility.yul\":6765:6769   */\n      dup3\n        /* \"#utility.yul\":6758:6769   */\n      swap8\n      pop\n        /* \"#utility.yul\":6785:6788   */\n      dup8\n        /* \"#utility.yul\":6778:6788   */\n      swap6\n      pop\n        /* \"#utility.yul\":5851:6794   */\n      pop\n      pop\n      pop\n      pop\n      pop\n        /* \"#utility.yul\":5675:6794   */\n      swap3\n      swap2\n      pop\n      pop\n      jump\t// out\n        /* \"#utility.yul\":6800:7277   */\n    tag_26:\n        /* \"#utility.yul\":6995:6999   */\n      0x00\n        /* \"#utility.yul\":7033:7035   */\n      0x20\n        /* \"#utility.yul\":7022:7031   */\n      dup3\n        /* \"#utility.yul\":7018:7036   */\n      add\n        /* \"#utility.yul\":7010:7036   */\n      swap1\n      pop\n        /* \"#utility.yul\":7082:7091   */\n      dup2\n        /* \"#utility.yul\":7076:7080   */\n      dup2\n        /* \"#utility.yul\":7072:7092   */\n      sub\n        /* \"#utility.yul\":7068:7069   */\n      0x00\n        /* \"#utility.yul\":7057:7066   */\n      dup4\n        /* \"#utility.yul\":7053:7070   */\n      add\n        /* \"#utility.yul\":7046:7093   */\n      mstore\n        /* \"#utility.yul\":7110:7270   */\n      tag_387\n        /* \"#utility.yul\":7265:7269   */\n      dup2\n        /* \"#utility.yul\":7256:7262   */\n      dup5\n        /* \"#utility.yul\":7110:7270   */\n      tag_288\n      jump\t// in\n    tag_387:\n        /* \"#utility.yul\":7102:7270   */\n      swap1\n      pop\n        /* \"#utility.yul\":6800:7277   */\n      swap3\n      swap2\n      pop\n      pop\n      jump\t// out\n        /* \"#utility.yul\":7283:7400   */\n    tag_289:\n        /* \"#utility.yul\":7392:7393   */\n      0x00\n        /* \"#utility.yul\":7389:7390   */\n      dup1\n        /* \"#utility.yul\":7382:7394   */\n      revert\n        /* \"#utility.yul\":7406:7523   */\n    tag_290:\n        /* \"#utility.yul\":7515:7516   */\n      0x00\n        /* \"#utility.yul\":7512:7513   */\n      dup1\n        /* \"#utility.yul\":7505:7517   */\n      revert\n        /* \"#utility.yul\":7529:7709   */\n    tag_77:\n        /* \"#utility.yul\":7577:7654   */\n      0x4e487b7100000000000000000000000000000000000000000000000000000000\n        /* \"#utility.yul\":7574:7575   */\n      0x00\n        /* \"#utility.yul\":7567:7655   */\n      mstore\n        /* \"#utility.yul\":7674:7678   */\n      0x41\n        /* \"#utility.yul\":7671:7672   */\n      0x04\n        /* \"#utility.yul\":7664:7679   */\n      mstore\n        /* \"#utility.yul\":7698:7702   */\n      0x24\n        /* \"#utility.yul\":7695:7696   */\n      0x00\n        /* \"#utility.yul\":7688:7703   */\n      revert\n        /* \"#utility.yul\":7715:7996   */\n    tag_291:\n        /* \"#utility.yul\":7798:7825   */\n      tag_392\n        /* \"#utility.yul\":7820:7824   */\n      dup3\n        /* \"#utility.yul\":7798:7825   */\n      tag_283\n      jump\t// in\n    tag_392:\n        /* \"#utility.yul\":7790:7796   */\n      dup2\n        /* \"#utility.yul\":7786:7826   */\n      add\n        /* \"#utility.yul\":7928:7934   */\n      dup2\n        /* \"#utility.yul\":7916:7926   */\n      dup2\n        /* \"#utility.yul\":7913:7935   */\n      lt\n        /* \"#utility.yul\":7892:7910   */\n      0xffffffffffffffff\n        /* \"#utility.yul\":7880:7890   */\n      dup3\n        /* \"#utility.yul\":7877:7911   */\n      gt\n        /* \"#utility.yul\":7874:7936   */\n      or\n        /* \"#utility.yul\":7871:7959   */\n      iszero\n      tag_393\n      jumpi\n        /* \"#utility.yul\":7939:7957   */\n      tag_394\n      tag_77\n      jump\t// in\n    tag_394:\n        /* \"#utility.yul\":7871:7959   */\n    tag_393:\n        /* \"#utility.yul\":7979:7989   */\n      dup1\n        /* \"#utility.yul\":7975:7977   */\n      0x40\n        /* \"#utility.yul\":7968:7990   */\n      mstore\n        /* \"#utility.yul\":7758:7996   */\n      pop\n        /* \"#utility.yul\":7715:7996   */\n      pop\n      pop\n      jump\t// out\n        /* \"#utility.yul\":8002:8131   */\n    tag_292:\n        /* \"#utility.yul\":8036:8042   */\n      0x00\n        /* \"#utility.yul\":8063:8083   */\n      tag_396\n      tag_266\n      jump\t// in\n    tag_396:\n        /* \"#utility.yul\":8053:8083   */\n      swap1\n      pop\n        /* \"#utility.yul\":8092:8125   */\n      tag_397\n        /* \"#utility.yul\":8120:8124   */\n      dup3\n        /* \"#utility.yul\":8112:8118   */\n      dup3\n        /* \"#utility.yul\":8092:8125   */\n      tag_291\n      jump\t// in\n    tag_397:\n        /* \"#utility.yul\":8002:8131   */\n      swap2\n      swap1\n      pop\n      jump\t// out\n        /* \"#utility.yul\":8137:8445   */\n    tag_293:\n        /* \"#utility.yul\":8199:8203   */\n      0x00\n        /* \"#utility.yul\":8289:8307   */\n      0xffffffffffffffff\n        /* \"#utility.yul\":8281:8287   */\n      dup3\n        /* \"#utility.yul\":8278:8308   */\n      gt\n        /* \"#utility.yul\":8275:8331   */\n      iszero\n      tag_399\n      jumpi\n        /* \"#utility.yul\":8311:8329   */\n      tag_400\n      tag_77\n      jump\t// in\n    tag_400:\n        /* \"#utility.yul\":8275:8331   */\n    tag_399:\n        /* \"#utility.yul\":8349:8378   */\n      tag_401\n        /* \"#utility.yul\":8371:8377   */\n      dup3\n        /* \"#utility.yul\":8349:8378   */\n      tag_283\n      jump\t// in\n    tag_401:\n        /* \"#utility.yul\":8341:8378   */\n      swap1\n      pop\n        /* \"#utility.yul\":8433:8437   */\n      0x20\n        /* \"#utility.yul\":8427:8431   */\n      dup2\n        /* \"#utility.yul\":8423:8438   */\n      add\n        /* \"#utility.yul\":8415:8438   */\n      swap1\n      pop\n        /* \"#utility.yul\":8137:8445   */\n      swap2\n      swap1\n      pop\n      jump\t// out\n        /* \"#utility.yul\":8451:8599   */\n    tag_294:\n        /* \"#utility.yul\":8549:8555   */\n      dup3\n        /* \"#utility.yul\":8544:8547   */\n      dup2\n        /* \"#utility.yul\":8539:8542   */\n      dup4\n        /* \"#utility.yul\":8526:8556   */\n      calldatacopy\n        /* \"#utility.yul\":8590:8591   */\n      0x00\n        /* \"#utility.yul\":8581:8587   */\n      dup4\n        /* \"#utility.yul\":8576:8579   */\n      dup4\n        /* \"#utility.yul\":8572:8588   */\n      add\n        /* \"#utility.yul\":8565:8592   */\n      mstore\n        /* \"#utility.yul\":8451:8599   */\n      pop\n      pop\n      pop\n      jump\t// out\n        /* \"#utility.yul\":8605:9030   */\n    tag_295:\n        /* \"#utility.yul\":8683:8688   */\n      0x00\n        /* \"#utility.yul\":8708:8774   */\n      tag_404\n        /* \"#utility.yul\":8724:8773   */\n      tag_405\n        /* \"#utility.yul\":8766:8772   */\n      dup5\n        /* \"#utility.yul\":8724:8773   */\n      tag_293\n      jump\t// in\n    tag_405:\n        /* \"#utility.yul\":8708:8774   */\n      tag_292\n      jump\t// in\n    tag_404:\n        /* \"#utility.yul\":8699:8774   */\n      swap1\n      pop\n        /* \"#utility.yul\":8797:8803   */\n      dup3\n        /* \"#utility.yul\":8790:8795   */\n      dup2\n        /* \"#utility.yul\":8783:8804   */\n      mstore\n        /* \"#utility.yul\":8835:8839   */\n      0x20\n        /* \"#utility.yul\":8828:8833   */\n      dup2\n        /* \"#utility.yul\":8824:8840   */\n      add\n        /* \"#utility.yul\":8873:8876   */\n      dup5\n        /* \"#utility.yul\":8864:8870   */\n      dup5\n        /* \"#utility.yul\":8859:8862   */\n      dup5\n        /* \"#utility.yul\":8855:8871   */\n      add\n        /* \"#utility.yul\":8852:8877   */\n      gt\n        /* \"#utility.yul\":8849:8961   */\n      iszero\n      tag_406\n      jumpi\n        /* \"#utility.yul\":8880:8959   */\n      tag_407\n      tag_290\n      jump\t// in\n    tag_407:\n        /* \"#utility.yul\":8849:8961   */\n    tag_406:\n        /* \"#utility.yul\":8970:9024   */\n      tag_408\n        /* \"#utility.yul\":9017:9023   */\n      dup5\n        /* \"#utility.yul\":9012:9015   */\n      dup3\n        /* \"#utility.yul\":9007:9010   */\n      dup6\n        /* \"#utility.yul\":8970:9024   */\n      tag_294\n      jump\t// in\n    tag_408:\n        /* \"#utility.yul\":8689:9030   */\n      pop\n        /* \"#utility.yul\":8605:9030   */\n      swap4\n      swap3\n      pop\n      pop\n      pop\n      jump\t// out\n        /* \"#utility.yul\":9050:9390   */\n    tag_296:\n        /* \"#utility.yul\":9106:9111   */\n      0x00\n        /* \"#utility.yul\":9155:9158   */\n      dup3\n        /* \"#utility.yul\":9148:9152   */\n      0x1f\n        /* \"#utility.yul\":9140:9146   */\n      dup4\n        /* \"#utility.yul\":9136:9153   */\n      add\n        /* \"#utility.yul\":9132:9159   */\n      slt\n        /* \"#utility.yul\":9122:9244   */\n      tag_410\n      jumpi\n        /* \"#utility.yul\":9163:9242   */\n      tag_411\n      tag_289\n      jump\t// in\n    tag_411:\n        /* \"#utility.yul\":9122:9244   */\n    tag_410:\n        /* \"#utility.yul\":9280:9286   */\n      dup2\n        /* \"#utility.yul\":9267:9287   */\n      calldataload\n        /* \"#utility.yul\":9305:9384   */\n      tag_412\n        /* \"#utility.yul\":9380:9383   */\n      dup5\n        /* \"#utility.yul\":9372:9378   */\n      dup3\n        /* \"#utility.yul\":9365:9369   */\n      0x20\n        /* \"#utility.yul\":9357:9363   */\n      dup7\n        /* \"#utility.yul\":9353:9370   */\n      add\n        /* \"#utility.yul\":9305:9384   */\n      tag_295\n      jump\t// in\n    tag_412:\n        /* \"#utility.yul\":9296:9384   */\n      swap2\n      pop\n        /* \"#utility.yul\":9112:9390   */\n      pop\n        /* \"#utility.yul\":9050:9390   */\n      swap3\n      swap2\n      pop\n      pop\n      jump\t// out\n        /* \"#utility.yul\":9396:10701   */\n    tag_34:\n        /* \"#utility.yul\":9512:9518   */\n      0x00\n        /* \"#utility.yul\":9520:9526   */\n      dup1\n        /* \"#utility.yul\":9528:9534   */\n      0x00\n        /* \"#utility.yul\":9536:9542   */\n      dup1\n        /* \"#utility.yul\":9585:9588   */\n      0x80\n        /* \"#utility.yul\":9573:9582   */\n      dup6\n        /* \"#utility.yul\":9564:9571   */\n      dup8\n        /* \"#utility.yul\":9560:9583   */\n      sub\n        /* \"#utility.yul\":9556:9589   */\n      slt\n        /* \"#utility.yul\":9553:9673   */\n      iszero\n      tag_414\n      jumpi\n        /* \"#utility.yul\":9592:9671   */\n      tag_415\n      tag_267\n      jump\t// in\n    tag_415:\n        /* \"#utility.yul\":9553:9673   */\n    tag_414:\n        /* \"#utility.yul\":9740:9741   */\n      0x00\n        /* \"#utility.yul\":9729:9738   */\n      dup6\n        /* \"#utility.yul\":9725:9742   */\n      add\n        /* \"#utility.yul\":9712:9743   */\n      calldataload\n        /* \"#utility.yul\":9770:9788   */\n      0xffffffffffffffff\n        /* \"#utility.yul\":9762:9768   */\n      dup2\n        /* \"#utility.yul\":9759:9789   */\n      gt\n        /* \"#utility.yul\":9756:9873   */\n      iszero\n      tag_416\n      jumpi\n        /* \"#utility.yul\":9792:9871   */\n      tag_417\n      tag_268\n      jump\t// in\n    tag_417:\n        /* \"#utility.yul\":9756:9873   */\n    tag_416:\n        /* \"#utility.yul\":9897:9960   */\n      tag_418\n        /* \"#utility.yul\":9952:9959   */\n      dup8\n        /* \"#utility.yul\":9943:9949   */\n      dup3\n        /* \"#utility.yul\":9932:9941   */\n      dup9\n        /* \"#utility.yul\":9928:9950   */\n      add\n        /* \"#utility.yul\":9897:9960   */\n      tag_296\n      jump\t// in\n    tag_418:\n        /* \"#utility.yul\":9887:9960   */\n      swap5\n      pop\n        /* \"#utility.yul\":9683:9970   */\n      pop\n        /* \"#utility.yul\":10037:10039   */\n      0x20\n        /* \"#utility.yul\":10026:10035   */\n      dup6\n        /* \"#utility.yul\":10022:10040   */\n      add\n        /* \"#utility.yul\":10009:10041   */\n      calldataload\n        /* \"#utility.yul\":10068:10086   */\n      0xffffffffffffffff\n        /* \"#utility.yul\":10060:10066   */\n      dup2\n        /* \"#utility.yul\":10057:10087   */\n      gt\n        /* \"#utility.yul\":10054:10171   */\n      iszero\n      tag_419\n      jumpi\n        /* \"#utility.yul\":10090:10169   */\n      tag_420\n      tag_268\n      jump\t// in\n    tag_420:\n        /* \"#utility.yul\":10054:10171   */\n    tag_419:\n        /* \"#utility.yul\":10195:10258   */\n      tag_421\n        /* \"#utility.yul\":10250:10257   */\n      dup8\n        /* \"#utility.yul\":10241:10247   */\n      dup3\n        /* \"#utility.yul\":10230:10239   */\n      dup9\n        /* \"#utility.yul\":10226:10248   */\n      add\n        /* \"#utility.yul\":10195:10258   */\n      tag_296\n      jump\t// in\n    tag_421:\n        /* \"#utility.yul\":10185:10258   */\n      swap4\n      pop\n        /* \"#utility.yul\":9980:10268   */\n      pop\n        /* \"#utility.yul\":10335:10337   */\n      0x40\n        /* \"#utility.yul\":10324:10333   */\n      dup6\n        /* \"#utility.yul\":10320:10338   */\n      add\n        /* \"#utility.yul\":10307:10339   */\n      calldataload\n        /* \"#utility.yul\":10366:10384   */\n      0xffffffffffffffff\n        /* \"#utility.yul\":10358:10364   */\n      dup2\n        /* \"#utility.yul\":10355:10385   */\n      gt\n        /* \"#utility.yul\":10352:10469   */\n      iszero\n      tag_422\n      jumpi\n        /* \"#utility.yul\":10388:10467   */\n      tag_423\n      tag_268\n      jump\t// in\n    tag_423:\n        /* \"#utility.yul\":10352:10469   */\n    tag_422:\n        /* \"#utility.yul\":10493:10556   */\n      tag_424\n        /* \"#utility.yul\":10548:10555   */\n      dup8\n        /* \"#utility.yul\":10539:10545   */\n      dup3\n        /* \"#utility.yul\":10528:10537   */\n      dup9\n        /* \"#utility.yul\":10524:10546   */\n      add\n        /* \"#utility.yul\":10493:10556   */\n      tag_296\n      jump\t// in\n    tag_424:\n        /* \"#utility.yul\":10483:10556   */\n      swap3\n      pop\n        /* \"#utility.yul\":10278:10566   */\n      pop\n        /* \"#utility.yul\":10605:10607   */\n      0x60\n        /* \"#utility.yul\":10631:10684   */\n      tag_425\n        /* \"#utility.yul\":10676:10683   */\n      dup8\n        /* \"#utility.yul\":10667:10673   */\n      dup3\n        /* \"#utility.yul\":10656:10665   */\n      dup9\n        /* \"#utility.yul\":10652:10674   */\n      add\n        /* \"#utility.yul\":10631:10684   */\n      tag_271\n      jump\t// in\n    tag_425:\n        /* \"#utility.yul\":10621:10684   */\n      swap2\n      pop\n        /* \"#utility.yul\":10576:10694   */\n      pop\n        /* \"#utility.yul\":9396:10701   */\n      swap3\n      swap6\n      swap2\n      swap5\n      pop\n      swap3\n      pop\n      jump\t// out\n        /* \"#utility.yul\":10707:10876   */\n    tag_297:\n        /* \"#utility.yul\":10791:10802   */\n      0x00\n        /* \"#utility.yul\":10825:10831   */\n      dup3\n        /* \"#utility.yul\":10820:10823   */\n      dup3\n        /* \"#utility.yul\":10813:10832   */\n      mstore\n        /* \"#utility.yul\":10865:10869   */\n      0x20\n        /* \"#utility.yul\":10860:10863   */\n      dup3\n        /* \"#utility.yul\":10856:10870   */\n      add\n        /* \"#utility.yul\":10841:10870   */\n      swap1\n      pop\n        /* \"#utility.yul\":10707:10876   */\n      swap3\n      swap2\n      pop\n      pop\n      jump\t// out\n        /* \"#utility.yul\":10882:11058   */\n    tag_298:\n        /* \"#utility.yul\":11022:11050   */\n      0x4d7573696320546f6b656e20646f6573206e6f74206578697374000000000000\n        /* \"#utility.yul\":11018:11019   */\n      0x00\n        /* \"#utility.yul\":11010:11016   */\n      dup3\n        /* \"#utility.yul\":11006:11020   */\n      add\n        /* \"#utility.yul\":10999:11051   */\n      mstore\n        /* \"#utility.yul\":10882:11058   */\n      pop\n      jump\t// out\n        /* \"#utility.yul\":11064:11430   */\n    tag_299:\n        /* \"#utility.yul\":11206:11209   */\n      0x00\n        /* \"#utility.yul\":11227:11294   */\n      tag_429\n        /* \"#utility.yul\":11291:11293   */\n      0x1a\n        /* \"#utility.yul\":11286:11289   */\n      dup4\n        /* \"#utility.yul\":11227:11294   */\n      tag_297\n      jump\t// in\n    tag_429:\n        /* \"#utility.yul\":11220:11294   */\n      swap2\n      pop\n        /* \"#utility.yul\":11303:11396   */\n      tag_430\n        /* \"#utility.yul\":11392:11395   */\n      dup3\n        /* \"#utility.yul\":11303:11396   */\n      tag_298\n      jump\t// in\n    tag_430:\n        /* \"#utility.yul\":11421:11423   */\n      0x20\n        /* \"#utility.yul\":11416:11419   */\n      dup3\n        /* \"#utility.yul\":11412:11424   */\n      add\n        /* \"#utility.yul\":11405:11424   */\n      swap1\n      pop\n        /* \"#utility.yul\":11064:11430   */\n      swap2\n      swap1\n      pop\n      jump\t// out\n        /* \"#utility.yul\":11436:11855   */\n    tag_56:\n        /* \"#utility.yul\":11602:11606   */\n      0x00\n        /* \"#utility.yul\":11640:11642   */\n      0x20\n        /* \"#utility.yul\":11629:11638   */\n      dup3\n        /* \"#utility.yul\":11625:11643   */\n      add\n        /* \"#utility.yul\":11617:11643   */\n      swap1\n      pop\n        /* \"#utility.yul\":11689:11698   */\n      dup2\n        /* \"#utility.yul\":11683:11687   */\n      dup2\n        /* \"#utility.yul\":11679:11699   */\n      sub\n        /* \"#utility.yul\":11675:11676   */\n      0x00\n        /* \"#utility.yul\":11664:11673   */\n      dup4\n        /* \"#utility.yul\":11660:11677   */\n      add\n        /* \"#utility.yul\":11653:11700   */\n      mstore\n        /* \"#utility.yul\":11717:11848   */\n      tag_432\n        /* \"#utility.yul\":11843:11847   */\n      dup2\n        /* \"#utility.yul\":11717:11848   */\n      tag_299\n      jump\t// in\n    tag_432:\n        /* \"#utility.yul\":11709:11848   */\n      swap1\n      pop\n        /* \"#utility.yul\":11436:11855   */\n      swap2\n      swap1\n      pop\n      jump\t// out\n        /* \"#utility.yul\":11861:12040   */\n    tag_300:\n        /* \"#utility.yul\":12001:12032   */\n      0x596f752063616e6e6f742062757920796f7572206f776e206d75736963000000\n        /* \"#utility.yul\":11997:11998   */\n      0x00\n        /* \"#utility.yul\":11989:11995   */\n      dup3\n        /* \"#utility.yul\":11985:11999   */\n      add\n        /* \"#utility.yul\":11978:12033   */\n      mstore\n        /* \"#utility.yul\":11861:12040   */\n      pop\n      jump\t// out\n        /* \"#utility.yul\":12046:12412   */\n    tag_301:\n        /* \"#utility.yul\":12188:12191   */\n      0x00\n        /* \"#utility.yul\":12209:12276   */\n      tag_435\n        /* \"#utility.yul\":12273:12275   */\n      0x1d\n        /* \"#utility.yul\":12268:12271   */\n      dup4\n        /* \"#utility.yul\":12209:12276   */\n      tag_297\n      jump\t// in\n    tag_435:\n        /* \"#utility.yul\":12202:12276   */\n      swap2\n      pop\n        /* \"#utility.yul\":12285:12378   */\n      tag_436\n        /* \"#utility.yul\":12374:12377   */\n      dup3\n        /* \"#utility.yul\":12285:12378   */\n      tag_300\n      jump\t// in\n    tag_436:\n        /* \"#utility.yul\":12403:12405   */\n      0x20\n        /* \"#utility.yul\":12398:12401   */\n      dup3\n        /* \"#utility.yul\":12394:12406   */\n      add\n        /* \"#utility.yul\":12387:12406   */\n      swap1\n      pop\n        /* \"#utility.yul\":12046:12412   */\n      swap2\n      swap1\n      pop\n      jump\t// out\n        /* \"#utility.yul\":12418:12837   */\n    tag_59:\n        /* \"#utility.yul\":12584:12588   */\n      0x00\n        /* \"#utility.yul\":12622:12624   */\n      0x20\n        /* \"#utility.yul\":12611:12620   */\n      dup3\n        /* \"#utility.yul\":12607:12625   */\n      add\n        /* \"#utility.yul\":12599:12625   */\n      swap1\n      pop\n        /* \"#utility.yul\":12671:12680   */\n      dup2\n        /* \"#utility.yul\":12665:12669   */\n      dup2\n        /* \"#utility.yul\":12661:12681   */\n      sub\n        /* \"#utility.yul\":12657:12658   */\n      0x00\n        /* \"#utility.yul\":12646:12655   */\n      dup4\n        /* \"#utility.yul\":12642:12659   */\n      add\n        /* \"#utility.yul\":12635:12682   */\n      mstore\n        /* \"#utility.yul\":12699:12830   */\n      tag_438\n        /* \"#utility.yul\":12825:12829   */\n      dup2\n        /* \"#utility.yul\":12699:12830   */\n      tag_301\n      jump\t// in\n    tag_438:\n        /* \"#utility.yul\":12691:12830   */\n      swap1\n      pop\n        /* \"#utility.yul\":12418:12837   */\n      swap2\n      swap1\n      pop\n      jump\t// out\n        /* \"#utility.yul\":12843:13018   */\n    tag_302:\n        /* \"#utility.yul\":12983:13010   */\n      0x496e73756666696369656e742066756e647320746f2062757900000000000000\n        /* \"#utility.yul\":12979:12980   */\n      0x00\n        /* \"#utility.yul\":12971:12977   */\n      dup3\n        /* \"#utility.yul\":12967:12981   */\n      add\n        /* \"#utility.yul\":12960:13011   */\n      mstore\n        /* \"#utility.yul\":12843:13018   */\n      pop\n      jump\t// out\n        /* \"#utility.yul\":13024:13390   */\n    tag_303:\n        /* \"#utility.yul\":13166:13169   */\n      0x00\n        /* \"#utility.yul\":13187:13254   */\n      tag_441\n        /* \"#utility.yul\":13251:13253   */\n      0x19\n        /* \"#utility.yul\":13246:13249   */\n      dup4\n        /* \"#utility.yul\":13187:13254   */\n      tag_297\n      jump\t// in\n    tag_441:\n        /* \"#utility.yul\":13180:13254   */\n      swap2\n      pop\n        /* \"#utility.yul\":13263:13356   */\n      tag_442\n        /* \"#utility.yul\":13352:13355   */\n      dup3\n        /* \"#utility.yul\":13263:13356   */\n      tag_302\n      jump\t// in\n    tag_442:\n        /* \"#utility.yul\":13381:13383   */\n      0x20\n        /* \"#utility.yul\":13376:13379   */\n      dup3\n        /* \"#utility.yul\":13372:13384   */\n      add\n        /* \"#utility.yul\":13365:13384   */\n      swap1\n      pop\n        /* \"#utility.yul\":13024:13390   */\n      swap2\n      swap1\n      pop\n      jump\t// out\n        /* \"#utility.yul\":13396:13815   */\n    tag_64:\n        /* \"#utility.yul\":13562:13566   */\n      0x00\n        /* \"#utility.yul\":13600:13602   */\n      0x20\n        /* \"#utility.yul\":13589:13598   */\n      dup3\n        /* \"#utility.yul\":13585:13603   */\n      add\n        /* \"#utility.yul\":13577:13603   */\n      swap1\n      pop\n        /* \"#utility.yul\":13649:13658   */\n      dup2\n        /* \"#utility.yul\":13643:13647   */\n      dup2\n        /* \"#utility.yul\":13639:13659   */\n      sub\n        /* \"#utility.yul\":13635:13636   */\n      0x00\n        /* \"#utility.yul\":13624:13633   */\n      dup4\n        /* \"#utility.yul\":13620:13637   */\n      add\n        /* \"#utility.yul\":13613:13660   */\n      mstore\n        /* \"#utility.yul\":13677:13808   */\n      tag_444\n        /* \"#utility.yul\":13803:13807   */\n      dup2\n        /* \"#utility.yul\":13677:13808   */\n      tag_303\n      jump\t// in\n    tag_444:\n        /* \"#utility.yul\":13669:13808   */\n      swap1\n      pop\n        /* \"#utility.yul\":13396:13815   */\n      swap2\n      swap1\n      pop\n      jump\t// out\n        /* \"#utility.yul\":13821:14001   */\n    tag_304:\n        /* \"#utility.yul\":13869:13946   */\n      0x4e487b7100000000000000000000000000000000000000000000000000000000\n        /* \"#utility.yul\":13866:13867   */\n      0x00\n        /* \"#utility.yul\":13859:13947   */\n      mstore\n        /* \"#utility.yul\":13966:13970   */\n      0x11\n        /* \"#utility.yul\":13963:13964   */\n      0x04\n        /* \"#utility.yul\":13956:13971   */\n      mstore\n        /* \"#utility.yul\":13990:13994   */\n      0x24\n        /* \"#utility.yul\":13987:13988   */\n      0x00\n        /* \"#utility.yul\":13980:13995   */\n      revert\n        /* \"#utility.yul\":14007:14240   */\n    tag_74:\n        /* \"#utility.yul\":14046:14049   */\n      0x00\n        /* \"#utility.yul\":14069:14093   */\n      tag_447\n        /* \"#utility.yul\":14087:14092   */\n      dup3\n        /* \"#utility.yul\":14069:14093   */\n      tag_269\n      jump\t// in\n    tag_447:\n        /* \"#utility.yul\":14060:14093   */\n      swap2\n      pop\n        /* \"#utility.yul\":14115:14181   */\n      0xffffffffffffffffffffffffffffffffffffffffffffffffffffffffffffffff\n        /* \"#utility.yul\":14108:14113   */\n      dup3\n        /* \"#utility.yul\":14105:14182   */\n      sub\n        /* \"#utility.yul\":14102:14205   */\n      tag_448\n      jumpi\n        /* \"#utility.yul\":14185:14203   */\n      tag_449\n      tag_304\n      jump\t// in\n    tag_449:\n        /* \"#utility.yul\":14102:14205   */\n    tag_448:\n        /* \"#utility.yul\":14232:14233   */\n      0x01\n        /* \"#utility.yul\":14225:14230   */\n      dup3\n        /* \"#utility.yul\":14221:14234   */\n      add\n        /* \"#utility.yul\":14214:14234   */\n      swap1\n      pop\n        /* \"#utility.yul\":14007:14240   */\n      swap2\n      swap1\n      pop\n      jump\t// out\n        /* \"#utility.yul\":14246:14426   */\n    tag_305:\n        /* \"#utility.yul\":14294:14371   */\n      0x4e487b7100000000000000000000000000000000000000000000000000000000\n        /* \"#utility.yul\":14291:14292   */\n      0x00\n        /* \"#utility.yul\":14284:14372   */\n      mstore\n        /* \"#utility.yul\":14391:14395   */\n      0x22\n        /* \"#utility.yul\":14388:14389   */\n      0x04\n        /* \"#utility.yul\":14381:14396   */\n      mstore\n        /* \"#utility.yul\":14415:14419   */\n      0x24\n        /* \"#utility.yul\":14412:14413   */\n      0x00\n        /* \"#utility.yul\":14405:14420   */\n      revert\n        /* \"#utility.yul\":14432:14752   */\n    tag_87:\n        /* \"#utility.yul\":14476:14482   */\n      0x00\n        /* \"#utility.yul\":14513:14514   */\n      0x02\n        /* \"#utility.yul\":14507:14511   */\n      dup3\n        /* \"#utility.yul\":14503:14515   */\n      div\n        /* \"#utility.yul\":14493:14515   */\n      swap1\n      pop\n        /* \"#utility.yul\":14560:14561   */\n      0x01\n        /* \"#utility.yul\":14554:14558   */\n      dup3\n        /* \"#utility.yul\":14550:14562   */\n      and\n        /* \"#utility.yul\":14581:14599   */\n      dup1\n        /* \"#utility.yul\":14571:14652   */\n      tag_452\n      jumpi\n        /* \"#utility.yul\":14637:14641   */\n      0x7f\n        /* \"#utility.yul\":14629:14635   */\n      dup3\n        /* \"#utility.yul\":14625:14642   */\n      and\n        /* \"#utility.yul\":14615:14642   */\n      swap2\n      pop\n        /* \"#utility.yul\":14571:14652   */\n    tag_452:\n        /* \"#utility.yul\":14699:14701   */\n      0x20\n        /* \"#utility.yul\":14691:14697   */\n      dup3\n        /* \"#utility.yul\":14688:14702   */\n      lt\n        /* \"#utility.yul\":14668:14686   */\n      dup2\n        /* \"#utility.yul\":14665:14703   */\n      sub\n        /* \"#utility.yul\":14662:14746   */\n      tag_453\n      jumpi\n        /* \"#utility.yul\":14718:14736   */\n      tag_454\n      tag_305\n      jump\t// in\n    tag_454:\n        /* \"#utility.yul\":14662:14746   */\n    tag_453:\n        /* \"#utility.yul\":14483:14752   */\n      pop\n        /* \"#utility.yul\":14432:14752   */\n      swap2\n      swap1\n      pop\n      jump\t// out\n        /* \"#utility.yul\":14758:14938   */\n    tag_104:\n        /* \"#utility.yul\":14806:14883   */\n      0x4e487b7100000000000000000000000000000000000000000000000000000000\n        /* \"#utility.yul\":14803:14804   */\n      0x00\n        /* \"#utility.yul\":14796:14884   */\n      mstore\n        /* \"#utility.yul\":14903:14907   */\n      0x32\n        /* \"#utility.yul\":14900:14901   */\n      0x04\n        /* \"#utility.yul\":14893:14908   */\n      mstore\n        /* \"#utility.yul\":14927:14931   */\n      0x24\n        /* \"#utility.yul\":14924:14925   */\n      0x00\n        /* \"#utility.yul\":14917:14932   */\n      revert\n        /* \"#utility.yul\":14944:15138   */\n    tag_108:\n        /* \"#utility.yul\":14984:14988   */\n      0x00\n        /* \"#utility.yul\":15004:15024   */\n      tag_457\n        /* \"#utility.yul\":15022:15023   */\n      dup3\n        /* \"#utility.yul\":15004:15024   */\n      tag_269\n      jump\t// in\n    tag_457:\n        /* \"#utility.yul\":14999:15024   */\n      swap2\n      pop\n        /* \"#utility.yul\":15038:15058   */\n      tag_458\n        /* \"#utility.yul\":15056:15057   */\n      dup4\n        /* \"#utility.yul\":15038:15058   */\n      tag_269\n      jump\t// in\n    tag_458:\n        /* \"#utility.yul\":15033:15058   */\n      swap3\n      pop\n        /* \"#utility.yul\":15082:15083   */\n      dup3\n        /* \"#utility.yul\":15079:15080   */\n      dup3\n        /* \"#utility.yul\":15075:15084   */\n      sub\n        /* \"#utility.yul\":15067:15084   */\n      swap1\n      pop\n        /* \"#utility.yul\":15106:15107   */\n      dup2\n        /* \"#utility.yul\":15100:15104   */\n      dup2\n        /* \"#utility.yul\":15097:15108   */\n      gt\n        /* \"#utility.yul\":15094:15131   */\n      iszero\n      tag_459\n      jumpi\n        /* \"#utility.yul\":15111:15129   */\n      tag_460\n      tag_304\n      jump\t// in\n    tag_460:\n        /* \"#utility.yul\":15094:15131   */\n    tag_459:\n        /* \"#utility.yul\":14944:15138   */\n      swap3\n      swap2\n      pop\n      pop\n      jump\t// out\n        /* \"#utility.yul\":15144:15320   */\n    tag_306:\n        /* \"#utility.yul\":15284:15312   */\n      0x4d75736963206e616d652063616e6e6f7420626520656d707479000000000000\n        /* \"#utility.yul\":15280:15281   */\n      0x00\n        /* \"#utility.yul\":15272:15278   */\n      dup3\n        /* \"#utility.yul\":15268:15282   */\n      add\n        /* \"#utility.yul\":15261:15313   */\n      mstore\n        /* \"#utility.yul\":15144:15320   */\n      pop\n      jump\t// out\n        /* \"#utility.yul\":15326:15692   */\n    tag_307:\n        /* \"#utility.yul\":15468:15471   */\n      0x00\n        /* \"#utility.yul\":15489:15556   */\n      tag_463\n        /* \"#utility.yul\":15553:15555   */\n      0x1a\n        /* \"#utility.yul\":15548:15551   */\n      dup4\n        /* \"#utility.yul\":15489:15556   */\n      tag_297\n      jump\t// in\n    tag_463:\n        /* \"#utility.yul\":15482:15556   */\n      swap2\n      pop\n        /* \"#utility.yul\":15565:15658   */\n      tag_464\n        /* \"#utility.yul\":15654:15657   */\n      dup3\n        /* \"#utility.yul\":15565:15658   */\n      tag_306\n      jump\t// in\n    tag_464:\n        /* \"#utility.yul\":15683:15685   */\n      0x20\n        /* \"#utility.yul\":15678:15681   */\n      dup3\n        /* \"#utility.yul\":15674:15686   */\n      add\n        /* \"#utility.yul\":15667:15686   */\n      swap1\n      pop\n        /* \"#utility.yul\":15326:15692   */\n      swap2\n      swap1\n      pop\n      jump\t// out\n        /* \"#utility.yul\":15698:16117   */\n    tag_138:\n        /* \"#utility.yul\":15864:15868   */\n      0x00\n        /* \"#utility.yul\":15902:15904   */\n      0x20\n        /* \"#utility.yul\":15891:15900   */\n      dup3\n        /* \"#utility.yul\":15887:15905   */\n      add\n        /* \"#utility.yul\":15879:15905   */\n      swap1\n      pop\n        /* \"#utility.yul\":15951:15960   */\n      dup2\n        /* \"#utility.yul\":15945:15949   */\n      dup2\n        /* \"#utility.yul\":15941:15961   */\n      sub\n        /* \"#utility.yul\":15937:15938   */\n      0x00\n        /* \"#utility.yul\":15926:15935   */\n      dup4\n        /* \"#utility.yul\":15922:15939   */\n      add\n        /* \"#utility.yul\":15915:15962   */\n      mstore\n        /* \"#utility.yul\":15979:16110   */\n      tag_466\n        /* \"#utility.yul\":16105:16109   */\n      dup2\n        /* \"#utility.yul\":15979:16110   */\n      tag_307\n      jump\t// in\n    tag_466:\n        /* \"#utility.yul\":15971:16110   */\n      swap1\n      pop\n        /* \"#utility.yul\":15698:16117   */\n      swap2\n      swap1\n      pop\n      jump\t// out\n        /* \"#utility.yul\":16123:16264   */\n    tag_308:\n        /* \"#utility.yul\":16172:16176   */\n      0x00\n        /* \"#utility.yul\":16195:16198   */\n      dup2\n        /* \"#utility.yul\":16187:16198   */\n      swap1\n      pop\n        /* \"#utility.yul\":16218:16221   */\n      dup2\n        /* \"#utility.yul\":16215:16216   */\n      0x00\n        /* \"#utility.yul\":16208:16222   */\n      mstore\n        /* \"#utility.yul\":16252:16256   */\n      0x20\n        /* \"#utility.yul\":16249:16250   */\n      0x00\n        /* \"#utility.yul\":16239:16257   */\n      keccak256\n        /* \"#utility.yul\":16231:16257   */\n      swap1\n      pop\n        /* \"#utility.yul\":16123:16264   */\n      swap2\n      swap1\n      pop\n      jump\t// out\n        /* \"#utility.yul\":16270:16363   */\n    tag_309:\n        /* \"#utility.yul\":16307:16313   */\n      0x00\n        /* \"#utility.yul\":16354:16356   */\n      0x20\n        /* \"#utility.yul\":16349:16351   */\n      0x1f\n        /* \"#utility.yul\":16342:16347   */\n      dup4\n        /* \"#utility.yul\":16338:16352   */\n      add\n        /* \"#utility.yul\":16334:16357   */\n      div\n        /* \"#utility.yul\":16324:16357   */\n      swap1\n      pop\n        /* \"#utility.yul\":16270:16363   */\n      swap2\n      swap1\n      pop\n      jump\t// out\n        /* \"#utility.yul\":16369:16476   */\n    tag_310:\n        /* \"#utility.yul\":16413:16421   */\n      0x00\n        /* \"#utility.yul\":16463:16468   */\n      dup3\n        /* \"#utility.yul\":16457:16461   */\n      dup3\n        /* \"#utility.yul\":16453:16469   */\n      shl\n        /* \"#utility.yul\":16432:16469   */\n      swap1\n      pop\n        /* \"#utility.yul\":16369:16476   */\n      swap3\n      swap2\n      pop\n      pop\n      jump\t// out\n        /* \"#utility.yul\":16482:16875   */\n    tag_311:\n        /* \"#utility.yul\":16551:16557   */\n      0x00\n        /* \"#utility.yul\":16601:16602   */\n      0x08\n        /* \"#utility.yul\":16589:16599   */\n      dup4\n        /* \"#utility.yul\":16585:16603   */\n      mul\n        /* \"#utility.yul\":16624:16721   */\n      tag_471\n        /* \"#utility.yul\":16654:16720   */\n      0xffffffffffffffffffffffffffffffffffffffffffffffffffffffffffffffff\n        /* \"#utility.yul\":16643:16652   */\n      dup3\n        /* \"#utility.yul\":16624:16721   */\n      tag_310\n      jump\t// in\n    tag_471:\n        /* \"#utility.yul\":16742:16781   */\n      tag_472\n        /* \"#utility.yul\":16772:16780   */\n      dup7\n        /* \"#utility.yul\":16761:16770   */\n      dup4\n        /* \"#utility.yul\":16742:16781   */\n      tag_310\n      jump\t// in\n    tag_472:\n        /* \"#utility.yul\":16730:16781   */\n      swap6\n      pop\n        /* \"#utility.yul\":16814:16818   */\n      dup1\n        /* \"#utility.yul\":16810:16819   */\n      not\n        /* \"#utility.yul\":16803:16808   */\n      dup5\n        /* \"#utility.yul\":16799:16820   */\n      and\n        /* \"#utility.yul\":16790:16820   */\n      swap4\n      pop\n        /* \"#utility.yul\":16863:16867   */\n      dup1\n        /* \"#utility.yul\":16853:16861   */\n      dup7\n        /* \"#utility.yul\":16849:16868   */\n      and\n        /* \"#utility.yul\":16842:16847   */\n      dup5\n        /* \"#utility.yul\":16839:16869   */\n      or\n        /* \"#utility.yul\":16829:16869   */\n      swap3\n      pop\n        /* \"#utility.yul\":16558:16875   */\n      pop\n      pop\n        /* \"#utility.yul\":16482:16875   */\n      swap4\n      swap3\n      pop\n      pop\n      pop\n      jump\t// out\n        /* \"#utility.yul\":16881:16941   */\n    tag_312:\n        /* \"#utility.yul\":16909:16912   */\n      0x00\n        /* \"#utility.yul\":16930:16935   */\n      dup2\n        /* \"#utility.yul\":16923:16935   */\n      swap1\n      pop\n        /* \"#utility.yul\":16881:16941   */\n      swap2\n      swap1\n      pop\n      jump\t// out\n        /* \"#utility.yul\":16947:17089   */\n    tag_313:\n        /* \"#utility.yul\":16997:17006   */\n      0x00\n        /* \"#utility.yul\":17030:17083   */\n      tag_475\n        /* \"#utility.yul\":17048:17082   */\n      tag_476\n        /* \"#utility.yul\":17057:17081   */\n      tag_477\n        /* \"#utility.yul\":17075:17080   */\n      dup5\n        /* \"#utility.yul\":17057:17081   */\n      tag_269\n      jump\t// in\n    tag_477:\n        /* \"#utility.yul\":17048:17082   */\n      tag_312\n      jump\t// in\n    tag_476:\n        /* \"#utility.yul\":17030:17083   */\n      tag_269\n      jump\t// in\n    tag_475:\n        /* \"#utility.yul\":17017:17083   */\n      swap1\n      pop\n        /* \"#utility.yul\":16947:17089   */\n      swap2\n      swap1\n      pop\n      jump\t// out\n        /* \"#utility.yul\":17095:17170   */\n    tag_314:\n        /* \"#utility.yul\":17138:17141   */\n      0x00\n        /* \"#utility.yul\":17159:17164   */\n      dup2\n        /* \"#utility.yul\":17152:17164   */\n      swap1\n      pop\n        /* \"#utility.yul\":17095:17170   */\n      swap2\n      swap1\n      pop\n      jump\t// out\n        /* \"#utility.yul\":17176:17445   */\n    tag_315:\n        /* \"#utility.yul\":17286:17325   */\n      tag_480\n        /* \"#utility.yul\":17317:17324   */\n      dup4\n        /* \"#utility.yul\":17286:17325   */\n      tag_313\n      jump\t// in\n    tag_480:\n        /* \"#utility.yul\":17347:17438   */\n      tag_481\n        /* \"#utility.yul\":17396:17437   */\n      tag_482\n        /* \"#utility.yul\":17420:17436   */\n      dup3\n        /* \"#utility.yul\":17396:17437   */\n      tag_314\n      jump\t// in\n    tag_482:\n        /* \"#utility.yul\":17388:17394   */\n      dup5\n        /* \"#utility.yul\":17381:17385   */\n      dup5\n        /* \"#utility.yul\":17375:17386   */\n      sload\n        /* \"#utility.yul\":17347:17438   */\n      tag_311\n      jump\t// in\n    tag_481:\n        /* \"#utility.yul\":17341:17345   */\n      dup3\n        /* \"#utility.yul\":17334:17439   */\n      sstore\n        /* \"#utility.yul\":17252:17445   */\n      pop\n        /* \"#utility.yul\":17176:17445   */\n      pop\n      pop\n      pop\n      jump\t// out\n        /* \"#utility.yul\":17451:17524   */\n    tag_316:\n        /* \"#utility.yul\":17496:17499   */\n      0x00\n        /* \"#utility.yul\":17451:17524   */\n      swap1\n      jump\t// out\n        /* \"#utility.yul\":17530:17719   */\n    tag_317:\n        /* \"#utility.yul\":17607:17639   */\n      tag_485\n      tag_316\n      jump\t// in\n    tag_485:\n        /* \"#utility.yul\":17648:17713   */\n      tag_486\n        /* \"#utility.yul\":17706:17712   */\n      dup2\n        /* \"#utility.yul\":17698:17704   */\n      dup5\n        /* \"#utility.yul\":17692:17696   */\n      dup5\n        /* \"#utility.yul\":17648:17713   */\n      tag_315\n      jump\t// in\n    tag_486:\n        /* \"#utility.yul\":17583:17719   */\n      pop\n        /* \"#utility.yul\":17530:17719   */\n      pop\n      pop\n      jump\t// out\n        /* \"#utility.yul\":17725:17911   */\n    tag_318:\n        /* \"#utility.yul\":17785:17905   */\n    tag_488:\n        /* \"#utility.yul\":17802:17805   */\n      dup2\n        /* \"#utility.yul\":17795:17800   */\n      dup2\n        /* \"#utility.yul\":17792:17806   */\n      lt\n        /* \"#utility.yul\":17785:17905   */\n      iszero\n      tag_490\n      jumpi\n        /* \"#utility.yul\":17856:17895   */\n      tag_491\n        /* \"#utility.yul\":17893:17894   */\n      0x00\n        /* \"#utility.yul\":17886:17891   */\n      dup3\n        /* \"#utility.yul\":17856:17895   */\n      tag_317\n      jump\t// in\n    tag_491:\n        /* \"#utility.yul\":17829:17830   */\n      0x01\n        /* \"#utility.yul\":17822:17827   */\n      dup2\n        /* \"#utility.yul\":17818:17831   */\n      add\n        /* \"#utility.yul\":17809:17831   */\n      swap1\n      pop\n        /* \"#utility.yul\":17785:17905   */\n      jump(tag_488)\n    tag_490:\n        /* \"#utility.yul\":17725:17911   */\n      pop\n      pop\n      jump\t// out\n        /* \"#utility.yul\":17917:18460   */\n    tag_319:\n        /* \"#utility.yul\":18018:18020   */\n      0x1f\n        /* \"#utility.yul\":18013:18016   */\n      dup3\n        /* \"#utility.yul\":18010:18021   */\n      gt\n        /* \"#utility.yul\":18007:18453   */\n      iszero\n      tag_493\n      jumpi\n        /* \"#utility.yul\":18052:18090   */\n      tag_494\n        /* \"#utility.yul\":18084:18089   */\n      dup2\n        /* \"#utility.yul\":18052:18090   */\n      tag_308\n      jump\t// in\n    tag_494:\n        /* \"#utility.yul\":18136:18165   */\n      tag_495\n        /* \"#utility.yul\":18154:18164   */\n      dup5\n        /* \"#utility.yul\":18136:18165   */\n      tag_309\n      jump\t// in\n    tag_495:\n        /* \"#utility.yul\":18126:18134   */\n      dup2\n        /* \"#utility.yul\":18122:18166   */\n      add\n        /* \"#utility.yul\":18319:18321   */\n      0x20\n        /* \"#utility.yul\":18307:18317   */\n      dup6\n        /* \"#utility.yul\":18304:18322   */\n      lt\n        /* \"#utility.yul\":18301:18350   */\n      iszero\n      tag_496\n      jumpi\n        /* \"#utility.yul\":18340:18348   */\n      dup2\n        /* \"#utility.yul\":18325:18348   */\n      swap1\n      pop\n        /* \"#utility.yul\":18301:18350   */\n    tag_496:\n        /* \"#utility.yul\":18363:18443   */\n      tag_497\n        /* \"#utility.yul\":18419:18441   */\n      tag_498\n        /* \"#utility.yul\":18437:18440   */\n      dup6\n        /* \"#utility.yul\":18419:18441   */\n      tag_309\n      jump\t// in\n    tag_498:\n        /* \"#utility.yul\":18409:18417   */\n      dup4\n        /* \"#utility.yul\":18405:18442   */\n      add\n        /* \"#utility.yul\":18392:18403   */\n      dup3\n        /* \"#utility.yul\":18363:18443   */\n      tag_318\n      jump\t// in\n    tag_497:\n        /* \"#utility.yul\":18022:18453   */\n      pop\n      pop\n        /* \"#utility.yul\":18007:18453   */\n    tag_493:\n        /* \"#utility.yul\":17917:18460   */\n      pop\n      pop\n      pop\n      jump\t// out\n        /* \"#utility.yul\":18466:18583   */\n    tag_320:\n        /* \"#utility.yul\":18520:18528   */\n      0x00\n        /* \"#utility.yul\":18570:18575   */\n      dup3\n        /* \"#utility.yul\":18564:18568   */\n      dup3\n        /* \"#utility.yul\":18560:18576   */\n      shr\n        /* \"#utility.yul\":18539:18576   */\n      swap1\n      pop\n        /* \"#utility.yul\":18466:18583   */\n      swap3\n      swap2\n      pop\n      pop\n      jump\t// out\n        /* \"#utility.yul\":18589:18758   */\n    tag_321:\n        /* \"#utility.yul\":18633:18639   */\n      0x00\n        /* \"#utility.yul\":18666:18717   */\n      tag_501\n        /* \"#utility.yul\":18714:18715   */\n      0x00\n        /* \"#utility.yul\":18710:18716   */\n      not\n        /* \"#utility.yul\":18702:18707   */\n      dup5\n        /* \"#utility.yul\":18699:18700   */\n      0x08\n        /* \"#utility.yul\":18695:18708   */\n      mul\n        /* \"#utility.yul\":18666:18717   */\n      tag_320\n      jump\t// in\n    tag_501:\n        /* \"#utility.yul\":18662:18718   */\n      not\n        /* \"#utility.yul\":18747:18751   */\n      dup1\n        /* \"#utility.yul\":18741:18745   */\n      dup4\n        /* \"#utility.yul\":18737:18752   */\n      and\n        /* \"#utility.yul\":18727:18752   */\n      swap2\n      pop\n        /* \"#utility.yul\":18640:18758   */\n      pop\n        /* \"#utility.yul\":18589:18758   */\n      swap3\n      swap2\n      pop\n      pop\n      jump\t// out\n        /* \"#utility.yul\":18763:19058   */\n    tag_322:\n        /* \"#utility.yul\":18839:18843   */\n      0x00\n        /* \"#utility.yul\":18985:19014   */\n      tag_503\n        /* \"#utility.yul\":19010:19013   */\n      dup4\n        /* \"#utility.yul\":19004:19008   */\n      dup4\n        /* \"#utility.yul\":18985:19014   */\n      tag_321\n      jump\t// in\n    tag_503:\n        /* \"#utility.yul\":18977:19014   */\n      swap2\n      pop\n        /* \"#utility.yul\":19047:19050   */\n      dup3\n        /* \"#utility.yul\":19044:19045   */\n      0x02\n        /* \"#utility.yul\":19040:19051   */\n      mul\n        /* \"#utility.yul\":19034:19038   */\n      dup3\n        /* \"#utility.yul\":19031:19052   */\n      or\n        /* \"#utility.yul\":19023:19052   */\n      swap1\n      pop\n        /* \"#utility.yul\":18763:19058   */\n      swap3\n      swap2\n      pop\n      pop\n      jump\t// out\n        /* \"#utility.yul\":19063:20458   */\n    tag_140:\n        /* \"#utility.yul\":19180:19217   */\n      tag_505\n        /* \"#utility.yul\":19213:19216   */\n      dup3\n        /* \"#utility.yul\":19180:19217   */\n      tag_280\n      jump\t// in\n    tag_505:\n        /* \"#utility.yul\":19282:19300   */\n      0xffffffffffffffff\n        /* \"#utility.yul\":19274:19280   */\n      dup2\n        /* \"#utility.yul\":19271:19301   */\n      gt\n        /* \"#utility.yul\":19268:19324   */\n      iszero\n      tag_506\n      jumpi\n        /* \"#utility.yul\":19304:19322   */\n      tag_507\n      tag_77\n      jump\t// in\n    tag_507:\n        /* \"#utility.yul\":19268:19324   */\n    tag_506:\n        /* \"#utility.yul\":19348:19386   */\n      tag_508\n        /* \"#utility.yul\":19380:19384   */\n      dup3\n        /* \"#utility.yul\":19374:19385   */\n      sload\n        /* \"#utility.yul\":19348:19386   */\n      tag_87\n      jump\t// in\n    tag_508:\n        /* \"#utility.yul\":19433:19500   */\n      tag_509\n        /* \"#utility.yul\":19493:19499   */\n      dup3\n        /* \"#utility.yul\":19485:19491   */\n      dup3\n        /* \"#utility.yul\":19479:19483   */\n      dup6\n        /* \"#utility.yul\":19433:19500   */\n      tag_319\n      jump\t// in\n    tag_509:\n        /* \"#utility.yul\":19527:19528   */\n      0x00\n        /* \"#utility.yul\":19551:19555   */\n      0x20\n        /* \"#utility.yul\":19538:19555   */\n      swap1\n      pop\n        /* \"#utility.yul\":19583:19585   */\n      0x1f\n        /* \"#utility.yul\":19575:19581   */\n      dup4\n        /* \"#utility.yul\":19572:19586   */\n      gt\n        /* \"#utility.yul\":19600:19601   */\n      0x01\n        /* \"#utility.yul\":19595:20213   */\n      dup2\n      eq\n      tag_511\n      jumpi\n        /* \"#utility.yul\":20257:20258   */\n      0x00\n        /* \"#utility.yul\":20274:20280   */\n      dup5\n        /* \"#utility.yul\":20271:20348   */\n      iszero\n      tag_512\n      jumpi\n        /* \"#utility.yul\":20323:20332   */\n      dup3\n        /* \"#utility.yul\":20318:20321   */\n      dup8\n        /* \"#utility.yul\":20314:20333   */\n      add\n        /* \"#utility.yul\":20308:20334   */\n      mload\n        /* \"#utility.yul\":20299:20334   */\n      swap1\n      pop\n        /* \"#utility.yul\":20271:20348   */\n    tag_512:\n        /* \"#utility.yul\":20374:20441   */\n      tag_513\n        /* \"#utility.yul\":20434:20440   */\n      dup6\n        /* \"#utility.yul\":20427:20432   */\n      dup3\n        /* \"#utility.yul\":20374:20441   */\n      tag_322\n      jump\t// in\n    tag_513:\n        /* \"#utility.yul\":20368:20372   */\n      dup7\n        /* \"#utility.yul\":20361:20442   */\n      sstore\n        /* \"#utility.yul\":20230:20452   */\n      pop\n        /* \"#utility.yul\":19565:20452   */\n      jump(tag_510)\n        /* \"#utility.yul\":19595:20213   */\n    tag_511:\n        /* \"#utility.yul\":19647:19651   */\n      0x1f\n        /* \"#utility.yul\":19643:19652   */\n      not\n        /* \"#utility.yul\":19635:19641   */\n      dup5\n        /* \"#utility.yul\":19631:19653   */\n      and\n        /* \"#utility.yul\":19681:19718   */\n      tag_514\n        /* \"#utility.yul\":19713:19717   */\n      dup7\n        /* \"#utility.yul\":19681:19718   */\n      tag_308\n      jump\t// in\n    tag_514:\n        /* \"#utility.yul\":19740:19741   */\n      0x00\n        /* \"#utility.yul\":19754:19962   */\n    tag_515:\n        /* \"#utility.yul\":19768:19775   */\n      dup3\n        /* \"#utility.yul\":19765:19766   */\n      dup2\n        /* \"#utility.yul\":19762:19776   */\n      lt\n        /* \"#utility.yul\":19754:19962   */\n      iszero\n      tag_517\n      jumpi\n        /* \"#utility.yul\":19847:19856   */\n      dup5\n        /* \"#utility.yul\":19842:19845   */\n      dup10\n        /* \"#utility.yul\":19838:19857   */\n      add\n        /* \"#utility.yul\":19832:19858   */\n      mload\n        /* \"#utility.yul\":19824:19830   */\n      dup3\n        /* \"#utility.yul\":19817:19859   */\n      sstore\n        /* \"#utility.yul\":19898:19899   */\n      0x01\n        /* \"#utility.yul\":19890:19896   */\n      dup3\n        /* \"#utility.yul\":19886:19900   */\n      add\n        /* \"#utility.yul\":19876:19900   */\n      swap2\n      pop\n        /* \"#utility.yul\":19945:19947   */\n      0x20\n        /* \"#utility.yul\":19934:19943   */\n      dup6\n        /* \"#utility.yul\":19930:19948   */\n      add\n        /* \"#utility.yul\":19917:19948   */\n      swap5\n      pop\n        /* \"#utility.yul\":19791:19795   */\n      0x20\n        /* \"#utility.yul\":19788:19789   */\n      dup2\n        /* \"#utility.yul\":19784:19796   */\n      add\n        /* \"#utility.yul\":19779:19796   */\n      swap1\n      pop\n        /* \"#utility.yul\":19754:19962   */\n      jump(tag_515)\n    tag_517:\n        /* \"#utility.yul\":19990:19996   */\n      dup7\n        /* \"#utility.yul\":19981:19988   */\n      dup4\n        /* \"#utility.yul\":19978:19997   */\n      lt\n        /* \"#utility.yul\":19975:20154   */\n      iszero\n      tag_518\n      jumpi\n        /* \"#utility.yul\":20048:20057   */\n      dup5\n        /* \"#utility.yul\":20043:20046   */\n      dup10\n        /* \"#utility.yul\":20039:20058   */\n      add\n        /* \"#utility.yul\":20033:20059   */\n      mload\n        /* \"#utility.yul\":20091:20139   */\n      tag_519\n        /* \"#utility.yul\":20133:20137   */\n      0x1f\n        /* \"#utility.yul\":20125:20131   */\n      dup10\n        /* \"#utility.yul\":20121:20138   */\n      and\n        /* \"#utility.yul\":20110:20119   */\n      dup3\n        /* \"#utility.yul\":20091:20139   */\n      tag_321\n      jump\t// in\n    tag_519:\n        /* \"#utility.yul\":20083:20089   */\n      dup4\n        /* \"#utility.yul\":20076:20140   */\n      sstore\n        /* \"#utility.yul\":19998:20154   */\n      pop\n        /* \"#utility.yul\":19975:20154   */\n    tag_518:\n        /* \"#utility.yul\":20200:20201   */\n      0x01\n        /* \"#utility.yul\":20196:20197   */\n      0x02\n        /* \"#utility.yul\":20188:20194   */\n      dup9\n        /* \"#utility.yul\":20184:20198   */\n      mul\n        /* \"#utility.yul\":20180:20202   */\n      add\n        /* \"#utility.yul\":20174:20178   */\n      dup9\n        /* \"#utility.yul\":20167:20203   */\n      sstore\n        /* \"#utility.yul\":19602:20213   */\n      pop\n      pop\n      pop\n        /* \"#utility.yul\":19565:20452   */\n    tag_510:\n      pop\n        /* \"#utility.yul\":19155:20458   */\n      pop\n      pop\n      pop\n        /* \"#utility.yul\":19063:20458   */\n      pop\n      pop\n      jump\t// out\n        /* \"#utility.yul\":20464:20841   */\n    tag_323:\n        /* \"#utility.yul\":20552:20555   */\n      0x00\n        /* \"#utility.yul\":20580:20619   */\n      tag_521\n        /* \"#utility.yul\":20613:20618   */\n      dup3\n        /* \"#utility.yul\":20580:20619   */\n      tag_280\n      jump\t// in\n    tag_521:\n        /* \"#utility.yul\":20635:20706   */\n      tag_522\n        /* \"#utility.yul\":20699:20705   */\n      dup2\n        /* \"#utility.yul\":20694:20697   */\n      dup6\n        /* \"#utility.yul\":20635:20706   */\n      tag_297\n      jump\t// in\n    tag_522:\n        /* \"#utility.yul\":20628:20706   */\n      swap4\n      pop\n        /* \"#utility.yul\":20715:20780   */\n      tag_523\n        /* \"#utility.yul\":20773:20779   */\n      dup2\n        /* \"#utility.yul\":20768:20771   */\n      dup6\n        /* \"#utility.yul\":20761:20765   */\n      0x20\n        /* \"#utility.yul\":20754:20759   */\n      dup7\n        /* \"#utility.yul\":20750:20766   */\n      add\n        /* \"#utility.yul\":20715:20780   */\n      tag_282\n      jump\t// in\n    tag_523:\n        /* \"#utility.yul\":20805:20834   */\n      tag_524\n        /* \"#utility.yul\":20827:20833   */\n      dup2\n        /* \"#utility.yul\":20805:20834   */\n      tag_283\n      jump\t// in\n    tag_524:\n        /* \"#utility.yul\":20800:20803   */\n      dup5\n        /* \"#utility.yul\":20796:20835   */\n      add\n        /* \"#utility.yul\":20789:20835   */\n      swap2\n      pop\n        /* \"#utility.yul\":20556:20841   */\n      pop\n        /* \"#utility.yul\":20464:20841   */\n      swap3\n      swap2\n      pop\n      pop\n      jump\t// out\n        /* \"#utility.yul\":20847:21160   */\n    tag_144:\n        /* \"#utility.yul\":20960:20964   */\n      0x00\n        /* \"#utility.yul\":20998:21000   */\n      0x20\n        /* \"#utility.yul\":20987:20996   */\n      dup3\n        /* \"#utility.yul\":20983:21001   */\n      add\n        /* \"#utility.yul\":20975:21001   */\n      swap1\n      pop\n        /* \"#utility.yul\":21047:21056   */\n      dup2\n        /* \"#utility.yul\":21041:21045   */\n      dup2\n        /* \"#utility.yul\":21037:21057   */\n      sub\n        /* \"#utility.yul\":21033:21034   */\n      0x00\n        /* \"#utility.yul\":21022:21031   */\n      dup4\n        /* \"#utility.yul\":21018:21035   */\n      add\n        /* \"#utility.yul\":21011:21058   */\n      mstore\n        /* \"#utility.yul\":21075:21153   */\n      tag_526\n        /* \"#utility.yul\":21148:21152   */\n      dup2\n        /* \"#utility.yul\":21139:21145   */\n      dup5\n        /* \"#utility.yul\":21075:21153   */\n      tag_323\n      jump\t// in\n    tag_526:\n        /* \"#utility.yul\":21067:21153   */\n      swap1\n      pop\n        /* \"#utility.yul\":20847:21160   */\n      swap3\n      swap2\n      pop\n      pop\n      jump\t// out\n        /* \"#utility.yul\":21166:21338   */\n    tag_324:\n        /* \"#utility.yul\":21306:21330   */\n      0x4d7573696320697320616c7265616479206c696b656400000000000000000000\n        /* \"#utility.yul\":21302:21303   */\n      0x00\n        /* \"#utility.yul\":21294:21300   */\n      dup3\n        /* \"#utility.yul\":21290:21304   */\n      add\n        /* \"#utility.yul\":21283:21331   */\n      mstore\n        /* \"#utility.yul\":21166:21338   */\n      pop\n      jump\t// out\n        /* \"#utility.yul\":21344:21710   */\n    tag_325:\n        /* \"#utility.yul\":21486:21489   */\n      0x00\n        /* \"#utility.yul\":21507:21574   */\n      tag_529\n        /* \"#utility.yul\":21571:21573   */\n      0x16\n        /* \"#utility.yul\":21566:21569   */\n      dup4\n        /* \"#utility.yul\":21507:21574   */\n      tag_297\n      jump\t// in\n    tag_529:\n        /* \"#utility.yul\":21500:21574   */\n      swap2\n      pop\n        /* \"#utility.yul\":21583:21676   */\n      tag_530\n        /* \"#utility.yul\":21672:21675   */\n      dup3\n        /* \"#utility.yul\":21583:21676   */\n      tag_324\n      jump\t// in\n    tag_530:\n        /* \"#utility.yul\":21701:21703   */\n      0x20\n        /* \"#utility.yul\":21696:21699   */\n      dup3\n        /* \"#utility.yul\":21692:21704   */\n      add\n        /* \"#utility.yul\":21685:21704   */\n      swap1\n      pop\n        /* \"#utility.yul\":21344:21710   */\n      swap2\n      swap1\n      pop\n      jump\t// out\n        /* \"#utility.yul\":21716:22135   */\n    tag_157:\n        /* \"#utility.yul\":21882:21886   */\n      0x00\n        /* \"#utility.yul\":21920:21922   */\n      0x20\n        /* \"#utility.yul\":21909:21918   */\n      dup3\n        /* \"#utility.yul\":21905:21923   */\n      add\n        /* \"#utility.yul\":21897:21923   */\n      swap1\n      pop\n        /* \"#utility.yul\":21969:21978   */\n      dup2\n        /* \"#utility.yul\":21963:21967   */\n      dup2\n        /* \"#utility.yul\":21959:21979   */\n      sub\n        /* \"#utility.yul\":21955:21956   */\n      0x00\n        /* \"#utility.yul\":21944:21953   */\n      dup4\n        /* \"#utility.yul\":21940:21957   */\n      add\n        /* \"#utility.yul\":21933:21980   */\n      mstore\n        /* \"#utility.yul\":21997:22128   */\n      tag_532\n        /* \"#utility.yul\":22123:22127   */\n      dup2\n        /* \"#utility.yul\":21997:22128   */\n      tag_325\n      jump\t// in\n    tag_532:\n        /* \"#utility.yul\":21989:22128   */\n      swap1\n      pop\n        /* \"#utility.yul\":21716:22135   */\n      swap2\n      swap1\n      pop\n      jump\t// out\n        /* \"#utility.yul\":22141:22309   */\n    tag_326:\n        /* \"#utility.yul\":22281:22301   */\n      0x4d75736963206973206e6f74206c696b65640000000000000000000000000000\n        /* \"#utility.yul\":22277:22278   */\n      0x00\n        /* \"#utility.yul\":22269:22275   */\n      dup3\n        /* \"#utility.yul\":22265:22279   */\n      add\n        /* \"#utility.yul\":22258:22302   */\n      mstore\n        /* \"#utility.yul\":22141:22309   */\n      pop\n      jump\t// out\n        /* \"#utility.yul\":22315:22681   */\n    tag_327:\n        /* \"#utility.yul\":22457:22460   */\n      0x00\n        /* \"#utility.yul\":22478:22545   */\n      tag_535\n        /* \"#utility.yul\":22542:22544   */\n      0x12\n        /* \"#utility.yul\":22537:22540   */\n      dup4\n        /* \"#utility.yul\":22478:22545   */\n      tag_297\n      jump\t// in\n    tag_535:\n        /* \"#utility.yul\":22471:22545   */\n      swap2\n      pop\n        /* \"#utility.yul\":22554:22647   */\n      tag_536\n        /* \"#utility.yul\":22643:22646   */\n      dup3\n        /* \"#utility.yul\":22554:22647   */\n      tag_326\n      jump\t// in\n    tag_536:\n        /* \"#utility.yul\":22672:22674   */\n      0x20\n        /* \"#utility.yul\":22667:22670   */\n      dup3\n        /* \"#utility.yul\":22663:22675   */\n      add\n        /* \"#utility.yul\":22656:22675   */\n      swap1\n      pop\n        /* \"#utility.yul\":22315:22681   */\n      swap2\n      swap1\n      pop\n      jump\t// out\n        /* \"#utility.yul\":22687:23106   */\n    tag_177:\n        /* \"#utility.yul\":22853:22857   */\n      0x00\n        /* \"#utility.yul\":22891:22893   */\n      0x20\n        /* \"#utility.yul\":22880:22889   */\n      dup3\n        /* \"#utility.yul\":22876:22894   */\n      add\n        /* \"#utility.yul\":22868:22894   */\n      swap1\n      pop\n        /* \"#utility.yul\":22940:22949   */\n      dup2\n        /* \"#utility.yul\":22934:22938   */\n      dup2\n        /* \"#utility.yul\":22930:22950   */\n      sub\n        /* \"#utility.yul\":22926:22927   */\n      0x00\n        /* \"#utility.yul\":22915:22924   */\n      dup4\n        /* \"#utility.yul\":22911:22928   */\n      add\n        /* \"#utility.yul\":22904:22951   */\n      mstore\n        /* \"#utility.yul\":22968:23099   */\n      tag_538\n        /* \"#utility.yul\":23094:23098   */\n      dup2\n        /* \"#utility.yul\":22968:23099   */\n      tag_327\n      jump\t// in\n    tag_538:\n        /* \"#utility.yul\":22960:23099   */\n      swap1\n      pop\n        /* \"#utility.yul\":22687:23106   */\n      swap2\n      swap1\n      pop\n      jump\t// out\n        /* \"#utility.yul\":23112:23283   */\n    tag_179:\n        /* \"#utility.yul\":23151:23154   */\n      0x00\n        /* \"#utility.yul\":23174:23198   */\n      tag_540\n        /* \"#utility.yul\":23192:23197   */\n      dup3\n        /* \"#utility.yul\":23174:23198   */\n      tag_269\n      jump\t// in\n    tag_540:\n        /* \"#utility.yul\":23165:23198   */\n      swap2\n      pop\n        /* \"#utility.yul\":23220:23224   */\n      0x00\n        /* \"#utility.yul\":23213:23218   */\n      dup3\n        /* \"#utility.yul\":23210:23225   */\n      sub\n        /* \"#utility.yul\":23207:23248   */\n      tag_541\n      jumpi\n        /* \"#utility.yul\":23228:23246   */\n      tag_542\n      tag_304\n      jump\t// in\n    tag_542:\n        /* \"#utility.yul\":23207:23248   */\n    tag_541:\n        /* \"#utility.yul\":23275:23276   */\n      0x01\n        /* \"#utility.yul\":23268:23273   */\n      dup3\n        /* \"#utility.yul\":23264:23277   */\n      sub\n        /* \"#utility.yul\":23257:23277   */\n      swap1\n      pop\n        /* \"#utility.yul\":23112:23283   */\n      swap2\n      swap1\n      pop\n      jump\t// out\n        /* \"#utility.yul\":23289:23469   */\n    tag_192:\n        /* \"#utility.yul\":23337:23414   */\n      0x4e487b7100000000000000000000000000000000000000000000000000000000\n        /* \"#utility.yul\":23334:23335   */\n      0x00\n        /* \"#utility.yul\":23327:23415   */\n      mstore\n        /* \"#utility.yul\":23434:23438   */\n      0x31\n        /* \"#utility.yul\":23431:23432   */\n      0x04\n        /* \"#utility.yul\":23424:23439   */\n      mstore\n        /* \"#utility.yul\":23458:23462   */\n      0x24\n        /* \"#utility.yul\":23455:23456   */\n      0x00\n        /* \"#utility.yul\":23448:23463   */\n      revert\n\n    auxdata: 0xa26469706673582212204799b674a992414cd5e182413f2203c467e2363e9e143a20b739738c83fa716464736f6c634300081a0033\n}\n",
				"bytecode": {
					"linkReferences": {},
					"object": "6080604052600180553480156012575f80fd5b50612924806100205f395ff3fe608060405260043610610085575f3560e01c80636ac028be116100585780636ac028be146101355780636b792d5b1461015d57806375c6e6f514610185578063cc7414d0146101ad578063d054b9ef146101d757610085565b80630feb80e6146100895780632538c533146100c55780633e45ff47146100e15780634a4b66561461010b575b5f80fd5b348015610094575f80fd5b506100af60048036038101906100aa9190611d9a565b610201565b6040516100bc9190611dd4565b60405180910390f35b6100df60048036038101906100da9190611d9a565b61021b565b005b3480156100ec575f80fd5b506100f56104e5565b6040516101029190612021565b60405180910390f35b348015610116575f80fd5b5061011f610958565b60405161012c9190612021565b60405180910390f35b348015610140575f80fd5b5061015b6004803603810190610156919061216d565b610ca0565b005b348015610168575f80fd5b50610183600480360381019061017e9190611d9a565b610eb8565b005b348015610190575f80fd5b506101ab60048036038101906101a69190611d9a565b61115a565b005b3480156101b8575f80fd5b506101c1611392565b6040516101ce9190612021565b60405180910390f35b3480156101e2575f80fd5b506101eb61173b565b6040516101f89190612021565b60405180910390f35b5f60035f8381526020019081526020015f20549050919050565b5f805f8381526020019081526020015f2090505f815f015403610273576040517f08c379a000000000000000000000000000000000000000000000000000000000815260040161026a9061227f565b60405180910390fd5b3373ffffffffffffffffffffffffffffffffffffffff16816001015f9054906101000a900473ffffffffffffffffffffffffffffffffffffffff1673ffffffffffffffffffffffffffffffffffffffff1603610304576040517f08c379a00000000000000000000000000000000000000000000000000000000081526004016102fb906122e7565b60405180910390fd5b3373ffffffffffffffffffffffffffffffffffffffff16816002015f9054906101000a900473ffffffffffffffffffffffffffffffffffffffff1673ffffffffffffffffffffffffffffffffffffffff1603610395576040517f08c379a000000000000000000000000000000000000000000000000000000000815260040161038c906122e7565b60405180910390fd5b80600301543410156103dc576040517f08c379a00000000000000000000000000000000000000000000000000000000081526004016103d39061234f565b60405180910390fd5b5f816001015f9054906101000a900473ffffffffffffffffffffffffffffffffffffffff1690508073ffffffffffffffffffffffffffffffffffffffff166108fc836003015490811502906040515f60405180830381858888f1935050505015801561044a573d5f803e3d5ffd5b5033826001015f6101000a81548173ffffffffffffffffffffffffffffffffffffffff021916908373ffffffffffffffffffffffffffffffffffffffff1602179055503373ffffffffffffffffffffffffffffffffffffffff16837f36b7402e3697821c4bcfe9ac412c0b7922a9308d632b152d8384b9a3be73ad1084600301546040516104d89190611dd4565b60405180910390a3505050565b60605f80600190505b600154811015610579573373ffffffffffffffffffffffffffffffffffffffff165f808381526020019081526020015f206002015f9054906101000a900473ffffffffffffffffffffffffffffffffffffffff1673ffffffffffffffffffffffffffffffffffffffff160361056c5781806105689061239a565b9250505b80806001019150506104ee565b505f8167ffffffffffffffff81111561059557610594612049565b5b6040519080825280602002602001820160405280156105ce57816020015b6105bb611c84565b8152602001906001900390816105b35790505b5090505f80600190505b60015481101561094e573373ffffffffffffffffffffffffffffffffffffffff165f808381526020019081526020015f206002015f9054906101000a900473ffffffffffffffffffffffffffffffffffffffff1673ffffffffffffffffffffffffffffffffffffffff1603610941576040518061010001604052805f808481526020019081526020015f205f015481526020015f808481526020019081526020015f206001015f9054906101000a900473ffffffffffffffffffffffffffffffffffffffff1673ffffffffffffffffffffffffffffffffffffffff1681526020015f808481526020019081526020015f206002015f9054906101000a900473ffffffffffffffffffffffffffffffffffffffff1673ffffffffffffffffffffffffffffffffffffffff1681526020015f808481526020019081526020015f206003015481526020015f808481526020019081526020015f206004015481526020015f808481526020019081526020015f2060050180546107579061240e565b80601f01602080910402602001604051908101604052809291908181526020018280546107839061240e565b80156107ce5780601f106107a5576101008083540402835291602001916107ce565b820191905f5260205f20905b8154815290600101906020018083116107b157829003601f168201915b505050505081526020015f808481526020019081526020015f2060060180546107f69061240e565b80601f01602080910402602001604051908101604052809291908181526020018280546108229061240e565b801561086d5780601f106108445761010080835404028352916020019161086d565b820191905f5260205f20905b81548152906001019060200180831161085057829003601f168201915b505050505081526020015f808481526020019081526020015f2060070180546108959061240e565b80601f01602080910402602001604051908101604052809291908181526020018280546108c19061240e565b801561090c5780601f106108e35761010080835404028352916020019161090c565b820191905f5260205f20905b8154815290600101906020018083116108ef57829003601f168201915b50505050508152508383815181106109275761092661243e565b5b6020026020010181905250818061093d9061239a565b9250505b80806001019150506105d8565b5081935050505090565b60605f60018054610969919061246b565b67ffffffffffffffff81111561098257610981612049565b5b6040519080825280602002602001820160405280156109bb57816020015b6109a8611c84565b8152602001906001900390816109a05790505b5090505f600190505b600154811015610c98575f808281526020019081526020015f20604051806101000160405290815f8201548152602001600182015f9054906101000a900473ffffffffffffffffffffffffffffffffffffffff1673ffffffffffffffffffffffffffffffffffffffff1673ffffffffffffffffffffffffffffffffffffffff168152602001600282015f9054906101000a900473ffffffffffffffffffffffffffffffffffffffff1673ffffffffffffffffffffffffffffffffffffffff1673ffffffffffffffffffffffffffffffffffffffff1681526020016003820154815260200160048201548152602001600582018054610ac19061240e565b80601f0160208091040260200160405190810160405280929190818152602001828054610aed9061240e565b8015610b385780601f10610b0f57610100808354040283529160200191610b38565b820191905f5260205f20905b815481529060010190602001808311610b1b57829003601f168201915b50505050508152602001600682018054610b519061240e565b80601f0160208091040260200160405190810160405280929190818152602001828054610b7d9061240e565b8015610bc85780601f10610b9f57610100808354040283529160200191610bc8565b820191905f5260205f20905b815481529060010190602001808311610bab57829003601f168201915b50505050508152602001600782018054610be19061240e565b80601f0160208091040260200160405190810160405280929190818152602001828054610c0d9061240e565b8015610c585780601f10610c2f57610100808354040283529160200191610c58565b820191905f5260205f20905b815481529060010190602001808311610c3b57829003601f168201915b50505050508152505082600183610c6f919061246b565b81518110610c8057610c7f61243e565b5b602002602001018190525080806001019150506109c4565b508091505090565b5f845111610ce3576040517f08c379a0000000000000000000000000000000000000000000000000000000008152600401610cda906124e8565b60405180910390fd5b60405180610100016040528060015481526020013373ffffffffffffffffffffffffffffffffffffffff1681526020013373ffffffffffffffffffffffffffffffffffffffff1681526020018281526020015f8152602001858152602001848152602001838152505f8060015481526020019081526020015f205f820151815f01556020820151816001015f6101000a81548173ffffffffffffffffffffffffffffffffffffffff021916908373ffffffffffffffffffffffffffffffffffffffff1602179055506040820151816002015f6101000a81548173ffffffffffffffffffffffffffffffffffffffff021916908373ffffffffffffffffffffffffffffffffffffffff160217905550606082015181600301556080820151816004015560a0820151816005019081610e1a91906126a3565b5060c0820151816006019081610e3091906126a3565b5060e0820151816007019081610e4691906126a3565b509050503373ffffffffffffffffffffffffffffffffffffffff166001547fc1731d471547e930af67ac7b6518cb22212e43f91965a7f12aa417a83864f4ba86604051610e9391906127aa565b60405180910390a360015f815480929190610ead9061239a565b919050555050505050565b5f805f8381526020019081526020015f2090505f815f015403610f10576040517f08c379a0000000000000000000000000000000000000000000000000000000008152600401610f079061227f565b60405180910390fd5b5f60025f3373ffffffffffffffffffffffffffffffffffffffff1673ffffffffffffffffffffffffffffffffffffffff1681526020019081526020015f2090505f5b8180549050811015610fc85783828281548110610f7257610f7161243e565b5b905f5260205f20015403610fbb576040517f08c379a0000000000000000000000000000000000000000000000000000000008152600401610fb290612814565b60405180910390fd5b8080600101915050610f52565b50816004015f815480929190610fdd9061239a565b919050555060035f8481526020019081526020015f205f8154809291906110039061239a565b91905055505f60025f3373ffffffffffffffffffffffffffffffffffffffff1673ffffffffffffffffffffffffffffffffffffffff1681526020019081526020015f2080549050036110af5760405180602001604052808481525060025f3373ffffffffffffffffffffffffffffffffffffffff1673ffffffffffffffffffffffffffffffffffffffff1681526020019081526020015f209060016110a9929190611cf0565b50611111565b60025f3373ffffffffffffffffffffffffffffffffffffffff1673ffffffffffffffffffffffffffffffffffffffff1681526020019081526020015f2083908060018154018082558091505060019003905f5260205f20015f90919091909150555b3373ffffffffffffffffffffffffffffffffffffffff16837f201735a6ff64e1da0dc3df2d17ecf024f61008ee5d86da74e1596dc140b4a74f60405160405180910390a3505050565b5f805f8381526020019081526020015f2090505f815f0154036111b2576040517f08c379a00000000000000000000000000000000000000000000000000000000081526004016111a99061227f565b60405180910390fd5b5f60025f3373ffffffffffffffffffffffffffffffffffffffff1673ffffffffffffffffffffffffffffffffffffffff1681526020019081526020015f2090505f80805f90505b838054905081101561124057858482815481106112195761121861243e565b5b905f5260205f200154036112335760019250809150611240565b80806001019150506111f9565b5081611281576040517f08c379a00000000000000000000000000000000000000000000000000000000081526004016112789061287c565b60405180910390fd5b836004015f8154809291906112959061289a565b919050555060035f8681526020019081526020015f205f8154809291906112bb9061289a565b9190505550600183805490506112d1919061246b565b81146113235782600184805490506112e9919061246b565b815481106112fa576112f961243e565b5b905f5260205f2001548382815481106113165761131561243e565b5b905f5260205f2001819055505b82805480611334576113336128c1565b5b600190038181905f5260205f20015f905590553373ffffffffffffffffffffffffffffffffffffffff16857f201735a6ff64e1da0dc3df2d17ecf024f61008ee5d86da74e1596dc140b4a74f60405160405180910390a35050505050565b60605f60025f3373ffffffffffffffffffffffffffffffffffffffff1673ffffffffffffffffffffffffffffffffffffffff1681526020019081526020015f2080548060200260200160405190810160405280929190818152602001828054801561141a57602002820191905f5260205f20905b815481526020019060010190808311611406575b505050505090505f815167ffffffffffffffff81111561143d5761143c612049565b5b60405190808252806020026020018201604052801561147657816020015b611463611c84565b81526020019060019003908161145b5790505b5090505f5b8251811015611732575f805f85848151811061149a5761149961243e565b5b602002602001015181526020019081526020015f209050604051806101000160405280825f01548152602001826001015f9054906101000a900473ffffffffffffffffffffffffffffffffffffffff1673ffffffffffffffffffffffffffffffffffffffff168152602001826002015f9054906101000a900473ffffffffffffffffffffffffffffffffffffffff1673ffffffffffffffffffffffffffffffffffffffff16815260200182600301548152602001826004015481526020018260050180546115679061240e565b80601f01602080910402602001604051908101604052809291908181526020018280546115939061240e565b80156115de5780601f106115b5576101008083540402835291602001916115de565b820191905f5260205f20905b8154815290600101906020018083116115c157829003601f168201915b505050505081526020018260060180546115f79061240e565b80601f01602080910402602001604051908101604052809291908181526020018280546116239061240e565b801561166e5780601f106116455761010080835404028352916020019161166e565b820191905f5260205f20905b81548152906001019060200180831161165157829003601f168201915b505050505081526020018260070180546116879061240e565b80601f01602080910402602001604051908101604052809291908181526020018280546116b39061240e565b80156116fe5780601f106116d5576101008083540402835291602001916116fe565b820191905f5260205f20905b8154815290600101906020018083116116e157829003601f168201915b50505050508152508383815181106117195761171861243e565b5b602002602001018190525050808060010191505061147b565b50809250505090565b60605f80600190505b60015481101561183a573373ffffffffffffffffffffffffffffffffffffffff165f808381526020019081526020015f206001015f9054906101000a900473ffffffffffffffffffffffffffffffffffffffff1673ffffffffffffffffffffffffffffffffffffffff1614801561181957503373ffffffffffffffffffffffffffffffffffffffff165f808381526020019081526020015f206002015f9054906101000a900473ffffffffffffffffffffffffffffffffffffffff1673ffffffffffffffffffffffffffffffffffffffff1614155b1561182d5781806118299061239a565b9250505b8080600101915050611744565b505f8167ffffffffffffffff81111561185657611855612049565b5b60405190808252806020026020018201604052801561188f57816020015b61187c611c84565b8152602001906001900390816118745790505b5090505f80600190505b600154811015611c7a573373ffffffffffffffffffffffffffffffffffffffff165f808381526020019081526020015f206001015f9054906101000a900473ffffffffffffffffffffffffffffffffffffffff1673ffffffffffffffffffffffffffffffffffffffff1614801561196e57503373ffffffffffffffffffffffffffffffffffffffff165f808381526020019081526020015f206002015f9054906101000a900473ffffffffffffffffffffffffffffffffffffffff1673ffffffffffffffffffffffffffffffffffffffff1614155b15611c6d576040518061010001604052805f808481526020019081526020015f205f015481526020015f808481526020019081526020015f206001015f9054906101000a900473ffffffffffffffffffffffffffffffffffffffff1673ffffffffffffffffffffffffffffffffffffffff1681526020015f808481526020019081526020015f206002015f9054906101000a900473ffffffffffffffffffffffffffffffffffffffff1673ffffffffffffffffffffffffffffffffffffffff1681526020015f808481526020019081526020015f206003015481526020015f808481526020019081526020015f206004015481526020015f808481526020019081526020015f206005018054611a839061240e565b80601f0160208091040260200160405190810160405280929190818152602001828054611aaf9061240e565b8015611afa5780601f10611ad157610100808354040283529160200191611afa565b820191905f5260205f20905b815481529060010190602001808311611add57829003601f168201915b505050505081526020015f808481526020019081526020015f206006018054611b229061240e565b80601f0160208091040260200160405190810160405280929190818152602001828054611b4e9061240e565b8015611b995780601f10611b7057610100808354040283529160200191611b99565b820191905f5260205f20905b815481529060010190602001808311611b7c57829003601f168201915b505050505081526020015f808481526020019081526020015f206007018054611bc19061240e565b80601f0160208091040260200160405190810160405280929190818152602001828054611bed9061240e565b8015611c385780601f10611c0f57610100808354040283529160200191611c38565b820191905f5260205f20905b815481529060010190602001808311611c1b57829003601f168201915b5050505050815250838381518110611c5357611c5261243e565b5b60200260200101819052508180611c699061239a565b9250505b8080600101915050611899565b5081935050505090565b6040518061010001604052805f81526020015f73ffffffffffffffffffffffffffffffffffffffff1681526020015f73ffffffffffffffffffffffffffffffffffffffff1681526020015f81526020015f81526020016060815260200160608152602001606081525090565b828054828255905f5260205f20908101928215611d2a579160200282015b82811115611d29578251825591602001919060010190611d0e565b5b509050611d379190611d3b565b5090565b5b80821115611d52575f815f905550600101611d3c565b5090565b5f604051905090565b5f80fd5b5f80fd5b5f819050919050565b611d7981611d67565b8114611d83575f80fd5b50565b5f81359050611d9481611d70565b92915050565b5f60208284031215611daf57611dae611d5f565b5b5f611dbc84828501611d86565b91505092915050565b611dce81611d67565b82525050565b5f602082019050611de75f830184611dc5565b92915050565b5f81519050919050565b5f82825260208201905092915050565b5f819050602082019050919050565b611e1f81611d67565b82525050565b5f73ffffffffffffffffffffffffffffffffffffffff82169050919050565b5f611e4e82611e25565b9050919050565b611e5e81611e44565b82525050565b5f81519050919050565b5f82825260208201905092915050565b8281835e5f83830152505050565b5f601f19601f8301169050919050565b5f611ea682611e64565b611eb08185611e6e565b9350611ec0818560208601611e7e565b611ec981611e8c565b840191505092915050565b5f61010083015f830151611eea5f860182611e16565b506020830151611efd6020860182611e55565b506040830151611f106040860182611e55565b506060830151611f236060860182611e16565b506080830151611f366080860182611e16565b5060a083015184820360a0860152611f4e8282611e9c565b91505060c083015184820360c0860152611f688282611e9c565b91505060e083015184820360e0860152611f828282611e9c565b9150508091505092915050565b5f611f9a8383611ed4565b905092915050565b5f602082019050919050565b5f611fb882611ded565b611fc28185611df7565b935083602082028501611fd485611e07565b805f5b8581101561200f5784840389528151611ff08582611f8f565b9450611ffb83611fa2565b925060208a01995050600181019050611fd7565b50829750879550505050505092915050565b5f6020820190508181035f8301526120398184611fae565b905092915050565b5f80fd5b5f80fd5b7f4e487b71000000000000000000000000000000000000000000000000000000005f52604160045260245ffd5b61207f82611e8c565b810181811067ffffffffffffffff8211171561209e5761209d612049565b5b80604052505050565b5f6120b0611d56565b90506120bc8282612076565b919050565b5f67ffffffffffffffff8211156120db576120da612049565b5b6120e482611e8c565b9050602081019050919050565b828183375f83830152505050565b5f61211161210c846120c1565b6120a7565b90508281526020810184848401111561212d5761212c612045565b5b6121388482856120f1565b509392505050565b5f82601f83011261215457612153612041565b5b81356121648482602086016120ff565b91505092915050565b5f805f806080858703121561218557612184611d5f565b5b5f85013567ffffffffffffffff8111156121a2576121a1611d63565b5b6121ae87828801612140565b945050602085013567ffffffffffffffff8111156121cf576121ce611d63565b5b6121db87828801612140565b935050604085013567ffffffffffffffff8111156121fc576121fb611d63565b5b61220887828801612140565b925050606061221987828801611d86565b91505092959194509250565b5f82825260208201905092915050565b7f4d7573696320546f6b656e20646f6573206e6f742065786973740000000000005f82015250565b5f612269601a83612225565b915061227482612235565b602082019050919050565b5f6020820190508181035f8301526122968161225d565b9050919050565b7f596f752063616e6e6f742062757920796f7572206f776e206d757369630000005f82015250565b5f6122d1601d83612225565b91506122dc8261229d565b602082019050919050565b5f6020820190508181035f8301526122fe816122c5565b9050919050565b7f496e73756666696369656e742066756e647320746f20627579000000000000005f82015250565b5f612339601983612225565b915061234482612305565b602082019050919050565b5f6020820190508181035f8301526123668161232d565b9050919050565b7f4e487b71000000000000000000000000000000000000000000000000000000005f52601160045260245ffd5b5f6123a482611d67565b91507fffffffffffffffffffffffffffffffffffffffffffffffffffffffffffffffff82036123d6576123d561236d565b5b600182019050919050565b7f4e487b71000000000000000000000000000000000000000000000000000000005f52602260045260245ffd5b5f600282049050600182168061242557607f821691505b602082108103612438576124376123e1565b5b50919050565b7f4e487b71000000000000000000000000000000000000000000000000000000005f52603260045260245ffd5b5f61247582611d67565b915061248083611d67565b92508282039050818111156124985761249761236d565b5b92915050565b7f4d75736963206e616d652063616e6e6f7420626520656d7074790000000000005f82015250565b5f6124d2601a83612225565b91506124dd8261249e565b602082019050919050565b5f6020820190508181035f8301526124ff816124c6565b9050919050565b5f819050815f5260205f209050919050565b5f6020601f8301049050919050565b5f82821b905092915050565b5f600883026125627fffffffffffffffffffffffffffffffffffffffffffffffffffffffffffffffff82612527565b61256c8683612527565b95508019841693508086168417925050509392505050565b5f819050919050565b5f6125a76125a261259d84611d67565b612584565b611d67565b9050919050565b5f819050919050565b6125c08361258d565b6125d46125cc826125ae565b848454612533565b825550505050565b5f90565b6125e86125dc565b6125f38184846125b7565b505050565b5b818110156126165761260b5f826125e0565b6001810190506125f9565b5050565b601f82111561265b5761262c81612506565b61263584612518565b81016020851015612644578190505b61265861265085612518565b8301826125f8565b50505b505050565b5f82821c905092915050565b5f61267b5f1984600802612660565b1980831691505092915050565b5f612693838361266c565b9150826002028217905092915050565b6126ac82611e64565b67ffffffffffffffff8111156126c5576126c4612049565b5b6126cf825461240e565b6126da82828561261a565b5f60209050601f83116001811461270b575f84156126f9578287015190505b6127038582612688565b86555061276a565b601f19841661271986612506565b5f5b828110156127405784890151825560018201915060208501945060208101905061271b565b8683101561275d5784890151612759601f89168261266c565b8355505b6001600288020188555050505b505050505050565b5f61277c82611e64565b6127868185612225565b9350612796818560208601611e7e565b61279f81611e8c565b840191505092915050565b5f6020820190508181035f8301526127c28184612772565b905092915050565b7f4d7573696320697320616c7265616479206c696b6564000000000000000000005f82015250565b5f6127fe601683612225565b9150612809826127ca565b602082019050919050565b5f6020820190508181035f83015261282b816127f2565b9050919050565b7f4d75736963206973206e6f74206c696b656400000000000000000000000000005f82015250565b5f612866601283612225565b915061287182612832565b602082019050919050565b5f6020820190508181035f8301526128938161285a565b9050919050565b5f6128a482611d67565b91505f82036128b6576128b561236d565b5b600182039050919050565b7f4e487b71000000000000000000000000000000000000000000000000000000005f52603160045260245ffdfea26469706673582212204799b674a992414cd5e182413f2203c467e2363e9e143a20b739738c83fa716464736f6c634300081a0033",
					"opcodes": "PUSH1 0x80 PUSH1 0x40 MSTORE PUSH1 0x1 DUP1 SSTORE CALLVALUE DUP1 ISZERO PUSH1 0x12 JUMPI PUSH0 DUP1 REVERT JUMPDEST POP PUSH2 0x2924 DUP1 PUSH2 0x20 PUSH0 CODECOPY PUSH0 RETURN INVALID PUSH1 0x80 PUSH1 0x40 MSTORE PUSH1 0x4 CALLDATASIZE LT PUSH2 0x85 JUMPI PUSH0 CALLDATALOAD PUSH1 0xE0 SHR DUP1 PUSH4 0x6AC028BE GT PUSH2 0x58 JUMPI DUP1 PUSH4 0x6AC028BE EQ PUSH2 0x135 JUMPI DUP1 PUSH4 0x6B792D5B EQ PUSH2 0x15D JUMPI DUP1 PUSH4 0x75C6E6F5 EQ PUSH2 0x185 JUMPI DUP1 PUSH4 0xCC7414D0 EQ PUSH2 0x1AD JUMPI DUP1 PUSH4 0xD054B9EF EQ PUSH2 0x1D7 JUMPI PUSH2 0x85 JUMP JUMPDEST DUP1 PUSH4 0xFEB80E6 EQ PUSH2 0x89 JUMPI DUP1 PUSH4 0x2538C533 EQ PUSH2 0xC5 JUMPI DUP1 PUSH4 0x3E45FF47 EQ PUSH2 0xE1 JUMPI DUP1 PUSH4 0x4A4B6656 EQ PUSH2 0x10B JUMPI JUMPDEST PUSH0 DUP1 REVERT JUMPDEST CALLVALUE DUP1 ISZERO PUSH2 0x94 JUMPI PUSH0 DUP1 REVERT JUMPDEST POP PUSH2 0xAF PUSH1 0x4 DUP1 CALLDATASIZE SUB DUP2 ADD SWAP1 PUSH2 0xAA SWAP2 SWAP1 PUSH2 0x1D9A JUMP JUMPDEST PUSH2 0x201 JUMP JUMPDEST PUSH1 0x40 MLOAD PUSH2 0xBC SWAP2 SWAP1 PUSH2 0x1DD4 JUMP JUMPDEST PUSH1 0x40 MLOAD DUP1 SWAP2 SUB SWAP1 RETURN JUMPDEST PUSH2 0xDF PUSH1 0x4 DUP1 CALLDATASIZE SUB DUP2 ADD SWAP1 PUSH2 0xDA SWAP2 SWAP1 PUSH2 0x1D9A JUMP JUMPDEST PUSH2 0x21B JUMP JUMPDEST STOP JUMPDEST CALLVALUE DUP1 ISZERO PUSH2 0xEC JUMPI PUSH0 DUP1 REVERT JUMPDEST POP PUSH2 0xF5 PUSH2 0x4E5 JUMP JUMPDEST PUSH1 0x40 MLOAD PUSH2 0x102 SWAP2 SWAP1 PUSH2 0x2021 JUMP JUMPDEST PUSH1 0x40 MLOAD DUP1 SWAP2 SUB SWAP1 RETURN JUMPDEST CALLVALUE DUP1 ISZERO PUSH2 0x116 JUMPI PUSH0 DUP1 REVERT JUMPDEST POP PUSH2 0x11F PUSH2 0x958 JUMP JUMPDEST PUSH1 0x40 MLOAD PUSH2 0x12C SWAP2 SWAP1 PUSH2 0x2021 JUMP JUMPDEST PUSH1 0x40 MLOAD DUP1 SWAP2 SUB SWAP1 RETURN JUMPDEST CALLVALUE DUP1 ISZERO PUSH2 0x140 JUMPI PUSH0 DUP1 REVERT JUMPDEST POP PUSH2 0x15B PUSH1 0x4 DUP1 CALLDATASIZE SUB DUP2 ADD SWAP1 PUSH2 0x156 SWAP2 SWAP1 PUSH2 0x216D JUMP JUMPDEST PUSH2 0xCA0 JUMP JUMPDEST STOP JUMPDEST CALLVALUE DUP1 ISZERO PUSH2 0x168 JUMPI PUSH0 DUP1 REVERT JUMPDEST POP PUSH2 0x183 PUSH1 0x4 DUP1 CALLDATASIZE SUB DUP2 ADD SWAP1 PUSH2 0x17E SWAP2 SWAP1 PUSH2 0x1D9A JUMP JUMPDEST PUSH2 0xEB8 JUMP JUMPDEST STOP JUMPDEST CALLVALUE DUP1 ISZERO PUSH2 0x190 JUMPI PUSH0 DUP1 REVERT JUMPDEST POP PUSH2 0x1AB PUSH1 0x4 DUP1 CALLDATASIZE SUB DUP2 ADD SWAP1 PUSH2 0x1A6 SWAP2 SWAP1 PUSH2 0x1D9A JUMP JUMPDEST PUSH2 0x115A JUMP JUMPDEST STOP JUMPDEST CALLVALUE DUP1 ISZERO PUSH2 0x1B8 JUMPI PUSH0 DUP1 REVERT JUMPDEST POP PUSH2 0x1C1 PUSH2 0x1392 JUMP JUMPDEST PUSH1 0x40 MLOAD PUSH2 0x1CE SWAP2 SWAP1 PUSH2 0x2021 JUMP JUMPDEST PUSH1 0x40 MLOAD DUP1 SWAP2 SUB SWAP1 RETURN JUMPDEST CALLVALUE DUP1 ISZERO PUSH2 0x1E2 JUMPI PUSH0 DUP1 REVERT JUMPDEST POP PUSH2 0x1EB PUSH2 0x173B JUMP JUMPDEST PUSH1 0x40 MLOAD PUSH2 0x1F8 SWAP2 SWAP1 PUSH2 0x2021 JUMP JUMPDEST PUSH1 0x40 MLOAD DUP1 SWAP2 SUB SWAP1 RETURN JUMPDEST PUSH0 PUSH1 0x3 PUSH0 DUP4 DUP2 MSTORE PUSH1 0x20 ADD SWAP1 DUP2 MSTORE PUSH1 0x20 ADD PUSH0 KECCAK256 SLOAD SWAP1 POP SWAP2 SWAP1 POP JUMP JUMPDEST PUSH0 DUP1 PUSH0 DUP4 DUP2 MSTORE PUSH1 0x20 ADD SWAP1 DUP2 MSTORE PUSH1 0x20 ADD PUSH0 KECCAK256 SWAP1 POP PUSH0 DUP2 PUSH0 ADD SLOAD SUB PUSH2 0x273 JUMPI PUSH1 0x40 MLOAD PUSH32 0x8C379A000000000000000000000000000000000000000000000000000000000 DUP2 MSTORE PUSH1 0x4 ADD PUSH2 0x26A SWAP1 PUSH2 0x227F JUMP JUMPDEST PUSH1 0x40 MLOAD DUP1 SWAP2 SUB SWAP1 REVERT JUMPDEST CALLER PUSH20 0xFFFFFFFFFFFFFFFFFFFFFFFFFFFFFFFFFFFFFFFF AND DUP2 PUSH1 0x1 ADD PUSH0 SWAP1 SLOAD SWAP1 PUSH2 0x100 EXP SWAP1 DIV PUSH20 0xFFFFFFFFFFFFFFFFFFFFFFFFFFFFFFFFFFFFFFFF AND PUSH20 0xFFFFFFFFFFFFFFFFFFFFFFFFFFFFFFFFFFFFFFFF AND SUB PUSH2 0x304 JUMPI PUSH1 0x40 MLOAD PUSH32 0x8C379A000000000000000000000000000000000000000000000000000000000 DUP2 MSTORE PUSH1 0x4 ADD PUSH2 0x2FB SWAP1 PUSH2 0x22E7 JUMP JUMPDEST PUSH1 0x40 MLOAD DUP1 SWAP2 SUB SWAP1 REVERT JUMPDEST CALLER PUSH20 0xFFFFFFFFFFFFFFFFFFFFFFFFFFFFFFFFFFFFFFFF AND DUP2 PUSH1 0x2 ADD PUSH0 SWAP1 SLOAD SWAP1 PUSH2 0x100 EXP SWAP1 DIV PUSH20 0xFFFFFFFFFFFFFFFFFFFFFFFFFFFFFFFFFFFFFFFF AND PUSH20 0xFFFFFFFFFFFFFFFFFFFFFFFFFFFFFFFFFFFFFFFF AND SUB PUSH2 0x395 JUMPI PUSH1 0x40 MLOAD PUSH32 0x8C379A000000000000000000000000000000000000000000000000000000000 DUP2 MSTORE PUSH1 0x4 ADD PUSH2 0x38C SWAP1 PUSH2 0x22E7 JUMP JUMPDEST PUSH1 0x40 MLOAD DUP1 SWAP2 SUB SWAP1 REVERT JUMPDEST DUP1 PUSH1 0x3 ADD SLOAD CALLVALUE LT ISZERO PUSH2 0x3DC JUMPI PUSH1 0x40 MLOAD PUSH32 0x8C379A000000000000000000000000000000000000000000000000000000000 DUP2 MSTORE PUSH1 0x4 ADD PUSH2 0x3D3 SWAP1 PUSH2 0x234F JUMP JUMPDEST PUSH1 0x40 MLOAD DUP1 SWAP2 SUB SWAP1 REVERT JUMPDEST PUSH0 DUP2 PUSH1 0x1 ADD PUSH0 SWAP1 SLOAD SWAP1 PUSH2 0x100 EXP SWAP1 DIV PUSH20 0xFFFFFFFFFFFFFFFFFFFFFFFFFFFFFFFFFFFFFFFF AND SWAP1 POP DUP1 PUSH20 0xFFFFFFFFFFFFFFFFFFFFFFFFFFFFFFFFFFFFFFFF AND PUSH2 0x8FC DUP4 PUSH1 0x3 ADD SLOAD SWAP1 DUP2 ISZERO MUL SWAP1 PUSH1 0x40 MLOAD PUSH0 PUSH1 0x40 MLOAD DUP1 DUP4 SUB DUP2 DUP6 DUP9 DUP9 CALL SWAP4 POP POP POP POP ISZERO DUP1 ISZERO PUSH2 0x44A JUMPI RETURNDATASIZE PUSH0 DUP1 RETURNDATACOPY RETURNDATASIZE PUSH0 REVERT JUMPDEST POP CALLER DUP3 PUSH1 0x1 ADD PUSH0 PUSH2 0x100 EXP DUP2 SLOAD DUP2 PUSH20 0xFFFFFFFFFFFFFFFFFFFFFFFFFFFFFFFFFFFFFFFF MUL NOT AND SWAP1 DUP4 PUSH20 0xFFFFFFFFFFFFFFFFFFFFFFFFFFFFFFFFFFFFFFFF AND MUL OR SWAP1 SSTORE POP CALLER PUSH20 0xFFFFFFFFFFFFFFFFFFFFFFFFFFFFFFFFFFFFFFFF AND DUP4 PUSH32 0x36B7402E3697821C4BCFE9AC412C0B7922A9308D632B152D8384B9A3BE73AD10 DUP5 PUSH1 0x3 ADD SLOAD PUSH1 0x40 MLOAD PUSH2 0x4D8 SWAP2 SWAP1 PUSH2 0x1DD4 JUMP JUMPDEST PUSH1 0x40 MLOAD DUP1 SWAP2 SUB SWAP1 LOG3 POP POP POP JUMP JUMPDEST PUSH1 0x60 PUSH0 DUP1 PUSH1 0x1 SWAP1 POP JUMPDEST PUSH1 0x1 SLOAD DUP2 LT ISZERO PUSH2 0x579 JUMPI CALLER PUSH20 0xFFFFFFFFFFFFFFFFFFFFFFFFFFFFFFFFFFFFFFFF AND PUSH0 DUP1 DUP4 DUP2 MSTORE PUSH1 0x20 ADD SWAP1 DUP2 MSTORE PUSH1 0x20 ADD PUSH0 KECCAK256 PUSH1 0x2 ADD PUSH0 SWAP1 SLOAD SWAP1 PUSH2 0x100 EXP SWAP1 DIV PUSH20 0xFFFFFFFFFFFFFFFFFFFFFFFFFFFFFFFFFFFFFFFF AND PUSH20 0xFFFFFFFFFFFFFFFFFFFFFFFFFFFFFFFFFFFFFFFF AND SUB PUSH2 0x56C JUMPI DUP2 DUP1 PUSH2 0x568 SWAP1 PUSH2 0x239A JUMP JUMPDEST SWAP3 POP POP JUMPDEST DUP1 DUP1 PUSH1 0x1 ADD SWAP2 POP POP PUSH2 0x4EE JUMP JUMPDEST POP PUSH0 DUP2 PUSH8 0xFFFFFFFFFFFFFFFF DUP2 GT ISZERO PUSH2 0x595 JUMPI PUSH2 0x594 PUSH2 0x2049 JUMP JUMPDEST JUMPDEST PUSH1 0x40 MLOAD SWAP1 DUP1 DUP3 MSTORE DUP1 PUSH1 0x20 MUL PUSH1 0x20 ADD DUP3 ADD PUSH1 0x40 MSTORE DUP1 ISZERO PUSH2 0x5CE JUMPI DUP2 PUSH1 0x20 ADD JUMPDEST PUSH2 0x5BB PUSH2 0x1C84 JUMP JUMPDEST DUP2 MSTORE PUSH1 0x20 ADD SWAP1 PUSH1 0x1 SWAP1 SUB SWAP1 DUP2 PUSH2 0x5B3 JUMPI SWAP1 POP JUMPDEST POP SWAP1 POP PUSH0 DUP1 PUSH1 0x1 SWAP1 POP JUMPDEST PUSH1 0x1 SLOAD DUP2 LT ISZERO PUSH2 0x94E JUMPI CALLER PUSH20 0xFFFFFFFFFFFFFFFFFFFFFFFFFFFFFFFFFFFFFFFF AND PUSH0 DUP1 DUP4 DUP2 MSTORE PUSH1 0x20 ADD SWAP1 DUP2 MSTORE PUSH1 0x20 ADD PUSH0 KECCAK256 PUSH1 0x2 ADD PUSH0 SWAP1 SLOAD SWAP1 PUSH2 0x100 EXP SWAP1 DIV PUSH20 0xFFFFFFFFFFFFFFFFFFFFFFFFFFFFFFFFFFFFFFFF AND PUSH20 0xFFFFFFFFFFFFFFFFFFFFFFFFFFFFFFFFFFFFFFFF AND SUB PUSH2 0x941 JUMPI PUSH1 0x40 MLOAD DUP1 PUSH2 0x100 ADD PUSH1 0x40 MSTORE DUP1 PUSH0 DUP1 DUP5 DUP2 MSTORE PUSH1 0x20 ADD SWAP1 DUP2 MSTORE PUSH1 0x20 ADD PUSH0 KECCAK256 PUSH0 ADD SLOAD DUP2 MSTORE PUSH1 0x20 ADD PUSH0 DUP1 DUP5 DUP2 MSTORE PUSH1 0x20 ADD SWAP1 DUP2 MSTORE PUSH1 0x20 ADD PUSH0 KECCAK256 PUSH1 0x1 ADD PUSH0 SWAP1 SLOAD SWAP1 PUSH2 0x100 EXP SWAP1 DIV PUSH20 0xFFFFFFFFFFFFFFFFFFFFFFFFFFFFFFFFFFFFFFFF AND PUSH20 0xFFFFFFFFFFFFFFFFFFFFFFFFFFFFFFFFFFFFFFFF AND DUP2 MSTORE PUSH1 0x20 ADD PUSH0 DUP1 DUP5 DUP2 MSTORE PUSH1 0x20 ADD SWAP1 DUP2 MSTORE PUSH1 0x20 ADD PUSH0 KECCAK256 PUSH1 0x2 ADD PUSH0 SWAP1 SLOAD SWAP1 PUSH2 0x100 EXP SWAP1 DIV PUSH20 0xFFFFFFFFFFFFFFFFFFFFFFFFFFFFFFFFFFFFFFFF AND PUSH20 0xFFFFFFFFFFFFFFFFFFFFFFFFFFFFFFFFFFFFFFFF AND DUP2 MSTORE PUSH1 0x20 ADD PUSH0 DUP1 DUP5 DUP2 MSTORE PUSH1 0x20 ADD SWAP1 DUP2 MSTORE PUSH1 0x20 ADD PUSH0 KECCAK256 PUSH1 0x3 ADD SLOAD DUP2 MSTORE PUSH1 0x20 ADD PUSH0 DUP1 DUP5 DUP2 MSTORE PUSH1 0x20 ADD SWAP1 DUP2 MSTORE PUSH1 0x20 ADD PUSH0 KECCAK256 PUSH1 0x4 ADD SLOAD DUP2 MSTORE PUSH1 0x20 ADD PUSH0 DUP1 DUP5 DUP2 MSTORE PUSH1 0x20 ADD SWAP1 DUP2 MSTORE PUSH1 0x20 ADD PUSH0 KECCAK256 PUSH1 0x5 ADD DUP1 SLOAD PUSH2 0x757 SWAP1 PUSH2 0x240E JUMP JUMPDEST DUP1 PUSH1 0x1F ADD PUSH1 0x20 DUP1 SWAP2 DIV MUL PUSH1 0x20 ADD PUSH1 0x40 MLOAD SWAP1 DUP2 ADD PUSH1 0x40 MSTORE DUP1 SWAP3 SWAP2 SWAP1 DUP2 DUP2 MSTORE PUSH1 0x20 ADD DUP3 DUP1 SLOAD PUSH2 0x783 SWAP1 PUSH2 0x240E JUMP JUMPDEST DUP1 ISZERO PUSH2 0x7CE JUMPI DUP1 PUSH1 0x1F LT PUSH2 0x7A5 JUMPI PUSH2 0x100 DUP1 DUP4 SLOAD DIV MUL DUP4 MSTORE SWAP2 PUSH1 0x20 ADD SWAP2 PUSH2 0x7CE JUMP JUMPDEST DUP3 ADD SWAP2 SWAP1 PUSH0 MSTORE PUSH1 0x20 PUSH0 KECCAK256 SWAP1 JUMPDEST DUP2 SLOAD DUP2 MSTORE SWAP1 PUSH1 0x1 ADD SWAP1 PUSH1 0x20 ADD DUP1 DUP4 GT PUSH2 0x7B1 JUMPI DUP3 SWAP1 SUB PUSH1 0x1F AND DUP3 ADD SWAP2 JUMPDEST POP POP POP POP POP DUP2 MSTORE PUSH1 0x20 ADD PUSH0 DUP1 DUP5 DUP2 MSTORE PUSH1 0x20 ADD SWAP1 DUP2 MSTORE PUSH1 0x20 ADD PUSH0 KECCAK256 PUSH1 0x6 ADD DUP1 SLOAD PUSH2 0x7F6 SWAP1 PUSH2 0x240E JUMP JUMPDEST DUP1 PUSH1 0x1F ADD PUSH1 0x20 DUP1 SWAP2 DIV MUL PUSH1 0x20 ADD PUSH1 0x40 MLOAD SWAP1 DUP2 ADD PUSH1 0x40 MSTORE DUP1 SWAP3 SWAP2 SWAP1 DUP2 DUP2 MSTORE PUSH1 0x20 ADD DUP3 DUP1 SLOAD PUSH2 0x822 SWAP1 PUSH2 0x240E JUMP JUMPDEST DUP1 ISZERO PUSH2 0x86D JUMPI DUP1 PUSH1 0x1F LT PUSH2 0x844 JUMPI PUSH2 0x100 DUP1 DUP4 SLOAD DIV MUL DUP4 MSTORE SWAP2 PUSH1 0x20 ADD SWAP2 PUSH2 0x86D JUMP JUMPDEST DUP3 ADD SWAP2 SWAP1 PUSH0 MSTORE PUSH1 0x20 PUSH0 KECCAK256 SWAP1 JUMPDEST DUP2 SLOAD DUP2 MSTORE SWAP1 PUSH1 0x1 ADD SWAP1 PUSH1 0x20 ADD DUP1 DUP4 GT PUSH2 0x850 JUMPI DUP3 SWAP1 SUB PUSH1 0x1F AND DUP3 ADD SWAP2 JUMPDEST POP POP POP POP POP DUP2 MSTORE PUSH1 0x20 ADD PUSH0 DUP1 DUP5 DUP2 MSTORE PUSH1 0x20 ADD SWAP1 DUP2 MSTORE PUSH1 0x20 ADD PUSH0 KECCAK256 PUSH1 0x7 ADD DUP1 SLOAD PUSH2 0x895 SWAP1 PUSH2 0x240E JUMP JUMPDEST DUP1 PUSH1 0x1F ADD PUSH1 0x20 DUP1 SWAP2 DIV MUL PUSH1 0x20 ADD PUSH1 0x40 MLOAD SWAP1 DUP2 ADD PUSH1 0x40 MSTORE DUP1 SWAP3 SWAP2 SWAP1 DUP2 DUP2 MSTORE PUSH1 0x20 ADD DUP3 DUP1 SLOAD PUSH2 0x8C1 SWAP1 PUSH2 0x240E JUMP JUMPDEST DUP1 ISZERO PUSH2 0x90C JUMPI DUP1 PUSH1 0x1F LT PUSH2 0x8E3 JUMPI PUSH2 0x100 DUP1 DUP4 SLOAD DIV MUL DUP4 MSTORE SWAP2 PUSH1 0x20 ADD SWAP2 PUSH2 0x90C JUMP JUMPDEST DUP3 ADD SWAP2 SWAP1 PUSH0 MSTORE PUSH1 0x20 PUSH0 KECCAK256 SWAP1 JUMPDEST DUP2 SLOAD DUP2 MSTORE SWAP1 PUSH1 0x1 ADD SWAP1 PUSH1 0x20 ADD DUP1 DUP4 GT PUSH2 0x8EF JUMPI DUP3 SWAP1 SUB PUSH1 0x1F AND DUP3 ADD SWAP2 JUMPDEST POP POP POP POP POP DUP2 MSTORE POP DUP4 DUP4 DUP2 MLOAD DUP2 LT PUSH2 0x927 JUMPI PUSH2 0x926 PUSH2 0x243E JUMP JUMPDEST JUMPDEST PUSH1 0x20 MUL PUSH1 0x20 ADD ADD DUP2 SWAP1 MSTORE POP DUP2 DUP1 PUSH2 0x93D SWAP1 PUSH2 0x239A JUMP JUMPDEST SWAP3 POP POP JUMPDEST DUP1 DUP1 PUSH1 0x1 ADD SWAP2 POP POP PUSH2 0x5D8 JUMP JUMPDEST POP DUP2 SWAP4 POP POP POP POP SWAP1 JUMP JUMPDEST PUSH1 0x60 PUSH0 PUSH1 0x1 DUP1 SLOAD PUSH2 0x969 SWAP2 SWAP1 PUSH2 0x246B JUMP JUMPDEST PUSH8 0xFFFFFFFFFFFFFFFF DUP2 GT ISZERO PUSH2 0x982 JUMPI PUSH2 0x981 PUSH2 0x2049 JUMP JUMPDEST JUMPDEST PUSH1 0x40 MLOAD SWAP1 DUP1 DUP3 MSTORE DUP1 PUSH1 0x20 MUL PUSH1 0x20 ADD DUP3 ADD PUSH1 0x40 MSTORE DUP1 ISZERO PUSH2 0x9BB JUMPI DUP2 PUSH1 0x20 ADD JUMPDEST PUSH2 0x9A8 PUSH2 0x1C84 JUMP JUMPDEST DUP2 MSTORE PUSH1 0x20 ADD SWAP1 PUSH1 0x1 SWAP1 SUB SWAP1 DUP2 PUSH2 0x9A0 JUMPI SWAP1 POP JUMPDEST POP SWAP1 POP PUSH0 PUSH1 0x1 SWAP1 POP JUMPDEST PUSH1 0x1 SLOAD DUP2 LT ISZERO PUSH2 0xC98 JUMPI PUSH0 DUP1 DUP3 DUP2 MSTORE PUSH1 0x20 ADD SWAP1 DUP2 MSTORE PUSH1 0x20 ADD PUSH0 KECCAK256 PUSH1 0x40 MLOAD DUP1 PUSH2 0x100 ADD PUSH1 0x40 MSTORE SWAP1 DUP2 PUSH0 DUP3 ADD SLOAD DUP2 MSTORE PUSH1 0x20 ADD PUSH1 0x1 DUP3 ADD PUSH0 SWAP1 SLOAD SWAP1 PUSH2 0x100 EXP SWAP1 DIV PUSH20 0xFFFFFFFFFFFFFFFFFFFFFFFFFFFFFFFFFFFFFFFF AND PUSH20 0xFFFFFFFFFFFFFFFFFFFFFFFFFFFFFFFFFFFFFFFF AND PUSH20 0xFFFFFFFFFFFFFFFFFFFFFFFFFFFFFFFFFFFFFFFF AND DUP2 MSTORE PUSH1 0x20 ADD PUSH1 0x2 DUP3 ADD PUSH0 SWAP1 SLOAD SWAP1 PUSH2 0x100 EXP SWAP1 DIV PUSH20 0xFFFFFFFFFFFFFFFFFFFFFFFFFFFFFFFFFFFFFFFF AND PUSH20 0xFFFFFFFFFFFFFFFFFFFFFFFFFFFFFFFFFFFFFFFF AND PUSH20 0xFFFFFFFFFFFFFFFFFFFFFFFFFFFFFFFFFFFFFFFF AND DUP2 MSTORE PUSH1 0x20 ADD PUSH1 0x3 DUP3 ADD SLOAD DUP2 MSTORE PUSH1 0x20 ADD PUSH1 0x4 DUP3 ADD SLOAD DUP2 MSTORE PUSH1 0x20 ADD PUSH1 0x5 DUP3 ADD DUP1 SLOAD PUSH2 0xAC1 SWAP1 PUSH2 0x240E JUMP JUMPDEST DUP1 PUSH1 0x1F ADD PUSH1 0x20 DUP1 SWAP2 DIV MUL PUSH1 0x20 ADD PUSH1 0x40 MLOAD SWAP1 DUP2 ADD PUSH1 0x40 MSTORE DUP1 SWAP3 SWAP2 SWAP1 DUP2 DUP2 MSTORE PUSH1 0x20 ADD DUP3 DUP1 SLOAD PUSH2 0xAED SWAP1 PUSH2 0x240E JUMP JUMPDEST DUP1 ISZERO PUSH2 0xB38 JUMPI DUP1 PUSH1 0x1F LT PUSH2 0xB0F JUMPI PUSH2 0x100 DUP1 DUP4 SLOAD DIV MUL DUP4 MSTORE SWAP2 PUSH1 0x20 ADD SWAP2 PUSH2 0xB38 JUMP JUMPDEST DUP3 ADD SWAP2 SWAP1 PUSH0 MSTORE PUSH1 0x20 PUSH0 KECCAK256 SWAP1 JUMPDEST DUP2 SLOAD DUP2 MSTORE SWAP1 PUSH1 0x1 ADD SWAP1 PUSH1 0x20 ADD DUP1 DUP4 GT PUSH2 0xB1B JUMPI DUP3 SWAP1 SUB PUSH1 0x1F AND DUP3 ADD SWAP2 JUMPDEST POP POP POP POP POP DUP2 MSTORE PUSH1 0x20 ADD PUSH1 0x6 DUP3 ADD DUP1 SLOAD PUSH2 0xB51 SWAP1 PUSH2 0x240E JUMP JUMPDEST DUP1 PUSH1 0x1F ADD PUSH1 0x20 DUP1 SWAP2 DIV MUL PUSH1 0x20 ADD PUSH1 0x40 MLOAD SWAP1 DUP2 ADD PUSH1 0x40 MSTORE DUP1 SWAP3 SWAP2 SWAP1 DUP2 DUP2 MSTORE PUSH1 0x20 ADD DUP3 DUP1 SLOAD PUSH2 0xB7D SWAP1 PUSH2 0x240E JUMP JUMPDEST DUP1 ISZERO PUSH2 0xBC8 JUMPI DUP1 PUSH1 0x1F LT PUSH2 0xB9F JUMPI PUSH2 0x100 DUP1 DUP4 SLOAD DIV MUL DUP4 MSTORE SWAP2 PUSH1 0x20 ADD SWAP2 PUSH2 0xBC8 JUMP JUMPDEST DUP3 ADD SWAP2 SWAP1 PUSH0 MSTORE PUSH1 0x20 PUSH0 KECCAK256 SWAP1 JUMPDEST DUP2 SLOAD DUP2 MSTORE SWAP1 PUSH1 0x1 ADD SWAP1 PUSH1 0x20 ADD DUP1 DUP4 GT PUSH2 0xBAB JUMPI DUP3 SWAP1 SUB PUSH1 0x1F AND DUP3 ADD SWAP2 JUMPDEST POP POP POP POP POP DUP2 MSTORE PUSH1 0x20 ADD PUSH1 0x7 DUP3 ADD DUP1 SLOAD PUSH2 0xBE1 SWAP1 PUSH2 0x240E JUMP JUMPDEST DUP1 PUSH1 0x1F ADD PUSH1 0x20 DUP1 SWAP2 DIV MUL PUSH1 0x20 ADD PUSH1 0x40 MLOAD SWAP1 DUP2 ADD PUSH1 0x40 MSTORE DUP1 SWAP3 SWAP2 SWAP1 DUP2 DUP2 MSTORE PUSH1 0x20 ADD DUP3 DUP1 SLOAD PUSH2 0xC0D SWAP1 PUSH2 0x240E JUMP JUMPDEST DUP1 ISZERO PUSH2 0xC58 JUMPI DUP1 PUSH1 0x1F LT PUSH2 0xC2F JUMPI PUSH2 0x100 DUP1 DUP4 SLOAD DIV MUL DUP4 MSTORE SWAP2 PUSH1 0x20 ADD SWAP2 PUSH2 0xC58 JUMP JUMPDEST DUP3 ADD SWAP2 SWAP1 PUSH0 MSTORE PUSH1 0x20 PUSH0 KECCAK256 SWAP1 JUMPDEST DUP2 SLOAD DUP2 MSTORE SWAP1 PUSH1 0x1 ADD SWAP1 PUSH1 0x20 ADD DUP1 DUP4 GT PUSH2 0xC3B JUMPI DUP3 SWAP1 SUB PUSH1 0x1F AND DUP3 ADD SWAP2 JUMPDEST POP POP POP POP POP DUP2 MSTORE POP POP DUP3 PUSH1 0x1 DUP4 PUSH2 0xC6F SWAP2 SWAP1 PUSH2 0x246B JUMP JUMPDEST DUP2 MLOAD DUP2 LT PUSH2 0xC80 JUMPI PUSH2 0xC7F PUSH2 0x243E JUMP JUMPDEST JUMPDEST PUSH1 0x20 MUL PUSH1 0x20 ADD ADD DUP2 SWAP1 MSTORE POP DUP1 DUP1 PUSH1 0x1 ADD SWAP2 POP POP PUSH2 0x9C4 JUMP JUMPDEST POP DUP1 SWAP2 POP POP SWAP1 JUMP JUMPDEST PUSH0 DUP5 MLOAD GT PUSH2 0xCE3 JUMPI PUSH1 0x40 MLOAD PUSH32 0x8C379A000000000000000000000000000000000000000000000000000000000 DUP2 MSTORE PUSH1 0x4 ADD PUSH2 0xCDA SWAP1 PUSH2 0x24E8 JUMP JUMPDEST PUSH1 0x40 MLOAD DUP1 SWAP2 SUB SWAP1 REVERT JUMPDEST PUSH1 0x40 MLOAD DUP1 PUSH2 0x100 ADD PUSH1 0x40 MSTORE DUP1 PUSH1 0x1 SLOAD DUP2 MSTORE PUSH1 0x20 ADD CALLER PUSH20 0xFFFFFFFFFFFFFFFFFFFFFFFFFFFFFFFFFFFFFFFF AND DUP2 MSTORE PUSH1 0x20 ADD CALLER PUSH20 0xFFFFFFFFFFFFFFFFFFFFFFFFFFFFFFFFFFFFFFFF AND DUP2 MSTORE PUSH1 0x20 ADD DUP3 DUP2 MSTORE PUSH1 0x20 ADD PUSH0 DUP2 MSTORE PUSH1 0x20 ADD DUP6 DUP2 MSTORE PUSH1 0x20 ADD DUP5 DUP2 MSTORE PUSH1 0x20 ADD DUP4 DUP2 MSTORE POP PUSH0 DUP1 PUSH1 0x1 SLOAD DUP2 MSTORE PUSH1 0x20 ADD SWAP1 DUP2 MSTORE PUSH1 0x20 ADD PUSH0 KECCAK256 PUSH0 DUP3 ADD MLOAD DUP2 PUSH0 ADD SSTORE PUSH1 0x20 DUP3 ADD MLOAD DUP2 PUSH1 0x1 ADD PUSH0 PUSH2 0x100 EXP DUP2 SLOAD DUP2 PUSH20 0xFFFFFFFFFFFFFFFFFFFFFFFFFFFFFFFFFFFFFFFF MUL NOT AND SWAP1 DUP4 PUSH20 0xFFFFFFFFFFFFFFFFFFFFFFFFFFFFFFFFFFFFFFFF AND MUL OR SWAP1 SSTORE POP PUSH1 0x40 DUP3 ADD MLOAD DUP2 PUSH1 0x2 ADD PUSH0 PUSH2 0x100 EXP DUP2 SLOAD DUP2 PUSH20 0xFFFFFFFFFFFFFFFFFFFFFFFFFFFFFFFFFFFFFFFF MUL NOT AND SWAP1 DUP4 PUSH20 0xFFFFFFFFFFFFFFFFFFFFFFFFFFFFFFFFFFFFFFFF AND MUL OR SWAP1 SSTORE POP PUSH1 0x60 DUP3 ADD MLOAD DUP2 PUSH1 0x3 ADD SSTORE PUSH1 0x80 DUP3 ADD MLOAD DUP2 PUSH1 0x4 ADD SSTORE PUSH1 0xA0 DUP3 ADD MLOAD DUP2 PUSH1 0x5 ADD SWAP1 DUP2 PUSH2 0xE1A SWAP2 SWAP1 PUSH2 0x26A3 JUMP JUMPDEST POP PUSH1 0xC0 DUP3 ADD MLOAD DUP2 PUSH1 0x6 ADD SWAP1 DUP2 PUSH2 0xE30 SWAP2 SWAP1 PUSH2 0x26A3 JUMP JUMPDEST POP PUSH1 0xE0 DUP3 ADD MLOAD DUP2 PUSH1 0x7 ADD SWAP1 DUP2 PUSH2 0xE46 SWAP2 SWAP1 PUSH2 0x26A3 JUMP JUMPDEST POP SWAP1 POP POP CALLER PUSH20 0xFFFFFFFFFFFFFFFFFFFFFFFFFFFFFFFFFFFFFFFF AND PUSH1 0x1 SLOAD PUSH32 0xC1731D471547E930AF67AC7B6518CB22212E43F91965A7F12AA417A83864F4BA DUP7 PUSH1 0x40 MLOAD PUSH2 0xE93 SWAP2 SWAP1 PUSH2 0x27AA JUMP JUMPDEST PUSH1 0x40 MLOAD DUP1 SWAP2 SUB SWAP1 LOG3 PUSH1 0x1 PUSH0 DUP2 SLOAD DUP1 SWAP3 SWAP2 SWAP1 PUSH2 0xEAD SWAP1 PUSH2 0x239A JUMP JUMPDEST SWAP2 SWAP1 POP SSTORE POP POP POP POP POP JUMP JUMPDEST PUSH0 DUP1 PUSH0 DUP4 DUP2 MSTORE PUSH1 0x20 ADD SWAP1 DUP2 MSTORE PUSH1 0x20 ADD PUSH0 KECCAK256 SWAP1 POP PUSH0 DUP2 PUSH0 ADD SLOAD SUB PUSH2 0xF10 JUMPI PUSH1 0x40 MLOAD PUSH32 0x8C379A000000000000000000000000000000000000000000000000000000000 DUP2 MSTORE PUSH1 0x4 ADD PUSH2 0xF07 SWAP1 PUSH2 0x227F JUMP JUMPDEST PUSH1 0x40 MLOAD DUP1 SWAP2 SUB SWAP1 REVERT JUMPDEST PUSH0 PUSH1 0x2 PUSH0 CALLER PUSH20 0xFFFFFFFFFFFFFFFFFFFFFFFFFFFFFFFFFFFFFFFF AND PUSH20 0xFFFFFFFFFFFFFFFFFFFFFFFFFFFFFFFFFFFFFFFF AND DUP2 MSTORE PUSH1 0x20 ADD SWAP1 DUP2 MSTORE PUSH1 0x20 ADD PUSH0 KECCAK256 SWAP1 POP PUSH0 JUMPDEST DUP2 DUP1 SLOAD SWAP1 POP DUP2 LT ISZERO PUSH2 0xFC8 JUMPI DUP4 DUP3 DUP3 DUP2 SLOAD DUP2 LT PUSH2 0xF72 JUMPI PUSH2 0xF71 PUSH2 0x243E JUMP JUMPDEST JUMPDEST SWAP1 PUSH0 MSTORE PUSH1 0x20 PUSH0 KECCAK256 ADD SLOAD SUB PUSH2 0xFBB JUMPI PUSH1 0x40 MLOAD PUSH32 0x8C379A000000000000000000000000000000000000000000000000000000000 DUP2 MSTORE PUSH1 0x4 ADD PUSH2 0xFB2 SWAP1 PUSH2 0x2814 JUMP JUMPDEST PUSH1 0x40 MLOAD DUP1 SWAP2 SUB SWAP1 REVERT JUMPDEST DUP1 DUP1 PUSH1 0x1 ADD SWAP2 POP POP PUSH2 0xF52 JUMP JUMPDEST POP DUP2 PUSH1 0x4 ADD PUSH0 DUP2 SLOAD DUP1 SWAP3 SWAP2 SWAP1 PUSH2 0xFDD SWAP1 PUSH2 0x239A JUMP JUMPDEST SWAP2 SWAP1 POP SSTORE POP PUSH1 0x3 PUSH0 DUP5 DUP2 MSTORE PUSH1 0x20 ADD SWAP1 DUP2 MSTORE PUSH1 0x20 ADD PUSH0 KECCAK256 PUSH0 DUP2 SLOAD DUP1 SWAP3 SWAP2 SWAP1 PUSH2 0x1003 SWAP1 PUSH2 0x239A JUMP JUMPDEST SWAP2 SWAP1 POP SSTORE POP PUSH0 PUSH1 0x2 PUSH0 CALLER PUSH20 0xFFFFFFFFFFFFFFFFFFFFFFFFFFFFFFFFFFFFFFFF AND PUSH20 0xFFFFFFFFFFFFFFFFFFFFFFFFFFFFFFFFFFFFFFFF AND DUP2 MSTORE PUSH1 0x20 ADD SWAP1 DUP2 MSTORE PUSH1 0x20 ADD PUSH0 KECCAK256 DUP1 SLOAD SWAP1 POP SUB PUSH2 0x10AF JUMPI PUSH1 0x40 MLOAD DUP1 PUSH1 0x20 ADD PUSH1 0x40 MSTORE DUP1 DUP5 DUP2 MSTORE POP PUSH1 0x2 PUSH0 CALLER PUSH20 0xFFFFFFFFFFFFFFFFFFFFFFFFFFFFFFFFFFFFFFFF AND PUSH20 0xFFFFFFFFFFFFFFFFFFFFFFFFFFFFFFFFFFFFFFFF AND DUP2 MSTORE PUSH1 0x20 ADD SWAP1 DUP2 MSTORE PUSH1 0x20 ADD PUSH0 KECCAK256 SWAP1 PUSH1 0x1 PUSH2 0x10A9 SWAP3 SWAP2 SWAP1 PUSH2 0x1CF0 JUMP JUMPDEST POP PUSH2 0x1111 JUMP JUMPDEST PUSH1 0x2 PUSH0 CALLER PUSH20 0xFFFFFFFFFFFFFFFFFFFFFFFFFFFFFFFFFFFFFFFF AND PUSH20 0xFFFFFFFFFFFFFFFFFFFFFFFFFFFFFFFFFFFFFFFF AND DUP2 MSTORE PUSH1 0x20 ADD SWAP1 DUP2 MSTORE PUSH1 0x20 ADD PUSH0 KECCAK256 DUP4 SWAP1 DUP1 PUSH1 0x1 DUP2 SLOAD ADD DUP1 DUP3 SSTORE DUP1 SWAP2 POP POP PUSH1 0x1 SWAP1 SUB SWAP1 PUSH0 MSTORE PUSH1 0x20 PUSH0 KECCAK256 ADD PUSH0 SWAP1 SWAP2 SWAP1 SWAP2 SWAP1 SWAP2 POP SSTORE JUMPDEST CALLER PUSH20 0xFFFFFFFFFFFFFFFFFFFFFFFFFFFFFFFFFFFFFFFF AND DUP4 PUSH32 0x201735A6FF64E1DA0DC3DF2D17ECF024F61008EE5D86DA74E1596DC140B4A74F PUSH1 0x40 MLOAD PUSH1 0x40 MLOAD DUP1 SWAP2 SUB SWAP1 LOG3 POP POP POP JUMP JUMPDEST PUSH0 DUP1 PUSH0 DUP4 DUP2 MSTORE PUSH1 0x20 ADD SWAP1 DUP2 MSTORE PUSH1 0x20 ADD PUSH0 KECCAK256 SWAP1 POP PUSH0 DUP2 PUSH0 ADD SLOAD SUB PUSH2 0x11B2 JUMPI PUSH1 0x40 MLOAD PUSH32 0x8C379A000000000000000000000000000000000000000000000000000000000 DUP2 MSTORE PUSH1 0x4 ADD PUSH2 0x11A9 SWAP1 PUSH2 0x227F JUMP JUMPDEST PUSH1 0x40 MLOAD DUP1 SWAP2 SUB SWAP1 REVERT JUMPDEST PUSH0 PUSH1 0x2 PUSH0 CALLER PUSH20 0xFFFFFFFFFFFFFFFFFFFFFFFFFFFFFFFFFFFFFFFF AND PUSH20 0xFFFFFFFFFFFFFFFFFFFFFFFFFFFFFFFFFFFFFFFF AND DUP2 MSTORE PUSH1 0x20 ADD SWAP1 DUP2 MSTORE PUSH1 0x20 ADD PUSH0 KECCAK256 SWAP1 POP PUSH0 DUP1 DUP1 PUSH0 SWAP1 POP JUMPDEST DUP4 DUP1 SLOAD SWAP1 POP DUP2 LT ISZERO PUSH2 0x1240 JUMPI DUP6 DUP5 DUP3 DUP2 SLOAD DUP2 LT PUSH2 0x1219 JUMPI PUSH2 0x1218 PUSH2 0x243E JUMP JUMPDEST JUMPDEST SWAP1 PUSH0 MSTORE PUSH1 0x20 PUSH0 KECCAK256 ADD SLOAD SUB PUSH2 0x1233 JUMPI PUSH1 0x1 SWAP3 POP DUP1 SWAP2 POP PUSH2 0x1240 JUMP JUMPDEST DUP1 DUP1 PUSH1 0x1 ADD SWAP2 POP POP PUSH2 0x11F9 JUMP JUMPDEST POP DUP2 PUSH2 0x1281 JUMPI PUSH1 0x40 MLOAD PUSH32 0x8C379A000000000000000000000000000000000000000000000000000000000 DUP2 MSTORE PUSH1 0x4 ADD PUSH2 0x1278 SWAP1 PUSH2 0x287C JUMP JUMPDEST PUSH1 0x40 MLOAD DUP1 SWAP2 SUB SWAP1 REVERT JUMPDEST DUP4 PUSH1 0x4 ADD PUSH0 DUP2 SLOAD DUP1 SWAP3 SWAP2 SWAP1 PUSH2 0x1295 SWAP1 PUSH2 0x289A JUMP JUMPDEST SWAP2 SWAP1 POP SSTORE POP PUSH1 0x3 PUSH0 DUP7 DUP2 MSTORE PUSH1 0x20 ADD SWAP1 DUP2 MSTORE PUSH1 0x20 ADD PUSH0 KECCAK256 PUSH0 DUP2 SLOAD DUP1 SWAP3 SWAP2 SWAP1 PUSH2 0x12BB SWAP1 PUSH2 0x289A JUMP JUMPDEST SWAP2 SWAP1 POP SSTORE POP PUSH1 0x1 DUP4 DUP1 SLOAD SWAP1 POP PUSH2 0x12D1 SWAP2 SWAP1 PUSH2 0x246B JUMP JUMPDEST DUP2 EQ PUSH2 0x1323 JUMPI DUP3 PUSH1 0x1 DUP5 DUP1 SLOAD SWAP1 POP PUSH2 0x12E9 SWAP2 SWAP1 PUSH2 0x246B JUMP JUMPDEST DUP2 SLOAD DUP2 LT PUSH2 0x12FA JUMPI PUSH2 0x12F9 PUSH2 0x243E JUMP JUMPDEST JUMPDEST SWAP1 PUSH0 MSTORE PUSH1 0x20 PUSH0 KECCAK256 ADD SLOAD DUP4 DUP3 DUP2 SLOAD DUP2 LT PUSH2 0x1316 JUMPI PUSH2 0x1315 PUSH2 0x243E JUMP JUMPDEST JUMPDEST SWAP1 PUSH0 MSTORE PUSH1 0x20 PUSH0 KECCAK256 ADD DUP2 SWAP1 SSTORE POP JUMPDEST DUP3 DUP1 SLOAD DUP1 PUSH2 0x1334 JUMPI PUSH2 0x1333 PUSH2 0x28C1 JUMP JUMPDEST JUMPDEST PUSH1 0x1 SWAP1 SUB DUP2 DUP2 SWAP1 PUSH0 MSTORE PUSH1 0x20 PUSH0 KECCAK256 ADD PUSH0 SWAP1 SSTORE SWAP1 SSTORE CALLER PUSH20 0xFFFFFFFFFFFFFFFFFFFFFFFFFFFFFFFFFFFFFFFF AND DUP6 PUSH32 0x201735A6FF64E1DA0DC3DF2D17ECF024F61008EE5D86DA74E1596DC140B4A74F PUSH1 0x40 MLOAD PUSH1 0x40 MLOAD DUP1 SWAP2 SUB SWAP1 LOG3 POP POP POP POP POP JUMP JUMPDEST PUSH1 0x60 PUSH0 PUSH1 0x2 PUSH0 CALLER PUSH20 0xFFFFFFFFFFFFFFFFFFFFFFFFFFFFFFFFFFFFFFFF AND PUSH20 0xFFFFFFFFFFFFFFFFFFFFFFFFFFFFFFFFFFFFFFFF AND DUP2 MSTORE PUSH1 0x20 ADD SWAP1 DUP2 MSTORE PUSH1 0x20 ADD PUSH0 KECCAK256 DUP1 SLOAD DUP1 PUSH1 0x20 MUL PUSH1 0x20 ADD PUSH1 0x40 MLOAD SWAP1 DUP2 ADD PUSH1 0x40 MSTORE DUP1 SWAP3 SWAP2 SWAP1 DUP2 DUP2 MSTORE PUSH1 0x20 ADD DUP3 DUP1 SLOAD DUP1 ISZERO PUSH2 0x141A JUMPI PUSH1 0x20 MUL DUP3 ADD SWAP2 SWAP1 PUSH0 MSTORE PUSH1 0x20 PUSH0 KECCAK256 SWAP1 JUMPDEST DUP2 SLOAD DUP2 MSTORE PUSH1 0x20 ADD SWAP1 PUSH1 0x1 ADD SWAP1 DUP1 DUP4 GT PUSH2 0x1406 JUMPI JUMPDEST POP POP POP POP POP SWAP1 POP PUSH0 DUP2 MLOAD PUSH8 0xFFFFFFFFFFFFFFFF DUP2 GT ISZERO PUSH2 0x143D JUMPI PUSH2 0x143C PUSH2 0x2049 JUMP JUMPDEST JUMPDEST PUSH1 0x40 MLOAD SWAP1 DUP1 DUP3 MSTORE DUP1 PUSH1 0x20 MUL PUSH1 0x20 ADD DUP3 ADD PUSH1 0x40 MSTORE DUP1 ISZERO PUSH2 0x1476 JUMPI DUP2 PUSH1 0x20 ADD JUMPDEST PUSH2 0x1463 PUSH2 0x1C84 JUMP JUMPDEST DUP2 MSTORE PUSH1 0x20 ADD SWAP1 PUSH1 0x1 SWAP1 SUB SWAP1 DUP2 PUSH2 0x145B JUMPI SWAP1 POP JUMPDEST POP SWAP1 POP PUSH0 JUMPDEST DUP3 MLOAD DUP2 LT ISZERO PUSH2 0x1732 JUMPI PUSH0 DUP1 PUSH0 DUP6 DUP5 DUP2 MLOAD DUP2 LT PUSH2 0x149A JUMPI PUSH2 0x1499 PUSH2 0x243E JUMP JUMPDEST JUMPDEST PUSH1 0x20 MUL PUSH1 0x20 ADD ADD MLOAD DUP2 MSTORE PUSH1 0x20 ADD SWAP1 DUP2 MSTORE PUSH1 0x20 ADD PUSH0 KECCAK256 SWAP1 POP PUSH1 0x40 MLOAD DUP1 PUSH2 0x100 ADD PUSH1 0x40 MSTORE DUP1 DUP3 PUSH0 ADD SLOAD DUP2 MSTORE PUSH1 0x20 ADD DUP3 PUSH1 0x1 ADD PUSH0 SWAP1 SLOAD SWAP1 PUSH2 0x100 EXP SWAP1 DIV PUSH20 0xFFFFFFFFFFFFFFFFFFFFFFFFFFFFFFFFFFFFFFFF AND PUSH20 0xFFFFFFFFFFFFFFFFFFFFFFFFFFFFFFFFFFFFFFFF AND DUP2 MSTORE PUSH1 0x20 ADD DUP3 PUSH1 0x2 ADD PUSH0 SWAP1 SLOAD SWAP1 PUSH2 0x100 EXP SWAP1 DIV PUSH20 0xFFFFFFFFFFFFFFFFFFFFFFFFFFFFFFFFFFFFFFFF AND PUSH20 0xFFFFFFFFFFFFFFFFFFFFFFFFFFFFFFFFFFFFFFFF AND DUP2 MSTORE PUSH1 0x20 ADD DUP3 PUSH1 0x3 ADD SLOAD DUP2 MSTORE PUSH1 0x20 ADD DUP3 PUSH1 0x4 ADD SLOAD DUP2 MSTORE PUSH1 0x20 ADD DUP3 PUSH1 0x5 ADD DUP1 SLOAD PUSH2 0x1567 SWAP1 PUSH2 0x240E JUMP JUMPDEST DUP1 PUSH1 0x1F ADD PUSH1 0x20 DUP1 SWAP2 DIV MUL PUSH1 0x20 ADD PUSH1 0x40 MLOAD SWAP1 DUP2 ADD PUSH1 0x40 MSTORE DUP1 SWAP3 SWAP2 SWAP1 DUP2 DUP2 MSTORE PUSH1 0x20 ADD DUP3 DUP1 SLOAD PUSH2 0x1593 SWAP1 PUSH2 0x240E JUMP JUMPDEST DUP1 ISZERO PUSH2 0x15DE JUMPI DUP1 PUSH1 0x1F LT PUSH2 0x15B5 JUMPI PUSH2 0x100 DUP1 DUP4 SLOAD DIV MUL DUP4 MSTORE SWAP2 PUSH1 0x20 ADD SWAP2 PUSH2 0x15DE JUMP JUMPDEST DUP3 ADD SWAP2 SWAP1 PUSH0 MSTORE PUSH1 0x20 PUSH0 KECCAK256 SWAP1 JUMPDEST DUP2 SLOAD DUP2 MSTORE SWAP1 PUSH1 0x1 ADD SWAP1 PUSH1 0x20 ADD DUP1 DUP4 GT PUSH2 0x15C1 JUMPI DUP3 SWAP1 SUB PUSH1 0x1F AND DUP3 ADD SWAP2 JUMPDEST POP POP POP POP POP DUP2 MSTORE PUSH1 0x20 ADD DUP3 PUSH1 0x6 ADD DUP1 SLOAD PUSH2 0x15F7 SWAP1 PUSH2 0x240E JUMP JUMPDEST DUP1 PUSH1 0x1F ADD PUSH1 0x20 DUP1 SWAP2 DIV MUL PUSH1 0x20 ADD PUSH1 0x40 MLOAD SWAP1 DUP2 ADD PUSH1 0x40 MSTORE DUP1 SWAP3 SWAP2 SWAP1 DUP2 DUP2 MSTORE PUSH1 0x20 ADD DUP3 DUP1 SLOAD PUSH2 0x1623 SWAP1 PUSH2 0x240E JUMP JUMPDEST DUP1 ISZERO PUSH2 0x166E JUMPI DUP1 PUSH1 0x1F LT PUSH2 0x1645 JUMPI PUSH2 0x100 DUP1 DUP4 SLOAD DIV MUL DUP4 MSTORE SWAP2 PUSH1 0x20 ADD SWAP2 PUSH2 0x166E JUMP JUMPDEST DUP3 ADD SWAP2 SWAP1 PUSH0 MSTORE PUSH1 0x20 PUSH0 KECCAK256 SWAP1 JUMPDEST DUP2 SLOAD DUP2 MSTORE SWAP1 PUSH1 0x1 ADD SWAP1 PUSH1 0x20 ADD DUP1 DUP4 GT PUSH2 0x1651 JUMPI DUP3 SWAP1 SUB PUSH1 0x1F AND DUP3 ADD SWAP2 JUMPDEST POP POP POP POP POP DUP2 MSTORE PUSH1 0x20 ADD DUP3 PUSH1 0x7 ADD DUP1 SLOAD PUSH2 0x1687 SWAP1 PUSH2 0x240E JUMP JUMPDEST DUP1 PUSH1 0x1F ADD PUSH1 0x20 DUP1 SWAP2 DIV MUL PUSH1 0x20 ADD PUSH1 0x40 MLOAD SWAP1 DUP2 ADD PUSH1 0x40 MSTORE DUP1 SWAP3 SWAP2 SWAP1 DUP2 DUP2 MSTORE PUSH1 0x20 ADD DUP3 DUP1 SLOAD PUSH2 0x16B3 SWAP1 PUSH2 0x240E JUMP JUMPDEST DUP1 ISZERO PUSH2 0x16FE JUMPI DUP1 PUSH1 0x1F LT PUSH2 0x16D5 JUMPI PUSH2 0x100 DUP1 DUP4 SLOAD DIV MUL DUP4 MSTORE SWAP2 PUSH1 0x20 ADD SWAP2 PUSH2 0x16FE JUMP JUMPDEST DUP3 ADD SWAP2 SWAP1 PUSH0 MSTORE PUSH1 0x20 PUSH0 KECCAK256 SWAP1 JUMPDEST DUP2 SLOAD DUP2 MSTORE SWAP1 PUSH1 0x1 ADD SWAP1 PUSH1 0x20 ADD DUP1 DUP4 GT PUSH2 0x16E1 JUMPI DUP3 SWAP1 SUB PUSH1 0x1F AND DUP3 ADD SWAP2 JUMPDEST POP POP POP POP POP DUP2 MSTORE POP DUP4 DUP4 DUP2 MLOAD DUP2 LT PUSH2 0x1719 JUMPI PUSH2 0x1718 PUSH2 0x243E JUMP JUMPDEST JUMPDEST PUSH1 0x20 MUL PUSH1 0x20 ADD ADD DUP2 SWAP1 MSTORE POP POP DUP1 DUP1 PUSH1 0x1 ADD SWAP2 POP POP PUSH2 0x147B JUMP JUMPDEST POP DUP1 SWAP3 POP POP POP SWAP1 JUMP JUMPDEST PUSH1 0x60 PUSH0 DUP1 PUSH1 0x1 SWAP1 POP JUMPDEST PUSH1 0x1 SLOAD DUP2 LT ISZERO PUSH2 0x183A JUMPI CALLER PUSH20 0xFFFFFFFFFFFFFFFFFFFFFFFFFFFFFFFFFFFFFFFF AND PUSH0 DUP1 DUP4 DUP2 MSTORE PUSH1 0x20 ADD SWAP1 DUP2 MSTORE PUSH1 0x20 ADD PUSH0 KECCAK256 PUSH1 0x1 ADD PUSH0 SWAP1 SLOAD SWAP1 PUSH2 0x100 EXP SWAP1 DIV PUSH20 0xFFFFFFFFFFFFFFFFFFFFFFFFFFFFFFFFFFFFFFFF AND PUSH20 0xFFFFFFFFFFFFFFFFFFFFFFFFFFFFFFFFFFFFFFFF AND EQ DUP1 ISZERO PUSH2 0x1819 JUMPI POP CALLER PUSH20 0xFFFFFFFFFFFFFFFFFFFFFFFFFFFFFFFFFFFFFFFF AND PUSH0 DUP1 DUP4 DUP2 MSTORE PUSH1 0x20 ADD SWAP1 DUP2 MSTORE PUSH1 0x20 ADD PUSH0 KECCAK256 PUSH1 0x2 ADD PUSH0 SWAP1 SLOAD SWAP1 PUSH2 0x100 EXP SWAP1 DIV PUSH20 0xFFFFFFFFFFFFFFFFFFFFFFFFFFFFFFFFFFFFFFFF AND PUSH20 0xFFFFFFFFFFFFFFFFFFFFFFFFFFFFFFFFFFFFFFFF AND EQ ISZERO JUMPDEST ISZERO PUSH2 0x182D JUMPI DUP2 DUP1 PUSH2 0x1829 SWAP1 PUSH2 0x239A JUMP JUMPDEST SWAP3 POP POP JUMPDEST DUP1 DUP1 PUSH1 0x1 ADD SWAP2 POP POP PUSH2 0x1744 JUMP JUMPDEST POP PUSH0 DUP2 PUSH8 0xFFFFFFFFFFFFFFFF DUP2 GT ISZERO PUSH2 0x1856 JUMPI PUSH2 0x1855 PUSH2 0x2049 JUMP JUMPDEST JUMPDEST PUSH1 0x40 MLOAD SWAP1 DUP1 DUP3 MSTORE DUP1 PUSH1 0x20 MUL PUSH1 0x20 ADD DUP3 ADD PUSH1 0x40 MSTORE DUP1 ISZERO PUSH2 0x188F JUMPI DUP2 PUSH1 0x20 ADD JUMPDEST PUSH2 0x187C PUSH2 0x1C84 JUMP JUMPDEST DUP2 MSTORE PUSH1 0x20 ADD SWAP1 PUSH1 0x1 SWAP1 SUB SWAP1 DUP2 PUSH2 0x1874 JUMPI SWAP1 POP JUMPDEST POP SWAP1 POP PUSH0 DUP1 PUSH1 0x1 SWAP1 POP JUMPDEST PUSH1 0x1 SLOAD DUP2 LT ISZERO PUSH2 0x1C7A JUMPI CALLER PUSH20 0xFFFFFFFFFFFFFFFFFFFFFFFFFFFFFFFFFFFFFFFF AND PUSH0 DUP1 DUP4 DUP2 MSTORE PUSH1 0x20 ADD SWAP1 DUP2 MSTORE PUSH1 0x20 ADD PUSH0 KECCAK256 PUSH1 0x1 ADD PUSH0 SWAP1 SLOAD SWAP1 PUSH2 0x100 EXP SWAP1 DIV PUSH20 0xFFFFFFFFFFFFFFFFFFFFFFFFFFFFFFFFFFFFFFFF AND PUSH20 0xFFFFFFFFFFFFFFFFFFFFFFFFFFFFFFFFFFFFFFFF AND EQ DUP1 ISZERO PUSH2 0x196E JUMPI POP CALLER PUSH20 0xFFFFFFFFFFFFFFFFFFFFFFFFFFFFFFFFFFFFFFFF AND PUSH0 DUP1 DUP4 DUP2 MSTORE PUSH1 0x20 ADD SWAP1 DUP2 MSTORE PUSH1 0x20 ADD PUSH0 KECCAK256 PUSH1 0x2 ADD PUSH0 SWAP1 SLOAD SWAP1 PUSH2 0x100 EXP SWAP1 DIV PUSH20 0xFFFFFFFFFFFFFFFFFFFFFFFFFFFFFFFFFFFFFFFF AND PUSH20 0xFFFFFFFFFFFFFFFFFFFFFFFFFFFFFFFFFFFFFFFF AND EQ ISZERO JUMPDEST ISZERO PUSH2 0x1C6D JUMPI PUSH1 0x40 MLOAD DUP1 PUSH2 0x100 ADD PUSH1 0x40 MSTORE DUP1 PUSH0 DUP1 DUP5 DUP2 MSTORE PUSH1 0x20 ADD SWAP1 DUP2 MSTORE PUSH1 0x20 ADD PUSH0 KECCAK256 PUSH0 ADD SLOAD DUP2 MSTORE PUSH1 0x20 ADD PUSH0 DUP1 DUP5 DUP2 MSTORE PUSH1 0x20 ADD SWAP1 DUP2 MSTORE PUSH1 0x20 ADD PUSH0 KECCAK256 PUSH1 0x1 ADD PUSH0 SWAP1 SLOAD SWAP1 PUSH2 0x100 EXP SWAP1 DIV PUSH20 0xFFFFFFFFFFFFFFFFFFFFFFFFFFFFFFFFFFFFFFFF AND PUSH20 0xFFFFFFFFFFFFFFFFFFFFFFFFFFFFFFFFFFFFFFFF AND DUP2 MSTORE PUSH1 0x20 ADD PUSH0 DUP1 DUP5 DUP2 MSTORE PUSH1 0x20 ADD SWAP1 DUP2 MSTORE PUSH1 0x20 ADD PUSH0 KECCAK256 PUSH1 0x2 ADD PUSH0 SWAP1 SLOAD SWAP1 PUSH2 0x100 EXP SWAP1 DIV PUSH20 0xFFFFFFFFFFFFFFFFFFFFFFFFFFFFFFFFFFFFFFFF AND PUSH20 0xFFFFFFFFFFFFFFFFFFFFFFFFFFFFFFFFFFFFFFFF AND DUP2 MSTORE PUSH1 0x20 ADD PUSH0 DUP1 DUP5 DUP2 MSTORE PUSH1 0x20 ADD SWAP1 DUP2 MSTORE PUSH1 0x20 ADD PUSH0 KECCAK256 PUSH1 0x3 ADD SLOAD DUP2 MSTORE PUSH1 0x20 ADD PUSH0 DUP1 DUP5 DUP2 MSTORE PUSH1 0x20 ADD SWAP1 DUP2 MSTORE PUSH1 0x20 ADD PUSH0 KECCAK256 PUSH1 0x4 ADD SLOAD DUP2 MSTORE PUSH1 0x20 ADD PUSH0 DUP1 DUP5 DUP2 MSTORE PUSH1 0x20 ADD SWAP1 DUP2 MSTORE PUSH1 0x20 ADD PUSH0 KECCAK256 PUSH1 0x5 ADD DUP1 SLOAD PUSH2 0x1A83 SWAP1 PUSH2 0x240E JUMP JUMPDEST DUP1 PUSH1 0x1F ADD PUSH1 0x20 DUP1 SWAP2 DIV MUL PUSH1 0x20 ADD PUSH1 0x40 MLOAD SWAP1 DUP2 ADD PUSH1 0x40 MSTORE DUP1 SWAP3 SWAP2 SWAP1 DUP2 DUP2 MSTORE PUSH1 0x20 ADD DUP3 DUP1 SLOAD PUSH2 0x1AAF SWAP1 PUSH2 0x240E JUMP JUMPDEST DUP1 ISZERO PUSH2 0x1AFA JUMPI DUP1 PUSH1 0x1F LT PUSH2 0x1AD1 JUMPI PUSH2 0x100 DUP1 DUP4 SLOAD DIV MUL DUP4 MSTORE SWAP2 PUSH1 0x20 ADD SWAP2 PUSH2 0x1AFA JUMP JUMPDEST DUP3 ADD SWAP2 SWAP1 PUSH0 MSTORE PUSH1 0x20 PUSH0 KECCAK256 SWAP1 JUMPDEST DUP2 SLOAD DUP2 MSTORE SWAP1 PUSH1 0x1 ADD SWAP1 PUSH1 0x20 ADD DUP1 DUP4 GT PUSH2 0x1ADD JUMPI DUP3 SWAP1 SUB PUSH1 0x1F AND DUP3 ADD SWAP2 JUMPDEST POP POP POP POP POP DUP2 MSTORE PUSH1 0x20 ADD PUSH0 DUP1 DUP5 DUP2 MSTORE PUSH1 0x20 ADD SWAP1 DUP2 MSTORE PUSH1 0x20 ADD PUSH0 KECCAK256 PUSH1 0x6 ADD DUP1 SLOAD PUSH2 0x1B22 SWAP1 PUSH2 0x240E JUMP JUMPDEST DUP1 PUSH1 0x1F ADD PUSH1 0x20 DUP1 SWAP2 DIV MUL PUSH1 0x20 ADD PUSH1 0x40 MLOAD SWAP1 DUP2 ADD PUSH1 0x40 MSTORE DUP1 SWAP3 SWAP2 SWAP1 DUP2 DUP2 MSTORE PUSH1 0x20 ADD DUP3 DUP1 SLOAD PUSH2 0x1B4E SWAP1 PUSH2 0x240E JUMP JUMPDEST DUP1 ISZERO PUSH2 0x1B99 JUMPI DUP1 PUSH1 0x1F LT PUSH2 0x1B70 JUMPI PUSH2 0x100 DUP1 DUP4 SLOAD DIV MUL DUP4 MSTORE SWAP2 PUSH1 0x20 ADD SWAP2 PUSH2 0x1B99 JUMP JUMPDEST DUP3 ADD SWAP2 SWAP1 PUSH0 MSTORE PUSH1 0x20 PUSH0 KECCAK256 SWAP1 JUMPDEST DUP2 SLOAD DUP2 MSTORE SWAP1 PUSH1 0x1 ADD SWAP1 PUSH1 0x20 ADD DUP1 DUP4 GT PUSH2 0x1B7C JUMPI DUP3 SWAP1 SUB PUSH1 0x1F AND DUP3 ADD SWAP2 JUMPDEST POP POP POP POP POP DUP2 MSTORE PUSH1 0x20 ADD PUSH0 DUP1 DUP5 DUP2 MSTORE PUSH1 0x20 ADD SWAP1 DUP2 MSTORE PUSH1 0x20 ADD PUSH0 KECCAK256 PUSH1 0x7 ADD DUP1 SLOAD PUSH2 0x1BC1 SWAP1 PUSH2 0x240E JUMP JUMPDEST DUP1 PUSH1 0x1F ADD PUSH1 0x20 DUP1 SWAP2 DIV MUL PUSH1 0x20 ADD PUSH1 0x40 MLOAD SWAP1 DUP2 ADD PUSH1 0x40 MSTORE DUP1 SWAP3 SWAP2 SWAP1 DUP2 DUP2 MSTORE PUSH1 0x20 ADD DUP3 DUP1 SLOAD PUSH2 0x1BED SWAP1 PUSH2 0x240E JUMP JUMPDEST DUP1 ISZERO PUSH2 0x1C38 JUMPI DUP1 PUSH1 0x1F LT PUSH2 0x1C0F JUMPI PUSH2 0x100 DUP1 DUP4 SLOAD DIV MUL DUP4 MSTORE SWAP2 PUSH1 0x20 ADD SWAP2 PUSH2 0x1C38 JUMP JUMPDEST DUP3 ADD SWAP2 SWAP1 PUSH0 MSTORE PUSH1 0x20 PUSH0 KECCAK256 SWAP1 JUMPDEST DUP2 SLOAD DUP2 MSTORE SWAP1 PUSH1 0x1 ADD SWAP1 PUSH1 0x20 ADD DUP1 DUP4 GT PUSH2 0x1C1B JUMPI DUP3 SWAP1 SUB PUSH1 0x1F AND DUP3 ADD SWAP2 JUMPDEST POP POP POP POP POP DUP2 MSTORE POP DUP4 DUP4 DUP2 MLOAD DUP2 LT PUSH2 0x1C53 JUMPI PUSH2 0x1C52 PUSH2 0x243E JUMP JUMPDEST JUMPDEST PUSH1 0x20 MUL PUSH1 0x20 ADD ADD DUP2 SWAP1 MSTORE POP DUP2 DUP1 PUSH2 0x1C69 SWAP1 PUSH2 0x239A JUMP JUMPDEST SWAP3 POP POP JUMPDEST DUP1 DUP1 PUSH1 0x1 ADD SWAP2 POP POP PUSH2 0x1899 JUMP JUMPDEST POP DUP2 SWAP4 POP POP POP POP SWAP1 JUMP JUMPDEST PUSH1 0x40 MLOAD DUP1 PUSH2 0x100 ADD PUSH1 0x40 MSTORE DUP1 PUSH0 DUP2 MSTORE PUSH1 0x20 ADD PUSH0 PUSH20 0xFFFFFFFFFFFFFFFFFFFFFFFFFFFFFFFFFFFFFFFF AND DUP2 MSTORE PUSH1 0x20 ADD PUSH0 PUSH20 0xFFFFFFFFFFFFFFFFFFFFFFFFFFFFFFFFFFFFFFFF AND DUP2 MSTORE PUSH1 0x20 ADD PUSH0 DUP2 MSTORE PUSH1 0x20 ADD PUSH0 DUP2 MSTORE PUSH1 0x20 ADD PUSH1 0x60 DUP2 MSTORE PUSH1 0x20 ADD PUSH1 0x60 DUP2 MSTORE PUSH1 0x20 ADD PUSH1 0x60 DUP2 MSTORE POP SWAP1 JUMP JUMPDEST DUP3 DUP1 SLOAD DUP3 DUP3 SSTORE SWAP1 PUSH0 MSTORE PUSH1 0x20 PUSH0 KECCAK256 SWAP1 DUP2 ADD SWAP3 DUP3 ISZERO PUSH2 0x1D2A JUMPI SWAP2 PUSH1 0x20 MUL DUP3 ADD JUMPDEST DUP3 DUP2 GT ISZERO PUSH2 0x1D29 JUMPI DUP3 MLOAD DUP3 SSTORE SWAP2 PUSH1 0x20 ADD SWAP2 SWAP1 PUSH1 0x1 ADD SWAP1 PUSH2 0x1D0E JUMP JUMPDEST JUMPDEST POP SWAP1 POP PUSH2 0x1D37 SWAP2 SWAP1 PUSH2 0x1D3B JUMP JUMPDEST POP SWAP1 JUMP JUMPDEST JUMPDEST DUP1 DUP3 GT ISZERO PUSH2 0x1D52 JUMPI PUSH0 DUP2 PUSH0 SWAP1 SSTORE POP PUSH1 0x1 ADD PUSH2 0x1D3C JUMP JUMPDEST POP SWAP1 JUMP JUMPDEST PUSH0 PUSH1 0x40 MLOAD SWAP1 POP SWAP1 JUMP JUMPDEST PUSH0 DUP1 REVERT JUMPDEST PUSH0 DUP1 REVERT JUMPDEST PUSH0 DUP2 SWAP1 POP SWAP2 SWAP1 POP JUMP JUMPDEST PUSH2 0x1D79 DUP2 PUSH2 0x1D67 JUMP JUMPDEST DUP2 EQ PUSH2 0x1D83 JUMPI PUSH0 DUP1 REVERT JUMPDEST POP JUMP JUMPDEST PUSH0 DUP2 CALLDATALOAD SWAP1 POP PUSH2 0x1D94 DUP2 PUSH2 0x1D70 JUMP JUMPDEST SWAP3 SWAP2 POP POP JUMP JUMPDEST PUSH0 PUSH1 0x20 DUP3 DUP5 SUB SLT ISZERO PUSH2 0x1DAF JUMPI PUSH2 0x1DAE PUSH2 0x1D5F JUMP JUMPDEST JUMPDEST PUSH0 PUSH2 0x1DBC DUP5 DUP3 DUP6 ADD PUSH2 0x1D86 JUMP JUMPDEST SWAP2 POP POP SWAP3 SWAP2 POP POP JUMP JUMPDEST PUSH2 0x1DCE DUP2 PUSH2 0x1D67 JUMP JUMPDEST DUP3 MSTORE POP POP JUMP JUMPDEST PUSH0 PUSH1 0x20 DUP3 ADD SWAP1 POP PUSH2 0x1DE7 PUSH0 DUP4 ADD DUP5 PUSH2 0x1DC5 JUMP JUMPDEST SWAP3 SWAP2 POP POP JUMP JUMPDEST PUSH0 DUP2 MLOAD SWAP1 POP SWAP2 SWAP1 POP JUMP JUMPDEST PUSH0 DUP3 DUP3 MSTORE PUSH1 0x20 DUP3 ADD SWAP1 POP SWAP3 SWAP2 POP POP JUMP JUMPDEST PUSH0 DUP2 SWAP1 POP PUSH1 0x20 DUP3 ADD SWAP1 POP SWAP2 SWAP1 POP JUMP JUMPDEST PUSH2 0x1E1F DUP2 PUSH2 0x1D67 JUMP JUMPDEST DUP3 MSTORE POP POP JUMP JUMPDEST PUSH0 PUSH20 0xFFFFFFFFFFFFFFFFFFFFFFFFFFFFFFFFFFFFFFFF DUP3 AND SWAP1 POP SWAP2 SWAP1 POP JUMP JUMPDEST PUSH0 PUSH2 0x1E4E DUP3 PUSH2 0x1E25 JUMP JUMPDEST SWAP1 POP SWAP2 SWAP1 POP JUMP JUMPDEST PUSH2 0x1E5E DUP2 PUSH2 0x1E44 JUMP JUMPDEST DUP3 MSTORE POP POP JUMP JUMPDEST PUSH0 DUP2 MLOAD SWAP1 POP SWAP2 SWAP1 POP JUMP JUMPDEST PUSH0 DUP3 DUP3 MSTORE PUSH1 0x20 DUP3 ADD SWAP1 POP SWAP3 SWAP2 POP POP JUMP JUMPDEST DUP3 DUP2 DUP4 MCOPY PUSH0 DUP4 DUP4 ADD MSTORE POP POP POP JUMP JUMPDEST PUSH0 PUSH1 0x1F NOT PUSH1 0x1F DUP4 ADD AND SWAP1 POP SWAP2 SWAP1 POP JUMP JUMPDEST PUSH0 PUSH2 0x1EA6 DUP3 PUSH2 0x1E64 JUMP JUMPDEST PUSH2 0x1EB0 DUP2 DUP6 PUSH2 0x1E6E JUMP JUMPDEST SWAP4 POP PUSH2 0x1EC0 DUP2 DUP6 PUSH1 0x20 DUP7 ADD PUSH2 0x1E7E JUMP JUMPDEST PUSH2 0x1EC9 DUP2 PUSH2 0x1E8C JUMP JUMPDEST DUP5 ADD SWAP2 POP POP SWAP3 SWAP2 POP POP JUMP JUMPDEST PUSH0 PUSH2 0x100 DUP4 ADD PUSH0 DUP4 ADD MLOAD PUSH2 0x1EEA PUSH0 DUP7 ADD DUP3 PUSH2 0x1E16 JUMP JUMPDEST POP PUSH1 0x20 DUP4 ADD MLOAD PUSH2 0x1EFD PUSH1 0x20 DUP7 ADD DUP3 PUSH2 0x1E55 JUMP JUMPDEST POP PUSH1 0x40 DUP4 ADD MLOAD PUSH2 0x1F10 PUSH1 0x40 DUP7 ADD DUP3 PUSH2 0x1E55 JUMP JUMPDEST POP PUSH1 0x60 DUP4 ADD MLOAD PUSH2 0x1F23 PUSH1 0x60 DUP7 ADD DUP3 PUSH2 0x1E16 JUMP JUMPDEST POP PUSH1 0x80 DUP4 ADD MLOAD PUSH2 0x1F36 PUSH1 0x80 DUP7 ADD DUP3 PUSH2 0x1E16 JUMP JUMPDEST POP PUSH1 0xA0 DUP4 ADD MLOAD DUP5 DUP3 SUB PUSH1 0xA0 DUP7 ADD MSTORE PUSH2 0x1F4E DUP3 DUP3 PUSH2 0x1E9C JUMP JUMPDEST SWAP2 POP POP PUSH1 0xC0 DUP4 ADD MLOAD DUP5 DUP3 SUB PUSH1 0xC0 DUP7 ADD MSTORE PUSH2 0x1F68 DUP3 DUP3 PUSH2 0x1E9C JUMP JUMPDEST SWAP2 POP POP PUSH1 0xE0 DUP4 ADD MLOAD DUP5 DUP3 SUB PUSH1 0xE0 DUP7 ADD MSTORE PUSH2 0x1F82 DUP3 DUP3 PUSH2 0x1E9C JUMP JUMPDEST SWAP2 POP POP DUP1 SWAP2 POP POP SWAP3 SWAP2 POP POP JUMP JUMPDEST PUSH0 PUSH2 0x1F9A DUP4 DUP4 PUSH2 0x1ED4 JUMP JUMPDEST SWAP1 POP SWAP3 SWAP2 POP POP JUMP JUMPDEST PUSH0 PUSH1 0x20 DUP3 ADD SWAP1 POP SWAP2 SWAP1 POP JUMP JUMPDEST PUSH0 PUSH2 0x1FB8 DUP3 PUSH2 0x1DED JUMP JUMPDEST PUSH2 0x1FC2 DUP2 DUP6 PUSH2 0x1DF7 JUMP JUMPDEST SWAP4 POP DUP4 PUSH1 0x20 DUP3 MUL DUP6 ADD PUSH2 0x1FD4 DUP6 PUSH2 0x1E07 JUMP JUMPDEST DUP1 PUSH0 JUMPDEST DUP6 DUP2 LT ISZERO PUSH2 0x200F JUMPI DUP5 DUP5 SUB DUP10 MSTORE DUP2 MLOAD PUSH2 0x1FF0 DUP6 DUP3 PUSH2 0x1F8F JUMP JUMPDEST SWAP5 POP PUSH2 0x1FFB DUP4 PUSH2 0x1FA2 JUMP JUMPDEST SWAP3 POP PUSH1 0x20 DUP11 ADD SWAP10 POP POP PUSH1 0x1 DUP2 ADD SWAP1 POP PUSH2 0x1FD7 JUMP JUMPDEST POP DUP3 SWAP8 POP DUP8 SWAP6 POP POP POP POP POP POP SWAP3 SWAP2 POP POP JUMP JUMPDEST PUSH0 PUSH1 0x20 DUP3 ADD SWAP1 POP DUP2 DUP2 SUB PUSH0 DUP4 ADD MSTORE PUSH2 0x2039 DUP2 DUP5 PUSH2 0x1FAE JUMP JUMPDEST SWAP1 POP SWAP3 SWAP2 POP POP JUMP JUMPDEST PUSH0 DUP1 REVERT JUMPDEST PUSH0 DUP1 REVERT JUMPDEST PUSH32 0x4E487B7100000000000000000000000000000000000000000000000000000000 PUSH0 MSTORE PUSH1 0x41 PUSH1 0x4 MSTORE PUSH1 0x24 PUSH0 REVERT JUMPDEST PUSH2 0x207F DUP3 PUSH2 0x1E8C JUMP JUMPDEST DUP2 ADD DUP2 DUP2 LT PUSH8 0xFFFFFFFFFFFFFFFF DUP3 GT OR ISZERO PUSH2 0x209E JUMPI PUSH2 0x209D PUSH2 0x2049 JUMP JUMPDEST JUMPDEST DUP1 PUSH1 0x40 MSTORE POP POP POP JUMP JUMPDEST PUSH0 PUSH2 0x20B0 PUSH2 0x1D56 JUMP JUMPDEST SWAP1 POP PUSH2 0x20BC DUP3 DUP3 PUSH2 0x2076 JUMP JUMPDEST SWAP2 SWAP1 POP JUMP JUMPDEST PUSH0 PUSH8 0xFFFFFFFFFFFFFFFF DUP3 GT ISZERO PUSH2 0x20DB JUMPI PUSH2 0x20DA PUSH2 0x2049 JUMP JUMPDEST JUMPDEST PUSH2 0x20E4 DUP3 PUSH2 0x1E8C JUMP JUMPDEST SWAP1 POP PUSH1 0x20 DUP2 ADD SWAP1 POP SWAP2 SWAP1 POP JUMP JUMPDEST DUP3 DUP2 DUP4 CALLDATACOPY PUSH0 DUP4 DUP4 ADD MSTORE POP POP POP JUMP JUMPDEST PUSH0 PUSH2 0x2111 PUSH2 0x210C DUP5 PUSH2 0x20C1 JUMP JUMPDEST PUSH2 0x20A7 JUMP JUMPDEST SWAP1 POP DUP3 DUP2 MSTORE PUSH1 0x20 DUP2 ADD DUP5 DUP5 DUP5 ADD GT ISZERO PUSH2 0x212D JUMPI PUSH2 0x212C PUSH2 0x2045 JUMP JUMPDEST JUMPDEST PUSH2 0x2138 DUP5 DUP3 DUP6 PUSH2 0x20F1 JUMP JUMPDEST POP SWAP4 SWAP3 POP POP POP JUMP JUMPDEST PUSH0 DUP3 PUSH1 0x1F DUP4 ADD SLT PUSH2 0x2154 JUMPI PUSH2 0x2153 PUSH2 0x2041 JUMP JUMPDEST JUMPDEST DUP2 CALLDATALOAD PUSH2 0x2164 DUP5 DUP3 PUSH1 0x20 DUP7 ADD PUSH2 0x20FF JUMP JUMPDEST SWAP2 POP POP SWAP3 SWAP2 POP POP JUMP JUMPDEST PUSH0 DUP1 PUSH0 DUP1 PUSH1 0x80 DUP6 DUP8 SUB SLT ISZERO PUSH2 0x2185 JUMPI PUSH2 0x2184 PUSH2 0x1D5F JUMP JUMPDEST JUMPDEST PUSH0 DUP6 ADD CALLDATALOAD PUSH8 0xFFFFFFFFFFFFFFFF DUP2 GT ISZERO PUSH2 0x21A2 JUMPI PUSH2 0x21A1 PUSH2 0x1D63 JUMP JUMPDEST JUMPDEST PUSH2 0x21AE DUP8 DUP3 DUP9 ADD PUSH2 0x2140 JUMP JUMPDEST SWAP5 POP POP PUSH1 0x20 DUP6 ADD CALLDATALOAD PUSH8 0xFFFFFFFFFFFFFFFF DUP2 GT ISZERO PUSH2 0x21CF JUMPI PUSH2 0x21CE PUSH2 0x1D63 JUMP JUMPDEST JUMPDEST PUSH2 0x21DB DUP8 DUP3 DUP9 ADD PUSH2 0x2140 JUMP JUMPDEST SWAP4 POP POP PUSH1 0x40 DUP6 ADD CALLDATALOAD PUSH8 0xFFFFFFFFFFFFFFFF DUP2 GT ISZERO PUSH2 0x21FC JUMPI PUSH2 0x21FB PUSH2 0x1D63 JUMP JUMPDEST JUMPDEST PUSH2 0x2208 DUP8 DUP3 DUP9 ADD PUSH2 0x2140 JUMP JUMPDEST SWAP3 POP POP PUSH1 0x60 PUSH2 0x2219 DUP8 DUP3 DUP9 ADD PUSH2 0x1D86 JUMP JUMPDEST SWAP2 POP POP SWAP3 SWAP6 SWAP2 SWAP5 POP SWAP3 POP JUMP JUMPDEST PUSH0 DUP3 DUP3 MSTORE PUSH1 0x20 DUP3 ADD SWAP1 POP SWAP3 SWAP2 POP POP JUMP JUMPDEST PUSH32 0x4D7573696320546F6B656E20646F6573206E6F74206578697374000000000000 PUSH0 DUP3 ADD MSTORE POP JUMP JUMPDEST PUSH0 PUSH2 0x2269 PUSH1 0x1A DUP4 PUSH2 0x2225 JUMP JUMPDEST SWAP2 POP PUSH2 0x2274 DUP3 PUSH2 0x2235 JUMP JUMPDEST PUSH1 0x20 DUP3 ADD SWAP1 POP SWAP2 SWAP1 POP JUMP JUMPDEST PUSH0 PUSH1 0x20 DUP3 ADD SWAP1 POP DUP2 DUP2 SUB PUSH0 DUP4 ADD MSTORE PUSH2 0x2296 DUP2 PUSH2 0x225D JUMP JUMPDEST SWAP1 POP SWAP2 SWAP1 POP JUMP JUMPDEST PUSH32 0x596F752063616E6E6F742062757920796F7572206F776E206D75736963000000 PUSH0 DUP3 ADD MSTORE POP JUMP JUMPDEST PUSH0 PUSH2 0x22D1 PUSH1 0x1D DUP4 PUSH2 0x2225 JUMP JUMPDEST SWAP2 POP PUSH2 0x22DC DUP3 PUSH2 0x229D JUMP JUMPDEST PUSH1 0x20 DUP3 ADD SWAP1 POP SWAP2 SWAP1 POP JUMP JUMPDEST PUSH0 PUSH1 0x20 DUP3 ADD SWAP1 POP DUP2 DUP2 SUB PUSH0 DUP4 ADD MSTORE PUSH2 0x22FE DUP2 PUSH2 0x22C5 JUMP JUMPDEST SWAP1 POP SWAP2 SWAP1 POP JUMP JUMPDEST PUSH32 0x496E73756666696369656E742066756E647320746F2062757900000000000000 PUSH0 DUP3 ADD MSTORE POP JUMP JUMPDEST PUSH0 PUSH2 0x2339 PUSH1 0x19 DUP4 PUSH2 0x2225 JUMP JUMPDEST SWAP2 POP PUSH2 0x2344 DUP3 PUSH2 0x2305 JUMP JUMPDEST PUSH1 0x20 DUP3 ADD SWAP1 POP SWAP2 SWAP1 POP JUMP JUMPDEST PUSH0 PUSH1 0x20 DUP3 ADD SWAP1 POP DUP2 DUP2 SUB PUSH0 DUP4 ADD MSTORE PUSH2 0x2366 DUP2 PUSH2 0x232D JUMP JUMPDEST SWAP1 POP SWAP2 SWAP1 POP JUMP JUMPDEST PUSH32 0x4E487B7100000000000000000000000000000000000000000000000000000000 PUSH0 MSTORE PUSH1 0x11 PUSH1 0x4 MSTORE PUSH1 0x24 PUSH0 REVERT JUMPDEST PUSH0 PUSH2 0x23A4 DUP3 PUSH2 0x1D67 JUMP JUMPDEST SWAP2 POP PUSH32 0xFFFFFFFFFFFFFFFFFFFFFFFFFFFFFFFFFFFFFFFFFFFFFFFFFFFFFFFFFFFFFFFF DUP3 SUB PUSH2 0x23D6 JUMPI PUSH2 0x23D5 PUSH2 0x236D JUMP JUMPDEST JUMPDEST PUSH1 0x1 DUP3 ADD SWAP1 POP SWAP2 SWAP1 POP JUMP JUMPDEST PUSH32 0x4E487B7100000000000000000000000000000000000000000000000000000000 PUSH0 MSTORE PUSH1 0x22 PUSH1 0x4 MSTORE PUSH1 0x24 PUSH0 REVERT JUMPDEST PUSH0 PUSH1 0x2 DUP3 DIV SWAP1 POP PUSH1 0x1 DUP3 AND DUP1 PUSH2 0x2425 JUMPI PUSH1 0x7F DUP3 AND SWAP2 POP JUMPDEST PUSH1 0x20 DUP3 LT DUP2 SUB PUSH2 0x2438 JUMPI PUSH2 0x2437 PUSH2 0x23E1 JUMP JUMPDEST JUMPDEST POP SWAP2 SWAP1 POP JUMP JUMPDEST PUSH32 0x4E487B7100000000000000000000000000000000000000000000000000000000 PUSH0 MSTORE PUSH1 0x32 PUSH1 0x4 MSTORE PUSH1 0x24 PUSH0 REVERT JUMPDEST PUSH0 PUSH2 0x2475 DUP3 PUSH2 0x1D67 JUMP JUMPDEST SWAP2 POP PUSH2 0x2480 DUP4 PUSH2 0x1D67 JUMP JUMPDEST SWAP3 POP DUP3 DUP3 SUB SWAP1 POP DUP2 DUP2 GT ISZERO PUSH2 0x2498 JUMPI PUSH2 0x2497 PUSH2 0x236D JUMP JUMPDEST JUMPDEST SWAP3 SWAP2 POP POP JUMP JUMPDEST PUSH32 0x4D75736963206E616D652063616E6E6F7420626520656D707479000000000000 PUSH0 DUP3 ADD MSTORE POP JUMP JUMPDEST PUSH0 PUSH2 0x24D2 PUSH1 0x1A DUP4 PUSH2 0x2225 JUMP JUMPDEST SWAP2 POP PUSH2 0x24DD DUP3 PUSH2 0x249E JUMP JUMPDEST PUSH1 0x20 DUP3 ADD SWAP1 POP SWAP2 SWAP1 POP JUMP JUMPDEST PUSH0 PUSH1 0x20 DUP3 ADD SWAP1 POP DUP2 DUP2 SUB PUSH0 DUP4 ADD MSTORE PUSH2 0x24FF DUP2 PUSH2 0x24C6 JUMP JUMPDEST SWAP1 POP SWAP2 SWAP1 POP JUMP JUMPDEST PUSH0 DUP2 SWAP1 POP DUP2 PUSH0 MSTORE PUSH1 0x20 PUSH0 KECCAK256 SWAP1 POP SWAP2 SWAP1 POP JUMP JUMPDEST PUSH0 PUSH1 0x20 PUSH1 0x1F DUP4 ADD DIV SWAP1 POP SWAP2 SWAP1 POP JUMP JUMPDEST PUSH0 DUP3 DUP3 SHL SWAP1 POP SWAP3 SWAP2 POP POP JUMP JUMPDEST PUSH0 PUSH1 0x8 DUP4 MUL PUSH2 0x2562 PUSH32 0xFFFFFFFFFFFFFFFFFFFFFFFFFFFFFFFFFFFFFFFFFFFFFFFFFFFFFFFFFFFFFFFF DUP3 PUSH2 0x2527 JUMP JUMPDEST PUSH2 0x256C DUP7 DUP4 PUSH2 0x2527 JUMP JUMPDEST SWAP6 POP DUP1 NOT DUP5 AND SWAP4 POP DUP1 DUP7 AND DUP5 OR SWAP3 POP POP POP SWAP4 SWAP3 POP POP POP JUMP JUMPDEST PUSH0 DUP2 SWAP1 POP SWAP2 SWAP1 POP JUMP JUMPDEST PUSH0 PUSH2 0x25A7 PUSH2 0x25A2 PUSH2 0x259D DUP5 PUSH2 0x1D67 JUMP JUMPDEST PUSH2 0x2584 JUMP JUMPDEST PUSH2 0x1D67 JUMP JUMPDEST SWAP1 POP SWAP2 SWAP1 POP JUMP JUMPDEST PUSH0 DUP2 SWAP1 POP SWAP2 SWAP1 POP JUMP JUMPDEST PUSH2 0x25C0 DUP4 PUSH2 0x258D JUMP JUMPDEST PUSH2 0x25D4 PUSH2 0x25CC DUP3 PUSH2 0x25AE JUMP JUMPDEST DUP5 DUP5 SLOAD PUSH2 0x2533 JUMP JUMPDEST DUP3 SSTORE POP POP POP POP JUMP JUMPDEST PUSH0 SWAP1 JUMP JUMPDEST PUSH2 0x25E8 PUSH2 0x25DC JUMP JUMPDEST PUSH2 0x25F3 DUP2 DUP5 DUP5 PUSH2 0x25B7 JUMP JUMPDEST POP POP POP JUMP JUMPDEST JUMPDEST DUP2 DUP2 LT ISZERO PUSH2 0x2616 JUMPI PUSH2 0x260B PUSH0 DUP3 PUSH2 0x25E0 JUMP JUMPDEST PUSH1 0x1 DUP2 ADD SWAP1 POP PUSH2 0x25F9 JUMP JUMPDEST POP POP JUMP JUMPDEST PUSH1 0x1F DUP3 GT ISZERO PUSH2 0x265B JUMPI PUSH2 0x262C DUP2 PUSH2 0x2506 JUMP JUMPDEST PUSH2 0x2635 DUP5 PUSH2 0x2518 JUMP JUMPDEST DUP2 ADD PUSH1 0x20 DUP6 LT ISZERO PUSH2 0x2644 JUMPI DUP2 SWAP1 POP JUMPDEST PUSH2 0x2658 PUSH2 0x2650 DUP6 PUSH2 0x2518 JUMP JUMPDEST DUP4 ADD DUP3 PUSH2 0x25F8 JUMP JUMPDEST POP POP JUMPDEST POP POP POP JUMP JUMPDEST PUSH0 DUP3 DUP3 SHR SWAP1 POP SWAP3 SWAP2 POP POP JUMP JUMPDEST PUSH0 PUSH2 0x267B PUSH0 NOT DUP5 PUSH1 0x8 MUL PUSH2 0x2660 JUMP JUMPDEST NOT DUP1 DUP4 AND SWAP2 POP POP SWAP3 SWAP2 POP POP JUMP JUMPDEST PUSH0 PUSH2 0x2693 DUP4 DUP4 PUSH2 0x266C JUMP JUMPDEST SWAP2 POP DUP3 PUSH1 0x2 MUL DUP3 OR SWAP1 POP SWAP3 SWAP2 POP POP JUMP JUMPDEST PUSH2 0x26AC DUP3 PUSH2 0x1E64 JUMP JUMPDEST PUSH8 0xFFFFFFFFFFFFFFFF DUP2 GT ISZERO PUSH2 0x26C5 JUMPI PUSH2 0x26C4 PUSH2 0x2049 JUMP JUMPDEST JUMPDEST PUSH2 0x26CF DUP3 SLOAD PUSH2 0x240E JUMP JUMPDEST PUSH2 0x26DA DUP3 DUP3 DUP6 PUSH2 0x261A JUMP JUMPDEST PUSH0 PUSH1 0x20 SWAP1 POP PUSH1 0x1F DUP4 GT PUSH1 0x1 DUP2 EQ PUSH2 0x270B JUMPI PUSH0 DUP5 ISZERO PUSH2 0x26F9 JUMPI DUP3 DUP8 ADD MLOAD SWAP1 POP JUMPDEST PUSH2 0x2703 DUP6 DUP3 PUSH2 0x2688 JUMP JUMPDEST DUP7 SSTORE POP PUSH2 0x276A JUMP JUMPDEST PUSH1 0x1F NOT DUP5 AND PUSH2 0x2719 DUP7 PUSH2 0x2506 JUMP JUMPDEST PUSH0 JUMPDEST DUP3 DUP2 LT ISZERO PUSH2 0x2740 JUMPI DUP5 DUP10 ADD MLOAD DUP3 SSTORE PUSH1 0x1 DUP3 ADD SWAP2 POP PUSH1 0x20 DUP6 ADD SWAP5 POP PUSH1 0x20 DUP2 ADD SWAP1 POP PUSH2 0x271B JUMP JUMPDEST DUP7 DUP4 LT ISZERO PUSH2 0x275D JUMPI DUP5 DUP10 ADD MLOAD PUSH2 0x2759 PUSH1 0x1F DUP10 AND DUP3 PUSH2 0x266C JUMP JUMPDEST DUP4 SSTORE POP JUMPDEST PUSH1 0x1 PUSH1 0x2 DUP9 MUL ADD DUP9 SSTORE POP POP POP JUMPDEST POP POP POP POP POP POP JUMP JUMPDEST PUSH0 PUSH2 0x277C DUP3 PUSH2 0x1E64 JUMP JUMPDEST PUSH2 0x2786 DUP2 DUP6 PUSH2 0x2225 JUMP JUMPDEST SWAP4 POP PUSH2 0x2796 DUP2 DUP6 PUSH1 0x20 DUP7 ADD PUSH2 0x1E7E JUMP JUMPDEST PUSH2 0x279F DUP2 PUSH2 0x1E8C JUMP JUMPDEST DUP5 ADD SWAP2 POP POP SWAP3 SWAP2 POP POP JUMP JUMPDEST PUSH0 PUSH1 0x20 DUP3 ADD SWAP1 POP DUP2 DUP2 SUB PUSH0 DUP4 ADD MSTORE PUSH2 0x27C2 DUP2 DUP5 PUSH2 0x2772 JUMP JUMPDEST SWAP1 POP SWAP3 SWAP2 POP POP JUMP JUMPDEST PUSH32 0x4D7573696320697320616C7265616479206C696B656400000000000000000000 PUSH0 DUP3 ADD MSTORE POP JUMP JUMPDEST PUSH0 PUSH2 0x27FE PUSH1 0x16 DUP4 PUSH2 0x2225 JUMP JUMPDEST SWAP2 POP PUSH2 0x2809 DUP3 PUSH2 0x27CA JUMP JUMPDEST PUSH1 0x20 DUP3 ADD SWAP1 POP SWAP2 SWAP1 POP JUMP JUMPDEST PUSH0 PUSH1 0x20 DUP3 ADD SWAP1 POP DUP2 DUP2 SUB PUSH0 DUP4 ADD MSTORE PUSH2 0x282B DUP2 PUSH2 0x27F2 JUMP JUMPDEST SWAP1 POP SWAP2 SWAP1 POP JUMP JUMPDEST PUSH32 0x4D75736963206973206E6F74206C696B65640000000000000000000000000000 PUSH0 DUP3 ADD MSTORE POP JUMP JUMPDEST PUSH0 PUSH2 0x2866 PUSH1 0x12 DUP4 PUSH2 0x2225 JUMP JUMPDEST SWAP2 POP PUSH2 0x2871 DUP3 PUSH2 0x2832 JUMP JUMPDEST PUSH1 0x20 DUP3 ADD SWAP1 POP SWAP2 SWAP1 POP JUMP JUMPDEST PUSH0 PUSH1 0x20 DUP3 ADD SWAP1 POP DUP2 DUP2 SUB PUSH0 DUP4 ADD MSTORE PUSH2 0x2893 DUP2 PUSH2 0x285A JUMP JUMPDEST SWAP1 POP SWAP2 SWAP1 POP JUMP JUMPDEST PUSH0 PUSH2 0x28A4 DUP3 PUSH2 0x1D67 JUMP JUMPDEST SWAP2 POP PUSH0 DUP3 SUB PUSH2 0x28B6 JUMPI PUSH2 0x28B5 PUSH2 0x236D JUMP JUMPDEST JUMPDEST PUSH1 0x1 DUP3 SUB SWAP1 POP SWAP2 SWAP1 POP JUMP JUMPDEST PUSH32 0x4E487B7100000000000000000000000000000000000000000000000000000000 PUSH0 MSTORE PUSH1 0x31 PUSH1 0x4 MSTORE PUSH1 0x24 PUSH0 REVERT INVALID LOG2 PUSH5 0x6970667358 0x22 SLT KECCAK256 SELFBALANCE SWAP10 0xB6 PUSH21 0xA992414CD5E182413F2203C467E2363E9E143A20B7 CODECOPY PUSH20 0x8C83FA716464736F6C634300081A003300000000 "
				},
				"gasEstimates": {
					"creation": {
						"codeDepositCost": "2106400",
						"executionCost": "24347",
						"totalCost": "2130747"
					},
					"external": {
						"buyMusic(uint256)": "infinite",
						"getAllMusic()": "infinite",
						"getLikedMusicByUser()": "infinite",
						"getMyBoughtMusics()": "infinite",
						"getMyMusics()": "infinite",
						"getTotalLikes(uint256)": "infinite",
						"likeMusic(uint256)": "infinite",
						"unlikeMusic(uint256)": "infinite",
						"uploadMusic(string,string,string,uint256)": "infinite"
					}
				},
				"methodIdentifiers": {
					"buyMusic(uint256)": "2538c533",
					"getAllMusic()": "4a4b6656",
					"getLikedMusicByUser()": "cc7414d0",
					"getMyBoughtMusics()": "d054b9ef",
					"getMyMusics()": "3e45ff47",
					"getTotalLikes(uint256)": "0feb80e6",
					"likeMusic(uint256)": "6b792d5b",
					"unlikeMusic(uint256)": "75c6e6f5",
					"uploadMusic(string,string,string,uint256)": "6ac028be"
				}
			},
			"storageLayout": {
				"storage": [
					{
						"astId": 23,
						"contract": "demo_try4.sol:Echochain",
						"label": "musicTokens",
						"offset": 0,
						"slot": "0",
						"type": "t_mapping(t_uint256,t_struct(MusicToken)18_storage)"
					},
					{
						"astId": 26,
						"contract": "demo_try4.sol:Echochain",
						"label": "nextTokenId",
						"offset": 0,
						"slot": "1",
						"type": "t_uint256"
					},
					{
						"astId": 31,
						"contract": "demo_try4.sol:Echochain",
						"label": "likedMusic",
						"offset": 0,
						"slot": "2",
						"type": "t_mapping(t_address,t_array(t_uint256)dyn_storage)"
					},
					{
						"astId": 35,
						"contract": "demo_try4.sol:Echochain",
						"label": "totalLikes",
						"offset": 0,
						"slot": "3",
						"type": "t_mapping(t_uint256,t_uint256)"
					}
				],
				"types": {
					"t_address": {
						"encoding": "inplace",
						"label": "address",
						"numberOfBytes": "20"
					},
					"t_address_payable": {
						"encoding": "inplace",
						"label": "address payable",
						"numberOfBytes": "20"
					},
					"t_array(t_uint256)dyn_storage": {
						"base": "t_uint256",
						"encoding": "dynamic_array",
						"label": "uint256[]",
						"numberOfBytes": "32"
					},
					"t_mapping(t_address,t_array(t_uint256)dyn_storage)": {
						"encoding": "mapping",
						"key": "t_address",
						"label": "mapping(address => uint256[])",
						"numberOfBytes": "32",
						"value": "t_array(t_uint256)dyn_storage"
					},
					"t_mapping(t_uint256,t_struct(MusicToken)18_storage)": {
						"encoding": "mapping",
						"key": "t_uint256",
						"label": "mapping(uint256 => struct Echochain.MusicToken)",
						"numberOfBytes": "32",
						"value": "t_struct(MusicToken)18_storage"
					},
					"t_mapping(t_uint256,t_uint256)": {
						"encoding": "mapping",
						"key": "t_uint256",
						"label": "mapping(uint256 => uint256)",
						"numberOfBytes": "32",
						"value": "t_uint256"
					},
					"t_string_storage": {
						"encoding": "bytes",
						"label": "string",
						"numberOfBytes": "32"
					},
					"t_struct(MusicToken)18_storage": {
						"encoding": "inplace",
						"label": "struct Echochain.MusicToken",
						"members": [
							{
								"astId": 3,
								"contract": "demo_try4.sol:Echochain",
								"label": "tokenId",
								"offset": 0,
								"slot": "0",
								"type": "t_uint256"
							},
							{
								"astId": 5,
								"contract": "demo_try4.sol:Echochain",
								"label": "owner",
								"offset": 0,
								"slot": "1",
								"type": "t_address_payable"
							},
							{
								"astId": 7,
								"contract": "demo_try4.sol:Echochain",
								"label": "author",
								"offset": 0,
								"slot": "2",
								"type": "t_address_payable"
							},
							{
								"astId": 9,
								"contract": "demo_try4.sol:Echochain",
								"label": "price",
								"offset": 0,
								"slot": "3",
								"type": "t_uint256"
							},
							{
								"astId": 11,
								"contract": "demo_try4.sol:Echochain",
								"label": "likes",
								"offset": 0,
								"slot": "4",
								"type": "t_uint256"
							},
							{
								"astId": 13,
								"contract": "demo_try4.sol:Echochain",
								"label": "musicName",
								"offset": 0,
								"slot": "5",
								"type": "t_string_storage"
							},
							{
								"astId": 15,
								"contract": "demo_try4.sol:Echochain",
								"label": "imageCID",
								"offset": 0,
								"slot": "6",
								"type": "t_string_storage"
							},
							{
								"astId": 17,
								"contract": "demo_try4.sol:Echochain",
								"label": "audioCID",
								"offset": 0,
								"slot": "7",
								"type": "t_string_storage"
							}
						],
						"numberOfBytes": "256"
					},
					"t_uint256": {
						"encoding": "inplace",
						"label": "uint256",
						"numberOfBytes": "32"
					}
				}
			},
			"userdoc": {
				"kind": "user",
				"methods": {},
				"version": 1
			}
		}
	}
}